:1000000000000120652200008D2200008F220000E8
:1000100091220000932200009522000000000000C1
:100020000000000000000000000000009722000017
:1000300099220000000000009B2200009D22000089
:10004000ED290000E5120000ED300000A1220000C3
:100050009F2200009F2200009F220000B92C000078
:100060009F2200009F2200009F220000B52B00006D
:100070009F2200009F2200009F2200009F2200007C
:100080009F2200009F2200009F2200009F2200006C
:10009000C91500009F2200009F2200009F2200003F
:1000A0009F2200009F220000A91B00009F22000049
:1000B0009F2200009F2200000000000000000000BE
:1000C0009F2200009F2200009F2200009F2200002C
:1000D0009F2200009F2200009F22000000000000DD
:1000E0000000000000000000000000000000000010
:1000F0000000000000000000000000000000000000
:1001000000000000000000000000000000000000EF
:1001100000000000000000000000000000000000DF
:1001200000000000000000000000000000000000CF
:1001300000000000000000000000000000000000BF
:1001400000000000000000000000000000000000AF
:10015000000000000000000000000000000000009F
:10016000000000000000000000000000000000008F
:10017000000000000000000000000000000000007F
:10018000000000000000000000000000000000006F
:10019000000000000000000000000000000000005F
:1001A000000000000000000000000000000000004F
:1001B000000000000000000000000000000000003F
:1001C000000000000000000000000000000000002F
:1001D000000000000000000000000000000000001F
:1001E000000000000000000000000000000000000F
:1001F00000000000000000000000000000000000FF
:1002000010B5054C237833B9044B13B10448AFF350
:1002100000800123237010BDFC04002000000000BA
:100220000C3E00000C4B43B10C480D4910B5AFF328
:1002300000800C48036823B910BD0A48036833B92D
:100240007047094B002BF7D0BDE810401847064B0C
:10025000002BF5D0184700BF000000000C3E000046
:1002600000050020F804002000000000154B002BC2
:1002700008BF134B9D46A3F5803A00218B460F46DD
:100280001348144A121A03F033F80F4B002B00D016
:1002900098470E4B002B00D0984700200021040007
:1002A0000D000D48002802D00C4803F0EDF802F0D4
:1002B0005DFF2000290000F07FF802F047FF00BF3B
:1002C0000000080000000120000000000000000005
:1002D000FC0400206C2600208934000095340000C6
:1002E000704700BF38B5054D044645F001054FF491
:1002F0007A40A847013CFAD138BD00BF903D0000CC
:1003000030B587B000F01CF900F096F94FF0A0432B
:10031000002203200821C3F80C07C3F80C15C3F80A
:100320002C27C3F83027D3F81045D3F81035204DCB
:10033000DA04C4F3C02448BF013405AA04A90DF1AE
:100340000E0000F0B3FBBDF80E3005990498009440
:10035000002200F09FFA00F013FA00F059FC052487
:1003600045F001054FF47A40A847013CFAD1114C01
:100370002368DB0714D500F04BFA00F001FA4FF0C8
:10038000A04308210222C3F80C15C3F80C272368E8
:100390000133236000F03AF900F0DCF807B030BD1B
:1003A00000F052FB00F0D2FA00F0EAF9E7E700BFF4
:1003B000903D0000180500202DE9F043444B454ACC
:1003C0001B6803F04F0383B0136000F067FE002842
:1003D0007BD100234FF0A040022103F5E0720133EE
:1003E000202B40F82210F8D100F09AF800F0F8FA2B
:1003F0000021394800F066F9002863D1374800F041
:10040000E5F8032000F0FEF900F0C2F900F0B8F9B9
:10041000324800F08FFD02AE00F00AFC00F086FBCF
:1004200000F0E6FB6420FFF75DFF002326F8023DA5
:10043000304600F0B5FBBDF80600E8B1284D4FF09E
:10044000A04745F001054FF003094FF0040800F004
:100450007DFA962400F094F9C7F80897C7F80C8540
:100460004FF47A40A847013CFAD1304600F098FB9F
:10047000BDF806000028EAD14FF0A0440323C4F8D9
:1004800010374FF49670FFF72DFF1023C4F80C358A
:100490004FF4FA70FFF726FF002000F05FFB00F03A
:1004A000B7FB104800F058F800F0B0F800F052F830
:1004B0000223C4F80837C4F80C37C4F8103700F02A
:1004C00003FEFCE700F0A4FD98E700F0A1FD80E743
:1004D00058020010E40E0040E1020000983D0000C8
:1004E000903D00000103000000B1704730B4084B9C
:1004F000084C094A094901254FF480302560C3F8AA
:100500000403137809682B44137030BC084700BFFC
:1005100000B0004008B00040000000201C05002092
:1005200008B501F019FC38B9002001F067FC01F0B2
:10053000A7FC0028FBD008BD00F06AFDF4E700BF6F
:1005400008B5002001F05AFC01F09AFC0028FBD00D
:1005500008BD00BF01F080BC10B5184B82B0186018
:10056000002001F015FC01F041FC0028FBD0144BE9
:10057000144A93E8030002AB40F2FF74009023F8A2
:10058000084DADF804101048194602F05FFA90B912
:1005900000210D4802F0F8FA01234FF49652002191
:1005A000094802F0A7FA08B100F032FD064802F04F
:1005B00095FA02B010BD00F02BFDE9E71C05002004
:1005C000A83D0000E9040000B03D0000F0B585B092
:1005D00000231A250C4C009519274FF0CC760225E4
:1005E00069461A4603932060019702968DF80C50D5
:1005F00001F014FB08B100F00BFD2068043001F09D
:10060000E7FF05B0F0BD00BF2005002010B5084C85
:100610002068043001F0ECFF2068043001F082FF14
:10062000044B00221A60012219681A6010BD00BF35
:1006300020050020FC3F0040F0B50F4C85B00025A0
:1006400003952B462A464FF01A0E19274FF0CC7609
:1006500002252068CDF800E06946019702968DF8E2
:100660000C5001F0DBFA08B100F0D2FC2068043035
:1006700001F0AEFF05B0F0BD2005002010B50478F4
:10068000012C12D00AD3022C0C4B02D101221A7079
:1006900010BD01221A7001221A7010BD084A074BC2
:1006A0000121117001221A7010BD01F06BF8044A8B
:1006B000024B147001221A7010BD00BF24050020E7
:1006C00025050020F0B5274A274D1468274B284EF2
:1006D00085B00746009402F108048E4694E80300B2
:1006E00052682F6002AC032584E80300214FC6F84E
:1006F00000E00021022601921D7201220825184601
:100700005F605E72D98159701A751A70DD7400F0DD
:1007100013FE08B105B0F0BD684601F049F80028A5
:10072000F8D101A801F0EAF80028F3D120462946C3
:1007300001F0AAF90028EDD1322001F021FA0028B9
:10074000E8D10D4A0D4E10704FF080414FF00F145C
:10075000D1F800341571234050713360C1F8004462
:10076000D8E700BFB83D000030050020040000209D
:100770002C0500207D0600001C0000203405002010
:10078000024A1378002BFCD0704700BF24050020DC
:10079000F0B5184A184B12681878184C110E00233F
:1007A00061F30703110C83B061F30F23110A61F3A6
:1007B000174302A962F31F6341F8043D4FF0560E40
:1007C00040F08003002501270926042204F10A00D5
:1007D000A37184F809E0A77027722570E57126716E
:1007E000667102F0EBFC064B20461D7000F02AFFFC
:1007F00003B0F0BD34050020010000201C000020E3
:1008000024050020014B1870704700BF0100002034
:10081000F0B51B4D1B4B2A6819781B481B4C160E54
:10082000002366F30703160C66F30F23160A83B042
:1008300066F3174362F31F630093D0F80C358DF80D
:10084000043041F080025621012300260A27A271BC
:1008500061720522694604F10A00A370E3712372F4
:1008600026702771677102F0A9FC094B20461E70A3
:1008700000F0E8FE2868431C2B6003B0F0BD00BF09
:100880002805002001000020001000401C0000206E
:1008900024050020F0B52A4D2A4C2D7887B045F06C
:1008A00080059DF830608DF81460A571061605145A
:1008B0004FF0B40E56278DF807008DF80B108DF809
:1008C0000F2084F807E067724FEA116E8DF804601C
:1008D0000F0C8DF80550160E150C0012090A120A9D
:1008E0004FEA136C8DF813308DF806008DF808E090
:1008F0008DF809704FEA134E8DF80A101B0A8DF817
:100900000C6001278DF80D508DF80E20002516265D
:10091000112201A904F10A008DF810C08DF811E030
:100920008DF81230A770277225702671667102F05B
:1009300045FC054B20461D7000F084FE07B0F0BD5D
:10094000010000201C00002024050020F0B5134BFE
:10095000134C1B7883B00246022643F080035621D5
:100960004FEA102E01278DF8052000253246A3718D
:100970006172072301A904F10A008DF804E02371D4
:100980006371A77027722570E67102F017FC054BA2
:1009900020461D7000F056FE03B0F0BD010000209F
:1009A0001C00002024050020037883B943680A4A0C
:1009B000B3F9003003EB8303C3EB0313DB0048BF41
:1009C00003F2FF339B1203EB43035B001380034BE3
:1009D00001221A70704700BFA40000203A050020D1
:1009E00000B51449144885B002F048FAF8B9134B21
:1009F00093E8070001AB03C301A900201A7002F0BD
:100A00008BFA08B100F004FB0D4B0E4800220121C7
:100A10001A7002F0EBFA38B902F048FB08B100F0A6
:100A2000F7FA05B05DF804FB00F0F2FAF4E700F025
:100A3000EFFADCE7A9090000D43D0000C83D000042
:100A40003A0500203805002038B5154C237803B945
:100A5000FEE7144B188802F0F1FE0FA3D3E9002340
:100A600002F052FF03F062F985B202F037FB034651
:100A700008B1284638BD01210B48237002F0B6FAB0
:100A800038B902F013FB0028F3D000F0C1FA284671
:100A900038BD00F0BDFAF4E7CDCCCCCCCCCCF43FE3
:100AA0003A050020A400002038050020F0B585B0EC
:100AB00007460E46154600214EF6054201A800F0F5
:100AC000D3F801A90246622000F080F9044610B173
:100AD000204605B0F0BD4FF47A7000F051FA0622BE
:100AE00001A9622000F076F904460028F0D101A89F
:100AF00000F0B4F838800DF1060000F0AFF80746BA
:100B000002A800F0ABF845F2735303FB07F343F27E
:100B1000D4025B1302FB00F0A3F52F43C83B401344
:100B200033602860204605B0F0BD00BF10B582B02C
:100B300043F68672002101A800F096F801A902464A
:100B4000622000F043F9044610B9034800F018FA97
:100B5000204602B010BD00BF20A1070010B582B032
:100B6000044642F21D420021684600F07DF842F63C
:100B7000EF7202FB04F20146C2F3CF32684600F086
:100B80007FF869460246622000F020F9044618B951
:100B90004FF47A7000F0F4F9204602B010BD00BFA7
:100BA00030B583B043F239620021054601A800F058
:100BB0005BF801A90246622000F008F9044610B172
:100BC000204603B030BD094800F0DAF9022201A93D
:100BD000622000F0FFF804460028F1D101A800F0DF
:100BE0003DF82880204603B030BD00BF80969800B5
:100BF00000B583B001A843F24662002100F034F84A
:100C000001A90246622000F0E1F803B05DF804FBA0
:100C100000B583B001A842F29D12002100F024F833
:100C200001A90246622000F0D1F803B05DF804FB90
:100C300000B583B001A843F2F662002100F014F879
:100C400001A90246622000F0C1F844F6206000F0DD
:100C500097F9002003B05DF804FB00BF02784078EC
:100C600040EA0220704700BF30B44B1C04469BB2E0
:100C7000150A6554E254881C80B230BC704700BF2E
:100C8000F0B44B1C05469BB28C1C100AA4B26854ED
:100C90002E19EA5416F8020C16F8017CC043C0B2B3
:100CA000430010F0800F83F03102DBB2D2B208BFF4
:100CB0001A46530012F0800F83F03100DBB2C0B24D
:100CC00008BF1846420010F0800F82F03106D2B201
:100CD000F6B208BF1646700080F0310216F0800FA1
:100CE000D3B2C2B218BF1A46500080F0310312F0DE
:100CF000800FC0B2DAB208BF0246500012F0800F77
:100D000080F03103C0B2DBB208BF0346580013F0D5
:100D1000800F80F03102C0B2D2B208BF024650004C
:100D200012F0800F80F03103C0B2DBB208BF03467F
:100D30007B40580080F0310213F0800FD3B2C2B272
:100D400018BF1A46530012F0800F83F03100DBB257
:100D5000C0B208BF1846430010F0800F83F0310284
:100D6000DBB2D2B208BF1A46530012F0800F83F0F4
:100D70003100DBB2C0B208BF1846430010F0800F4C
:100D800083F03102DBB2D2B208BF1A46530012F030
:100D9000800F83F03100DBB2C0B208BF18464200BA
:100DA00082F0310310F0800FD8B2D3B218BF0346DF
:100DB0005A0082F0310013F0800FC3B2D2B218BFD4
:100DC0001A462A55033188B2F0BC704708B500F0C6
:100DD000C5F808BD12F0010F01D004207047F8B526
:100DE000540804EB4404A4B222460D4600F0A8F8CF
:100DF00000B2002840F09C80002C00F09980294629
:100E00002A46167892F801E09778F343DBB213F0A4
:100E1000800F4FEA430318BF83F03103DBB213F0B6
:100E2000800F4FEA430318BF83F03103DBB213F0A6
:100E3000800F4FEA430318BF83F03103DBB213F096
:100E4000800F4FEA430318BF83F03103DBB213F086
:100E5000800F4FEA430318BF83F03103DBB213F076
:100E6000800F4FEA430318BF83F03103DBB213F066
:100E7000800F4FEA430318BF83F03103DBB213F056
:100E8000800F4FEA430318BF83F03103DBB283EADC
:100E90000E0313F0800F4FEA430318BF83F03103B2
:100EA000DBB213F0800F4FEA430318BF83F0310326
:100EB000DBB213F0800F4FEA430318BF83F0310316
:100EC000DBB213F0800F4FEA430318BF83F0310306
:100ED000DBB213F0800F4FEA430318BF83F03103F6
:100EE000DBB213F0800F4FEA430318BF83F03103E6
:100EF000DBB213F0800F4FEA430318BF83F03103D6
:100F0000DBB213F0800F4FEA430318BF83F03103C5
:100F1000DBB29F4201D00120F8BD0E7053784B70B8
:100F20000332531B9BB29C4201F102013FF669AFB1
:100F3000F8BD00BF014B1860704700BF3C050020A2
:100F400010B5054B1C68D3B20A460146201D01F0BE
:100F50002FFC40B210BD00BF3C05002030B5074B50
:100F600083B01C680025D3B200950A460146201DB7
:100F700001F05CFB40B203B030BD00BF3C05002077
:100F80002DE9F0474CF24F324FF0A0460323904238
:100F9000C6F808370446C6F80C37C6F810371FD90C
:100FA000194FDFF8689047F0010702254FF001085C
:100FB000D6F8043508FA05F222EA03011340C6F810
:100FC0000815A4F54344C6F80C354846B847503CCC
:100FD000042D4CF24F3314BF013502259C42E7D853
:100FE0004FF0A0430222C3F80827C3F80C27C3F828
:100FF00010270CB9BDE8F087034BA00143F00103B3
:10100000BDE8F047184700BFE03D000000D43000C5
:1010100000B585B000230390194601AA44F20100EF
:101020000193029300F004F805B05DF804FB00BFE3
:1010300072B6094B1B68DB0700D500BEBFF34F8FAC
:101040000649074BCA6802F4E0621343CB60BFF362
:101050004F8F00BFFDE700BFF0ED00E000ED00E0C6
:101060000400FA0572B6024A136801331360704730
:1010700040050020034A1368013B136003B962B6C0
:10108000704700BF4005002001600B6843604A685C
:10109000934204BF00234360704700BF064A074BDA
:1010A00010B5002414701C60BFF35F8F044905481D
:1010B000FFF7EAFF204610BD4C0500205005002038
:1010C000E83D00004405002008B50020FFF7CAFFF6
:1010D000F1EE103A23F09F03E1EE103ABFF35F8F79
:1010E000054B4022C3F884210020FFF7C3FF20BF37
:1010F00040BF20BF08BD00BF00E100E04FF08053BB
:10110000D3F8043103F47F43B3F5844F1DD04FF07F
:101110008053D3F8043103F47F43B3F58A4F01D0F1
:1011200000207047F0B52C4B2C4A5C7CD2F81C1583
:101130002B4BD2F82005052C18BF4FF07F431940E8
:101140000340994212D00020F0BD2449254AD1F82D
:10115000503623F00103C1F85036136823F0807332
:1011600023F0010343F080731360D0E7D2F82435F5
:10117000D2F82415D2F82405D2F82475D2F82845DF
:10118000D2F82855D2F82865D2F828E5DBB2C1F3A9
:101190000722934214D0C0F30740834210D0B3EB30
:1011A000176F0DD0E4B2A3420AD0C5F30725AB42B6
:1011B00006D0C6F30746B34202D0B3EB1E6FC2D1CE
:1011C000084A136823F0807323F0010343F080730F
:1011D00013600020F0BD00BFA800002000100040F8
:1011E0000000FFFF741700402DE9F0413248334BF7
:1011F0000268996A42F001020260002952D05A6ADC
:101200002F4801320224072A01F1FF31996288BF79
:101210000022C0F880405A62294C9A6A0226266051
:10122000002A3FD05A6A274FDFF8B0804FF4801170
:10123000C4F8001153F82210234B0A79C8F80010A3
:101240000125053138461D6001F0B8FF1F4B2049CC
:101250002048DFF88CE040F21312C3F8002210227D
:10126000C3F80423D8F800200D701178C0F800E00E
:10127000C3F82C151278184905FA02F2C97CC3F894
:1012800030250022C3F80815C3F80475C4F880613E
:101290002660C3F80421C3F80821C3F810211D609B
:1012A000BDE8F0810A49064B00204FF48012087017
:1012B000C3F80021BDE8F08174050020B4200020AF
:1012C00000E100E018250020780500200010004013
:1012D0007C050020A4250020A8000020A0250020D7
:1012E000E9110000124BD3F8002132B1D3F80423E6
:1012F000D00744BF0022C3F800210D4BD3F80C21C6
:1013000032B1D3F80423110744BF0022C3F80C21E3
:10131000074BD3F8102152B1D3F80423D20606D5D7
:101320000021044AC3F81011136803B1184770472D
:1013300000100040A425002000283AD0F8B58C4DBC
:101340002B78DBB18B4B8C4F8C4E8D498D4A8E4C5C
:101350004FF4705EC3F808E500233B704FF480172C
:10136000C6F8807003260B624B628B62C2F8C830ED
:10137000C2F8CC30C2F8D030C4F80062834C844B41
:1013800042681A6001461822204601F017FF7E4A83
:10139000237A8048A17A00260660C2F80C15C2F8AC
:1013A0001035042B00F2CB80DFE803F0B2C4C9058E
:1013B000C4000E207047784B49221A600127627AD8
:1013C000012A00F0AE800AD3022A40F0BC806E4BA6
:1013D00072494FF6FF70C3F83C05C3F83815704BDF
:1013E000A689587C684B6F49C3F83425421E41EAF0
:1013F0000242862E4FF00811C3F81415C3F81825C1
:1014000040F29F80002F00F09C80674E5C48674F41
:101410005C4A67494FF0E73EC3F81CE54FF0433E96
:10142000C3F820E5C3F8247506F18707476006F581
:101430008777876006F29517C76006F5077707611B
:1014400006F2A327476106F22A37876106F2B13711
:10145000C761C3F828150027564B5749C2F8C87012
:10146000C2F8CC70C2F8D07006600762476287622B
:10147000043A42F8043F87338B42FAD1607C4F49EB
:10148000A27C3C4B3D4E3C4F4FF0040EC1F810E5A2
:10149000440140F2022E0020C1F80805C1F800E224
:1014A000DFF820E1C3F860E5C3F86415A1F50E414B
:1014B000FC39C3F8681501F50F41C3F86C1501F547
:1014C0009E71C3F87015A1F511413039C3F8741538
:1014D00001F511413431C3F8781552012A49C3F896
:1014E0007C15E4B2D2B24FF4801E01214FF080533C
:1014F00086F8014386F81423C6F800E03870297096
:10150000D3F8043103F47F43B3F58A4F2AD0F8BDF2
:10151000214B40221A60627A012A4FF001077FF4C2
:1015200052AF194BFF2040F20711C3F83C05C3F836
:10153000381554E7184B30221A6001273FE700277F
:101540003DE70720F8BD164A164B527C0E49013A7A
:1015500043EA02434FF00812C1F81425C1F81835C8
:101560000720F8BD164A136843F480631360F8BD82
:101570006C05002000F001407C05002000E100E047
:10158000B4200020800500200010004054050020F9
:1015900070050020740500209C250020211001000A
:1015A000A800002082000001E0200020E743C323C0
:1015B000A363E31354060020B220002000A00040E3
:1015C0003C1700400011004070B5194B194A1B78B8
:1015D000126882B001928BB1174B1849184D022244
:1015E000C3F8802000260C680E601A602B682BB1AF
:1015F000E10716D4A2070BD4630701D402B070BD73
:1016000002A8022300F8083D2B68984702B070BD7D
:1016100002A8012300F8083D2B6898476307EDD521
:10162000EEE702A800F8086D9847A207E4D5EFE7B7
:101630006C0500207805002000E100E07405002022
:1016400070050020434B1B780BB908207047C0B1D0
:101650000279531EDBB2812B01D9092070472DE995
:10166000F0473D4C23782BB9E37C934202D209200A
:10167000BDE8F087394DAB6A072B04D90420BDE8DB
:10168000F0870E2070470378072B02D90720BDE8AA
:10169000F087334A2B6A324E01460220C2F880009E
:1016A00055F82300872201F089FD2B6A207C013345
:1016B000072B88BF00232B62AB6A02270133AB6282
:1016C000376030B9DFF8A89099F800401CB1BDE848
:1016D000F0870020FBE76B6ADFF8988055F823104D
:1016E000DFF894A01F4B0A79CAF8001001250531D4
:1016F00040461D6001F062FD1B4BDFF880E0DFF823
:1017000080C01A4940F21312C3F800221022C3F815
:101710000423DAF8002089F800501078CEF800C0D1
:10172000C3F82C051278C97C05FA02F2C3F83025FB
:10173000C3F80815C3F80485C6F880713760C3F88C
:101740000441C3F80841C3F810411D602046BDE8BC
:10175000F08700BF6C05002054050020B420002055
:1017600000E100E07805002000100040A800002003
:101770007C05002018250020A0250020A42500209D
:10178000E9110000074B1B780BB908207047064B86
:10179000064A00200221C2F8801098621160186287
:1017A000586270476C050020B420002000E100E082
:1017B000F8B54D4B1B780BB11120F8BD002800F097
:1017C00090804FF08053494CD3F8043103F47F43A9
:1017D000B3F5844F1ED001460422444801F0EEFCCC
:1017E000236893FAA3F3424A4FF08051C2F81C35A4
:1017F000D1F8043103F47F43B3F5844F61D04FF047
:101800008053D3F8043103F47F43B3F58A4F14D0E7
:101810000020F8BD617C374A0368052918BF4FF0E6
:101820007F4293FAA3F31A42D5D1314BD3F8243532
:1018300013F0FF0FCFD10720F8BD2D4A647C2D4B4C
:10184000D2F81C15D2F82005052C18BF4FF07F43A5
:10185000194003409942DBD1D2F82435D2F824153F
:10186000D2F82405D2F82475D2F82845D2F82855A4
:10187000D2F82865D2F828E5DBB2C1F307229342FB
:1018800014D0C0F30740834210D0B3EB176F0DD0D4
:10189000E4B2A3420AD0C5F30725AB4206D0C6F393
:1018A0000746B34202D0B3EB1E6FB1D1124A1368A0
:1018B00023F0807323F0010343F080731360002052
:1018C000F8BDD2F850360C4923F00103C2F8503667
:1018D0000B6823F0807323F0010343F080730B60E7
:1018E0008DE70E20F8BD00BF7C050020A800002079
:1018F000001000400000FFFF74170040F8B55C4B7B
:101900001B780BB11120F8BD00283BD04FF080535D
:10191000584CD3F8043103F47F43B3F5844F1ED001
:1019200001460422544801F049FC636893FAA3F38A
:10193000524A4FF08051C2F82035D1F8043103F4F7
:101940007F43B3F5844F63D04FF08053D3F8043115
:1019500003F47F43B3F58A4F16D00020F8BD617CB5
:10196000474A0368052918BF4FF07F4293FAA3F353
:101970001A42D5D1414BD3F8242512F47F4F57D1C9
:101980000720F8BD0E20F8BD3C4A647C3C4BD2F8E1
:101990001C15D2F82005052C18BF4FF07F431940C5
:1019A00003409942D9D1D2F82435D2F82415D2F87F
:1019B0002405D2F82475D2F82845D2F82855D2F853
:1019C0002865D2F828E5DBB2C1F30722934214D090
:1019D000C0F30740834210D0B3EB176F0DD0E4B2D1
:1019E000A3420AD0C5F30725AB4206D0C6F307468B
:1019F000B34202D0B3EB1E6FAFD1224A136823F07B
:101A0000807323F0010343F0807313600020F8BD5E
:101A1000D2F850361B4923F00103C2F850360B6848
:101A200023F0807323F0010343F080730B608BE796
:101A3000D3F8242512F47F0FA2D0D3F8242512F076
:101A40007F4F9DD0D3F8282512F07F4F98D0D3F840
:101A5000282512F47F0F93D0D3F8282512F47F4F56
:101A60008ED0D3F8283513F0FF0F89D058E700BF88
:101A70007C050020A8000020AC00002000100040E1
:101A80000000FFFF7417004038B5384B1B780BB1CE
:101A9000112038BD50B3082901D9072038BD4FF0B7
:101AA0008053334DD3F8043103F47F43B3F5844FAF
:101AB0001ED00C46224601462E4801F07FFBC4F1A1
:101AC0000802FF231341AB742C74AB6893FAA3F3A1
:101AD000294A1BBAC2F82435EB6893FAA3F31BBA60
:101AE000C2F82835BDE83840FFF708BB0E2038BDE6
:101AF0006A7C224B052A18BF4FF07F43002930D063
:101B00001D4AD2F81C25134202D10278002AC4D003
:101B1000194AD2F820251342CBD10129C9D04378E4
:101B2000002BBAD00229C4D08378002BB5D003296A
:101B3000BFD0C378002BB0D00429BAD00379002BD2
:101B4000ABD00529B5D04379002BA6D00629B0D05B
:101B50008379002BA1D00829ABD1C379002BA8D160
:101B60009BE7054BD3F82035A3E700BF7C05002099
:101B7000A8000020B0000020001000400000FFFF7F
:101B8000074B1B7813B1112318467047642802D9FC
:101B9000072318467047034AD0741846704700BFA1
:101BA0007C050020A8000020074BD3F8402132B16B
:101BB0000021064AC3F840111378032B00D0704768
:101BC000034B01221A61704700A001407C050020F0
:101BD00000100040F0B585B0057804790D4A0E4B31
:101BE000477986688DF800508DF80440C56804690F
:101BF0004069039053F821308DF805708DF8066028
:101C00008DF80750029452F821106846984705B0A5
:101C1000F0BD00BFA8250020B02500202DE9F04F21
:101C2000824690F80090384D384845F829300C46E7
:101C3000497B40F8292081B0934669B9344ABBF109
:101C4000000F4B4621460AF1040008BF002201B0F4
:101C5000BDE8F04F00F0E2BB23682E4A4FF0A045EC
:101C600003F5E07340F20C6145F82310636803F557
:101C7000E073012745F82310236807FA03F3C5F83A
:101C80000835636807FA03F3C5F80835236803F5D8
:101C9000E07340F20D6145F82310636803F5E073CB
:101CA00042EA070845F823104FF48070C047002629
:101CB0006268D5F81035D340DB074FF4807020D42C
:101CC000236807FA03F3C5F80C35C047236807FA01
:101CD00003F30136C5F808354FF48070C047092E6C
:101CE000E6D1626801254FF0A04605FA02F2C6F877
:101CF0000C254FF48070C04763689D40C6F80855B6
:101D00009CE7002EEED199E7A8250020B025002001
:101D1000D51B0000003E000010B568B101280AD1B3
:101D20000C4C2369A07033B10CCB01202261984781
:101D30002369002BF8D110BD064CA3680122627004
:101D4000002BF8D00CCB0020A2609847A368002B92
:101D5000F8D110BDB825002010B50B4C237882B007
:101D600013B1852002B010BD08486360A3602361F1
:101D7000E36000F0C3FD019000F0CEFD0198012367
:101D8000237002B010BD00BFB8250020191D00004F
:101D900038B5154DAB78044673B110B143680120D6
:101DA00098470020FFF75EF9EB680133EB600020F5
:101DB000BDE83840FFF75EB903F0FF00FFF752F9C6
:101DC00064B12A6942B1944208D0134601E09C42B2
:101DD00004D01B68002BFAD122602C61EB68002B29
:101DE000E2D100F0ADFDDFE7B82500204FF08043E1
:101DF000D3F81804C0F30040704700BF38B5154D44
:101E00006B78044673B110B14368002098470020F6
:101E1000FFF728F96B6801336B600020BDE838409C
:101E2000FFF728B903F0FF00FFF71CF964B1AA68B7
:101E300042B1944208D0134601E09C4204D01B6892
:101E4000002BFAD12260AC606B68002BE2D100F06D
:101E5000A7FDDFE7B825002038B5084C0020FFF7C4
:101E600001F96368013B6360656815B900F0AAFD7C
:101E700065700020BDE83840FFF7FCB8B8250020A9
:101E80004FF08043D3F80C0400F00110A0F10110D2
:101E9000B0FA80F040097047F0B4B44B1A78062AC3
:101EA00020D0B34B1B68062B00F08A80B14AD2F8D1
:101EB000883043F47003C2F88830BFF34F8FBFF30C
:101EC0006F8F4FF01023D3F80022002AC0F28A81CE
:101ED000D3F80432002BC0F28581A74BA74A1A60C1
:101EE000F0BC704704331B681807DAD1A44B1B6899
:101EF00003F0F002302A00F0658103F0E003402B8C
:101F000000F060819E4B1B6803F0F003302B00F063
:101F10001E819B4B1B6803F0F002302A00F0078102
:101F200003F0E003402B00F00281954B1B6803F0A7
:101F3000F003302B00F0EB80914B1B6803F0F002B4
:101F4000302A00F0D08003F0E003402B00F0CB807B
:101F50008B4B1B6803F0F003302B00F0B680884BEE
:101F60001B6803F0F003302B00F09880844B1B6853
:101F700003F0F003502B3FD0814B1B6803F0F002BD
:101F8000302A28D003F0E003402B24D07C4B1B6880
:101F900003F0F002302A03D003F0E003402B80D19D
:101FA0004FF08043D3F80024D2077FF57AAF6FF06B
:101FB0000102C3F800246E4B1B68062B7FF476AF3A
:101FC000704B1B68062B7FF471AF6F4A136843F4A4
:101FD000806313606AE76D4B6D4A1B6803F04F0323
:101FE0001360624B1B78062B7FF45BAF694B1B6859
:101FF00018077FF456AFC9E74FF08052664BD2F80E
:102000000414C3F82015D2F80814C3F82415D2F824
:102010000C14C3F82815D2F81014C3F82C15D2F8F4
:102020001414C3F83015D2F81814C3F83415D2F8C4
:102030001C14C3F84015D2F82014C3F84415D2F884
:102040002414C3F84815D2F82814C3F84C15D2F854
:102050002C14C3F85015D2F83014C3F85415D2F824
:102060003414C3F86015D2F83814C3F86415D2F8E4
:102070003C14C3F86815D2F840143C48C3F86C15FA
:10208000D2F844140278C3F87015062A7FF409AF19
:10209000404B1B681C077FF404AF6DE73F4E404C7C
:1020A0004049414B0527012500203F22376025602C
:1020B00008601A602D4B1B78062B7FF4F2AE354B6F
:1020C0001B681D077FF4EDAE50E7284B374A1B789D
:1020D0000321062B11607FF4E4AE2E4B1B681E0714
:1020E0007FF4DFAE3BE74FF080430022C3F80C21C2
:1020F000C3F81021C3F838251C4B1B78062B7FF43E
:1021000070AF244B1B681F077FF4CBAE20E7284934
:10211000164ACB68127823F08073062ACB607FF4CE
:10212000C0AE1C4B1B681B077FF4BBAE04E7214B02
:102130000E4A1B6812782049C3F34233062A0B600B
:10214000B8D1144B1B681A077FF4ABAEEDE6074B12
:102150001A4A1B781A491160062B7FF4A2AE0D4B68
:102160001B6819077FF49DAED3E600BFE00F00F0B7
:102170003001001000ED00E0BC0000200090D00312
:10218000E80F00F0340100103C1700405802001026
:10219000E40E0040E40F00F000C000401056004084
:1021A000885600401856004014560040A0050040D4
:1021B000F0ED00E0440200103C05004074C0074010
:1021C0000DF0ADBA204B214A1B6812782049C3F3A9
:1021D0000423062A0B608FD11E4B1B6819073FF49E
:1021E00091AE5EE61C4B0122C3F80425D3F800240F
:1021F000002AFBD04FF0102315221749C3F8002204
:10220000D1F80034002BFBD04FF010221521124BD7
:10221000C2F80412D3F80024002AFBD000220E4991
:10222000C3F80425D1F80034002BFBD0BFF34F8F47
:102230000A490B4BCA6802F4E0621343CB60BFF358
:102240004F8F00BFFDE700BF24030010E00F00F038
:1022500040350140E40F00F000E0014000ED00E0F7
:102260000400FA050649074A074B9B1A03DD043BA5
:10227000C858D050FBDCFFF70FFEFDF7F7FF00005A
:10228000183E000000000020FC040020FEE7FEE7EE
:10229000FEE7FEE7FEE7FEE7FEE7FEE7FEE7FEE716
:1022A000F0B55B4BD3F824218DB0BAB10022C3F84E
:1022B0002421D3F824210592059AD3F804216AB980
:1022C000544A02219068C3F8080391609268C3F8E9
:1022D000042301221A625A610DB0F0BD4C4C4D4DE1
:1022E000D4F80431002B2FD00023C4F8043105F1B9
:1022F0000C070FCF07AED4F804E13F68CDF810E02B
:102300000FC695F82E30049A3760002B36D02B7B01
:10231000012B79D0D4F84C250892022B71D03C4B7C
:10232000D3F84C253A4B09920022C3F86021D3F828
:10233000601102910299C3F85C21D3F85C310393D8
:10234000039B95F8302028E0C4F84831D4F84821A0
:102350002B7B0192019A002B3AD105F10C070FCF8C
:1023600007AE0FC695F830203B683360EAB92A4BB8
:10237000C4F80022AA60C4F8083316E0C4F860313B
:10238000D4F860210292029AC4F85C31D4F85C312E
:1023900095F830200393039B3AB91D4B1E4800214A
:1023A000C3F80012A960C3F808031949D1F8C4346E
:1023B000C1F8C43499071DD501238DF818300AB926
:1023C00085F82F202B68696806A898470DB0F0BDE6
:1023D0004FF4007140F202220F4BC4F80012AA60C1
:1023E000C4F80833AB68C4F804330123A360236244
:1023F0000DB0F0BD13F0040318BF02238DF81830A0
:10240000DDE7D4F83C258DE7D4F83C35089386E722
:1024100000300040CC25002002029C012DE9F84F3D
:102420000779DFF8FC80342404FB07F408EB04058B
:1024300095F82D6016B10820BDE8F88F8A468346CE
:10244000354900689946164600F056FE10B1112035
:10245000BDE8F88F48F80460A860C5F8049085F8D6
:102460002F0085F830009AF80D3085F83230DAF810
:1024700000304FF0A04203F5E07340F20C6142F8E7
:102480002310DAF8043003F5E07342F82310DBF888
:102490000030DAF80020DAF80410C3F80825C3F891
:1024A0000C15DAF80820C3F8242526B3DBF8001051
:1024B0009AF80C30090B4AB2002A24DB02F1604280
:1024C00002F561425B01DBB282F80033DBF80020E9
:1024D000120B42F3C40323F0604323F0030303F120
:1024E000604303F5614302F01F02012101FA02F289
:1024F000C3F880211A60342303FB0783012283F889
:102500002D20BDE8F88F054A01F00F015B010A4458
:10251000DBB21376DAE700BFA1220000FCEC00E09A
:10252000CC250020F8B50579264E342303FB05F3AE
:102530000446F358002B42D0036823481B0B5AB2C1
:102540005209203203F01F03012101FA03F340F87E
:102550002230227923681D49342707FB02620020BC
:102560009060C3F80813D3F800124FF0010E21F465
:10257000BC51C3F8001282F82DE0C3F8000507FB38
:102580000567206800F0D6FD97F8323083B92368DC
:10259000D3F808354FF0A04203F5E073022142F86A
:1025A00023102368D3F80C3503F5E07342F82310A9
:1025B000342303FB0565002385F82D30F8BD2A463A
:1025C000C8E700BFCC25002000E100E002029C012A
:1025D000037906490268342000FB03130220062118
:1025E00083F82D00C2F80015704700BFCC250020ED
:1025F00010B40C4C027903680B49342000FB0242F2
:1026000000209060C3F80813D3F80012012421F4CD
:10261000BC51C3F8001282F82D40C3F800055DF8E4
:10262000044B7047CC25002002029C012DE9F04F9D
:102630008DB015469DF85840002C02F060444FF0D4
:1026400000020CBF94464FF0200CB4F1005F0892DA
:10265000079209920A920B9203D010200DB0BDE8A8
:10266000F08F90F804B0DFF844A106684FF034080A
:102670001F4608FB0BA84B4BC6F8083398F82F30C1
:1026800003F0FF093BB1D8F80830C6F80433112035
:102690000DB0BDE8F08F8DF81D1008970A9507ACB6
:1026A0008E460FCC01944FF0010488F82F40C6F8F5
:1026B00088E5C6F80491D6F804E1CDF810E008F1F9
:1026C0000C0EAEE80F00049BC6F82491D6F8243116
:1026D0000593019B059A1B68C6F8509588F83090C1
:1026E000C6F84095CEF80030C6F84455C6F848758F
:1026F000BCF1000F18D14FF4007240F20223C6F86B
:1027000000224FF48271C8F808303423012203FB01
:102710000BF33262B2605AF803005344A0B19B68D5
:10272000C6F80433002099E71F4B4FF48072C6F8B7
:102730000022C8F80830C6F84891D6F8483103930B
:10274000039B4FF4A471E0E71046314402E0D6F851
:102750002421D2B90B68002BF9D0342303FB0BAA38
:10276000D6F8C434C6F8C43400228AF82F20BBB18E
:1027700013F0020F48F2012048F2022208BF0320A2
:1027800013F0040F18BF104668E7C6F82431D6F8D6
:1027900024310693069B30624FF482717061D4E756
:1027A00018465BE702029C0100020400CC250020D1
:1027B0002DE9F04F02F060448BB01646B4F1005F93
:1027C0004FF000020692059207920892099203D0F8
:1027D00010200BB0BDE8F08F90F804B0DFF818A11E
:1027E00007684FF0340808FB0BF89E460AEB08090F
:1027F000404BC7F8083399F82F3003F0FF053BB181
:10280000D9F80830C7F8043311200BB0BDE8F08FB9
:102810004FF001038DF81510CDF818E008968DF8EB
:10282000143005AC8C460FCC01944FF0010489F8AC
:102830002F40C7F888C5C7F80451D7F804C1CDF8B0
:1028400008C009F10C0CACE80F00029BC7F824513A
:10285000D7F824310393019B03981968C7F85055A2
:1028600040F202234FF48052C7F8405589F83050A7
:10287000C7F83465CCF80010C7F838E5C7F800226F
:10288000C9F8083001233B623B605AF808302BB18D
:10289000D9F80830C7F8043328469AE7012302E044
:1028A000D7F82411D9B9D7F80421002AF8D0342355
:1028B00003FB0BAAD7F8C434C7F8C43400228AF843
:1028C0002F20ABB113F0020F48F2012048F2022290
:1028D00008BF032013F0040F18BF104679E7C7F8AC
:1028E0002421D7F824210492049A3B627B61DAE721
:1028F00018466EE702029C01CC250020054A137998
:102900000BB1852070470121106053711846117179
:10291000704700BF00260020084A136813F0010327
:1029200005D1012182F80033C2F8801111604FF007
:1029300080430122C3F81825704700BF00E100E082
:1029400010B41349134B144A0020086083B009687F
:1029500001914FF080410220019CC1F80403D86826
:1029600040F08071D960146844F00103136051682D
:1029700053685B1AB3F50A5FFAD30649074B146034
:102980000122C8601A6003B05DF8044B704700BFB5
:1029900004010040F0ED00E0001000E008000040FD
:1029A000074B00221A6082B01B68019301994FF017
:1029B00080430122C3F804231A6002B0704700BFAD
:1029C00000010040074B01221A604FF08042D2F80C
:1029D0000C3403F00113B3F1011FF8D0024B0022B5
:1029E0005A717047040000400026002010B5144BB7
:1029F0001A6882B062B10021124A19601B685079CE
:102A000000934FF080410123009CC1F8083390B13E
:102A10000D4B1A686AB100221A601B6801934FF0CF
:102A200080420221074B0198C2F808131B6801205D
:102A3000984702B010BD116853718847E8E700BF9E
:102A400000010040002600200401004070B44379DA
:102A50001F4C204E03EB430546F82320655D15B15E
:102A6000082070BC704790F904308A78002B27DB6F
:102A700003F1604303F561435201D2B283F80023AE
:102A800090F9042053099B0003F1604303F561436F
:102A9000012502F01F0205FA02F2C3F880211A6034
:102AA00003680A88C3F8082543790879C97803EBD5
:102AB0004303E218E55450709170002070BC7047D9
:102AC000054D03F00F0352011D44D2B22A76D7E719
:102AD000082600200C260020FCEC00E00368044AD5
:102AE00001211960437903EB43030221D15470475C
:102AF00008260020F0B54FF480350468214E8D4043
:102B0000C4F848530468C4F80853447904EB4404F7
:102B1000344483B0647822F07F42D4B1046801F574
:102B2000A87744F827200468D4F804E5AEEB020740
:102B30007245427902EB4202164488BF07F1FF1743
:102B4000B27888BF07F57F47974208DA0D2003B0B7
:102B5000F0BD046801F5A87644F82620046823B97E
:102B60000020C4F8445303B0F0BD5031890089B24D
:102B700000236350625803680192019AC3F804531A
:102B80000468EDE70826002010B403680022C3F8AB
:102B9000002183B0D3F80031026801930123019C26
:102BA000C2F8443311B10268C2F8043303B05DF8CF
:102BB000044B704710B53B4BD3F80423D20384B0C9
:102BC00003D5394A116800293CD1364BD3F8042388
:102BD000940303D5354A1168002942D1314BD3F80B
:102BE0000423500303D5324A1168002949D12D4BE3
:102BF000D3F80423D10702D5D3F80021B2B9294B69
:102C0000D3F80423920702D5D3F804210AB904B0FB
:102C100010BD0022C3F80421264AD3F804310193E1
:102C200005201368019A984704B010BD0022C3F82C
:102C30000021204AD3F80031029304201368029A3D
:102C40009847DCE74FF480310020C3F84813194C53
:102C5000C3F808131060136803932368039A984716
:102C6000B3E74FF400310024C3F848131148C3F808
:102C700008131460136803930368039A01209847AC
:102C8000ACE74FF480210024C3F848130948C3F887
:102C900008131460136803930368039A022098478B
:102CA000A5E700BF00B0004040B1004044B1004083
:102CB00048B100400C2600202DE9F041684B1A680D
:102CC00088B0002A3CD1674F97F82E30002B45D1B1
:102CD000654B1A68002A5ED1644B1C68002C6AD1CF
:102CE0007E699EB14FF000480125B6FA86F2930046
:102CF00003F58C7303F1804101F5E04128FA02F2FB
:102D0000086826EA020620B9002EEED108B0BDE818
:102D1000F081A3F58C730C6083F0040209680491C0
:102D2000C2F38002DB088DF819208DF818308DF879
:102D300014503B68049A05A89847002ED5D1E5E7C2
:102D40000022484F1A60196897F82E3000910099B8
:102D5000002B39D097F82F30002B4ED1444B1A68F6
:102D6000002AB5D000221A6097F82D0019687B8BD5
:102D7000019184B2A34201994ED85FD0384B3D4AAD
:102D8000002119601B680293012302991360364BDE
:102D90001A68002AA0D000221A6008A81B680393B2
:102DA000022100F80C1D3B6803993A7498472F4B99
:102DB0001C68002C94D000221A601B680593059BA8
:102DC0003A7408B0BDE8F081FA68786839898DF8FE
:102DD00014300690ADF81C10002A2CD02648398BF0
:102DE0007A600122FB607983398102603B6805A823
:102DF0009847002387F82F3066E7FB6878683989A1
:102E00008DF814200690ADF81C10A3B1398B7B60AF
:102E1000FA6079833981E9E73A897968164D1B1B95
:102E20009BB292B2D21A01EB42027B83C5F82C26E8
:102E3000C5F83006A2E700233B74D7E7FB684BB127
:102E40000D497A83012287F82F20C1F82C36C1F86A
:102E5000300693E701227B8387F82F208EE700BF9F
:102E600004710040102600201071004014710040D1
:102E7000007100400470004000700040214B93F846
:102E80002C200AB108207047F0B51F4C0578196056
:102E9000C4F8F05545781D49C4F8F4556FF0004565
:102EA0001A74C678C4F8085383B00A600968184DCC
:102EB000019101992A60817883F82E602D68154868
:102EC0000095490183F82D205A6183F82F20802531
:102ED000C9B202270122F6B2DDF800E083F82C2007
:102EE00080F80713C0F880510560C4F804730EB170
:102EF000C4F80423044B01220020C3F8002503B0CA
:102F0000F0BD00BF1026002000700040047100409A
:102F10000071004000E100E0324A137C0BB1112047
:102F20007047F0B50C79012C55D900F10C0502EB76
:102F300045031B79002B43D04B788E780F7891F89E
:102F400003E01B01360206F4E06603F0300333436E
:102F500007F003064F794FEA0E3E33430EF4805ECE
:102F60008E793F0507F4801743EA0E033B4336068C
:102F70001D4F06F08076240402EB450204F4E024A1
:102F8000334307EB00150001CE791671234300F19E
:102F900080400C7A547100F5E040C5F81835CB79C3
:102FA0000A7AC0F81425C0F81035CB790A7AC0F82F
:102FB0001425C0F810350B79012B07D90020F0BD7E
:102FC00092F82D30013382F82D30B5E70123C7F890
:102FD00000350020F0BD03F0FF05034BC3F800559A
:102FE0000C79A2E71026002000700040F0B42C4AB3
:102FF0002C4B1224C2F808431D7C022D82B01CD039
:103000001C7C012C1FD093F82E405860022701250C
:103010000026C2F804731D74DE601981E4B9224BE6
:10302000C2F82C06C2F830161C601B680193019B85
:103030001560204602B0F0BC70471120C2F804436E
:1030400002B0F0BC7047DC688CB102231120C2F8DA
:10305000043302B0F0BC704793F82D40C2F82C0640
:1030600030465983C2F8304602B0F0BC704793F83E
:103070002E20D86019836AB90B4A1368002BFCD044
:10308000002313601268064B0092009AC3F82C06C6
:10309000C3F83016024B0222C3F804230020C9E70C
:1030A000007000401026002000710040084A137C88
:1030B000DBB2012B01D00820704792F82E0010B926
:1030C000044A13607047044A00201360704700BF31
:1030D000102600200470004000700040024B187C55
:1030E000003018BF0120704710260020014B1B68DC
:1030F000184700BF4026002038B50C4B984201D03D
:10310000002038BD00200D46FDF7ACFF084B1C79B0
:1031100024B10020FDF7AEFF112038BD012220466A
:103120001D601A71FDF7A6FF204638BD0020004043
:1031300040260020034B984203D1034B00221A6023
:103140001A717047002000404026002008B5002179
:10315000044600F025F9044B1868C36B03B1984787
:10316000204600F017FA00BF083E000070B50F4E71
:103170000F4D761BB61018BF002405D0013455F84A
:10318000043B9847A642F9D10A4E0B4D761B00F03E
:10319000EDFDB61018BF002406D0013455F8043BED
:1031A0009847A642F9D170BD70BD00BFEC04002065
:1031B000EC040020F4040020EC040020844641EAE2
:1031C000000313F003036DD1403A41D351F8043B9F
:1031D00040F8043B51F8043B40F8043B51F8043BF1
:1031E00040F8043B51F8043B40F8043B51F8043BE1
:1031F00040F8043B51F8043B40F8043B51F8043BD1
:1032000040F8043B51F8043B40F8043B51F8043BC0
:1032100040F8043B51F8043B40F8043B51F8043BB0
:1032200040F8043B51F8043B40F8043B51F8043BA0
:1032300040F8043B51F8043B40F8043B51F8043B90
:1032400040F8043B51F8043B40F8043B403ABDD2FF
:10325000303211D351F8043B40F8043B51F8043BA1
:1032600040F8043B51F8043B40F8043B51F8043B60
:1032700040F8043B103AEDD20C3205D351F8043B30
:1032800040F8043B043AF9D2043208D0D2071CBFFC
:1032900011F8013B00F8013B01D30B880380604625
:1032A000704700BF082A13D38B078DD010F003039B
:1032B0008AD0C3F10403D21ADB071CBF11F8013B0B
:1032C00000F8013B80D331F8023B20F8023B7BE75A
:1032D000043AD9D3013A11F8013B00F8013BF9D285
:1032E0000B7803704B7843708B788370604670471F
:1032F00070B4860746D0541E002A41D0CAB2034695
:1033000002E014F1FF343BD303F8012B9D07F8D101
:10331000032C2ED9CDB245EA05250F2C45EA0545EB
:1033200019D903F110022646103E0F2E42F8105C08
:1033300042F80C5C42F8085C42F8045C02F11002AE
:10334000F2D8A4F1100222F00F0204F00F041032A0
:10335000032C13440DD91E462246043A032A46F88C
:10336000045BFAD8221F22F003020432134404F053
:1033700003042CB1C9B21C4403F8011B9C42FBD1CD
:1033800070BC704714460346C2E700BF024B13B13E
:10339000024800F079B87047000000009534000042
:1033A0002DE9F04F354B85B00E460190186800F0BE
:1033B0008BF8334B1B68029303F5A4730393029BB2
:1033C000D3F8487137B3DDF80CA04FF00109D346AC
:1033D0007C68651E0ED4013407EB84044FF00008AE
:1033E000FEB1D4F800319E421BD0013D6B1CA4F10C
:1033F0000404F5D1234B6BB17B68002B39D13B68BA
:1034000043B13846CBF80030AFF30080DBF80070F2
:10341000002FDDD1194B186805B0BDE8F04F00F062
:1034200055B87B682268013BAB420CBF7D60C4F895
:103430000080002AD9D0D7F88811D7F804A009FA5B
:1034400005F30B420FD0D7F88C110B420DD1D4F8F5
:103450008010019890477B685345B0D1DBF800306D
:10346000BB42C2D0ABE79047F5E7D4F88000904765
:10347000F1E7BB463F68002FAAD1CBE7E804002064
:10348000083E000000000000002301461A461846CE
:1034900000F01EB838B50A4C0A4D641BA4100AD0BF
:1034A00004F18043013B05EB8305013C55F80439E9
:1034B0009847002CF9D1BDE8384000F05DBC00BF52
:1034C000F8040020F4040020704700BF704700BFDC
:1034D0002DE9F8432C4D0646286898460F4691463C
:1034E000FFF7F2FF294B1C68D4F84831002B3ED07F
:1034F0005A681F2A1CDC02F1010E76B103EB82012F
:103500000124C1F88890D3F8880194402043022E0A
:10351000C3F88801C1F8088123D00232C3F804E05F
:10352000286843F82270FFF7D1FF0020BDE8F88338
:10353000174B0BB34FF4C870AFF300800346D8B1FC
:10354000D4F848210260002141600A46C4F84801CD
:103550004FF0010EC0F88811C0F88C11002EDCD09D
:10356000CCE7D3F88C110C43C3F88C41D5E704F5B4
:10357000A673C4F84831BBE72868FFF7A7FF4FF0F0
:10358000FF30BDE8F88300BFE8040020083E0000DB
:1035900000000000FEE700BF81F0004102E000BF34
:1035A00083F0004330B54FEA41044FEA430594EA03
:1035B000050F08BF90EA020F1FBF54EA000C55EA3E
:1035C000020C7FEA645C7FEA655C00F0E2804FEA0F
:1035D0005454D4EB5555B8BF6D420CDD2C4480EAF1
:1035E000020281EA030382EA000083EA010180EA21
:1035F000020281EA0303362D88BF30BD11F0004F6F
:103600004FEA01314FF4801C4CEA113102D04042A4
:1036100061EB410113F0004F4FEA03334CEA1333DF
:1036200002D0524263EB430394EA050F00F0A780F7
:10363000A4F10104D5F1200E0DDB02FA0EFC22FAF2
:1036400005F2801841F1000103FA0EF2801843FAE6
:1036500005F359410EE0A5F120050EF1200E012AD7
:1036600003FA0EFC28BF4CF0020C43FA05F3C01815
:1036700051EBE37101F0004507D54FF0000EDCF18E
:10368000000C7EEB00006EEB0101B1F5801F1BD337
:10369000B1F5001F0CD349085FEA30004FEA3C0C3B
:1036A00004F101044FEA445212F5800F80F09A8031
:1036B000BCF1004F08BF5FEA500C50F1000041EB35
:1036C000045141EA050130BD5FEA4C0C404141EB39
:1036D000010111F4801FA4F10104E9D191F0000F60
:1036E00004BF01460020B1FA81F308BF2033A3F1E3
:1036F0000B03B3F120020CDA0C3208DD02F1140CDA
:10370000C2F10C0201FA0CF021FA02F10CE002F114
:103710001402D8BFC2F1200C01FA02F120FA0CFC0D
:10372000DCBF41EA0C019040E41AA2BF01EB045156
:10373000294330BD6FEA04041F3C1CDA0C340EDC54
:1037400004F11404C4F1200220FA04F001FA02F397
:1037500040EA030021FA04F345EA030130BDC4F155
:103760000C04C4F1200220FA02F001FA04F340EA4A
:103770000300294630BD21FA04F0294630BD94F0FB
:10378000000F83F4801306BF81F480110134013DE2
:103790004EE77FEA645C18BF7FEA655C29D094EA53
:1037A000050F08BF90EA020F05D054EA000C04BFD1
:1037B0001946104630BD91EA030F1EBF00210020BC
:1037C00030BD5FEA545C05D14000494128BF41F05B
:1037D000004130BD14F580043CBF01F5801130BDBF
:1037E00001F0004545F0FE4141F470014FF000004A
:1037F00030BD7FEA645C1ABF194610467FEA655CFB
:103800001CBF0B46024650EA013406BF52EA03359C
:1038100091EA030F41F4002130BD00BF90F0000F8A
:1038200004BF0021704730B54FF4806404F13204C6
:103830004FF000054FF0000150E700BF90F0000F7F
:1038400004BF0021704730B54FF4806404F13204A6
:1038500010F0004548BF40424FF000013EE700BF76
:1038600042004FEAE2014FEA31014FEA02701FBF06
:1038700012F07F4393F07F4F81F06051704792F0D8
:10388000000F14BF93F07F4F704730B54FF4607452
:1038900001F0004521F0004120E700BF50EA01029D
:1038A00008BF704730B54FF000050AE050EA01024A
:1038B00008BF704730B511F0004502D5404261EBBA
:1038C00041014FF4806404F132045FEA915C3FF4FB
:1038D000DCAE4FF003025FEADC0C18BF03325FEA94
:1038E000DC0C18BF033202EBDC02C2F1200300FA49
:1038F00003FC20FA02F001FA03FE40EA0E0021FA6E
:1039000002F11444C1E600BF70B54FF0FF0C4CF457
:10391000E06C1CEA11541DBF1CEA135594EA0C0F0D
:1039200095EA0C0F00F0DEF82C4481EA030621EA48
:103930004C5123EA4C5350EA013518BF52EA033583
:1039400041F4801143F4801338D0A0FB02CE4FF035
:103950000005E1FB02E506F00042E0FB03E54FF065
:103960000006E1FB03569CF0000F18BF4EF0010E5D
:10397000A4F1FF04B6F5007F64F5407404D25FEA59
:103980004E0E6D4146EB060642EAC62141EA55510C
:103990004FEAC52040EA5E504FEACE2EB4F1FD0C4E
:1039A00088BFBCF5E06F1ED8BEF1004F08BF5FEACC
:1039B000500E50F1000041EB045170BD06F000467E
:1039C00046EA010140EA020081EA0301B4EB5C042B
:1039D000C2BFD4EB0C0541EA045170BD41F4801123
:1039E0004FF0000E013C00F3AB8014F1360FDEBF48
:1039F000002001F0004170BDC4F10004203C35DA24
:103A00000C341BDC04F11404C4F1200500FA05F3A6
:103A100020FA04F001FA05F240EA020001F0004247
:103A200021F0004110EBD37021FA04F642EB0601BD
:103A30005EEA430E08BF20EAD37070BDC4F10C04E7
:103A4000C4F1200500FA04F320FA05F001FA04F2AB
:103A500040EA020001F0004110EBD37041F1000197
:103A60005EEA430E08BF20EAD37070BDC4F12005A2
:103A700000FA05F24EEA020E20FA04F301FA05F20A
:103A800043EA020321FA04F001F0004121FA04F2B2
:103A900020EA020000EBD3705EEA430E08BF20EA82
:103AA000D37070BD94F0000F0FD101F000464000BC
:103AB00041EB010111F4801F08BF013CF7D041EA3E
:103AC000060195F0000F18BF704703F00046520042
:103AD00043EB030313F4801F08BF013DF7D043EA13
:103AE0000603704794EA0C0F0CEA135518BF95EAC9
:103AF0000C0F0CD050EA410618BF52EA4306D1D150
:103B000081EA030101F000414FF0000070BD50EA6E
:103B1000410606BF1046194652EA430619D094EAF8
:103B20000C0F02D150EA013613D195EA0C0F05D1E2
:103B300052EA03361CBF104619460AD181EA030136
:103B400001F0004141F0FE4141F470014FF00000EE
:103B500070BD41F0FE4141F4780170BD70B54FF089
:103B6000FF0C4CF4E06C1CEA11541DBF1CEA135509
:103B700094EA0C0F95EA0C0F00F0A7F8A4EB0504EB
:103B800081EA030E52EA03354FEA013100F08880E2
:103B90004FEA03334FF0805545EA131343EA1263AB
:103BA0004FEA022245EA111545EA10654FEA002660
:103BB0000EF000419D4208BF964244F1FD0404F519
:103BC000407402D25B084FEA3202B61A65EB030575
:103BD0005B084FEA32024FF480104FF4002CB6EB32
:103BE000020E75EB030E22BFB61A754640EA0C00B2
:103BF0005B084FEA3202B6EB020E75EB030E22BFF2
:103C0000B61A754640EA5C005B084FEA3202B6EB32
:103C1000020E75EB030E22BFB61A754640EA9C00F1
:103C20005B084FEA3202B6EB020E75EB030E22BFC1
:103C3000B61A754640EADC0055EA060E18D04FEA7F
:103C4000051545EA16754FEA06164FEAC30343EA1F
:103C500052734FEAC2025FEA1C1CC0D111F4801FEC
:103C60000BD141EA00014FF000004FF0004CB6E7E5
:103C700011F4801F04BF01430020B4F1FD0C88BF84
:103C8000BCF5E06F3FF6AFAEB5EB030C04BFB6EB8F
:103C9000020C5FEA500C50F1000041EB045170BD82
:103CA0000EF0004E4EEA113114EB5C04C2BFD4EBAF
:103CB0000C0541EA045170BD41F480114FF0000E33
:103CC000013C90E645EA060E8DE60CEA135594EAAF
:103CD0000C0F08BF95EA0C0F3FF43BAF94EA0C0FB2
:103CE0000AD150EA01347FF434AF95EA0C0F7FF427
:103CF00025AF104619462CE795EA0C0F06D152EA7B
:103D000003353FF4FDAE1046194622E750EA41065E
:103D100018BF52EA43067FF4C5AE50EA41047FF46F
:103D20000DAF52EA43057FF4EBAE12E74A0011D221
:103D300012F5001211D20DD56FF47873B3EB625205
:103D40000ED44FEAC12343F0004343EA505323FA11
:103D500002F070474FF00000704750EA013002D186
:103D60004FF0FF3070474FF000007047F8B500BFCC
:103D7000F8BC08BC9E467047F8B500BFF8BC08BC4C
:103D80009E46704700000000000000000000000098
:103D90000338FDD8704700000000000000300040EC
:103DA00000000000010000000000074100000000CA
:103DB00000B000400B000300E7E7E7E7C2C2C2C261
:103DC000E7C2C3C4C5C6C7C80000000002000004A3
:103DD00000000000010007010000000000000000DA
:103DE0000338FDD870470000103E0000103E000070
:103DF00004000000000000000000000000000000BF
:103E00000338FDD870470000C0000020000000000B
:083E10005CC4FF7F010000000B
:103E18000103000001000000000000000102000092
:103E2800FA0003000001022000000000000000006A
:103E38000201000000000000000000000000000077
:103E4800000000000000000000000000000000006A
:103E5800000000000000000000000000000000005A
:103E6800000000000000000000000000000000004A
:103E7800000000000000000000000000000000003A
:103E8800000000000000000000000000000000002A
:103E9800000000000000000000000000000000001A
:103EA800000000000000000000000000000000000A
:103EB8000000000028230000E7E7E7E7C2C2C2C20B
:103EC800E7C2C3C4C5C6C7C80805FF020090D0032F
:103ED80000000000AC030020140400207C04002033
:103EE80000000000000000000000000000000000CA
:103EF80000000000000000000000000000000000BA
:103F080000000000000000000000000000000000A9
:103F18000000000000000000000000000000000099
:103F28000000000000000000000000000000000089
:103F38000000000000000000000000000000000079
:103F48000000000000000000000000000000000069
:103F58000000000000000000000000000000000059
:103F68000000000000000000000000000000000049
:103F78000000000000000000010000000000000038
:103F88000E33CDAB34126DE6ECDE05000B000000FD
:103F98000000000000000000000000000000000019
:103FA8000000000000000000000000000000000009
:103FB80000000000000000000000000000000000F9
:103FC80000000000000000000000000000000000E9
:1042F8000000000000000000482600208D33000068
:0C4308002502000001020000000000007F
:040000030000226572
:00000001FF
