:1000000000000420E5BB00000DBC00000FBC000098
:1000100011BC000013BC000015BC00000000000073
:1000200000000000000000000000000017BC0000FD
:1000300019BC0000000000001BBC00001DBC00003B
:1000400069CE0000BD850000E9C900001FBC0000AA
:100050001FBC00001FBC00001FBC0000A9C700009F
:10006000DDC600001FBC00001FBC00008DC50000E5
:100070001FBC00001FBC00001FBC00001FBC000014
:100080001FBC0000413F00001FBC00001FBC00005F
:1000900069870000813F00001FBC00001FBC0000FA
:1000A0001FBC00001FBC00001FBC00001FBC0000E4
:1000B0001FBC00001FBC000000000000000000008A
:1000C0001FBC00001FBC00001FBC00001FBC0000C4
:1000D0001FBC00001FBC00001FBC00005DA700008B
:1000E0001FBC00001FBC00001FBC0000000000007F
:1000F000000000001FBC0000000000001FBC00004A
:1001000000000000000000000000000000000000EF
:1001100000000000000000000000000000000000DF
:1001200000000000000000000000000000000000CF
:1001300000000000000000000000000000000000BF
:1001400000000000000000000000000000000000AF
:10015000000000000000000000000000000000009F
:10016000000000000000000000000000000000008F
:10017000000000000000000000000000000000007F
:10018000000000000000000000000000000000006F
:10019000000000000000000000000000000000005F
:1001A000000000000000000000000000000000004F
:1001B000000000000000000000000000000000003F
:1001C000000000000000000000000000000000002F
:1001D000000000000000000000000000000000001F
:1001E000000000000000000000000000000000000F
:1001F00000000000000000000000000000000000FF
:1002000010B5054C237833B9044B13B10448AFF350
:1002100000800123237010BDC002002000000000F8
:10022000880401000C4B43B10C480D4910B5AFF3E5
:1002300000800C48036823B910BD0A48036833B92D
:100240007047094B002BF7D0BDE810401847064B0C
:10025000002BF5D0184700BF000000008804010003
:10026000C4020020BC02002000000000154B002B3F
:1002700008BF134B9D46A3F5803A00218B460F46DD
:100280001348144A121A0CF04CFE0F4B002B00D0EE
:1002900098470E4B002B00D0984700200021040007
:1002A0000D000D48002802D00C48AFF300800CF080
:1002B000F7FD2000290000F0D3F90CF0DDFD00BFB0
:1002C0000000080000000420000000000000000002
:1002D000C00200205C390020000000000000000087
:1002E00080B400AFBFF34F8F0549054BDB6803F4C3
:1002F000E062044B1343CB60BFF34F8F00BFFDE7B9
:1003000000ED00E00400FA0580B483B000AF78602F
:100310007B681B681F2B02D84FF0A04306E07B6868
:100320001B6803F01F027B681A60034B18460C37EA
:10033000BD465DF8047B70470003005080B584B073
:1003400000AF7860084611461A460346FB700B461C
:10035000BB7013467B703B1D1846FFF7D5FFF86056
:100360007A68F978BB785B0019437B789B00194366
:100370003B7E1B0219433B7F1B041943FB6802F5BC
:10038000E07243F8221000BF1037BD4680BD80B533
:1003900084B002AF78600023019300230093002310
:1003A000012201217868FFF7C9FF00BF0837BD4669
:1003B00080BD80B584B000AF78603B1D1846FFF764
:1003C000A3FFF8607B68012202FA03F31946F8687C
:1003D00000F03CF800BF1037BD4680BD80B584B04A
:1003E00000AF78603B1D1846FFF78EFFF8607B6812
:1003F000012202FA03F31946F86800F036F800BF4C
:100400001037BD4680BD80B584B000AF78603B1D1D
:100410001846FFF779FFF860FB68D3F80435BB6036
:10042000BB68DA437B68012101FA03F31A40FB68D9
:10043000C3F808257B6801229A40BB681A40FB6814
:10044000C3F80C2500BF1037BD4680BD80B483B013
:1004500000AF786039607B683A68C3F8082500BF50
:100460000C37BD465DF8047B704780B483B000AFA5
:10047000786039607B683A68C3F80C2500BF0C3798
:10048000BD465DF8047B704790B5A5B000AF7860BD
:100490000B20FFF7A3FF0C20FFF7A0FF002387F836
:1004A0008F30274A274BD31ADB081B0443F0030382
:1004B0002549184602F0CCFE7B681B785BB2002B06
:1004C00003DA012387F88F301AE07B689C8801F0FB
:1004D00059FD03469C4213D17B681B7803F0F0035F
:1004E000002B03D1012387F88F3009E07B689868DF
:1004F0007B68D9797B685B88DBB2012201F08CFCD8
:1005000097F88F30002B11D007F10C03194678684B
:1005100001F00AFB07F10C0318460DF0CFF9024673
:1005200007F10C031146184601F044FF0B20FFF7BA
:1005300040FF0C20FFF73DFF00BF9437BD4690BD44
:10054000CC0401008C040100A4FA000080B584B042
:1005500000AF78600B46FB70FA780B4B1B681344B6
:10056000094A13600023FB6006E0FB681846FFF7AA
:100570004AFFFB680133FB60FB68312BF5DD00BFF0
:100580001037BD4680BD00BFDC02002080B582B0C0
:1005900000AF78600B46FB70FB781A4679680C4810
:1005A0000CF0B4FCFB780A4A13440A4918460DF0D3
:1005B00061F90346DAB2FB781344FB70FB78194605
:1005C000034801F0F7FE00BF0837BD4680BD00BFFD
:1005D00068350020B8FA000080B582B000AF00F0A6
:1005E000B3FD786001F0CEFC03467A6819460348F3
:1005F00001F00AFF00BF0837BD4680BDBCFA00000D
:1006000080B500AF4FF01023D3F8043303F0070395
:10061000052B21D0114B0122C3F8042500BF0F4B3D
:10062000D3F80034002BFAD04FF010224FF01023F3
:10063000D3F8043323F0070343F00503C2F804336F
:10064000064B0022C3F8042500BF044BD3F8003446
:10065000002BFAD0FFF744FE00BF80BD00E0014050
:1006600080B500AF00F066F80F4801F033FE0F4987
:100670000F4800F07FFB0F4800F09EF800F017FDD8
:10068000FFF7BEFF0B20FFF782FE0C20FFF77FFE77
:100690002920FFF77CFE2920FFF7A0FE00F0B4FA26
:1006A00001F058FEFAE700BF4D0500008D0500007F
:1006B00089040000D905000080B483B000AF7860E1
:1006C00039607B683A68C3F8042300BF0C37BD4625
:1006D0005DF8047B704780B483B000AF78600B4650
:1006E000FB70FA787B6813441A460123136000BF3D
:1006F0000C37BD465DF8047B704780B582B000AF13
:10070000786039607B681B6839681846FFF7D4FF4A
:1007100000BF0837BD4680BD80B582B000AF7860AD
:100720007B681B6808211846FFF7D5FF00BF083714
:10073000BD4680BD80B582B000AF0AF0CDFE7860C6
:100740007B683B603B68002B02D0386807F0A0FA5A
:1007500000200AF065FF00BF0AF0B6FF034683F0F1
:100760000103DBB2002BF7D100BF0837BD4680BDC7
:1007700080B582B000AF0346FB71FB79002B10D12E
:100780000A48FFF7C9FF4FF480310848FFF7B5FF6B
:10079000074B1B780133DAB2054B1A70054B1B6807
:1007A000984700BF0837BD4680BD00BFE0FA000093
:1007B00000000020E002002080B588B000AF786023
:1007C000214A7B68136000200AF0E6FE00BF0AF0B1
:1007D0001FFF034683F00103DBB2002BF7D11B4A56
:1007E00007F10C0392E8030018600433198040F20B
:1007F000FF73BB8107F10C03154A194615480BF02E
:1008000021FDF861FB69BB61BB69002B02D0B869AF
:1008100007F03EFA00210F480BF012FE0123502290
:1008200000210C480BF08AFDF861FB697B617B6954
:10083000002B02D0786907F02BFA06480BF064FD14
:1008400000BF2037BD4680BDE0020020D8FA00007E
:1008500071070000E0FA000080B485B000AF0346E5
:10086000FB710023FB60FB68002B01D1044BFB6094
:10087000FB6818461437BD465DF8047B704700BF1F
:100880001C00002080B483B000AF786039607B68C2
:100890005A783B68DB799A4201D0002312E07B68EA
:1008A0005A883B689B7A9BB29A4201D0002309E0A8
:1008B0007B689A883B681B7A9BB29A4201D00023DE
:1008C00000E0012318460C37BD465DF8047B7047F5
:1008D00080B584B000AF78600023FB730023BB6059
:1008E00024E0194ABB68942101FB03F313441B78ED
:1008F000002B18D0BB68942202FB03F30833124A82
:100900001344043319467868FFF7BCFF0346002BF5
:1009100009D00D4ABB68942101FB03F31344002264
:100920001A700123FB73BB680133BB60BB68012BEA
:1009300005DCFB7B83F00103DBB2002BD1D100BFD0
:100940001037BD4680BD00BF8403002080B400AFD7
:10095000044BD3F80835DBB21846BD465DF8047B7E
:10096000704700BF0010004080B483B000AF034662
:10097000FB71FB79012B0ED0022B02D0002B16D07D
:1009800013E0114B4FF6FF72C3F83C250E4B0F4A94
:10099000C3F838250CE00C4BFF22C3F83C250A4B6A
:1009A00040F20712C3F8382502E0002305E000BF3B
:1009B000054AFB79C2F83435012318460C37BD4689
:1009C0005DF8047B704700BF00100040211001005B
:1009D00080B400AF044BD3F83435DBB21846BD46C3
:1009E0005DF8047B704700BF0010004080B500AF89
:1009F00008F016F8064A074BD31ADB081B0443F02D
:100A000004030549184602F023FC00BF80BD00BF67
:100A1000FC0401008C040100F4FA000080B500AF72
:100A200007F0A8FF064A074BD31ADB081B0443F064
:100A300004030549184602F00BFC00BF80BD00BF4F
:100A4000FC0401008C04010018FB000080B584B098
:100A500000AF786039603B6801229A703B680022E1
:100A60001A707B681A783B689A717B685A783B6881
:100A7000DA717B685B88DAB23B681A727B685B88E4
:100A80001B0A9BB2DAB23B685A727B681B785BB276
:100A9000002B02DA0523FB730DE07B689B88DAB23A
:100AA0003B689A727B689B881B0A9BB2DAB23B68F0
:100AB000DA720723FB737B68DA79FB7B1344DAB2C3
:100AC0003B681A713B681A793B685A713B685A1D3A
:100AD000FB7BD0187B6899687B68DB791A460CF041
:100AE00015FA00BF1037BD4680BD80B485B000AF99
:100AF000786039607B689A793B681A707B68DA792C
:100B00003B685A707B681B7A9AB23B685A803B6894
:100B10005B881AB27B685B7A1B021BB213431BB261
:100B20009AB23B685A807B6893F901203B689A71BE
:100B30003B681B785BB2002B06DA3B684FF6FF720E
:100B40009A800523FB7312E07B689B7A9AB23B681C
:100B50009A803B689B881AB27B68DB7A1B021BB2C7
:100B600013431BB29AB23B689A800723FB737B68DE
:100B70001A79FB7BD31ADAB23B68DA713B68DB790E
:100B8000002B05D07B685A1DFB7B1A443B689A609A
:100B900000BF1437BD465DF8047B704780B584B054
:100BA00000AF7860174B1B68002B03D0154B1B68F8
:100BB000786898470023FB737B689B88082B14D1C7
:100BC0007B681B7803F0F003702B04D10221786856
:100BD00000F0D6F90BE07B681B7803F06003402B34
:100BE00005D17868FFF774FE01E00123FB73FB7BFE
:100BF000002B02D0786800F017FA00BF1037BD460E
:100C000080BD00BF7C03002090B583B002AF34E00C
:100C10001F492048FFF769FF1F4A204BD31ADB0802
:100C20001B0443F003001E4B1A68531C1C490B6045
:100C3000184B1B781C46174BDB781946154B1B7954
:100C4000019300912346174902F03CFB124A134BD3
:100C5000D31ADB081B0443F003000D4B5B881A46D4
:100C60000B4B5B7819460A4BDB7900930B460E4918
:100C700002F010FB0648FFF791FF064807F01EFE42
:100C80000346002BC4D000BF0437BD4690BD00BF53
:100C90006C030020E4020020FC0401008C0401002D
:100CA000AC0400202CFB000058FB000080B582B093
:100CB00000AF78607B681B78012B14D0022B25D005
:100CC000002B2FD1234A244BD31ADB081B0443F0FB
:100CD00004032249184602F0BBFAFFF79FFE204B9F
:100CE00001221A702FE01B4A1B4BD31ADB081B048E
:100CF00043F004031B49184602F0AAFA07F0C2FEAB
:100D0000FFF78CFE164B01221A701CE0114A124BA1
:100D1000D31ADB081B0443F004031349184602F0FE
:100D200097FA10E0114B01221A700A4A0A4BD31AA3
:100D3000DB081B0443F001007B681B781A460C4952
:100D400002F095FA00BF094B01221A7000BF083764
:100D5000BD4680BDFC0401008C04010084FB000042
:100D6000790300209CFB0000B0FB0000780300200A
:100D7000E8FB000080B58EB000AF78603960524B60
:100D80001B68BB61514B1B687B61514A07F10C0327
:100D900092E8030083E803004E4A7B6813604E4AE2
:100DA0003B6813604D4B0022DA814C4B01221A75CF
:100DB0004A4B01221A70494B0822DA74474B03222E
:100DC0001A72464B464A5A60444B01225A70434BB2
:100DD00002225A72414807F039FC78637B6B3B630F
:100DE0003B6B002B01D03B6B69E007F11803184601
:100DF00007F06AFE78637B6BFB62FB6A002B01D015
:100E0000FB6A5CE007F11403184607F07DFE786387
:100E10007B6BBB62BB6A002B01D0BB6A4FE007F162
:100E20000C030821184607F08FFE78637B6B7B620A
:100E30007B6A002B01D07B6A41E00E2007F0BAFEEE
:100E400078637B6B3B623B6A002B01D03B6A36E0E8
:100E5000244B08221A71234B00221A70214B0022C6
:100E60005A71214A214BD31ADB081B0443F00303B8
:100E700008221F49184602F0FAF91B4A1B4BD31AE5
:100E8000DB081B0443F003030E221A49184602F044
:100E9000EEF907F06FFD78637B6BFB61FB69002B5C
:100EA00001D0FB690BE0104A104BD31ADB081B047E
:100EB00043F003031049184602F0CAF9002318460C
:100EC0003837BD4680BD00BF2CFC000030FC000060
:100ED00034FC00007C03002080030020040000207C
:100EE000AD0C00001C000020FC0401008C0401007B
:100EF00004FC000010FC00001CFC000080B400AFEB
:100F000000BF064B1B78DBB283F00103DBB2002B82
:100F1000F7D100BFBD465DF8047B70477803002021
:100F200080B584B000AF7860FFF760FD7B681B7808
:100F30001846FFF791FCF860F9687868FFF786FDBE
:100F40000B4B00221A700B4A0B4BD31ADB081B0405
:100F500043F00400FB685B791A46084902F087F900
:100F6000F86807F041FC00BF1037BD4680BD00BFE8
:100F700078030020FC0401008C0401003CFC00000C
:100F800080B586B000AF78600B46FB70FB7843F00D
:100F90004003DBB23B737B685B787B737B689B8829
:100FA000FB817B685B883B820023FB7407F10C03A9
:100FB0001846FFF7B5FF002318461837BD4680BD19
:100FC00090B585B000AF78607B68DB79FB737B6898
:100FD0009A68FB7B591CF97313447A6892F90620CE
:100FE000D2B21A707B689A68FB7B591CF973D418CB
:100FF00000F0C8FF0346DBB223707B689A68FB7B76
:10100000591CF9731344074AD2F80C25D2B21A704E
:101010007B68DB790333DAB27B68DA7100BF14379F
:10102000BD4690BD0010004080B584B000AF786030
:101030007B681B7803F00F03FB73FB7B002B1AD03C
:10104000FB7B013BFB737B681B7823F00F03DAB259
:101050007B681A707B681A78FB7B1343DAB27B6873
:101060001A707B685B78012B02D17868FFF7A8FFC4
:101070007868FFF755FF002318461037BD4680BD3E
:1010800080B586B000AF0346FB7182233B73FB79CA
:101090007B730823FB810023FB7407F10C031846C4
:1010A000FFF73EFF002318461837BD4680BD80B5C8
:1010B00000AF0020FFF7E4FF00BF80BD80B586B021
:1010C00000AF3A601A460346FB710B46BB801346DD
:1010D000BB710B4B1B783B73FB797B730823FB8144
:1010E000BB883B823B687B61BB79FB7407F10C03D7
:1010F0001846FFF715FF00BF1837BD4680BD00BF7B
:10110000A300002080B586B000AF03463960FB71B4
:101110001346BB710B4B1B7863F07F03DBB23B7351
:10112000FB797B730823FB813B687B61BB79FB7494
:1011300007F10C031846FFF7F3FE00BF1837BD4652
:1011400080BD00BFA300002080B582B000AF134B6C
:101150001B681B0EDBB23B70104B1B681B0CDBB219
:101160007B700E4B1B681B0ADBB2BB700B4B1B6802
:10117000DBB2FB700A4BD3F80C35DBB23B713B465C
:10118000052219460120FFF7BDFF044B1B685A1CBE
:1011900002490A6018460837BD4680BDB0040020E9
:1011A00000100040F0B58DB002AFF860B960114694
:1011B0001A460B46FB711346BB71FB79002B05D118
:1011C0005A49F8680CF056FB0346AAE0FB79042B59
:1011D00040F2A080FB79591F554B83FB0132CB179E
:1011E000D21A13465B001344CA1A002A40F09280B8
:1011F00000237B627B6A5A1C7A621A46BB681344DE
:101200001B781B06BB617B6A5A1C7A621A46BB6854
:1012100013441B781B041A46BB691343BB617B6AEA
:101220005A1C7A621A46BB6813441B781B021A4682
:10123000BB691343BB617B6A5A1C7A621A46BB685E
:1012400013441B781A46BB691343BB61FB79053B0A
:10125000374A82FB0312DB17D31A7B617B690133A8
:10126000BA693449F8680CF005FB38613B69FA68E3
:101270001344FB603B693B620023FB6128E0FB6990
:10128000591C7B6ABA6813441B781C467B6A01337D
:10129000BA6813441B7818467B6A0233BA68134451
:1012A0001B780193009023460A462349F8680CF006
:1012B000E1FA38617B6A03337B623B69FA68134465
:1012C000FB603A6A3B6913443B62FB690133FB6193
:1012D000FA697B699A42D2DB7B695D1C7B6A5A1C86
:1012E0007A621A46BB6813441B781E4697F906407B
:1012F00000F048FE03460193009433462A460E4907
:10130000F8680CF0B7FA38613A6A3B6913443B62FB
:101310003B6A06E0FB791A460849F8680CF0AAFA1D
:10132000034618462C37BD46F0BD00BF78FC0000D0
:101330005655555580FC000090FC0000A0FC0000B4
:1013400090B593B002AFF860B9601346FB71FB68CB
:10135000BB63FB79102B07D0FB791A467B49F868F1
:101360000CF088FA0346EDE0BB681B781B06FB63B4
:10137000BB6801331B781B04FA6B1343FB63BB6828
:1013800002331B781B02FA6B1343FB63BB68033306
:101390001B781A46FB6B1343FB63FB6B002B0CDAC9
:1013A000FB6B5B42FB636A49F8680CF063FA034627
:1013B0001A46FB681344FB6008E06649F8680CF0C5
:1013C00059FA03461A46FB681344FB60FB6B624AFA
:1013D00082FB03125211DB17D31A7B63FB6B5E4A4D
:1013E00082FB03125111DA178A1A642101FB02F2FF
:1013F0009B1A3B633B6B7A6B5849F8680CF03AFADE
:1014000003461A46FB681344FB60BB6804331B7831
:101410001B06FB62BB6805331B781B041A46FB6A7C
:101420001343FB62BB6806331B781B021A46FB6A38
:101430001343FB62BB6807331B781A46FB6A1343EE
:10144000FB62FB6A9B0ABB62FB6AC3F309037B6214
:10145000BB6808331B781B063B62BB6809331B78EB
:101460001B041A463B6A13433B62BB680A331B7872
:101470001B021A463B6A13433B62BB680B331B7863
:101480001A463B6A13433B623B6A334AA2FB03237F
:101490005B0BFB613B6A1B0A2F4AA2FB031252093A
:1014A000642101FB02F29B1ABB61BB690193FB69DA
:1014B00000937B6ABA6A2A49F8680CF0DBF90346A4
:1014C0001A46FB681344FB60BB680F331B787B61D3
:1014D000BB680E331B781B021A467B6913437B6182
:1014E000BB680D331B781B041A467B6913437B6171
:1014F000BB680C331B781B061A467B6913437B6160
:101500007B6907EE903AF8EE677AC7ED047A97EDBB
:10151000047ADFED146AC7EE267AC7ED047A3869DB
:101520000DF088FF03460C461A4623460E49F8681C
:101530000CF0A0F903461A46FB681344FB60FA68F6
:10154000BB6BD31A18464437BD4690BDBCFC0000A7
:10155000D0FC0000D8FC00001F85EB51E0FC00002F
:10156000ECFC000000007A440CFD000090B595B042
:1015700002AFF860B9601346FB71FB683B64FB790E
:10158000142B07D0FB791A469949F8680CF072F9C8
:10159000034629E1BB681B781B067B64BB680133EB
:1015A0001B781B047A6C13437B64BB6802331B7883
:1015B0001B027A6C13437B64BB6803331B781A46A7
:1015C0007B6C13437B647B6C002B0CDA7B6C5B4283
:1015D0007B648849F8680CF04DF903461A46FB68AD
:1015E0001344FB6008E08449F8680CF043F90346B3
:1015F0001A46FB681344FB607B6C804A82FB031233
:101600005211DB17D31AFB637B6C7C4A82FB0312FB
:101610005111DA178A1A642101FB02F29B1ABB638B
:10162000BB6BFA6B7649F8680CF024F903461A464E
:10163000FB681344FB60BB6804331B781B067B63A9
:10164000BB6805331B781B041A467B6B13437B6313
:10165000BB6806331B781B021A467B6B13437B6304
:10166000BB6807331B781A467B6B13437B637B6B2A
:101670009B0A3B637B6BC3F30903FB62BB680833C4
:101680001B781B06BB62BB6809331B781B041A4618
:10169000BB6A1343BB62BB680A331B781B021A4642
:1016A000BB6A1343BB62BB680B331B781A46BB6A29
:1016B0001343BB62BB6A07EE903AF8EE677AC7ED58
:1016C000097A97ED097ADFED4F6AC7EE267AC7ED02
:1016D000097A786A0DF0AEFE03460C46CDE9003477
:1016E000FB6A3A6B4849F8680CF0C4F803461A469E
:1016F000FB681344FB60BB680F331B783B62BB681D
:101700000E331B781B021A463B6A13433B62BB68CD
:101710000D331B781B041A463B6A13433B62BB68BC
:101720000C331B781B061A463B6A13433B623B6A29
:1017300007EE903AF8EE677AC7ED077A97ED077AE9
:10174000DFED326AC7EE267AC7ED077AF8690DF049
:1017500071FE03460C461A4623462D49F8680CF0E4
:1017600089F803461A46FB681344FB60BB681333D1
:101770001B78BB61BB6812331B781B021A46BB691E
:101780001343BB61BB6811331B781B041A46BB694A
:101790001343BB61BB6810331B781B061A46BB6939
:1017A0001343BB61BB6907EE903AF8EE677AC7ED69
:1017B000057A97ED057ADFED136AC7EE267AC7ED55
:1017C000057A78690DF036FE03460C461A46234624
:1017D0001049F8680CF04EF803461A46FB681344AB
:1017E000FB60FA683B6CD31A18464C37BD4690BD77
:1017F000BCFC0000D0FC0000D8FC00001F85EB51B1
:10180000E0FC00000000C8421CFD000000007A441B
:101810000CFD000038FD00002DE9B04F9CB00AAF70
:10182000F860B9601346FB71FB791A2B40F0158103
:10183000BB6803331B787B64BB6802331B781B02D5
:101840007A6C13437B64BB6801331B781B047A6C8E
:1018500013437B64BB681B781B067A6C13437B6461
:101860007B6C07EE903AF8EEE77AC7ED107A97EDC9
:10187000107ADFED806AC7EE267AC7ED107ABB6872
:1018800007331B78FB63BB6806331B781B02FA6BBC
:101890001343FB63BB6805331B781B04FA6B1343CC
:1018A000FB63BB6804331B781B06FA6B1343FB63B3
:1018B000FB6B07EE903AF8EEE77AC7ED0E7A97EDFC
:1018C0000E7ADFED6C6AC7EE267AC7ED0E7ABB683A
:1018D0000B331B787B63BB680A331B781B027A6B64
:1018E00013437B63BB6809331B781B047A6B134378
:1018F0007B63BB6808331B781B067A6B13437B63DF
:101900007B6B07EE903AF8EEE77AC7ED0C7A97ED2D
:101910000C7ADFED586AC7EE267AC7ED0C7ABB6801
:101920000F331B78FB62BB680E331B781B021A4611
:10193000FB6A1343FB62BB680D331B781B041A461A
:10194000FB6A1343FB62BB680C331B781B061A4609
:10195000FB6A1343FB62FB6A07EE903AF8EE677A84
:10196000C7ED0A7A97ED0A7ADFED436AC7EE267A69
:10197000C7ED0A7ABB6813331B787B62BB681233EE
:101980001B781B021A467B6A13437B62BB681133C8
:101990001B781B041A467B6A13437B62BB681033B7
:1019A0001B781B061A467B6A13437B627B6A3B6289
:1019B000BB6817331B78FB61BB6816331B781B02AF
:1019C0001A46FB691343FB61BB6815331B781B0484
:1019D0001A46FB691343FB61BB6814331B781B0673
:1019E0001A46FB691343FB61FB69BB61BB68193392
:1019F0001B78FB82BB6818331B781B021AB2FB8A68
:101A00001343FB82B7F916303B61386C0DF012FDC1
:101A100082468B46B86B0DF00DFD04460D46386BC3
:101A20000DF008FD80468946B86A0DF003FD0246B8
:101A30000B4639690891B9690791396A0691CDE970
:101A40000423CDE90289CDE9004552465B460B49A6
:101A5000F8680BF00FFF034606E0FB791A460849C9
:101A6000F8680BF007FF034618464837BD46BDE847
:101A7000B08F00BF00007A4400409C4844FD000045
:101A800098FD000080B586B000AFF860B9601346DD
:101A9000FB71FB79022B07D0FB791A461649F868CF
:101AA0000BF0E8FE034623E0BB681B789BB21B02E9
:101AB000FB82BB6801331B789AB2FB8A1343FB821B
:101AC000FB8A0E4AA2FB03239B09BB82FB8A0B4ABB
:101AD000A2FB031292094FF47A7101FB02F29B1AE6
:101AE0007B82BA8A7B8A0649F8680BF0C3FE0346FC
:101AF00018461837BD4680BDACFD0000D34D6210BE
:101B0000C0FD000080B584B000AFF860B960134636
:101B1000FB71FB791A46B968F8680BF0F7F9FB79A5
:101B200018461037BD4680BD80B584B002AF7860DE
:101B300039607B685B781A467B681B7819467B683E
:101B40005B8800930B46684938680BF093FE0346A8
:101B50001A463B6813443B607B681B785BB2002BE2
:101B60000BDB7B689B881A46604938680BF082FE65
:101B700003461A463B6813443B607B681B7803F0BE
:101B80006003402B08D15A4938680BF073FE0346B6
:101B90001A463B6813443B607B685B78B02B2BD0C4
:101BA000B02B06DC012B0DD0022B4FD0002B19D00F
:101BB00076E0B22B2ED0B22B3ADBC02B54D0EC2BDC
:101BC00060D06DE07B6899687B68DA797B6893F90F
:101BD00006303868FFF7E6FA03461A463B681344B6
:101BE0003B6078E0434938680BF044FE03461A46F0
:101BF0003B6813443B606EE07B6899687B68DB79E7
:101C00001A463868FFF79CFB03461A463B681344A4
:101C10003B6060E07B6899687B68DB791A463868CE
:101C2000FFF7A4FC03461A463B6813443B6052E0AE
:101C30007B6899687B68DB791A463868FFF7ECFDAA
:101C400003461A463B6813443B6044E07B6899684E
:101C50007B68DB791A463868FFF714FF03461A469B
:101C60003B6813443B6036E07B6899687B68DB79AE
:101C70001A463868FFF746FF03461A463B68134486
:101C80003B6028E07B6899687B68DB791A46386896
:101C900000F036F803461A463B6813443B601AE0EE
:101CA0007B68DB79002B15D0134938680BF0E2FD17
:101CB00003461A463B6813443B607B6899687B681F
:101CC000DB791A46386800F065F903461A463B6826
:101CD00013443B6000BF094938680BF0CBFD00BFDF
:101CE0000837BD4680BD00BFD0FD0000ECFD000000
:101CF000F8FD000000FE000008FE000014FE0000D9
:101D000080B586B000AFF860B9601346FB71BB6860
:101D10001B78013B092B62D801A252F823F000BFC7
:101D2000491D0000651D00007B1D0000971D00007F
:101D3000DF1D0000DF1D0000DF1D0000DF1D0000B3
:101D4000AD1D0000C91D0000BB6801331B781A4699
:101D5000BB6802331B782949F8680BF08BFD0346FA
:101D6000FB7546E0BB6801331B781A462449F868C6
:101D70000BF080FD0346FB753BE0BB6801331B782D
:101D80001A46BB6802331B781E49F8680BF072FDD7
:101D90000346FB752DE0BB6801331B781A461A49D0
:101DA000F8680BF067FD0346FB7522E0BB68013362
:101DB0001B781A46BB6802331B781449F8680BF08D
:101DC00059FD0346FB7514E0BB6801331B781A46C6
:101DD0000F49F8680BF04EFD0346FB7509E0BB6840
:101DE0001B781A460B49F8680BF044FD0346FB7557
:101DF00000BFFB7D18461837BD4680BD9CFE000025
:101E0000BCFE0000D8FE0000F8FE000014FF000039
:101E100030FF000044FF000080B5ACB000AF786038
:101E2000084611461A460346FB700B46BB70134624
:101E30007B707B681B7887F88C307B681B78013B54
:101E4000092B73D801A252F823F000BF751E0000C1
:101E5000911E0000A51E0000D71E00002D1F0000CF
:101E60002D1F00002D1F00002D1F0000E91E000087
:101E70001B1F00007B685B7887F88D3000F082F8CC
:101E80000346DBB287F88E30032387F8AF3051E08A
:101E900000F078F80346DBB287F88D30022387F82C
:101EA000AF3047E0FFF72AF806F0BAFD7B68013350
:101EB0001B78184606F07EFE06F05CFD7B685B78BA
:101EC00087F88D30FEF742FD034687F88E300323F6
:101ED00087F8AF302EE0FEF739FD034687F88D30E6
:101EE000022387F8AF3025E0FFF708F806F098FDE9
:101EF0007B6801331B781846FEF736FD06F03AFD85
:101F00007B685B7887F88D30FEF762FD034687F8C3
:101F10008E30032387F8AF300CE0FEF759FD0346FF
:101F200087F88D30022387F8AF3003E0012387F86C
:101F3000AF3000BFBB78002B09D07B7899B297F8FF
:101F4000AF3007F18C02EC20FFF7B8F813E097F8F8
:101F5000AF2007F18C0107F10C031846FFF7D0FE04
:101F6000034687F8AE30064B1B6897F8AE1007F1B2
:101F70000C021046984700BFB037BD4680BD00BF79
:101F8000B404002080B400AF08231846BD465DF8B5
:101F9000047B704780B588B000AFF860B960134625
:101FA000FB710023FB611749F8680BF063FC786153
:101FB0007B69FA681344FB60FA697B691344FB612F
:101FC0000023BB6114E0BB69BA6813441B781A464E
:101FD0000D49F8680BF04EFC78617B69FA68134490
:101FE000FB60FA697B691344FB61BB690133BB6128
:101FF000FA79BB699A42E6DCFB6918462037BD4690
:1020000080BD00BF7CFF000080FF000080B483B073
:1020100000AF78607B6818460C37BD465DF8047BDE
:10202000704780B483B000AF78607B6818460C3787
:10203000BD465DF8047B704780B483B000AF786024
:102040007B681B681F2B02D84FF0A04306E07B681B
:102050001B6803F01F027B681A60034B18460C379D
:10206000BD465DF8047B70470003005080B584B026
:1020700000AF7860084611461A460346FB700B46CF
:10208000BB7013467B703B1D1846FFF7D5FFF86009
:102090007A68F978BB785B0019437B789B00194319
:1020A0003B7E1B0219433B7F1B041943FB6802F56F
:1020B000E07243F8221000BF1037BD4680BD80B5E6
:1020C00084B002AF786000230193002300930023C3
:1020D000012201217868FFF7C9FF00BF0837BD461C
:1020E00080BD80B584B000AF78603B1D1846FFF717
:1020F000A3FFF8607B68012202FA03F31946F8682F
:1021000000F004F800BF1037BD4680BD80B483B036
:1021100000AF786039607B683A68C3F8082500BF73
:102120000C37BD465DF8047B7047000080B584B075
:1021300000AF78600B46FB700023FB6029E0FB6872
:102140007A6813441B78FB72FB7A0D2B05D0FB7A5F
:102150000A2B02D0FB7A002B0ED1124B1B78002BDE
:1021600014D0114B1B680F4A127811460F4898473C
:102170000C4B00221A7009E00A4B1B785A1CD1B292
:10218000084A11701946094AFB7A5354FB68013317
:10219000FB60FA78FB689A42D1DC00BF1037BD467D
:1021A00080BD00BF1C0A0020E83500206C370020ED
:1021B00080B586B000AF78600B46FB707868FFF79B
:1021C00030FF7861FB78032B31D801A252F823F05D
:1021D00007220000FB210000E1210000F3210000A4
:1021E00080221549786904F03FFD144B01221A70D2
:1021F0001EE0124B00221A701AE0114B01221A70D5
:1022000000F0B2F814E0786904F01FFD38613B6912
:10221000DBB219460848FFF789FF80220649786932
:1022200004F022FDF860FB68002BECD000E000BF5A
:1022300000BF1837BD4680BDEC35002000060020E9
:10224000A500002080B582B000AF0346FB71FB798A
:10225000023B0C2B36D801A252F823F0C522000015
:10226000C5220000C5220000C5220000C5220000D2
:10227000C522000097220000B9220000BF22000002
:10228000C5220000C5220000C522000091220000E6
:1022900002F064FB19E00B20FFF711FF0B20FFF7A2
:1022A00020FF08F04BFD034683F00103DBB2002B57
:1022B0000AD002F04DFB07E002F072FB05E002F0ED
:1022C00053FB02E000BF00E000BF00BF0837BD467F
:1022D00080BD00BF80B588B000AF7860194A7B68C8
:1022E000136005F025FC184802F072FAF861FB69EA
:1022F000BB61BB69002B02D0B86905F0C9FC13486B
:10230000FFF784FE7861786902F03CFEF861FB69B2
:102310003B613B69002B02D0386905F0B9FC02F043
:10232000F1FAF861FB69FB60FB68002B02D0F868EA
:1023300005F0AEFC064800F097FA00BF2037BD4616
:1023400080BD00BFE8350020B8FF000088FF000016
:10235000ACFF000080B500AF00BF02F099FD03465E
:10236000002BFAD100BF80BD80B594B000AF0E4BFA
:102370001B78002B13D00C4B00221A7040237B6477
:1023800007F144023B1D1946084800F0F6FAF864CC
:102390007A6C3B1D1946064804F008FCB86400BF7F
:1023A0005037BD4680BD00BFA5000020ACFF000037
:1023B00088FF000080B584B000AF78603960104BB2
:1023C0001B7883F00103DBB2002B13D13B68BB60A9
:1023D00007F108031A4679680A4800F067FAF860BE
:1023E000BA683B689A4202D0FB68002B04D1FFF721
:1023F000BBFF02E000BF00E000BF1037BD4680BD5C
:1024000000060020ACFF00000FB480B582B000AF22
:1024100007F114033B603B683A694FF48071084848
:102420000BF080FA03467B6079680548FFF7C2FF2E
:1024300000BF0837BD46BDE8804004B0704700BF0C
:102440006C36002090B486B000AF786039607B684D
:102450003A6853E8004F104643E8000191F0000F3E
:10246000F7D17C613861F9607B6918461837BD4641
:1024700090BC704790B486B000AF786039607B68DC
:102480003A6853E8004F44EA020043E8000191F043
:10249000000FF6D17C613861F9607B691846183706
:1024A000BD4690BC704790B486B000AF786039608C
:1024B0007B683A6853E8004F44EA020043E80001B1
:1024C00091F0000FF6D17C613861F9603B691846E4
:1024D0001837BD4690BC704790B486B000AF7860A6
:1024E00039607B683A6853E8004F04EA020043E829
:1024F000000191F0000FF6D17C613861F9607B69D1
:1025000018461837BD4690BC704790B486B000AFEF
:10251000786039607B683A6853E8004F04EA02004B
:1025200043E8000191F0000FF6D17C613861F96059
:102530003B6918461837BD4690BC704790B486B0CA
:1025400000AF786039607B683A6853E8004F04EB6D
:10255000020043E8000191F0000FF6D17C61386180
:10256000F9603B6918461837BD4690BC704790B477
:1025700086B000AF786039607B683A6853E8004FF6
:10258000A4EB020043E8000191F0000FF6D17C615A
:102590003861F9603B6918461837BD4690BC7047F2
:1025A00090B486B000AF786039607B683A6853E8D1
:1025B000004F94422CBFA01A204643E8000191F03E
:1025C000000FF4D17C613861F9603B691846183717
:1025D000BD4690BC704780B582B000AF78600121E5
:1025E0007868FFF747FF034618460837BD4680BDA9
:1025F00080B582B000AF786001217868FFF753FFA3
:10260000034618460837BD4680BD80B582B000AF8E
:10261000786000217868FFF75FFF034618460837A7
:10262000BD4680BD80B582B000AF7860002178687B
:10263000FFF76BFF034618460837BD4680BD80B4E0
:1026400087B000AF786039607B6853E8011F8AB2B9
:10265000D88902449889824228BF121A1889824276
:1026600002BFBFF32F8F002307E0C2EA010243E855
:1026700001200028E9D14FF00103FB737861B960B4
:102680003A61BA683B681A60FB7BDBB218461C37BC
:10269000BD465DF8047B704780B485B000AF7860BC
:1026A000796851E8013FC3EA034341E80132002A57
:1026B000F7D1FA60BB6000BF1437BD465DF8047BFC
:1026C000704780B487B000AF786039607B6853E8AA
:1026D000021F1FFAA1F2D888824202BFBFF32F8FD8
:1026E00000230DE0D88902449889824228BF121A3B
:1026F000C1EA024243E802200028E8D14FF001037A
:10270000FB737861B9603A61BA683B681A60FB7B19
:10271000DBB218461C37BD465DF8047B704780B4B9
:1027200085B000AF7860796851E8023FC3EA23437F
:1027300041E80232002AF7D1FA60BB6000BF1437CB
:10274000BD465DF8047B704780B485B000AFF8608B
:10275000B96011461A460B46FB801346BB80BB6826
:10276000002B01D10E231BE0FB88BA88B3FBF2F1EA
:1027700002FB01F29B1A9BB2002B01D009230FE050
:10278000FB68BA681A60FB6800225A60FB68002286
:102790009A60FB68FA889A81FB68BA88DA8100231C
:1027A00018461437BD465DF8047B704780B584B089
:1027B00000AF786039603B6819467868FFF73FFFE3
:1027C0000346002B07D07B681B683A6812881344C5
:1027D000FB60FB6800E0002318461037BD4680BD53
:1027E00080B582B000AF786039603B681A883B687A
:1027F0005B889A4204D17868FFF74EFF012300E01E
:10280000002318460837BD4680BD80B584B000AFB0
:10281000786039603B6819467868FFF752FF0346D5
:10282000002B07D07B681B683A6852881344FB6012
:10283000FB6800E0002318461037BD4680BD80B518
:1028400082B000AF786039603B681A883B685B886B
:102850009A4204D17868FFF762FF012300E0002369
:1028600018460837BD4680BD80B483B000AF78609D
:102870007B689B6800229A607B689B6800221A61D3
:102880007B689B6800225A617B689B680022DA6043
:102890007B689B6800225A607B689B6800221A60F4
:1028A00000BF0C37BD465DF8047B704780B588B02B
:1028B00000AFF860B9607A60FB689B681846FFF764
:1028C0008AFE0346002B01D0112352E0FB685A68B0
:1028D000FB689B681969FB689B689B68CB1A13446B
:1028E00001337B617B681A687B699A4228BF1A466C
:1028F0007B681A607B681B68FB61FB689B689A6851
:10290000FB685B681340BB61FB685A68BB69D31AFC
:1029100001333B61FA693B699A4212D9FB681A6834
:10292000BB6913443A69B96818460AF0EFFAFA69C4
:102930003B69D31AFB610023BB61BA683B6913444E
:10294000BB60FB681A68BB691344FA69B96818462A
:102950000AF0DCFAFB689B68FA68926891687A680A
:1029600012680A449A60FB689B681846FFF75AFE93
:10297000002318462037BD4680BD80B58AB000AF21
:10298000F860B9607A60FB689B6804331846FFF70B
:1029900022FE0346002B01D011235EE0FB689B68FA
:1029A0009A68FB689B681B69D31AFB617B681A688D
:1029B000FB699A4228BF1A467B681A607B681B68CD
:1029C0007B62FB689B681A69FB685B6813403B622B
:1029D000FB689B689A68FB685B681340BB61BA69D7
:1029E0003B6A9A4203D9BA693B6AD31A04E0FB688E
:1029F0005A683B6AD31A01337B617A6A7B699A42CF
:102A000012D9FB681A683B6A13447A691946B86898
:102A10000AF07CFA7A6A7B69D31A7B6200233B62F4
:102A2000BA687B691344BB60FB681A683B6A13444D
:102A30007A6A1946B8680AF069FAFB689B68FA680E
:102A4000926811697A6812680A441A61FB689B6887
:102A500004331846FFF7E6FD002318462837BD4625
:102A600080BD80B483B000AF78600B46FB707B689C
:102A7000DA68FB787968098A01FB03F31344184686
:102A80000C37BD465DF8047B704780B483B000AF5F
:102A9000786039603B687A68D2689B1A7A68128AD3
:102AA000B3FBF2F3DBB218460C37BD465DF8047B8E
:102AB000704780B584B000AF78600023FB600020D1
:102AC00005F070F97B681B681A687B685B689A423E
:102AD0001DD97B681B681A68013A1A601B681B784D
:102AE00019467868FFF7BDFFF8607B689B681A4657
:102AF0007B681B681B68D31AFB727B681B681B7999
:102B0000FA7A9A4203D97B681B68FA7A1A71002014
:102B100005F052F9FB6818461037BD4680BD90B5E8
:102B200085B000AF786039603B68FB60002005F03D
:102B300039F97B681B681C68621C1A60F968786840
:102B4000FFF7A3FF03462370002005F035F900BF0F
:102B50001437BD4690BD80B58AB000AF786039604B
:102B60007B681B8A043BFB613A68FB691344DA1CEF
:102B7000FB69B2FBF3F3FB767868FFF79AFF7861A5
:102B80007B69002B01D1002337E07B6900221A7199
:102B90007B6901225A71FB699AB27B69DA807B6991
:102BA0007B62FB7E013B3B617B6A7A681A60002393
:102BB0003B621DE07868FFF77CFFF860FB68002B44
:102BC0000ED07B695B790133DAB27B695A717B6A1B
:102BD000FA681A60FB687A681A60FB687B6204E036
:102BE000786900F00EF8002307E03B6A01333B628E
:102BF0003A6A3B699A42DDD37B6918462837BD465D
:102C000080BD80B58AB000AF78607B68FB61FB69EE
:102C10005B79FB767B683B62FB7E013B7B6100233B
:102C20007B6205E03B6A1B683B627B6A01337B6227
:102C30007A6A7B699A42F5D33B6A1B683B617B6881
:102C40003B6200237B620BE03B6A1B68FB60396AD6
:102C50003869FFF764FFFB683B627B6A01337B6284
:102C6000FA7E7B6A9A42EFD800BF2837BD4680BD06
:102C700080B584B000AF78607B68FB60FB6804338C
:102C800001211846FFF75AFC00BF1037BD4680BD32
:102C900080B586B000AF78607B687B617B69043368
:102CA00001211846FFF763FC0346FB6007F10C03A4
:102CB0003B613B691B78002B02D17868FFF7A1FFCD
:102CC00000BF1837BD4680BD80B590B000AFF8603A
:102CD000B9607A603B60FB687B62FB68FB637B6A80
:102CE000DB881A467B6A5B7903FB02F3043B3B6299
:102CF0007B6ADB88FB613B681A1DFB69B2FBF3F35F
:102D0000BB633B680433FA69B3FBF2F2F96901FB78
:102D100002F29B1A7B637B681A683B681A443B6A21
:102D20009A4203D93A6A3B68D31A01E07B681B6870
:102D30003B637B683A6B1A6005E0FB6B1B68FB63C7
:102D4000BB6B013BBB63BB6B002BF6D10023FB626B
:102D5000FA697B6BD31ABB62BA6A3B6B934228BF9A
:102D60001346BB622AE0BA68FB6A1344BB61FA6B84
:102D70007B6B134404337B6197F84830002B05D0FC
:102D8000BA6A7969B8690AF0C1F804E0BA6AB9693F
:102D900078690AF0BBF800237B63FB6B1B68FB635D
:102DA0003A6BBB6AD31A3B63FA6ABB6A1344FB6291
:102DB000FA693B6B934228BF1346BB623B6B002B07
:102DC000D1D100BF4037BD4680BD80B588B002AFCD
:102DD000F860B9607A603B607B687B6107F1140240
:102DE000002300933B68B968F868FFF76DFF00BFE8
:102DF0001837BD4680BD80B582B000AF78603960BD
:102E00007B681B681B6839687868984700BF08377B
:102E1000BD4680BD80B582B000AF78607B681B681E
:102E20005B687868984700BF0837BD4680BD80B5AD
:102E300082B000AF78607B681B689B6878689847B1
:102E400000BF0837BD4680BD80B483B000AF786056
:102E50007B68DB6801225A7100BF0C37BD465DF804
:102E6000047B704780B483B000AF78607B68DB6818
:102E70005B7918460C37BD465DF8047B704780B41B
:102E800085B000AF786039600023FB737B681B78E6
:102E900003F00403DBB2002B23D07B681B78C3F361
:102EA0000103DBB2012B02D0022B0CD017E03B68F0
:102EB0001B687A681288C2F38312D2B213449A1C38
:102EC0003B681A600BE03B681B687A685288C2F363
:102ED000891292B213449A1C3B681A6000BF012306
:102EE000FB73FB7B18461437BD465DF8047B7047C7
:102EF00080B58AB000AF0023FB843848FFF778FB29
:102F00003748FFF775FB374B5B683B61354B9B6878
:102F1000BB613A69BB69134002339B00314A1344D9
:102F200004333B6207F110031946386AFFF7A7FF25
:102F30000346002B09D03A69BB69134002339B005A
:102F4000284A134404333B62ECE700BF0023FB61D3
:102F500011E0FB699B003A1D1A443B69591C396119
:102F6000B9690B401F4902339B000B445B68136037
:102F7000FB690133FB61FB69012BEAD93B79C3F3A0
:102F80000103DBB2012B0ED0022B00D016E07B89AF
:102F9000FB84FB88C3F389139BB203339A083B6914
:102FA00013443B610AE07B89FB84BB88C3F3831332
:102FB000DBB21A463B6913443B6100BF0848FFF788
:102FC00024FB78617B69002B02D03B69054A536082
:102FD000FB8C18462837BD4680BD00BF080F002077
:102FE000040F0020F00A002080B584B000AF00215B
:102FF0000748FFF727FAF860FB68BB60BB6883F3FC
:1030000010037B607B6818461037BD4680BD00BF4B
:103010000C0F002080B588B000AFF860B9607A600E
:103020003B60FB681B0CFB61FFF7DEFFB8613B6890
:103030005A1CBB6A1340BA691104FA690A431C4955
:1030400002339B000B445A603A68BB6A1340023358
:103050009B00174A134404337B61FB68DBB203F027
:103060000703D9B27A69137861F3C50313707B68DB
:10307000DBB203F00F03D9B27A69138861F38913C5
:103080001380BB68C3F315017A69136861F39F234A
:1030900013607A691378012161F3010313707A696F
:1030A00013786FF38203137000BF2037BD4680BDD5
:1030B000F00A002080B58AB000AFF860B96013460E
:1030C000FB71FB6802333B620123FB77002004F0B5
:1030D00069FE384B1A68BB681A60364B9A68354BE4
:1030E0005968344B1B68CB1A134401337B6214E0DC
:1030F00001213148FFF722FAFFF7FAFEB861B969FA
:103100002D48FFF71BFA2B4B9A682A4B5968294B1D
:103110001B68CB1A134401337B623A6A7B6A9A427A
:10312000E6D8FB7F002B3DD000233B61FB79002BD1
:1031300012D03B7C012262F301033B743B7C43F0E1
:1031400004033B74FB68DBB203F00F03DAB23B8A83
:1031500062F389133B8211E03B7C022262F301039C
:103160003B743B7C43F004033B74FB689BB2C3F3AA
:1031700009039AB27B8A62F38F137B820D4B1A6824
:103180000C4B9B68134002339B000A4A13440433E0
:103190007B613A697B691A60064B1A683B6A134483
:1031A000044A1360002004F007FEFB7F184628370E
:1031B000BD4680BDF00A00200C0F002080B58AB00B
:1031C00002AFF860B9607A603B60204B9B687B611E
:1031D00007F11003012219463868FFF76BFF034619
:1031E000002B24D03B690233FB610023BB6111E05B
:1031F000FB695A1CFA617A691340BA6992007968CE
:103200000A441268114902339B000B445A60BB699F
:103210000133BB61BA693B689A42E9D33A697B6979
:10322000009313463A68B968F868FFF7F3FE074B56
:1032300093F82034002B05D000BF00F06FF8034650
:10324000002BFAD100BF2037BD4680BDF00A002018
:1032500080B582B000AF7860396000230022396801
:103260007868FFF7ABFF00BF0837BD4680BD80B56B
:1032700086B000AFF860B9607A607B687B6107F167
:1032800014020123B968F868FFF798FF00BF1837E8
:10329000BD4680BD80B588B000AFF860B9607A6087
:1032A0003B607B687B613B68BB61BB6AFB6107F18C
:1032B00014020323B968F868FFF780FF00BF2037C6
:1032C000BD4680BD80B588B000AFF860B9607A6057
:1032D0003B607B683B613B687B61BB6ABB61FB6AAF
:1032E000FB6107F110020423B968F868FFF766FF75
:1032F00000BF2037BD4680BD80B400AF064B5A6882
:10330000054B1B689A420CBF01230023DBB2184611
:10331000BD465DF8047B7047F00A002080B598B088
:1033200000AFFFF7E9FF0346002B01D00023ABE11C
:10333000954B0022C3F81824BFF34F8F924B5B6864
:103340003B61914B9B683B643A693B6C1340023391
:103350009B008D4A13440433FB650023BB650023A7
:103360007B650023FB6307F110031946F86DFFF737
:1033700086FD0346002B19D0834BD3F81834002B5D
:1033800014D1814B1A683B699A4205D87E4B1B6861
:103390007D4A5360002377E13A693B6C1340023366
:1033A0009B00794A13440433FB65DCE700233B654B
:1033B00011E03B6D9B003A1D1A443B69591C396171
:1033C000396C0B40704902339B000B445B681360FF
:1033D0003B6D01333B653B6D012BEAD93B7903F033
:1033E0000303DBB2022B40F09580FB88C3F3891303
:1033F0009BB2BB63FB88C3F389139BB2502BA8BF5E
:1034000050237B637B6B9BB2C3F309039AB2FB88A7
:1034100062F38F13FB807B6B08333B633B79C3F311
:10342000C203DBB2FB63396B5848FFF794FBB86506
:10343000BB6D002B00F0CB80B86DFFF719FC391D78
:103440007B6D0822B86DFFF7C0FC7B6D08337B6590
:103450003B69DA433B6C134001339B00FB627A6BA0
:10346000FB6A9A4240D9FB6A002B08D03A693B6C50
:10347000134002339B00444A1344043300E0444B9E
:10348000BB62FB6A002B02D0FB6ADBB201E07B6B04
:10349000DBB287F82730FB6A002B01D03C4B00E001
:1034A00000233B62FB6A002B06D07B6BDAB2FB6A1F
:1034B000DBB2D31ADBB200E00023FB7797F82720BA
:1034C0007B6DB96AB86DFFF780FC97F827307A6D8D
:1034D00013447B653B6A002B15D0FA7F7B6D396AFC
:1034E000B86DFFF772FC0EE03A693B6C1340023393
:1034F0009B00254A13440433BB617B6D7A6BB96929
:10350000B86DFFF762FCBB6B03339A083B69134449
:103510003B615CE03B7903F00303DBB2012B56D146
:10352000BB88C3F38313DBB2062B28BF0623DBB2B1
:1035300003F00F03DAB2BB8862F38913BB80BB8848
:10354000C3F38313DBB202337B613B79C3F3C20362
:10355000DBB2FB637B699B0019460C48FFF7FBFA63
:10356000B865BB6D002B32D0B86DFFF781FB391DFC
:103570007B6D0822B86DFFF728FC7B6D08337B65F7
:1035800000233B651BE000BFF00A0020040501009A
:10359000FC0A00203B695A1C3A613A6C1340023322
:1035A0009B003B4A1344191D7B6D0422B86DFFF745
:1035B0000CFC7B6D04337B653B6D01333B65BB8845
:1035C000C3F38313DBB21A463B6D9A42E2D8BB6D5C
:1035D000002B39D02E4BD3F81034FB642C4BD3F88E
:1035E0001834002B1BD0B86DFFF752FB46E00023C8
:1035F00087F84B30F86CFFF735FC0346002B02D000
:10360000012387F84B3097F84B30002B03D0B96D6E
:10361000F86CFFF7F0FBFB6CDB681B68FB64FB6C72
:10362000002BE4D1B86DFFF733FB002004F0BAFBA8
:10363000174BD3F81834002B02D13B69144A53605E
:10364000002004F0B9FB19E0114BD3F810347B646F
:1036500006E0786CFFF7EBFB7B6CDB681B687B6438
:103660007B6C002BF5D10B4A0B4BD31ADB081B04E8
:1036700043F0020309491846FFF7EAFDFFF73CFE55
:10368000034683F00103DBB218466037BD4680BDB8
:10369000F00A0020CC0401008C040100C8FF0000E7
:1036A00080B582B000AF0D4BD3F810347B600B4B6C
:1036B000012283F8202409E07868FFF7C5FB7868C9
:1036C000FFF7A8FB7B68DB681B687B607B68002BCF
:1036D000F2D100BF0837BD4680BD00BFF00A002010
:1036E00080B483B000AF0346FB71094997F90730F6
:1036F0005B09FA7902F01F02012000FA02F241F898
:10370000232000BF0C37BD465DF8047B704700BF27
:1037100000E100E080B483B000AF0346FB710949CB
:1037200097F907305B09FA7902F01F02012000FACD
:1037300002F2203341F8232000BF0C37BD465DF86C
:10374000047B704700E100E080B483B000AF034623
:10375000FB71094997F907305B09FA7902F01F02FA
:10376000012000FA02F2403341F8232000BF0C3759
:10377000BD465DF8047B704700E100E080B483B093
:1037800000AF0346FB71094997F907305B09FA79E5
:1037900002F01F02012000FA02F2603341F82320F8
:1037A00000BF0C37BD465DF8047B704700E100E0C8
:1037B00080B584B000AF78607B68002B0AD0074BDF
:1037C00043F00103FB607B689B01BB60FB68B8684A
:1037D000984700E000BF1037BD4680BDE0FF000005
:1037E00080B500AF0D4B4FF48032C3F844230B4B30
:1037F0004FF48032C3F804231120FFF7BFFF1120DC
:10380000FFF76EFF054B01221A602F20FFF7D0FF54
:10381000034B01221A7000BF80BD00BF00100140A1
:103820003210002080B500AF1120FFF773FF0F4B5F
:103830004FF48032C3F848230C4B4FF48032C3F866
:1038400008230A4B01225A602F20FFF7B1FF074BD4
:1038500001229A60064B00221A602F20FFF7A8FF72
:10386000044B00221A7000BF80BD00BF0010014051
:10387000241000203210002080B400AF034BD3F896
:1038800004351846BD465DF8047B704700100140C2
:1038900080B483B000AF786039607A683B68D31A2F
:1038A00023F07F4318460C37BD465DF8047B704714
:1038B00080B483B000AF7860044A7B68C2F84035BA
:1038C00000BF0C37BD465DF8047B70470010014017
:1038D00080B487B000AF7860294B1B68002B03D100
:1038E000274A7B68136045E07B681A68244B1B6895
:1038F0001B689A4210D8224B1B68214A1268116833
:103900007A6812688A1A1A601D4B1A687B68DA6135
:103910001B4A7B6813602DE07B681B68FB60184BBB
:103920001B687B61164B1B683B6109E03B691B68A8
:10393000FA68D31AFB603B697B613B69DB693B61D9
:103940003B69002B04D03B691A68FB689A42EDD3AF
:103950003B69002B05D03B691A68FB68D21A3B69AA
:103960001A607B68FA681A607B683A69DA617B6979
:103970007A68DA6100BF1C37BD465DF8047B70478A
:103980002010002080B586B000AF7860294B1B68FE
:10399000FB60284B1B687B617B693B6108E03A69EF
:1039A0007B689A4208D03B697B613B69DB693B617C
:1039B0003B69002BF3D100E000BF3B69002B01D134
:1039C000002333E07A693B699A4214D1194B1B6892
:1039D000DB69184A1360174B1B68002B0BD1164B81
:1039E00001229A60154B00221A60154B01221A70B1
:1039F0002F20FFF7DDFE3B691B68BB603B69DA697E
:103A00007B69DA617B69DB693B613B69002B05D02F
:103A10003B691A68BB681A443B691A60054B1B680E
:103A2000FA689A4214BF01230023DBB21846183704
:103A3000BD4680BD20100020001001402410002051
:103A40003310002080B500AF1120FFF77DFE00BFCE
:103A500080BD80B500AF1520FFF776FE00BF80BDAA
:103A600080B582B000AF78607B685B697A689269E4
:103A70001046984700BF0837BD4680BD80B584B06A
:103A800000AF2B4B1B68002B4ED000237B60FFF751
:103A9000F3FE0246274B1B6819461046FFF7F8FE57
:103AA000B860234B1B68FB601DE0FB681A68BB68AD
:103AB0009A421CD8FB681B68BA68D31ABB60FB68C3
:103AC0001B687A6813447B60FB683B60FB68DB69BA
:103AD000FB603B681B7C002B05D03B6800221A74FE
:103AE0003868FFF7BDFFFB68002BDED100E000BFA8
:103AF000114B1A78114B1B789A420CD10F4B1B7843
:103B00000133DAB20D4B1A700C4B1B78022B02D129
:103B10000A4B00221A70094B1B781946084A7B6829
:103B200042F82130FFF795FF00BF1037BD4680BD3A
:103B30002010002024100020301000203110002020
:103B40002810002080B483B000AF7860194B1A7839
:103B5000194B1B789A4223D0164B1B780133DAB2EB
:103B6000144B1A70134B1B78022B02D1114B0022FD
:103B70001A70104B1B781A46104B53F822207B68A2
:103B80001A607B681A680E4B1B6813440C4A13605A
:103B90000B4B1B6823F07F43094A1360012303E0AA
:103BA0007B6800221A60002318460C37BD465DF87A
:103BB000047B7047301000203110002028100020B6
:103BC0002410002080B489B000AFF860B9607A603A
:103BD0000023FB6138E0214B1B68BB61BB691A689D
:103BE000FB689A4206D9BB691A68FB68D21ABB699E
:103BF0001A602DE0BB691B68FA68D31AFB60BB69C9
:103C00001B68FA691344FB61BB6900221A60134BFD
:103C10001B687B61BB69DB69104A1360BB69DB68A9
:103C2000002B11D0BA68FB69134423F07F42BB69B3
:103C30005A60BB69DA68BB699A607B681A68BB69BD
:103C4000DA617B687A691A60044B1B68002BC2D169
:103C500000BF2437BD465DF8047B7047201000206C
:103C600080B588B000AF78600023FB77654B1B6898
:103C70007B61A9E07B68002B05D07B68BB61BB69D9
:103C8000DB697B6060E0604B1B781A4613465B0083
:103C90001344DB005C4A134404333B615A4B1B78EA
:103CA0000133DAB2584B1A70574B1A78564B9B783F
:103CB0009A4202D1544B00221A703B695B68BB6187
:103CC0003B691B78022B04D0032B1AD0012B1ED08A
:103CD0001CE03B695B681846FFF754FE0346002B67
:103CE00001D00123FB77BB6900221A746CE0454BBD
:103CF0001B68FB60FB6800221A74FB68DB69414AA1
:103D00001360404B1B68002BF1D15DE05CE000BF0D
:103D1000BB691B7C002B00D056E03B699A68BB69ED
:103D20005A603B69DA68BB699A603B691A69BB698A
:103D3000DA603B695A69BB699A61344B1B78002B86
:103D400002D0BB6900225A60BB695A68304B1B68BD
:103D5000D31A23F07F432F4A93420ED8BB695A6887
:103D60002B4B1B6819461046FFF792FD0246BB69B4
:103D70009B681A44BB691A6017E0254B1A68BB6937
:103D80005B6819461046FFF783FDB860BB699A6807
:103D9000BB689A4206D9BB699A68BB68D21ABB69EC
:103DA0001A6002E0BB6900221A60BB6900225A60F7
:103DB000BB6900229A60BB6901221A74BB690022A8
:103DC000DA61B869FFF784FD7B68002B7FF452AF9E
:103DD0000D4B1A780C4B5B789A427FF44BAFFB7F0C
:103DE000002B04D1074B1A687B699A4201D001234A
:103DF00000E0002303F00103DBB218462037BD4684
:103E000080BD00BF20100020140F002033100020C0
:103E100024100020FEFF7F0090B589B000AF7860CD
:103E2000274B1B68002B44D0254B1B681B68FB618C
:103E3000FFF722FDB861234B1B687B617969B86984
:103E4000FFF726FD034603333B611F4B1B7883F0CE
:103E50000103DBB2002B01D0FFF7C2FC3A69FB691A
:103E6000934238BF13467A6913447B617B6923F020
:103E70007F437B617869FFF71BFDFFF7FDFCF8606E
:103E8000B969F868FFF704FD0346DC1CB969786975
:103E9000FFF7FEFC03469C420DD9FFF7EDFC0346FD
:103EA0001846FFF705FD2F20FFF782FCFFF7CAFD3C
:103EB00001E0FFF7B7FC00BF2437BD4690BD00BF4F
:103EC00020100020241000203210002080B586B081
:103ED00000AF00237B600023FB75164B1B683B6122
:103EE000154B1B68FB603B461846FFF72BFE03464D
:103EF000FB72FB7A002B07D03B683A1D39691846E4
:103F0000FFF760FE0123FB757B681846FFF7A8FEEC
:103F10000346002B01D00123FB75FB7D002B02D053
:103F2000F868FFF779FF054B00221A7000BF1837B9
:103F3000BD4680BD2410002020100020331000203A
:103F400080B500AF0D4B0022C3F840210B4B00227F
:103F5000C3F84421094B0022C3F84821074B002233
:103F6000C3F84C21054B0022C3F80021034B00226B
:103F7000C3F80421FFF782FD00BF80BD001001409F
:103F800080B500AFFFF7A2FF00BF80BD80B400AFD7
:103F9000044BD3F88034DBB21846BD465DF8047B91
:103FA000704700BF0070024080B400AF044BD3F8EC
:103FB0008434DBB21846BD465DF8047B704700BF11
:103FC0000070024080B485B000AF0346FB710B4621
:103FD000BB7113467B71FB7903F01F02BB795B0158
:103FE00003F060031A437B79DB01DBB21343FB6010
:103FF000FB68DBB218461437BD465DF8047B70479A
:1040000080B483B000AF78607B681B7A18460C37A9
:10401000BD465DF8047B704780B584B000AF786022
:104020000B46FB707868FFF7EBFF03461A46FB78F8
:10403000934201D3002308E07B680933FB60FA78E0
:1040400013465B001344FA68134418461037BD4604
:1040500080BD80B483B000AF78607B681B78184661
:104060000C37BD465DF8047B704780B483B000AF69
:1040700078607B685B7818460C37BD465DF8047B3A
:10408000704780B485B000AF78600B46FB707B68EA
:104090005B78FA789A4201D3002308E07B689B782A
:1040A0001A467B681344FB60FB78FA681344184691
:1040B0001437BD465DF8047B704780B483B000AF11
:1040C00078607B681B7818460C37BD465DF8047B2A
:1040D000704780B483B000AF78607B681B68184677
:1040E0000C37BD465DF8047B704780B582B000AFE9
:1040F00078607868FFF7EDFF03461B6818460837BD
:10410000BD4680BD80B582B000AF78607868FFF7AB
:10411000E0FF03465B6818460837BD4680BD80B5A2
:1041200082B000AF78607868FFF7D3FF03465B6822
:1041300018460837BD4680BD80B400AF024B184614
:10414000BD465DF8047B70478000010080B400AF7D
:104150004FF08043D3F838341846BD465DF8047BF1
:10416000704780B500AFFFF7F1FF034603F001038E
:10417000002B14BF01230023DBB2184680BD80B59D
:1041800000AFFFF7E3FF034603F00203002B14BF69
:1041900001230023DBB2184680BD80B582B000AF9A
:1041A000786039607B685B681B6839687868984715
:1041B000034618460837BD4680BD80B582B000AFC3
:1041C000786039607B681B689B683A685288104643
:1041D000984700BF0837BD4680BD000080B582B05B
:1041E00000AF78600B46FB70064B1B68002B05D0B8
:1041F000044B1B68FA7811467868984700BF083767
:10420000BD4680BDF411002080B582B000AF0346EA
:10421000FB71064B5B68002B04D0044B5B68FA799A
:104220001046984700BF0837BD4680BDF4110020F6
:1042300090B58FB000AFF8607B600B46FB72134601
:10424000BB7200237B6200237B6302E07B6B013344
:104250007B63FB685B685C6807F124000123002234
:10426000F968A0470346002BF0D1002387F82330DC
:1042700000233B63002387F82F300023BB614FE00E
:10428000FB685B685C6807F1230207F118000123F3
:10429000F968A047FB685B685C6807F1170207F1E3
:1042A00018000123F968A047FB7DFA7A9A4226D1CB
:1042B00097F82F20BB7A9A421CD197F823301A46E0
:1042C000BB6C1A607B685A1C7A6097F823201A70BE
:1042D0007B685A1C7A60FA7A1A70FB685B685C68C3
:1042E00097F82330023B07F118007A68F968A04775
:1042F00000231AE097F82F30013387F82F30FB683E
:104300005B685C6897F82330023B07F118000022D5
:10431000F968A04797F823301A463B6B13443B6378
:104320003A6B7B6B9A42ABD3052318463C37BD46AC
:1043300090BD000080B485B000AF0346FB7197F9D3
:104340000730002B08DAFB7903F00F03FB73FB7BCC
:10435000DB00084A134407E0FB7903F00F03BB734B
:10436000BB7BDB00044A134418461437BD465DF896
:10437000047B7047541100209C11002080B582B04E
:1043800000AF0346FB71FB791846FFF7D3FF0346E6
:104390001B6818460837BD4680BD80B584B000AFA5
:1043A00003463960FB71FB791846FFF7C3FFF860DD
:1043B000FB683A681A603B68002B03D1FB68002257
:1043C0005A6004E03B685B681A68FB685A6000BF8B
:1043D0001037BD4680BD000080B582B000AF786068
:1043E000054B5B68044A1268796810469847034693
:1043F00018460837BD4680BD9C11002080B588B0A6
:1044000000AF78607B68FB61FB691B78052B16D1D8
:10441000FFF7CAFD0346FB75FFF7B8FD0346BB7502
:10442000002200210020FFF7CDFD03461A46BB7D88
:10443000934204D1FB7D052B01D1334BFB61FB691A
:104440001B78002B27D100F05DFEB86107E0F96909
:10445000B869FFF7B2FEB869FFF761FEB861BB69E2
:10446000002BF4D1002003F09DFC284B1B68002B8F
:1044700003D1FB695A88264B1A8001212348FEF795
:104480005DF8002003F098FC0121F869FFF7A6FE13
:104490001E4B1B6835E01F4A07F1080319461046FA
:1044A000FEF784F938613B69002B2AD03A69FB6931
:1044B0001B681360002003F075FC154B1A88134B22
:1044C0001B689BB2D31A9BB201339AB23B69DA8064
:1044D00000210E48FDF7B6FF03469AB23B699A8069
:1044E000002003F069FC0B4A07F108031946104647
:1044F000FEF776F90346FB73FB7B1946F869FFF775
:104500006DFE2037BD4680BD000001004C1100202B
:10451000501100203C11002080B582B000AF03464E
:10452000FB71FB79012B08D0022B0AD0002B00D0A5
:104530000BE00848FFF762FF07E00748FFF75EFF60
:1045400003E00648FFF75AFF00BF00BF0837BD462B
:1045500080BD00BFF4FF0000F8FF0000FCFF00007A
:1045600080B582B000AF78607868FFF747FF00BF82
:104570000837BD4680BD000080B582B000AF03465D
:10458000FB710348FFF73AFF00BF0837BD4680BD07
:104590000400010080B483B000AF0346FB71FB79D7
:1045A000082B27D801A252F823F000BFD145000004
:1045B000D5450000D9450000DD450000E14500007B
:1045C000E5450000E9450000ED450000F14500002B
:1045D000002310E000230EE001230CE000230AE09A
:1045E000002308E0012306E0012304E0012302E0A8
:1045F000012300E0002318460C37BD465DF8047B1C
:10460000704700BF80B483B000AF0346FB71FB79F5
:10461000082B27D801A252F823F000BF4146000022
:1046200045460000494600004D4600005146000046
:1046300055460000594600005D46000061460000F6
:10464000002310E000230EE001230CE000230AE029
:10465000002308E0002306E0002304E0002302E03A
:10466000012300E0002318460C37BD465DF8047BAB
:10467000704700BF80B400AF034B1B781846BD469F
:104680005DF8047B704700BFF011002090B583B047
:1046900000AF0346FB71FB791846FFF77BFF03462B
:1046A0001C461B4B1B781846FFF774FF03469C42C1
:1046B0000CD0FB791846FFF76DFF0346002B03D0A3
:1046C000144806F0ADFF01E006F0E6FFFB7918465E
:1046D000FFF798FF03461C460D4B1B781846FFF763
:1046E00091FF03469C420BD0FB791846FFF78AFFE7
:1046F0000346002B02D006F0C1FB01E006F0B4FB3C
:10470000034AFB79137000BF0C37BD4690BD00BF54
:10471000F0110020A800002080B586B000AF7860BE
:104720000B46FB701346BB70BB78002B01D00723F0
:1047300020E0FB7819467868FFF76EFC386138692D
:10474000FFF793FC0346FB730023FB750DE0FB7D35
:1047500019463869FFF795FCB860BB681B781846A6
:1047600000F090FCFB7D0133FB75FA7DFB7B9A42E8
:10477000EDD3002318461837BD4680BD80B586B0FE
:1047800000AF78600B46FB70FB7819467868FFF73E
:1047900043FC38613869FFF768FC0346FB7300236C
:1047A000FB750DE0FB7D19463869FFF76AFCB860C0
:1047B000BB681B78184600F07FFCFB7D0133FB755E
:1047C000FA7DFB7B9A42EDD300BF1837BD4680BD12
:1047D00080B588B000AF7860414808234FF48472F8
:1047E0004049FDF7B1FFB861BB69002B01D003233D
:1047F00072E03D4806F0ECF8B861BB69002B01D0CF
:10480000BB6969E0394B00221A70394B00221A60EB
:10481000384B00221A6048220021374808F081FBFB
:1048200048220021354808F07CFB7B68002B09D129
:10483000334B00221A60324B00225A60304B002268
:104840001A7204E02E4B7A6807CA83E8070000203A
:1048500006F084FFB861BB69002B05D0BB69852BCE
:1048600002D0B86903F014FAFFF766FC7861002300
:10487000FB7715E00023BB7707E0F868FFF71DFC26
:10488000034679691846FFF788FDBB7F5A1CBA7743
:1048900019463869FFF7F5FBF860FB68002BECD18F
:1048A000FB7F5A1CFA7719467869FFF7B5FB386128
:1048B0003B69002BDED10B233B7207F1080319463D
:1048C0007869FFF76AFCB861BB69002B03D006F07A
:1048D000EDF8BB6900E0002318462037BD4680BDD7
:1048E0003C1100203410002061450000F011002030
:1048F000E4110020E8110020541100209C11002038
:10490000F411002080B582B000AF06F007FA03462C
:1049100083F00103DBB2002B04D106F00FFA03464B
:10492000002B01D008230CE0084806F039FF78601E
:104930007B683B603B68002B02D0386803F0A8F925
:10494000002318460837BD4680BD00BF080001009F
:1049500080B500AF06F0C2F800BF80BD80B500AFE3
:1049600006F064F900BF80BD80B500AF07E0FFF737
:10497000F8FB034683F00103DBB2002B0BD1FFF7FA
:10498000FEFB034683F00103DBB2002BEFD10348AB
:10499000FFF734FD00E000BF80BD00BF0C00010048
:1049A00080B582B000AF82233B713B1D1846FFF7F4
:1049B00025FD00BF0837BD4680BD000080B586B02C
:1049C00000AF78607B681B78852B00F2478201A2DC
:1049D00052F823F0E74C0000294D0000B74D0000CD
:1049E0004B4D00007B4D0000DF4D0000EF4D0000FF
:1049F0005D4E0000334E0000414E00004F4E00005F
:104A00005D4E00005D4E00005D4E00005D4E0000FA
:104A1000D14D00005D4E00005D4E00005D4E000077
:104A20005D4E00005D4E00005D4E00005D4E0000DA
:104A30005D4E00005D4E00005D4E00005D4E0000CA
:104A40005D4E00005D4E00005D4E00005D4E0000BA
:104A50005D4E00005D4E00005D4E00005D4E0000AA
:104A60005D4E00005D4E00005D4E00005D4E00009A
:104A70005D4E00005D4E00005D4E00005D4E00008A
:104A80005D4E00005D4E00005D4E00005D4E00007A
:104A90005D4E00005D4E00005D4E00005D4E00006A
:104AA0005D4E00005D4E00005D4E00005D4E00005A
:104AB0005D4E00005D4E00005D4E00005D4E00004A
:104AC0005D4E00005D4E00005D4E00005D4E00003A
:104AD0005D4E00005D4E00005D4E00005D4E00002A
:104AE0005D4E00005D4E00005D4E00005D4E00001A
:104AF0005D4E00005D4E00005D4E00005D4E00000A
:104B00005D4E00005D4E00005D4E00005D4E0000F9
:104B10005D4E00005D4E00005D4E00005D4E0000E9
:104B20005D4E00005D4E00005D4E00005D4E0000D9
:104B30005D4E00005D4E00005D4E00005D4E0000C9
:104B40005D4E00005D4E00005D4E00005D4E0000B9
:104B50005D4E00005D4E00005D4E00005D4E0000A9
:104B60005D4E00005D4E00005D4E00005D4E000099
:104B70005D4E00005D4E00005D4E00005D4E000089
:104B80005D4E00005D4E00005D4E00005D4E000079
:104B90005D4E00005D4E00005D4E00005D4E000069
:104BA0005D4E00005D4E00005D4E00005D4E000059
:104BB0005D4E00005D4E00005D4E00005D4E000049
:104BC0005D4E00005D4E00005D4E00005D4E000039
:104BD0005D4E00006B4C0000ED4B0000314C0000BE
:104BE000994C0000B94C0000E74D0000A248FFF7C7
:104BF000F3FBA14800F00AFB0D20FFF705FB00F0D6
:104C000009FC02F0EBFE9D4B1B68002B03D19C4B73
:104C10001B7A002B01D0012300E0002303F00103E5
:104C2000DBB2184606F03AF80120FFF72FFD1EE12F
:104C300000F0F0FB06F05CF80020FFF727FD91483C
:104C400000F0E4FA8F48FFF7C7FB0E20FFF7DCFA0D
:104C5000FFF710FD03461846FFF79CFC0346002BA8
:104C600000F0FE8006F018FDFAE0FFF703FD0346B2
:104C7000062B08D0072B0AD0052B00D00BE0022012
:104C8000FFF704FD07E00820FFF700FD03E0022026
:104C9000FFF7FCFC00BFEAE0FFF7ECFC0346032B48
:104CA00040F0E08006F05AF80346002B00F0DA806E
:104CB0000420FFF7EBFCD5E0FFF7DCFC0346032BF9
:104CC00007D106F04BF80346002B02D00420FFF773
:104CD000DDFC06F08DF80346002B00F0C5800620B1
:104CE000FFF7D4FCC0E0FFF7C5FC0346032B04D05C
:104CF000FFF7C0FC0346082B02D16348FFF75EFEB6
:104D00000020FFF781FA00F0F1F9786108E0796896
:104D10007869FFF742FA38617869FFF7F3F978614B
:104D20007B69002BF3D1A2E000F074FB02F04CFE93
:104D30000220FFF7ABFC0120FFF766FA7868FFF767
:104D40004BFB786800F062FA91E0FFF793FC0346B2
:104D5000082B05D10220FFF799FC06F099F802E034
:104D60000520FFF793FC0320FFF74EFA7868FFF762
:104D700033FB786800F04AFA79E00320FFF744FA41
:104D80004248FFF729FB414800F040FAFFF772FC68
:104D90000346062B02D0082B04D007E00720FFF7BC
:104DA00075FC07E00220FFF771FC03E00220FFF72B
:104DB0006DFC5CE05BE00320FFF768FC0220FFF77E
:104DC00023FA786800F022FA7868FFF705FB4EE0D6
:104DD0000F20FFF719FA786800F018FA47E07868B2
:104DE000FFF7FAFA43E07868FFF7F6FA3FE07B68EE
:104DF0009B781846FFF79EFAF860FB685B68FA68D4
:104E000012687968104698470346002B2ED07B68BD
:104E10009B7803F00F03002B28D07B689B7803F06E
:104E20000F03072B22DC7B689B78184606F0FAF903
:104E30001CE00820FFF7E8F9786800F0E7F916E0D1
:104E40000920FFF7E1F9786800F0E0F90FE00A20A7
:104E5000FFF7DAF9786800F0D9F908E000BF06E05A
:104E600000BF04E000BF02E000BF00E000BF00BFE1
:104E70001837BD4680BD00BF10000100E8110020BA
:104E8000F411002014000100180001001C000100B2
:104E900080B582B000AF00237B60354B1B68002BD0
:104EA00007D1344B34491846FDF7AFFC0246304B6E
:104EB0001A602F4B1B68002B31D02D4B1B689B8831
:104EC000002B1DD02A4B1B68DB88B3F5006F03D382
:104ED000274B1B680022DA80254B1B68DA88511C9F
:104EE00089B2D9801346FB80214B1B689A88013A0E
:104EF00092B29A803B1D1846FFF760FD012332E015
:104F00001B4B1B681846FFF759FD1A4B1A491846E8
:104F1000FDF795FC164B00221A60012323E0174B86
:104F20001B68002B1ED0002002F03CFF144B1B8896
:104F3000B3F5006F02D3124B00221A80104B1B886E
:104F40005A1C91B20E4A1180FB8001210B48FDF7DB
:104F500027FB002002F030FF3B1D1846FFF72EFD17
:104F6000012300E0002318460837BD4680BD00BF7E
:104F7000001200203C110020041200204C110020DF
:104F80005011002080B588B000AF78600023FB7717
:104F900019E00023BB770BE03869FFF78EF8034672
:104FA0001846FFF7EBF90346002B01D0112353E01D
:104FB000BB7F5A1CBA7719467869FFF762F83861E7
:104FC0003B69002BE8D1FB7F5A1CFA7719467868B9
:104FD000FFF722F878617B69002BDAD10023FB7799
:104FE00015E000237B7707E0F868FFF766F80346D3
:104FF00079681846FFF7D1F97B7F5A1C7A771946F2
:105000007869FFF73EF8F860FB68002BECD1FB7F76
:105010005A1CFA7719467868FEF7FEFF78617B69BB
:10502000002BDED10E4BBB6106E0BB691B68184646
:10503000FFF74FF80346BB61BB691B68002BF4D137
:10504000BB697A681A600B233B7207F108031946A3
:105050007868FFF7A2F8034618462037BD4680BDA2
:10506000E411002080B400AF054B1B78002B14BF67
:1050700001230023DBB21846BD465DF8047B704770
:10508000F111002080B582B000AF0346FB71FB79BF
:1050900003F00F03072B07DCFB79184606F005F930
:1050A000FB79184606F0CFF8FB79184605F032FF79
:1050B00000BF0837BD4680BD80B582B000AF034653
:1050C000FB71FB79184605F06FFF00BF0837BD463E
:1050D00080BD000080B400AF034B1B681846BD467E
:1050E0005DF8047B704700BFE411002080B400AF7E
:1050F000034B1B681846BD465DF8047B704700BF34
:10510000E811002080B400AF034B1B681846BD4671
:105110005DF8047B704700BFEC11002080B586B0BD
:1051200000AF03463960FB71FFF7D4FF786128E0D8
:105130007869FEF765FF0346BB740023FB7418E033
:10514000FB7C19467869FEF767FFF860F868FEF7A0
:1051500080FF03461A46FB79934207D13B68002B38
:1051600002D03B68FA7C1A707B690EE0FB7C01334D
:10517000FB74FA7CBB7C9A42E2D37869FEF7B5FFF8
:1051800078617B69002BD3D1002318461837BD46C0
:1051900080BD80B584B000AFF8600B467A60FB72CA
:1051A0007968F868FEF7F9FF034618461037BD46E0
:1051B00080BD80B584B000AF03463960FB7197F9BC
:1051C0000730002B04DAFB7903F00F03082B08DD0E
:1051D00097F90730002B14DBFB7903F00F03082B42
:1051E0000FDCFB791846FFF7A5F803461B68FB6048
:1051F000FB68002B05D03968F868FEF7CEFF034640
:1052000000E0102318461037BD4680BD80B584B03D
:1052100000AF7860FFF75EFFF86007E07968F86834
:10522000FEF7BBFFF868FEF760FFF860FB68002B35
:10523000F4D100BF1037BD4680BD80B584B000AF4B
:1052400078600623BB60FFF745FFF8600BE07968E4
:10525000F868FEF7A2FFB860BB68062B07D1F868B4
:10526000FEF743FFF860FB68002BF0D100E000BFC1
:10527000BB6818461037BD4680BD000080B582B0BF
:1052800000AF03463960FB71FB79184605F030FE2C
:10529000034683F00103DBB2002B01D008230BE0AF
:1052A000074B1B78022B01D0082305E0FB793968F6
:1052B000184605F097FE034618460837BD4680BDE0
:1052C000F011002080B582B000AF03463960FB7159
:1052D000FB79184605F00CFE034683F00103DBB2B0
:1052E000002B01D008230BE0074B1B78022B01D0C9
:1052F000082305E0FB793968184605F01DFF0346D1
:1053000018460837BD4680BDF011002080B584B036
:1053100000AF78600B46FB701346BB700623FB6042
:105320007B685B689B68002B07D07B685B689B6829
:10533000BA78F97878689847F860FB68062B06D148
:10534000BA78FB7819467868FFF7E6F9F860FB68E9
:1053500018461037BD4680BD80B582B000AF78607A
:105360000B46FB707B685B68DB68002B06D07B68B4
:105370005B68DB68FA78114678689847FB781946CD
:105380007868FFF7FBF900BF0837BD4680BD80B5E0
:1053900084B000AF78600B46FB700023FB737B6822
:1053A0005B681B69002B08D07B685B681B69FA7817
:1053B0001146786898470346FB73FB7B1846103705
:1053C000BD4680BD80B584B000AFFFF783FEF860B6
:1053D00019E0F868FEF714FE0346BB720023FB7267
:1053E00009E0FB7A00221946F868FFF78FFF786022
:1053F000FB7A0133FB72FA7ABB7A9A42F1D3F868EE
:10540000FEF773FEF860FB68002BE2D100BF103797
:10541000BD4680BD80B582B000AFFFF75BFE78600F
:1054200017E07868FEF7ECFD0346BB700023FB70C5
:1054300007E0FB7819467868FFF78EFFFB780133A9
:10544000FB70FA78BB789A42F3D37868FEF74DFE8A
:1054500078607B68002BE4D100BF0837BD4680BD73
:1054600080B483B000AF0346FB71FB7903F01F03E8
:10547000DBB218460C37BD465DF8047B704780B43C
:1054800083B000AF0346FB71FB795B0903F00303B4
:10549000DBB218460C37BD465DF8047B704780B41C
:1054A00083B000AF0346FB71FB79DB09DBB2184622
:1054B0000C37BD465DF8047B704780B483B000AF05
:1054C00078607B681B7A18460C37BD465DF8047B14
:1054D000704780B584B000AF78600B46FB70786889
:1054E000FFF7EBFF03461A46FB78934201D30023F4
:1054F00008E07B680933FB60FA7813465B001344CD
:10550000FA68134418461037BD4680BD80B483B096
:1055100000AF78607B681B7818460C37BD465DF895
:10552000047B704780B483B000AF78607B685B78A1
:1055300018460C37BD465DF8047B704780B485B0D3
:1055400000AF78600B46FB707B685B78FA789A4214
:1055500001D3002308E07B689B781A467B681344DC
:10556000FB60FB78FA68134418461437BD465DF8B3
:10557000047B704780B483B000AF78607B681B7891
:1055800018460C37BD465DF8047B704780B483B085
:1055900000AF78607B6818460C37BD465DF8047B29
:1055A000704780B483B000AF78607B6818460C37D2
:1055B000BD465DF8047B704780B483B000AF78606F
:1055C0007B681B680C3318460C37BD465DF8047BBE
:1055D000704780B584B000AF78600B46FB70786888
:1055E000FFF7DFFFF860FB68DB69002B05D0FB6885
:1055F000DB69FA7811467868984700BF1037BD46D6
:1056000080BD80B584B000AF786000217868FFF776
:1056100060FFF8600021F868FFF790FFB860B86895
:10562000FFF7A8FF034618461037BD4680BD80B57A
:1056300084B000AF786001217868FFF74AFFF86016
:105640000021F868FFF77AFFB860B868FFF792FFAB
:10565000034618461037BD4680BD80B584B000AF04
:10566000786001217868FFF734FFF8600121F8685D
:10567000FFF764FFB860B868FFF77CFF0346184681
:105680001037BD4680BD80B588B002AF7860396004
:105690003B685B781846FFF7E3FE0346012B23D1F6
:1056A0003B689B78062B1FD10023FB6007F10803A2
:1056B000184602F009FA78613B6819793B68DA7894
:1056C00007F10C0300937B697868FEF7B1FD386140
:1056D0003B69052B08D03B680133FA6879691846A5
:1056E00002F086F9034600E0062318461837BD4647
:1056F00080BD80B483B000AF7860396000BF0623FE
:1057000018460C37BD465DF8047B704780B584B001
:1057100000AF786039607868FFF743FFF860F86899
:10572000FFF74AFFB8603B689B78212B02D000BF8F
:10573000062310E03B68B3F807309BB2072B01D07B
:10574000062308E03B68581CBB680C330722194647
:1057500002F04EF9034618461037BD4680BD80B5AD
:1057600084B000AF03463960FB71FB79002B01D098
:10577000032316E03B68FB60F868FFF71DFFB86085
:10578000BB681B78202B0BD1BB6803F10C00BB68F6
:1057900002330722194607F0B9FB00BF002300E0DF
:1057A000062318461037BD4680BD000080B58AB07C
:1057B00000AF786039607868FFF7F3FE3862386AC6
:1057C000FFF7FAFEF8613B689A78FB691A703B684C
:1057D000B3F807309BB2DAB2FB695A70FB69023347
:1057E0003B61FB695B787B610023BB61002002F0B9
:1057F000D9FA07F1100319460020FFF73FFD786240
:105800007B6A002B0AD1094BBB603B6AFB6007F146
:1058100008031946002002F03BF97862002002F0EC
:10582000CBFA7B6A18462837BD4680BD5F5700001B
:1058300080B584B000AF78607868FFF7B2FEF8609A
:10584000F868FFF7B9FEB860BB6800229A82BB68AF
:1058500000229A61BB6800221A62BB680022DA66E5
:10586000BB6800221A67BB6800225A67BB68002227
:105870009A67BB6803F12802BB689A6600BF1037BD
:10588000BD4680BD80B586B000AF7860396078686D
:10589000FFF787FE78617869FFF78EFE38613B6815
:1058A0009B78202B04D0222B10D000BF06236FE062
:1058B0003B68B3F807309BB2072B01D0062367E0A3
:1058C00039687868FFF772FF034661E03B68B3F818
:1058D00007309BB2002B01D0062359E03B699B8A1D
:1058E00003F00103002B14BF01230023FB733B686B
:1058F000B3F803309AB23B699A823B699B8A03F002
:105900000103002B14BF01230023BB73FA7BBB7B75
:105910009A4201D100233BE0BB7B002B01D0022344
:1059200000E003237B737B7B19467868FFF751FE09
:10593000BB7B83F00103DBB2002B28D07868FFF734
:1059400076FE03463B733B7B184604F0FFF978680C
:10595000FFF783FE03463B733B7B184604F0F6F9E2
:105960003B6900229A613B6900221A623B6900226E
:10597000DA663B6900221A673B6900225A673B6975
:1059800000229A673B6903F128023B699A6600236B
:1059900018461837BD4680BD80B582B000AF78602C
:1059A00039603B685B781846FFF779FD0346012BA9
:1059B00016D13B685B781846FFF761FD0346002B64
:1059C00002D0012B06D022E039687868FFF75BFE31
:1059D00003461DE039687868FFF798FE034617E034
:1059E0003B685B781846FFF74AFD0346002B02D060
:1059F000012B06D00BE039687868FFF77AFE034682
:105A000006E039687868FFF73DFF034600E00623AB
:105A100018460837BD4680BD80B487B000AFF86037
:105A2000B9607A603B60BB687B61FB683A685A602A
:105A30007B69DA693B689A421DD37B699A69FB6886
:105A40001A607B699A693B681A447B699A617B6931
:105A50001A6F3B681A447B691A677B69DA693B688D
:105A6000D21A7B69DA617B69DB69002B14BF0123E1
:105A70000023DBB208E07B6903F12802FB681A60AF
:105A80007B693A689A67002318461C37BD465DF863
:105A9000047B704780B487B000AFF860B9607A606B
:105AA0003B60BB687B61FB683A685A607B69DA6976
:105AB0003B689A420AD37B699A69FB681A607B69E2
:105AC0003A681A677B693A68DA6107E07B6903F133
:105AD0002802FB681A607B693A689A6700231846B7
