:1000000000000120595C0000815C0000835C00005E
:10001000855C0000875C0000895C00000000000037
:100020000000000000000000000000008B5C0000E9
:100030008D5C0000000000008F5C0000915C0000FF
:10004000C57C0000F949000035830000935C000086
:10005000935C0000935C0000935C0000F58000005E
:1000600029800000935C0000935C0000D97E0000B2
:10007000935C0000935C0000935C0000935C0000C4
:10008000935C00006D3E0000935C0000935C0000F8
:10009000C54B0000AD3E0000935C0000935C000087
:1000A000935C0000935C000005520000935C00002C
:1000B000935C0000935C0000000000000000000062
:1000C000935C0000935C0000935C0000935C000074
:1000D000935C0000935C0000935C00000000000053
:1000E0000000000000000000000000000000000010
:1000F0000000000000000000000000000000000000
:1001000000000000000000000000000000000000EF
:1001100000000000000000000000000000000000DF
:1001200000000000000000000000000000000000CF
:1001300000000000000000000000000000000000BF
:1001400000000000000000000000000000000000AF
:10015000000000000000000000000000000000009F
:10016000000000000000000000000000000000008F
:10017000000000000000000000000000000000007F
:10018000000000000000000000000000000000006F
:10019000000000000000000000000000000000005F
:1001A000000000000000000000000000000000004F
:1001B000000000000000000000000000000000003F
:1001C000000000000000000000000000000000002F
:1001D000000000000000000000000000000000001F
:1001E000000000000000000000000000000000000F
:1001F00000000000000000000000000000000000FF
:1002000010B5054C237833B9044B13B10448AFF350
:1002100000800123237010BD980200200000000020
:1002200090B900000C4B43B10C480D4910B5AFF329
:1002300000800C48036823B910BD0A48036833B92D
:100240007047094B002BF7D0BDE810401847064B0C
:10025000002BF5D0184700BF0000000090B9000047
:100260009C0200209402002000000000154B002B8F
:1002700008BF134B9D46A3F5803A00218B460F46DD
:100280001348144A121A08F0FCF80F4B002B00D048
:1002900098470E4B002B00D0984700200021040007
:1002A0000D000D48002802D00C48AFF3008008F084
:1002B000B9F82000290000F00FF908F09FF800BFFE
:1002C0000000080000000120000000000000000005
:1002D00098020020102A002000000000000000000A
:1002E00080B584B000AF78607B68002B0AD0074BE4
:1002F00043F00103FB607B689B01BB60FB68B8684F
:10030000984700E000BF1037BD4680BD90B20000A6
:1003100080B483B000AF78604FF0A04318460C372C
:10032000BD465DF8047B704780B584B000AF78604F
:10033000084611461A460346FB700B46BB7013462F
:100340007B703B1D1846FFF7E3FFF8607A68F97889
:10035000BB785B0019437B789B0019433B7E1B02F3
:1003600019433B7F1B041943FB6802F5E07243F815
:10037000221000BF1037BD4680BD80B584B002AFEB
:1003800078600023019300230093002301220121C0
:100390007868FFF7C9FF00BF0837BD4680BD80B54C
:1003A00084B000AF78603B1D1846FFF7B1FFF860DE
:1003B000FB68D3F80435BB60BB68DA437B68012176
:1003C00001FA03F31A40FB68C3F808257B68012291
:1003D0009A40BB681A40FB68C3F80C2500BF103771
:1003E000BD4680BD90B585B000AF78600D20FFF7A9
:1003F000D6FF0023FB737B681B785BB2002B02DA0D
:100400000123FB730EE07B689C8802F045F80346ED
:100410009C4207D17B681B7803F0F003002B01D1CD
:100420000123FB73FB7B002B06D00549786801F0A4
:1004300025FC034801F0F4FF00BF1437BD4690BD12
:100440000429002080B582B000AF78600B46FB70B5
:10045000FA780F4B1B6813440D4A1360FB781A4659
:1004600079680C4808F002F8FB780A4A13440A49F4
:10047000184608F07BFC074801F0D2FFFB781946CC
:10048000786801F063FE00BF0837BD4680BD00BF3D
:10049000B40200208429002060B2000080B582B040
:1004A00000AF78600B46FB70FB781A467968084805
:1004B00007F0DCFFFB78064A13440649184608F0AB
:1004C00055FC034801F0ACFF00BF0837BD4680BDB6
:1004D0008429002060B2000090B585B000AF0023F1
:1004E000FB60FB68BB60BB68002B02D0B86803F000
:1004F0006FFD00F037F8164801F06CFF01F0CCFFFB
:1005000003461C4600F0C6F803462246114912482D
:1005100008F02CFC104801F083FF1049104800F04F
:1005200037FAF860FB687B607B68002B02D0786844
:1005300003F04EFD00F0B8FB0D20FFF71EFF0E206C
:10054000FFF71BFF00F0E4F90A20FFF7C9FEF9E707
:100550004504000064B20000C42900209D0400008E
:10056000E503000080B582B000AF04F047FF78607B
:100570007B683B603B68002B02D0386803F028FDA5
:10058000002004F09BFF00BF04F0D4FF034683F07B
:100590000103DBB2002BF7D100BF0837BD4680BD99
:1005A00080B485B000AF0346FB710023FB60FB689D
:1005B000002B01D1044BFB60FB6818461437BD4685
:1005C0005DF8047B704700BF1800002080B483B042
:1005D00000AF786039607B685A783B68DB799A4273
:1005E00001D0002312E07B685A883B689B7A9BB25B
:1005F0009A4201D0002309E07B689A883B681B7A05
:100600009BB29A4201D0002300E0012318460C3728
:10061000BD465DF8047B704780B584B000AF78605C
:100620000023FB730023BB6024E0194ABB689421BC
:1006300001FB03F313441B78002B18D0BB689422F2
:1006400002FB03F30833124A134404331946786853
:10065000FFF7BCFF0346002B09D00D4ABB6894216D
:1006600001FB03F3134400221A700123FB73BB68E0
:100670000133BB60BB68012B05DCFB7B83F001030E
:10068000DBB2002BD1D100BF1037BD4680BD00BF0B
:100690005C03002080B400AF32231846BD465DF8ED
:1006A000047B704780B400AF044BD3F80835DBB24D
:1006B0001846BD465DF8047B704700BF001000403F
:1006C00080B483B000AF0346FB71FB79012B0ED0E1
:1006D000022B02D0002B16D013E0114B4FF6FF7205
:1006E000C3F83C250E4B0F4AC3F838250CE00C4BE1
:1006F000FF22C3F83C250A4B40F20712C3F8382505
:1007000002E0002305E000BF054AFB79C2F834355A
:10071000012318460C37BD465DF8047B704700BFC7
:10072000001000402110010080B400AF044BD3F84A
:100730003435DBB21846BD465DF8047B704700BF18
:100740000010004080B500AF04F098FB00BF80BDF2
:1007500080B500AF04F03CFB00BF80BD80B584B025
:1007600000AF786039603B6801229A703B680022D4
:100770001A707B681A783B689A717B685A783B6874
:10078000DA717B685B88DAB23B681A727B685B88D7
:100790001B0A9BB2DAB23B685A727B681B785BB269
:1007A000002B02DA0523FB730DE07B689B88DAB22D
:1007B0003B689A727B689B881B0A9BB2DAB23B68E3
:1007C000DA720723FB737B68DA79FB7B1344DAB2B6
:1007D0003B681A713B681A793B685A713B685A1D2D
:1007E000FB7BD0187B6899687B68DB791A4607F039
:1007F0003DFE00BF1037BD4680BD80B485B000AF60
:10080000786039607B689A793B681A707B68DA791E
:100810003B685A707B681B7A9AB23B685A803B6887
:100820005B881AB27B685B7A1B021BB213431BB254
:100830009AB23B685A807B6893F901203B689A71B1
:100840003B681B785BB2002B06DA3B684FF6FF7201
:100850009A800523FB7312E07B689B7A9AB23B680F
:100860009A803B689B881AB27B68DB7A1B021BB2BA
:1008700013431BB29AB23B689A800723FB737B68D1
:100880001A79FB7BD31ADAB23B68DA713B68DB7901
:10089000002B05D07B685A1DFB7B1A443B689A608D
:1008A00000BF1437BD465DF8047B704780B584B047
:1008B00000AF7860154B1B68002B03D0134B1B68EF
:1008C000786898470023FB737B689B88022B13D1C1
:1008D0007B681B7803F0F003702B04D10221786849
:1008E00000F062F908E07B681B7803F06003402B9E
:1008F00002D17868FFF790FEFB7B002B02D078686E
:1009000000F0A6F900BF1037BD4680BD500300209F
:1009100080B500AF06E007490748FFF76EFF0548BE
:10092000FFF7C4FF044804F0F7F90346002BF2D0A8
:1009300000BF80BD40030020B802002080B582B017
:1009400000AF78607B681B78012B09D0022B13D095
:10095000002B0DD1FFF7FCFE0B4B01221A700CE0AF
:1009600004F0BEFAFFF7F4FE074B01221A7004E010
:10097000064B01221A7000E000BF044B01221A70DE
:1009800000BF0837BD4680BD4D0300204C0300204A
:1009900080B58EB000AF786039604D4B1B687B61CD
:1009A0004C4B1B683B614C4A07F1080392E803007B
:1009B00083E80300494A7B681360494A3B68136037
:1009C000484B0022DA81474B01221A75454B012220
:1009D0001A70444B0822DA74424B03221A72414BBC
:1009E000414A5A603F4B01225A703E4B02225A72D2
:1009F0003C4804F049F878637B6B3B633B6B002B0E
:100A000001D03B6B5FE007F11403184604F08AFA4B
:100A100078637B6BFB62FB6A002B01D0FB6A52E0C0
:100A200007F11003184604F0C5FA78637B6BBB62CC
:100A3000BB6A002B01D0BB6A45E007F1080308211F
:100A4000184604F02BFB78637B6B7B627B6A002B80
:100A500001D07B6A37E0322004F098FB78637B6B2F
:100A60003B623B6A002B01D03B6A2CE0042004F07F
:100A7000ABFB78637B6BFB61FB69002B01D0FB69EF
:100A800021E01A4B08221A71184B00221A70174BDA
:100A900000225A7104F09CF978637B6BBB61BB69DF
:100AA000002B01D0BB690EE04FF08043D3F8003437
:100AB00003F00F130E4A13604FF080434FF00F12F4
:100AC000C3F80024002318463837BD4680BD00BF58
:100AD0009CB20000A0B20000A4B2000050030020AD
:100AE00058030020000000203D09000018000020ED
:100AF0005403002080B400AF00BF064B1B78DBB26C
:100B000083F00103DBB2002BF7D100BFBD465DF8D7
:100B1000047B70474C03002080B584B000AF786040
:100B20000B46FB70FFF70EFE7B681B781846FFF73D
:100B300037FDF860FB780133DAB2FB681A71FB68A5
:100B40001A79FB685A71FB6805330133FA787968C2
:100B5000184607F08BFC054B00221A70F86804F069
:100B600071F800BF1037BD4680BD00BF4C030020A8
:100B700080B584B000AF7860FFF7E4FD7B681B7838
:100B80001846FFF70DFDF860F9687868FFF7E6FD95
:100B9000044B00221A70F86804F054F800BF1037B4
:100BA000BD4680BD4C03002080B586B000AF7860A4
:100BB0000B46FB70FB7843F04003DBB23B737B6872
:100BC0005B787B737B689B88FB817B685B883B825F
:100BD0000023FB7407F10C031846FFF7C9FF00233D
:100BE00018461837BD4680BD90B585B000AF786017
:100BF0007B68DB79FB737B689A68FB7B591CF97314
:100C000013447A6892F90620D2B21A707B689A6807
:100C1000FB7B591CF973D41801F03EFC0346DBB290
:100C200023707B689A68FB7B591CF9731344074A4D
:100C3000D2F80C25D2B21A707B68DB790333DAB2B2
:100C40007B68DA7100BF1437BD4690BD00100040CC
:100C500080B584B000AF78607B681B7803F00F0329
:100C6000FB73FB7B002B1AD0FB7B013BFB737B6888
:100C70001B7823F00F03DAB27B681A707B681A784E
:100C8000FB7B1343DAB27B681A707B685B78012BBD
:100C900002D17868FFF7A8FF7868FFF769FF0023A3
:100CA00018461037BD4680BD80B582B000AF0E4BF0
:100CB0001B681B0EDBB23B710B4B1B681B0CDBB2C2
:100CC0007B71094B1B681B0ADBB2BB71064B1B68AF
:100CD000DBB2FB713B1D04221946002000F02AF80C
:100CE00000BF0837BD4680BD5403002080B586B0E4
:100CF00000AF3A601A460346FB710B46BB801346B1
:100D0000BB710B4B1B783B73FB797B730223FB811D
:100D1000BB883B823B687B61BB79FB7407F10C03AA
:100D20001846FFF725FF00BF1837BD4680BD00BF3E
:100D30009F00002080B586B000AF03463960FB718C
:100D40001346BB710B4B1B7863F07F03DBB23B7325
:100D5000FB797B730223FB813B687B61BB79FB746E
:100D600007F10C031846FFF703FF00BF1837BD4615
:100D700080BD00BF9F000020F0B58DB002AFF860CD
:100D8000B96011461A460B46FB711346BB71FB79DD
:100D9000002B05D15A49F86807F0E8FF0346AAE09E
:100DA000FB79042B40F2A080FB79591F554B83FB44
:100DB0000132CB17D21A13465B001344CA1A002A19
:100DC00040F0928000237B627B6A5A1C7A621A464A
:100DD000BB6813441B781B06BB617B6A5A1C7A6292
:100DE0001A46BB6813441B781B041A46BB6913439D
:100DF000BB617B6A5A1C7A621A46BB6813441B7833
:100E00001B021A46BB691343BB617B6A5A1C7A6298
:100E10001A46BB6813441B781A46BB691343BB616F
:100E2000FB79053B374A82FB0312DB17D31A7B6140
:100E30007B690133BA693449F86807F097FF386174
:100E40003B69FA681344FB603B693B620023FB612A
:100E500028E0FB69591C7B6ABA6813441B781C465E
:100E60007B6A0133BA6813441B7818467B6A0233E5
:100E7000BA6813441B780193009023460A4623491D
:100E8000F86807F073FF38617B6A03337B623B6964
:100E9000FA681344FB603A6A3B6913443B62FB699E
:100EA0000133FB61FA697B699A42D2DB7B695D1C85
:100EB0007B6A5A1C7A621A46BB6813441B781E462A
:100EC00097F9064001F0E8FA03460193009433468F
:100ED0002A460E49F86807F049FF38613A6A3B69CB
:100EE00013443B623B6A06E0FB791A460849F868FE
:100EF00007F03CFF034618462C37BD46F0BD00BF47
:100F0000ACB2000056555555B4B20000C4B2000052
:100F1000D4B2000080B586B000AFF860B960134667
:100F2000FB71FB79042B21D1BB6803331B787B61F8
:100F3000BB6802331B781B021A467B6913437B6133
:100F4000BB6801331B781B041A467B6913437B6122
:100F5000BB681B781B061A467B6913437B617A6961
:100F60000849F86807F002FF034606E0FB791A46D5
:100F70000549F86807F0FAFE034618461837BD46DB
:100F800080BD00BFF0B20000FCB2000090B593B08D
:100F900002AFF860B9601346FB71FB68BB63FB7975
:100FA000102B07D0FB791A467B49F86807F0DEFE64
:100FB0000346EDE0BB681B781B06FB63BB6801338F
:100FC0001B781B04FA6B1343FB63BB6802331B786B
:100FD0001B02FA6B1343FB63BB6803331B781A468F
:100FE000FB6B1343FB63FB6B002B0CDAFB6B5B426D
:100FF000FB636A49F86807F0B9FE03461A46FB68C6
:101000001344FB6008E06649F86807F0AFFE03464A
:101010001A46FB681344FB60FB6B624A82FB0312B7
:101020005211DB17D31A7B63FB6B5E4A82FB031200
:101030005111DA178A1A642101FB02F29B1A3B63F1
:101040003B6B7A6B5849F86807F090FE03461A46E6
:10105000FB681344FB60BB6804331B781B06FB6210
:10106000BB6805331B781B041A46FB6A1343FB62FB
:10107000BB6806331B781B021A46FB6A1343FB62EC
:10108000BB6807331B781A46FB6A1343FB62FB6A93
:101090009B0ABB62FB6AC3F309037B62BB6808332C
:1010A0001B781B063B62BB6809331B781B041A467E
:1010B0003B6A13433B62BB680A331B781B021A4628
:1010C0003B6A13433B62BB680B331B781A463B6A8F
:1010D00013433B623B6A334AA2FB03235B0BFB6176
:1010E0003B6A1B0A2F4AA2FB03125209642101FB2F
:1010F00002F29B1ABB61BB690193FB6900937B6A97
:10110000BA6A2A49F86807F031FE03461A46FB68B6
:101110001344FB60BB680F331B787B61BB680E33E5
:101120001B781B021A467B6913437B61BB680D3336
:101130001B781B041A467B6913437B61BB680C3325
:101140001B781B061A467B6913437B617B6907EE9C
:10115000903AF8EE677AC7ED047A97ED047ADFEDFE
:10116000146AC7EE267AC7ED047A386909F0B8FB2D
:1011700003460C461A4623460E49F86807F0F6FD6A
:1011800003461A46FB681344FB60FA68BB6BD31A2C
:1011900018464437BD4690BD10B3000024B300008C
:1011A0002CB300001F85EB5134B3000040B30000A6
:1011B00000007A4460B3000090B595B002AFF860CB
:1011C000B9601346FB71FB683B64FB79142B07D0B5
:1011D000FB791A469949F86807F0C8FD034629E1EA
:1011E000BB681B781B067B64BB6801331B781B0440
:1011F0007A6C13437B64BB6802331B781B027A6CE6
:1012000013437B64BB6803331B781A467B6C134320
:101210007B647B6C002B0CDA7B6C5B427B648849C3
:10122000F86807F0A3FD03461A46FB681344FB6009
:1012300008E08449F86807F099FD03461A46FB6800
:101240001344FB607B6C804A82FB03125211DB1754
:10125000D31AFB637B6C7C4A82FB03125111DA17B1
:101260008A1A642101FB02F29B1ABB63BB6BFA6B07
:101270007649F86807F07AFD03461A46FB6813447E
:10128000FB60BB6804331B781B067B63BB680533BC
:101290001B781B041A467B6B13437B63BB680633C6
:1012A0001B781B021A467B6B13437B63BB680733B7
:1012B0001B781A467B6B13437B637B6B9B0A3B63F8
:1012C0007B6BC3F30903FB62BB6808331B781B0607
:1012D000BB62BB6809331B781B041A46BB6A134305
:1012E000BB62BB680A331B781B021A46BB6A1343F6
:1012F000BB62BB680B331B781A46BB6A1343BB62E5
:10130000BB6A07EE903AF8EE677AC7ED097A97ED77
:10131000097ADFED4F6AC7EE267AC7ED097A786A57
:1013200009F0DEFA03460C46CDE90034FB6A3A6B5D
:101330004849F86807F01AFD03461A46FB6813444B
:10134000FB60BB680F331B783B62BB680E331B78B6
:101350001B021A463B6A13433B62BB680D331B7882
:101360001B041A463B6A13433B62BB680C331B7871
:101370001B061A463B6A13433B623B6A07EE903AF0
:10138000F8EE677AC7ED077A97ED077ADFED326AF4
:10139000C7EE267AC7ED077AF86909F0A1FA034685
:1013A0000C461A4623462D49F86807F0DFFC034631
:1013B0001A46FB681344FB60BB6813331B78BB61A0
:1013C000BB6812331B781B021A46BB691343BB610F
:1013D000BB6811331B781B041A46BB691343BB61FE
:1013E000BB6810331B781B061A46BB691343BB61ED
:1013F000BB6907EE903AF8EE677AC7ED057A97ED8C
:10140000057ADFED136AC7EE267AC7ED057A7869AB
:1014100009F066FA03460C461A4623461049F86856
:1014200007F0A4FC03461A46FB681344FB60FA6805
:101430003B6CD31A18464C37BD4690BD70B30000C4
:1014400024B300002CB300001F85EB5134B300001F
:101450000000C84284B3000000007A4460B300007A
:10146000A0B300002DE9B04F9CB00AAFF860B9609E
:101470001346FB71FB791A2B40F01581BB680333CF
:101480001B787B64BB6802331B781B027A6C1343A6
:101490007B64BB6801331B781B047A6C13437B6449
:1014A000BB681B781B067A6C13437B647B6C07EE6E
:1014B000903AF8EEE77AC7ED107A97ED107ADFED03
:1014C000806AC7EE267AC7ED107ABB6807331B78AF
:1014D000FB63BB6806331B781B02FA6B1343FB6389
:1014E000BB6805331B781B04FA6B1343FB63BB68B3
:1014F00004331B781B06FA6B1343FB63FB6B07EE8D
:10150000903AF8EEE77AC7ED0E7A97ED0E7ADFEDB6
:101510006C6AC7EE267AC7ED0E7ABB680B331B7870
:101520007B63BB680A331B781B027A6B13437B63B4
:10153000BB6809331B781B047A6B13437B63BB685E
:1015400008331B781B067A6B13437B637B6B07EEB8
:10155000903AF8EEE77AC7ED0C7A97ED0C7ADFED6A
:10156000586AC7EE267AC7ED0C7ABB680F331B7832
:10157000FB62BB680E331B781B021A46FB6A1343DF
:10158000FB62BB680D331B781B041A46FB6A1343CE
:10159000FB62BB680C331B781B061A46FB6A1343BD
:1015A000FB62FB6A07EE903AF8EE677AC7ED0A7ABB
:1015B00097ED0A7ADFED436AC7EE267AC7ED0A7A1D
:1015C000BB6813331B787B62BB6812331B781B022A
:1015D0001A467B6A13437B62BB6811331B781B047A
:1015E0001A467B6A13437B62BB6810331B781B0669
:1015F0001A467B6A13437B627B6A3B62BB68173384
:101600001B78FB61BB6816331B781B021A46FB690B
:101610001343FB61BB6815331B781B041A46FB6937
:101620001343FB61BB6814331B781B061A46FB6926
:101630001343FB61FB69BB61BB6819331B78FB82F9
:10164000BB6818331B781B021AB2FB8A1343FB8258
:10165000B7F916303B61386C09F042F982468B4687
:10166000B86B09F03DF904460D46386B09F038F9BE
:1016700080468946B86A09F033F902460B46396953
:101680000891B9690791396A0691CDE90423CDE93A
:101690000289CDE9004552465B460B49F86807F0E0
:1016A00065FB034606E0FB791A460849F86807F02F
:1016B0005DFB034618464837BD46BDE8B08F00BF06
:1016C00000007A4400409C48ACB3000000B4000025
:1016D00080B594B004AFF860B9601346FB71FB7934
:1016E0000C2B40F08180BB6801331B78FB87BB6803
:1016F0001B781B021AB2B7F93E3013431BB2FB87AB
:10170000FB8FBB63BB6803331B78FB86BB6802336C
:101710001B781B021AB2B7F9363013431BB2FB8693
:10172000FB8E3B63BB6805331B78FB85BB680F33BF
:101730001B78BB62BB680E331B781B021A46BB6A60
:101740001343BB62BB680D331B781B041A46BB6A8C
:101750001343BB62BB680C331B781B061A46BB6A7B
:101760001343BB62BB6804331B781B021AB2B7F980
:101770002E3013431BB2FB85FB8D7B62BB689B79CC
:1017800087F8233097F82330FB61BB680A331B7856
:10179000BB61BB6809331B781B021A46BB69134344
:1017A000BB61BB6808331B781B041A46BB69134333
:1017B000BB61BB6807331B781B061A46BB69134322
:1017C000BB61BB68DB7AFB75FB7D0393BB6902934E
:1017D000FB6901937B6A00933B6BBA6B0849F8681D
:1017E00007F0C4FA034606E0FB791A460549F86893
:1017F00007F0BCFA034618464037BD4680BD00BF1F
:1018000014B4000050B4000090B595B002AFF86079
:10181000B9601346FB71FB683B64FB79112B07D061
:10182000FB791A467F49F86807F0A0FA0346F4E00E
:10183000BB681B781B067B64BB6801331B781B04E9
:101840007A6C13437B64BB6802331B781B027A6C8F
:1018500013437B64BB6803331B781A467B6C1343CA
:101860007B647B6C002B0CDA7B6C5B427B646E4987
:10187000F86807F07BFA03461A46FB681344FB60DE
:1018800008E06A49F86807F071FA03461A46FB68EF
:101890001344FB607B6C664A82FB03129211DB17D8
:1018A000D31AFB637B6C624A82FB03129111DA1735
:1018B0008A1A4FF47A7101FB02F29B1ABB63BB6B6D
:1018C000FA6B5C49F86807F051FA03461A46FB6860
:1018D0001344FB60BB6804331B781B067B63BB6847
:1018E00005331B781B041A467B6B13437B63BB6871
:1018F00006331B781B021A467B6B13437B63BB6862
:1019000007331B781A467B6B13437B637B6B9B0A05
:101910003B637B6BC3F30903FB62BB6808331B7833
:101920001B06BB62BB6809331B781B041A46BB6AE3
:101930001343BB62BB680A331B781B021A46BB6A9F
:101940001343BB62BB680B331B781A46BB6A134355
:10195000BB62BB6A384AA2FB03235B0B7B62BB6A98
:101960001B0A354AA2FB03125209642101FB02F251
:101970009B1A3B623B6A01937B6A0093FB6A3A6B5A
:101980002E49F86807F0F2F903461A46FB6813443B
:10199000FB60BB680F331B78FB61BB680E331B78A1
:1019A0001B021A46FB691343FB61BB680D331B78AE
:1019B0001B041A46FB691343FB61BB680C331B789D
:1019C0001B061A46FB691343FB61FB6907EE903A5D
:1019D000F8EE677AC7ED067AB86908F081FF03462A
:1019E0000C461A4623461649F86807F0BFF9034625
:1019F0001A46FB681344FB60BB681B7CFB75FB7DD0
:101A00001A461049F86807F0B1F903461A46FB6810
:101A10001344FB60FA683B6CD31A18464C37BD463A
:101A200090BD00BF64B4000024B300002CB30000DC
:101A3000D34D621078B400001F85EB5140B3000015
:101A400084B4000090B4000090B597B006AFF86081
:101A5000B9601346FB71FB790E2B40F0A980BB687F
:101A600003331B78FB63BB6802331B781B021A46E7
:101A7000FB6B1343FB63BB6801331B781B041A46E3
:101A8000FB6B1343FB63BB681B781B061A46FB6B9F
:101A90001343FB63F86B08F001FF03460C46C7E9EC
:101AA0000C344FF00002484BD7E90C0109F096F8CE
:101AB00003460C46C7E90C34BB6807331B78FB624E
:101AC000BB6806331B781B021A46FB6A1343FB6292
:101AD000BB6805331B781B041A46FB6A1343FB6281
:101AE000BB6804331B781B061A46FB6A1343FB6270
:101AF000FB6A07EE903AF8EE677AC7ED0A7A97ED3F
:101B00000A7ADFED326AC7EE267AC7ED0A7ABB6839
:101B10000B331B787B62BB680A331B781B021A46A7
:101B20007B6A13437B62BB6809331B781B041A462C
:101B30007B6A13437B62BB6808331B781B061A461B
:101B40007B6A13437B62786A08F0A8FE03460C4662
:101B5000C7E906344FF000021B4BD7E9060109F034
:101B60003DF803460C46C7E90634BB680D331B78C5
:101B7000FB82BB680C331B781B021AB2B7F9163014
:101B800013431BB2FB82B86A08F0AAFE0A4601465C
:101B9000FB8A0493D7E90634CDE90234CDE900127B
:101BA000D7E90C230A49F86807F0E0F8034606E095
:101BB000FB791A460749F86807F0D8F80346184633
:101BC0004437BD4690BD00BF00408F4000007A44BE
:101BD0009CB40000C4B4000080B586B000AFF860CB
:101BE000B9601346FB71FB79022B07D0FB791A46CB
:101BF0001649F86807F0BAF8034623E0BB681B787B
:101C00009BB21B02FB82BB6801331B789AB2FB8A32
:101C10001343FB82FB8A0E4AA2FB03239B09BB8270
:101C2000FB8A0B4AA2FB031292094FF47A7101FB63
:101C300002F29B1A7B82BA8A7B8A0649F86807F00F
:101C400095F8034618461837BD4680BDD8B4000045
:101C5000D34D6210ECB4000080B584B000AFF860E2
:101C6000B9601346FB71FB791A46B968F86806F04B
:101C7000FDFBFB7918461037BD4680BD80B584B0AA
:101C800002AF786039608A49386807F06FF8034618
:101C90001A463B6813443B607B685B781A467B6856
:101CA0001B7819467B685B8800930B46814938682E
:101CB00007F05CF803461A463B6813443B607B68B8
:101CC0001B785BB2002B0BDB7B689B881A467A493A
:101CD000386807F04BF803461A463B6813443B60EC
:101CE0007B681B7803F06003402B08D17349386888
:101CF00007F03CF803461A463B6813443B607B6898
:101D00005B78B22B4CD0B22B0EDC022B00F08E8015
:101D1000022B04DC002B27D0012B15D0A2E0B02B26
:101D200030D0B12B4AD09DE0B52B71D0B52B04DC5F
:101D3000B32B51D0B42B5DD094E0C02B00F0848045
:101D4000EC2B00F0AA808DE07B6899687B68DA79DB
:101D50007B6893F906303868FFF70EF803461A4699
:101D60003B6813443B609BE07B6899687B68DB7948
:101D70001A463868FFF7CEF803461A463B68134404
:101D80003B608DE07B6899687B68DB791A46386830
:101D9000FFF7FCF803461A463B6813443B607FE0BC
:101DA0007B6899687B68DB791A463868FFF704FA24
:101DB00003461A463B6813443B6071E07B689968B0
:101DC0007B68DB791A463868FFF74CFB03461A46F6
:101DD0003B6813443B6063E07B6899687B68DB7910
:101DE0001A463868FFF774FC03461A463B681344EA
:101DF0003B6055E07B6899687B68DB791A463868F8
:101E0000FFF702FD03461A463B6813443B6047E078
:101E10007B6899687B68DB791A463868FFF714FE9F
:101E200003461A463B6813443B6039E07B68996877
:101E30007B68DB791A463868FFF7CEFE03461A4600
:101E40003B6813443B602BE07B6899687B68DB79D7
:101E50001A463868FFF700FF03461A463B681344EA
:101E60003B601DE07B68DB79002B18D01449386893
:101E700006F07CFF03461A463B6813443B607B68D0
:101E800099687B68DB791A46386800F00DFB0346D9
:101E90001A463B6813443B6001E000BF00E000BF0E
:101EA0000849386806F062FF00BF0837BD4680BDAC
:101EB000FCB4000000B500001CB5000028B500000F
:101EC00030B500003CB5000080B586B000AFF860CA
:101ED000B9601346FB71BB681B78013B092B62D8C4
:101EE00001A252F823F000BF111F00002D1F0000B7
:101EF000431F00005F1F0000A71F0000A71F000076
:101F0000A71F0000A71F0000751F0000911F000001
:101F1000BB6801331B781A46BB6802331B7829491A
:101F2000F86806F023FF0346FB7546E0BB68013303
:101F30001B781A462449F86806F018FF0346FB751B
:101F40003BE0BB6801331B781A46BB6802331B7841
:101F50001E49F86806F00AFF0346FB752DE0BB68D2
:101F600001331B781A461A49F86806F0FFFE03464B
:101F7000FB7522E0BB6801331B781A46BB6802334D
:101F80001B781449F86806F0F1FE0346FB7514E06F
:101F9000BB6801331B781A460F49F86806F0E6FE65
:101FA0000346FB7509E0BB681B781A460B49F868C5
:101FB00006F0DCFE0346FB7500BFFB7D18461837B4
:101FC000BD4680BDC4B50000E4B5000000B6000009
:101FD00020B600003CB6000058B600006CB6000009
:101FE00080B5ACB000AF7860084611461A4603468B
:101FF000FB700B46BB7013467B707B681B7887F8C1
:102000008C307B681B78013B092B73D801A252F8F6
:1020100023F000BF3D200000592000006D2000008B
:102020009F200000F5200000F5200000F5200000B2
:10203000F5200000B1200000E32000007B685B7801
:1020400087F88D3000F028FA0346DBB287F88E302F
:10205000032387F8AF3051E000F01EFA0346DBB2ED
:1020600087F88D30022387F8AF3047E0FEF742FD56
:1020700002F004FF7B6801331B78184603F086F8F2
:1020800002F0A6FE7B685B7887F88D30FEF70AFBCE
:10209000034687F88E30032387F8AF302EE0FEF733
:1020A00001FB034687F88D30022387F8AF3025E027
:1020B000FEF720FD02F0E2FE7B6801331B78184634
:1020C000FEF7FEFA02F084FE7B685B7887F88D30BD
:1020D000FEF72AFB034687F88E30032387F8AF30DC
:1020E0000CE0FEF721FB034687F88D30022387F8CA
:1020F000AF3003E0012387F8AF3000BFBB78002B7F
:1021000009D07B7899B297F8AF3007F18C02EC20B8
:10211000FEF7ECFD13E097F8AF2007F18C0107F113
:102120000C031846FFF7D0FE034687F8AE30064B87
:102130001B6897F8AE1007F10C021046984700BFD5
:10214000B037BD4680BD00BF5803002080B594B0B5
:1021500000AF78600B46FB702949786800F0E0F921
:102160000346002B2AD07B68181DFB78043BD9B2AC
:1021700007F14E0307F10C0200F037FA0346002B7B
:1021800039D097F84E2007F10C0311461846FEF798
:10219000C3FC97F84E301A4607F12C03194918462C
:1021A00006F0E4FD034687F84F30174B1B6897F89D
:1021B0004F1007F12C02104698471CE0134978682D
:1021C00000F0AEF90346002B15D07B68181DFB7894
:1021D000043BD9B207F14D0307F12C0200F005FAD8
:1021E0000346002B07D097F84D1007F12C00002371
:1021F0000022FFF7F5FE00BF5037BD4680BD00BF8F
:1022000084B600008CB60000580300209CB6000085
:1022100080B483B000AF78607B6800221A60BFF39F
:102220005F8F00BF0C37BD465DF8047B704780B5FB
:1022300084B000AF78600121786800F01CFAF86083
:10224000BFF35F8FFB68002B0CBF01230023DBB2C1
:1022500018461037BD4680BD80B483B000AF7860AB
:10226000BFF35F8F7B6800221A6000BF0C37BD464A
:102270005DF8047B704780B400AF20BF40BF20BF33
:1022800000BFBD465DF8047B7047000080B584B098
:1022900000AF78600B46FB700023FB6029E0FB6811
:1022A0007A6813441B78FB72FB7A0D2B05D0FB7AFE
:1022B0000A2B02D0FB7A002B0ED1124B1B78002B7D
:1022C00014D0114B1B680F4A127811460F489847DB
:1022D0000C4B00221A7009E00A4B1B785A1CD1B231
:1022E000084A11701946094AFB7A5354FB680133B6
:1022F000FB60FA78FB689A42D1DC00BF1037BD461C
:1023000080BD00BF28060020A4050020A8050020ED
:1023100080B58AB002AF78600B46FB70FB78032B68
:1023200043D801A252F823F03923000045230000CE
:10233000772300009F2300001E4B1B6801331D4ABA
:10234000136032E01C4B1B6801331B4A136007F11A
:102350001C0207F10C0100230093134610221748BA
:1023600000F0C7FFFB69DAB207F10C03114618460B
:10237000FFF78CFF19E0124B1B680133104A136002
:102380000E4801F052F80D4800F070FE0D4A0E495B
:102390000A4800F0CBFD0D4B00221A7005E00C4BF3
:1023A0001B6801330A4A136000BF00BF2037BD46D7
:1023B00080BD00BF2C06002030060020F4B60000CF
:1023C00034060020D8B60000A4B60000280600207D
:1023D0003806002080B584B000AF78600B4A7B6877
:1023E00013600B4A0B490C4800F0A0FDF860FB6835
:1023F000BB60BB68002B02D0B86801F0E9FD07485C
:10240000FFF706FF00BF1037BD4680BDA4050020C2
:10241000D8B60000A4B60000F4B60000042A0020DC
:1024200080B586B002AF786000BF1848FFF7FFFEA6
:10243000034683F00103DBB2002BF6D1786806F087
:10244000B9FC02464FF0FF3300930023796810482F
:1024500000F0ACFEF8600D48FFF7FEFEFB68112BA4
:10246000E2D0FB680D2B05D10A4B1B680133094AEA
:10247000136007E0FB68002B04D0064B1B68013398
:10248000044A136000BF1037BD4680BD042A0020F7
:10249000F4B600003C06002080B400AF02231846CA
:1024A000BD465DF8047B704780B588B000AFF8602A
:1024B000B9601346FB710023FB611749F86806F009
:1024C00055FC78617B69FA681344FB60FA697B69A3
:1024D0001344FB610023BB6114E0BB69BA68134479
:1024E0001B781A460D49F86806F040FC78617B6954
:1024F000FA681344FB60FA697B691344FB61BB69AA
:102500000133BB61FA79BB699A42E6DCFB69184684
:102510002037BD4680BD00BF14B7000018B70000CB
:1025200080B483B000AF786039600BE03B681B7803
:10253000002B01D1012312E07B6801337B603B68F3
:1025400001333B607B681A783B681B789A42EDD078
:102550003B681B78002B0CBF01230023DBB218461D
:102560000C37BD465DF8047B704780B485B000AF82
:102570000346FB710023FB73FB79392B03D8FB79EE
:10258000303BFB730CE0FB79462B03D8FB79373BE0
:10259000FB7305E0FB79662B02D8FB79573BFB7395
:1025A000FB7B18461437BD465DF8047B704780B549
:1025B00084B000AF78607B681B781846FFF7D5FFC2
:1025C0000346FB73FB7B1B01FB737B6801331B78AA
:1025D0001846FFF7CAFF03461A46FB7B1343FB73FB
:1025E000FB7B18461037BD4680BD80B586B000AF76
:1025F000F8607A603B600B46FB72FB7A032B05D9CF
:10260000FB7A03F00103DBB2002B01D000232EE0A4
:10261000FB681B78302B04D1FB6801331B78782BC7
:1026200001D0002323E03B6800221A70FB680233CC
:102630007B6102233B6115E07869FFF7B8FF034631
:102640001A467B681A707B6902337B617B680133B1
:102650007B603B681B780133DAB23B681A703B69D8
:1026600002333B61FA7A3B699A42E5DC0123184662
:102670001837BD4680BD90B486B000AF7860396031
:102680007B683A6853E8004F104643E8000191F038
:10269000000FF7D17C613861F9607B691846183703
:1026A000BD4690BC704780B483B000AF786039609D
:1026B0007B689A683B689A4202D93B68013300E024
:1026C000002318460C37BD465DF8047B704780B484
:1026D00085B000AF78607B681B681B68FB607B6817
:1026E0001B685B68BB60BA68FB689A4203D3BA6830
:1026F000FB68D31A06E07B689A68FB68D21ABB684D
:102700001344013318461437BD465DF8047B704707
:1027100090B58BB000AFF860B9607A60F86800F0EF
:1027200064F97862FB689A68FB681B685B68D31A77
:1027300001333B62FB685B681946FB681B685B689A
:10274000FA68D26802FB03F30B44FB617A683B6AC8
:102750009A421DD8FB68DB687A6802FB03F31A46CD
:10276000B968F86905F082FEFB681A68FB681B68A7
:1027700059687B681944FB689B68994205D8FB68D7
:102780001B6859687B680B4400E0002353602FE00E
:10279000FB68DB683A6A02FB03F3BB61BA69B9689C
:1027A000F86905F063FE7A683B6AD31A7B61FB68BF
:1027B0005868BA68BB6913441946FB68DB687A69D4
:1027C00002FB03F31A4605F051FEFB681B687A69A9
:1027D0005A607A6A7B689A420AD2FB681C68FB6876
:1027E0001B685B681946F868FFF75DFF03462360C6
:1027F000F868FFF76CFF3861FB681B689A683B69F3
:102800009A4203D2FB681B683A699A6000BF2C3772
:10281000BD4690BD80B586B000AFF860B9607A6003
:102820007B687B617B68002B01D1002321E00020C5
:1028300001F032FCFB681B7C002B07D1FB689B6816
:102840007A68934228BF13467B6009E0F86800F07D
:10285000CCF838617A683B69934228BF13467B60A5
:102860007A68B968F868FFF753FF002001F01EFC92
:102870007B6818461837BD4680BD80B58AB000AF6A
:10288000F860B9607A60FB681B681B687B62FB6854
:102890001B685B683B627A6A3B6A9A4203D83A6A71
:1028A0007B6AD31A04E0FB689A687B6AD31A013307
:1028B000FB61FB685B681946FB68DB687A6A02FBB0
:1028C00003F30B44BB617A68FB699A4219D8FB6831
:1028D000DB687A6802FB03F31A46B969B86805F049
:1028E000C5FDFB681A68796A7B681944FB689B68B8
:1028F000994203D8796A7B680B4400E00023136097
:1029000020E0FB68DB68FA6902FB03F37B617A690C
:10291000B969B86805F0AAFD7A68FB69D31A3B610A
:10292000BA687B6913441846FB685968FB68DB6822
:102930003A6902FB03F31A4605F098FDFB681B6831
:102940003A691A6000BF2837BD4680BD80B586B0A1
:1029500000AFF860B9607A607B687B617B68002BB0
:1029600001D1002315E0002001F096FBF868FFF785
:10297000AEFE38617A683B69934228BF13467B609C
:102980007A68B968F868FFF778FF002001F08EFBDD
:102990007B6818461837BD4680BD80B582B000AF51
:1029A0007860002001F078FB7B681B680C22002116
:1029B000184605F066FD002001F078FB00BF0837DF
:1029C000BD4680BD80B584B000AF7860002001F0C6
:1029D00063FB7868FFF77BFEF860002001F066FB80
:1029E000FB6818461037BD4680BD90B583B000AF78
:1029F00078607B689C687868FFF7E4FF0346E31A19
:102A000018460C37BD4690BD80B483B000AF7860E7
:102A10007B6803F06043B3F1005F0CBF0123002328
:102A2000DBB218460C37BD465DF8047B70470000EA
:102A300080B582B000AF78607B681B781A460D4B7A
:102A40009B5C002B05D07B680433184604F01CFD0A
:102A50000BE07B681B781A46064B9B5C002B04D16D
:102A60007B680C33184603F01BFD00BF0837BD46DA
:102A700080BD00BF082A002080B586B000AFF86096
:102A8000B9601346FB7100237B61FB681B781A4613
:102A9000104B9B5C002B08D0FB680433FA79B968B3
:102AA000184604F021FD78610EE0FB681B781A4699
:102AB000084B9B5C002B07D1FB680C33FA79B96893
:102AC000184603F063FD78617B6918461837BD46E8
:102AD00080BD00BF082A002080B584B000AF7860B8
:102AE0000023FB737B681B781A460F4B9B5C002B03
:102AF00007D07B680433184604F074FD0346FB736B
:102B00000DE07B681B781A46074B9B5C002B06D1B7
:102B10007B680C33184603F0A5FD0346FB73FB7B73
:102B200018461037BD4680BD082A002080B586B003
:102B300000AFF860B9601346FB7100237B61FB684E
:102B40001B781A46104B9B5C002B08D0FB680433A3
:102B5000FA79B968184604F061FD78610EE0FB6807
:102B60001B781A46084B9B5C002B07D1FB680C3383
:102B7000FA79B968184603F0D7FD78617B69184681
:102B80001837BD4680BD00BF082A002080B584B03C
:102B900000AF78600023FB737B681B781A460F4BED
:102BA0009B5C002B07D07B680433184604F018FEAA
:102BB0000346FB730DE07B681B781A46074B9B5C52
:102BC000002B06D17B680C33184603F08BFE0346BE
:102BD000FB73FB7B18461037BD4680BD082A0020DA
:102BE00080B582B000AF78607B681B781A460A4BCC
:102BF0009B5C002B0BD17B681B781A46064B9B5CB9
:102C0000002B04D17B680C33184603F07BFE00BF19
:102C10000837BD4680BD00BF082A002080B582B0BD
:102C200000AF78607B681B781A460D4B9B5C002BCD
:102C300005D07B680433184604F017FE0BE07B6870
:102C40001B781A46064B9B5C002B04D17B680C3327
:102C5000184603F0B2FE00BF0837BD4680BD00BF76
:102C6000082A002080B483B000AF78607B6800221F
:102C70001A60BFF35F8F00BF0C37BD465DF8047B61
:102C8000704780B584B000AF786001217868FFF7A5
:102C9000F2FCF860BFF35F8FFB68002B0CBF0123D1
:102CA0000023DBB218461037BD4680BD80B483B028
:102CB00000AF7860BFF35F8F7B6800221A6000BFAF
:102CC0000C37BD465DF8047B704780B582B000AF1D
:102CD00078600B46FB707B685B691B68DB68002BC8
:102CE00007D07B685B691B68DB68FA7811467868F7
:102CF000984700BF0837BD4680BD80B582B000AFA1
:102D000078607B685B691B681B78002B0BD07B6845
:102D10005B691B681B69002B06D07B685B691B68BD
:102D20001B69984700E000BF0837BD4680BD80B5ED
:102D300088B000AFF860B9607A60FB685B691B68B7
:102D40001B78002B27D17B68FF2B28BFFF23BB619B
:102D5000BB69FB610FE0FB680122B9681846FFF709
:102D6000E5FE78617B69002B10D1BB680133BB6045
:102D7000FB69013BFB61FB681846FFF707FF034651
:102D8000002B04D0FB69002BE5D100E000BFBA693D
:102D9000FB69D31A0BE0FB685B691B685B681B6807
:102DA0003B617A68B9683869FFF7D0FD0346184679
:102DB0002037BD4680BD80B58CB000AFF860B960EB
:102DC0007A600023FB62FB685B691B681B78002B41
:102DD0000ED17B68FF2B28BFFF23FB62FB68FA6ADA
:102DE000D2B2B9681846FFF747FEB862FB6A2CE01A
:102DF000FB685B691B685B685B687B62FB685B699F
:102E00001B689B683B627A68B968786AFFF702FDC5
:102E1000F861FB681846FFF75FFE0346002B01D000
:102E2000FB6912E03B6A19683B6A1B7A1A46786AAA
:102E3000FFF78CFDB861F8683B6A1B68BA69D2B2CB
:102E40001946FFF719FE7861FB6918463037BD4611
:102E500080BD80B58AB000AF786039603B687B6226
:102E60007B681B78012B04D0022B2FD0002B32D093
:102E700057E07B6A5B691B685B681B683B627B6829
:102E800059687B681B7A1A46386AFFF7C3FCF861F9
:102E90007B681B7A1A46FB699A4204D90321786A37
:102EA000FFF713FF3DE00121786AFFF70EFF7B6A11
:102EB0005B691B689B68BB61786ABB695968BB69C1
:102EC0005B7A1A46FFF732FE78612AE00221786ABF
:102ED000FFF7FBFE25E07B6A5B691B685B685B684C
:102EE0003B617B6A5B691B689B68FB600021786AB9
:102EF000FFF7EBFEFB681968FB681B7A1A46386916
:102F0000FFF724FDB860BB68002B09D0786AFB6826
:102F10001B68BA68D2B21946FFF7AEFD786100E0CF
:102F200000BF00BF2837BD4680BD000080B58EB011
:102F300000AFF860B9607A60FB685B691B68002BC2
:102F400001D085238BE007F114032022B9681846CD
:102F500005F08CFAFB687B627B681B78022B0CBF48
:102F600001230023DBB287F83130F8687B681B78D7
:102F7000002B01D03C4A00E0002207F1140319465F
:102F800002F0AEF978637B6B002B01D07B6B66E0BF
:102F9000FB685B697A681A60FB685B691B685B6841
:102FA000002B0FD0FB685B691B685B685B68184689
:102FB000FFF7F3FCFB685B691B685B681B681846DE
:102FC000FFF7EBFCFB685B6908331846FFF74AFE26
:102FD000FB685B6904331846FFF744FEFB685B69D6
:102FE00003221A737B69B3F1FF3F08D1FB685B6969
:102FF000FA685269127B22F00202D2B21A73BB69DC
:10300000B3F1FF3F0AD1FB685B69FA685269127B32
:1030100022F00102D2B21A73002320E0FB685B6940
:103020001B681B78022B0BD0FB681846FFF7D8FDF6
:10303000FB685B691B681B78002B01D100230EE045
:10304000F868FB685B691B689B685968FB685B698B
:103050001B689B685B7A1A46FFF768FD03461846B3
:103060003837BD4680BD00BF532E000080B582B00A
:1030700000AF78607B685B691B68002B01D18023FF
:1030800043E07B685B6904331846FFF7FAFD0346AB
:1030900083F00103DBB2002B01D0112335E07B6804
:1030A0005B6908331846FFF7ECFD034683F0010324
:1030B000DBB2002B07D07B685B6904331846FFF74F
:1030C000F5FD112321E07B681846FFF7B1FC7B6812
:1030D0005B691B685B68002B0FD07B685B691B68B2
:1030E0005B685B681846FFF758FC7B685B691B6888
:1030F0005B681B681846FFF750FC7B685B69102211
:103100000021184605F0BDF9002318460837BD46D2
:1031100080BD80B485B000AF78607B68FB60FB68E1
:1031200001221A7000BF1437BD465DF8047B70475A
:10313000B0B586B000AFF860B9607A603B607B687C
:103140001A464FF00003DD0345EA5245D40314F557
:10315000FA7045F100014FF47A724FF0000307F066
:10316000EBFE03460C467B617B69042B04D83B686D
:1031700001221A70002312E00B4A0021B86800F007
:103180009BFE38613B69002B01D03B6907E0BB68BF
:103190001B683A687969184600F0C2FE0346184673
:1031A0001837BD46B0BD00BF1331000080B58AB0EE
:1031B00000AFF860B9607A603B60FB685B691B68D0
:1031C000002B01D1802390E0FB685B691B7B03F03F
:1031D0000203002B01D1082387E07B68002B01D17B
:1031E000002382E0B868FFF70FFC034683F0010379
:1031F000DBB2002B07D0FB685B691B681B78022BD6
:1032000001D1102371E0FB685B6904331846FFF7B6
:1032100038FD034683F00103DBB2002B01D01123FC
:1032200063E000233B753B6BB3F1FF3F13D0FB68BA
:10323000996907F114033A6BF868FFF779FFF861B1
:10324000FB69002B07D0FB685B6904331846FFF766
:103250002DFDFB6949E07B687B62BB683B627A6A53
:10326000396AF868FFF7A7FDB8617A6ABB69D31AB3
:103270007B623A6ABB6913443B627B6A002B0AD0CB
:10328000F868FFF73AFD3B7DDBB283F00103DBB268
:10329000002BE4D100E000BF3B68002B04D07A682B
:1032A0007B6AD21A3B681A603B7DDBB283F0010374
:1032B000DBB2002B09D03B6BB3F1FF3F05D0FB68BD
:1032C0009B691B68184600F05FFEFB685B6904336E
:1032D0001846FFF7EBFC7B6A002B05D03B7DDBB289
:1032E000002B01D00D2300E0002318462837BD46EF
:1032F00080BD80B58AB000AFF860B9607A603B608D
:10330000FB685B691B68002B01D1802389E0FB68A7
:103310005B691B7B03F00103002B01D1082380E0D4
:103320007B68002B01D100237BE0FB685B690833DD
:103330001846FFF7A6FC034683F00103DBB2002B1F
:1033400001D011236DE000233B753B6BB3F1FF3FD0
:1033500013D0FB68D96907F114033A6BF868FFF7DB
:10336000E7FEF861FB69002B07D0FB685B69083357
:103370001846FFF79BFCFB6953E07B687B62BB68E8
:103380003B627A6A396AF868FFF7D1FCB8617A6AF9
:10339000BB69D31A7B623A6ABB6913443B627B6A9E
:1033A000002B12D03B7DDBB2002B0AD0FB685B699F
:1033B0001B681B78002B0AD0FB681846FFF72EFC11
:1033C00005E0F868FFF799FCDBE700BF00E000BF0D
:1033D0003B68002B04D07A687B6AD21A3B681A607B
:1033E0003B7DDBB283F00103DBB2002B09D03B6BEA
:1033F000B3F1FF3F05D0FB68DB691B68184600F09E
:10340000C3FDFB685B6908331846FFF74FFC7B6A16
:10341000002B05D03B7DDBB2002B01D00D2300E05B
:10342000002318462837BD4680BD80B584B000AF64
:1034300078607B685B691B68002B01D1802337E0D3
:103440007B685B691B7B03F00103002B01D1082320
:103450002EE07B685B6908331846FFF712FC0346D1
:1034600083F00103DBB2002B01D0112320E000BF69
:1034700007F10F03012219467868FFF758FC03464D
:10348000002BF5D17B685B691B685B681B68002BB0
:1034900007D07B685B691B685B681B681846FFF791
:1034A0007CFA7B685B6908331846FFF7FFFB002353
:1034B00018461037BD4680BD80B483B000AF0346C8
:1034C000FB71094997F907305B09FA7902F01F028D
:1034D000012000FA02F241F8232000BF0C37BD465C
:1034E0005DF8047B704700BF00E100E080B483B06A
:1034F00000AF0346FB71094997F907305B09FA7978
:1035000002F01F02012000FA02F2203341F82320CA
:1035100000BF0C37BD465DF8047B704700E100E05A
:1035200080B483B000AF0346FB71094997F90730B7
:103530005B09FA7902F01F02012000FA02F240331F
:1035400041F8232000BF0C37BD465DF8047B70476F
:1035500000E100E080B483B000AF0346FB7109498D
:1035600097F907305B09FA7902F01F02012000FA8F
:1035700002F2603341F8232000BF0C37BD465DF8EE
:10358000047B704700E100E080B584B000AF786054
:103590007B68002B0AD0074B43F00103FB607B687C
:1035A0009B01BB60FB68B868984700E000BF10371C
:1035B000BD4680BD20B7000080B500AF0D4B4FF475
:1035C0008032C3F844230B4B4FF48032C3F80423FA
:1035D0001120FFF7BFFF1120FFF76EFF054B0122FF
:1035E0001A602F20FFF7D0FF034B01221A7000BF93
:1035F00080BD00BF001001405E07002080B500AF15
:103600001120FFF773FF0F4B4FF48032C3F84823AC
:103610000C4B4FF48032C3F808230A4B01225A6046
:103620002F20FFF7B1FF074B01229A60064B0022C3
:103630001A602F20FFF7A8FF044B00221A7000BF6A
:1036400080BD00BF00100140500700205E07002031
:1036500080B400AF034BD3F804351846BD465DF87F
:10366000047B70470010014080B483B000AF7860E5
:1036700039607A683B68D31A23F07F4318460C37C9
:10368000BD465DF8047B704780B483B000AF7860BE
:10369000044A7B68C2F8403500BF0C37BD465DF870
:1036A000047B70470010014080B487B000AF7860A1
:1036B000294B1B68002B03D1274A7B68136045E028
:1036C0007B681A68244B1B681B689A4210D8224BEF
:1036D0001B68214A126811687A6812688A1A1A608F
:1036E0001D4B1A687B68DA611B4A7B6813602DE00A
:1036F0007B681B68FB60184B1B687B61164B1B6863
:103700003B6109E03B691B68FA68D31AFB603B69BF
:103710007B613B69DB693B613B69002B04D03B6902
:103720001A68FB689A42EDD33B69002B05D03B69D0
:103730001A68FB68D21A3B691A607B68FA681A60DB
:103740007B683A69DA617B697A68DA6100BF1C37A5
:10375000BD465DF8047B70474C07002080B586B0FD
:1037600000AF7860294B1B68FB60284B1B687B61AE
:103770007B693B6108E03A697B689A4208D03B6903
:103780007B613B69DB693B613B69002BF3D100E066
:1037900000BF3B69002B01D1002333E07A693B690C
:1037A0009A4214D1194B1B68DB69184A1360174BF6
:1037B0001B68002B0BD1164B01229A60154B00227F
:1037C0001A60154B01221A702F20FFF7DDFE3B69AE
:1037D0001B68BB603B69DA697B69DA617B69DB691D
:1037E0003B613B69002B05D03B691A68BB681A44F2
:1037F0003B691A60054B1B68FA689A4214BF0123A3
:103800000023DBB218461837BD4680BD4C070020A8
:1038100000100140500700205F07002080B500AF76
:103820001120FFF77DFE00BF80BD80B500AF1520E1
:10383000FFF776FE00BF80BD80B582B000AF786034
:103840007B685B697A6892691046984700BF0837C1
:10385000BD4680BD80B584B000AF2B4B1B68002BEC
:103860004ED000237B60FFF7F3FE0246274B1B6818
:1038700019461046FFF7F8FEB860234B1B68FB6043
:103880001DE0FB681A68BB689A421CD8FB681B687D
:10389000BA68D31ABB60FB681B687A6813447B6004
:1038A000FB683B60FB68DB69FB603B681B7C002BB3
:1038B00005D03B6800221A743868FFF7BDFFFB682B
:1038C000002BDED100E000BF114B1A78114B1B78A2
:1038D0009A420CD10F4B1B780133DAB20D4B1A70A0
:1038E0000C4B1B78022B02D10A4B00221A70094B99
:1038F0001B781946084A7B6842F82130FFF795FF8C
:1039000000BF1037BD4680BD4C0700205007002087
:103910005C0700205D0700205407002080B483B0BE
:1039200000AF7860194B1A78194B1B789A4223D054
:10393000164B1B780133DAB2144B1A70134B1B78F9
:10394000022B02D1114B00221A70104B1B781A4621
:10395000104B53F822207B681A607B681A680E4B64
:103960001B6813440C4A13600B4B1B6823F07F4306
:10397000094A1360012303E07B6800221A600023D8
:1039800018460C37BD465DF8047B70475C07002085
:103990005D070020540700205007002080B489B044
:1039A00000AFF860B9607A600023FB6138E0214B1A
:1039B0001B68BB61BB691A68FB689A4206D9BB6980
:1039C0001A68FB68D21ABB691A602DE0BB691B68D4
:1039D000FA68D31AFB60BB691B68FA691344FB6180
:1039E000BB6900221A60134B1B687B61BB69DB69F2
:1039F000104A1360BB69DB68002B11D0BA68FB6901
:103A0000134423F07F42BB695A60BB69DA68BB6923
:103A10009A607B681A68BB69DA617B687A691A60A8
:103A2000044B1B68002BC2D100BF2437BD465DF894
:103A3000047B70474C07002080B588B000AF7860E9
:103A40000023FB77654B1B687B61A9E07B68002B3B
:103A500005D07B68BB61BB69DB697B6060E0604B64
:103A60001B781A4613465B001344DB005C4A134480
:103A700004333B615A4B1B780133DAB2584B1A704E
:103A8000574B1A78564B9B789A4202D1544B0022DE
:103A90001A703B695B68BB613B691B78022B04D0E1
:103AA000032B1AD0012B1ED01CE03B695B68184623
:103AB000FFF754FE0346002B01D00123FB77BB69BF
:103AC00000221A746CE0454B1B68FB60FB68002207
:103AD0001A74FB68DB69414A1360404B1B68002B7A
:103AE000F1D15DE05CE000BFBB691B7C002B00D026
:103AF00056E03B699A68BB695A603B69DA68BB6902
:103B00009A603B691A69BB69DA603B695A69BB69AB
:103B10009A61344B1B78002B02D0BB6900225A609B
:103B2000BB695A68304B1B68D31A23F07F432F4A76
:103B300093420ED8BB695A682B4B1B681946104636
:103B4000FFF792FD0246BB699B681A44BB691A6085
:103B500017E0254B1A68BB695B6819461046FFF7EA
:103B600083FDB860BB699A68BB689A4206D9BB6995
:103B70009A68BB68D21ABB691A6002E0BB6900226E
:103B80001A60BB6900225A60BB6900229A60BB6957
:103B900001221A74BB690022DA61B869FFF784FD5B
:103BA0007B68002B7FF452AF0D4B1A780C4B5B787F
:103BB0009A427FF44BAFFB7F002B04D1074B1A686E
:103BC0007B699A4201D0012300E0002303F0010346
:103BD000DBB218462037BD4680BD00BF4C07002031
:103BE000400600205F07002050070020FEFF7F00F6
:103BF00090B589B000AF7860274B1B68002B44D08C
:103C0000254B1B681B68FB61FFF722FDB861234B46
:103C10001B687B617969B869FFF726FD03460333AA
:103C20003B611F4B1B7883F00103DBB2002B01D0FB
:103C3000FFF7C2FC3A69FB69934238BF13467A69C1
:103C400013447B617B6923F07F437B617869FFF7D5
:103C50001BFDFFF7FDFCF860B969F868FFF704FD8C
:103C60000346DC1CB9697869FFF7FEFC03469C42F9
:103C70000DD9FFF7EDFC03461846FFF705FD2F2091
:103C8000FFF782FCFFF7CAFD01E0FFF7B7FC00BFBA
:103C90002437BD4690BD00BF4C07002050070020D0
:103CA0005E07002080B586B000AF00237B60002354
:103CB000FB75164B1B683B61154B1B68FB603B4655
:103CC0001846FFF72BFE0346FB72FB7A002B07D04A
:103CD0003B683A1D39691846FFF760FE0123FB7502
:103CE0007B681846FFF7A8FE0346002B01D001238E
:103CF000FB75FB7D002B02D0F868FFF779FF054BC1
:103D000000221A7000BF1837BD4680BD5007002042
:103D10004C0700205F07002080B483B000AF03464B
:103D2000FB71044AFB79537000BF0C37BD465DF848
:103D3000047B70474006002080B485B000AF7860F7
:103D4000134B5B780133FB73114B9B78FA7B9A42E0
:103D500001D10023FB730E4B1B78FA7B9A4201D1F1
:103D600000230EE07B68FA7B1A70094B5B781A46D9
:103D700013465B001344DB00054A13440433BB6065
:103D8000BB6818461437BD465DF8047B704700BF1A
:103D90004006002080B588B000AFF860B9607A6056
:103DA0003B600023FB61002000F076F907F1170368
:103DB0001846FFF7C1FFB861BB69002B02D104238D
:103DC000FB6117E0BB6901221A70BB69FA685A608F
:103DD000FFF73EFC0246BB699A60BB69BA68DA60CD
:103DE000BB697A681A61BB693A685A61FB7D1846FB
:103DF000FFF792FF002000F059F9FB69002B01D179
:103E0000FFF713FDFB6918462037BD4680BD80B51E
:103E100086B000AF78600B46FB7000237B6100200A
:103E200000F03AF907F10F031846FFF785FF3861F4
:103E30003B69002B02D104237B6109E03B69FA78DE
:103E40001A703B697A685A60FB7B1846FFF764FF7B
:103E5000002000F02BF97B69002B01D1FFF7E5FC76
:103E60007B6918461837BD4680BD000080B500AF9D
:103E70000D4B0022C3F840210B4B0022C3F8442114
:103E8000094B0022C3F84821074B0022C3F84C21FC
:103E9000054B0022C3F80021034B0022C3F8042184
:103EA000FFF7D8FC00BF80BD0010014080B500AF17
:103EB000FFF7F8FE00BF80BD80B487B000AFF860A8
:103EC0000B467A60FB72154B9B78002B01D10823BF
:103ED0001DE07B68002B01D1072318E0FB68002B55
:103EE00001D1072313E0FB681B681B7C002B01D06A
:103EF00008230CE0FB681B687B617B6900221A7455
:103F00007B69FA7A5A747B697A685A610023184689
:103F10001C37BD465DF8047B704700BF400600209B
:103F200080B586B000AFF860B9607A60FB687B61ED
:103F3000144B9B78002B01D108231EE0FB68002B5B
:103F400001D1082319E0BB68042B01D8072314E032
:103F50007B695B69002B01D108230EE07B695B7CE8
:103F6000012B01D1BB6800E000233B617B683A690B
:103F7000B9687869FFF70EFF034618461837BD4643
:103F800080BD00BF4006002080B584B000AF7860DF
:103F90007B68FB600D4B9B78002B01D1082310E060
:103FA0007B68002B03D0FB685B69002B01D10823E1
:103FB00007E0FB6800221A740221F868FFF727FF68
:103FC000034618461037BD4680BD00BF400600209E
:103FD00080B586B000AF78600023FB6000233B61B2
:103FE0007B687B6107F10C031A46002144F2010053
:103FF00000F018F800BF1837BD4680BD80B400AF90
:10400000BFF34F8F0549054BDB6803F4E062044BB7
:104010001343CB60BFF34F8F00BFFDE700ED00E01F
:104020000400FA0580B584B000AFF860B9607A602A
:1040300072B6064B1B6803F00103002B00D000BED4
:10404000FFF7DCFF00BF1037BD4680BDF0ED00E09C
:1040500080B400AF72B6054B1B680133034A13608E
:1040600000BFBD465DF8047B704700BF60070020BD
:1040700080B400AF074B1B68013B064A1360054B39
:104080001B68002B00D162B600BFBD465DF8047B03
:10409000704700BF6007002080B582B000AF786035
:1040A000FFF7D6FF00BF0837BD4680BD80B582B0A0
:1040B00000AF0346FB71FFF7DBFF00BF0837BD46CB
:1040C00080BD000080B483B000AF0346FB71094996
:1040D00097F907305B09FA7902F01F02012000FA14
:1040E00002F241F8232000BF0C37BD465DF8047B87
:1040F000704700BF00E100E080B483B000AF03462A
:10410000FB71094997F907305B09FA7902F01F0240
:10411000012000FA02F2203341F8232000BF0C37BF
:10412000BD465DF8047B704700E100E080B483B0D9
:1041300000AF0346FB71094997F907305B09FA792B
:1041400002F01F02012000FA02F2403341F823205E
:1041500000BF0C37BD465DF8047B704700E100E00E
:1041600080B483B000AF0346FB71094997F907306B
:104170005B09FA7902F01F02012000FA02F26033B3
:1041800041F8232000BF0C37BD465DF8047B704723
:1041900000E100E080B483B000AF03463960FB71FA
:1041A00097F90730002B0BDA0D49FB7903F00F0369
:1041B000043B3A68D2B25201D2B20B441A7609E0FB
:1041C000084997F907303A68D2B25201D2B20B448B
:1041D00083F8002300BF0C37BD465DF8047B7047B1
:1041E00000ED00E000E100E080B487B000AF78604F
:1041F0007B681B687B617B69FB60FB6893FAA3F3B8
:10420000BB60BB683B613B691BBA00BF18461C37EB
:10421000BD465DF8047B704780B584B000AF786020
:104220007868FFF7E1FF0346FB60FB681BBA00BF3D
:1042300018461037BD4680BD80B48DB000AF4FF03A
:104240008053D3F8043103F47F43B3F5844F11D185
:10425000474A474BD3F8503623F00103C2F8503693
:10426000444A444B1B6823F0807323F0010343F05E
:10427000807313604FF08053D3F8043103F47F430D
:10428000B3F58A4F6CD13C4B5B7C052B01D13B4B8A
:1042900001E04FF07F43FB62354BD3F81C25FB6AEE
:1042A0001340BB62324BD3F82025FB6A13407B627C
:1042B000BA6A7B6A9A4253D12D4BD3F82435DBB2CC
:1042C0003B622B4BD3F824351B0ADBB2FB61284B36
:1042D000D3F824351B0CDBB2BB61254BD3F8243556
:1042E0001B0EDBB27B61224BD3F82835DBB23B617E
:1042F0001F4BD3F828351B0ADBB2FB601C4BD3F8ED
:1043000028351B0CDBB2BB60194BD3F828351B0ECC
:10431000DBB27B603A6AFB699A4217D03A6ABB69A2
:104320009A4213D03A6A7B699A420FD03A6A3B6943
:104330009A420BD03A6AFB689A4207D03A6ABB6845
:104340009A4203D03A6A7B689A4209D1094A094BDA
:104350001B6823F0807323F0010343F08073136024
:10436000002318463437BD465DF8047B704700BF14
:104370000010004074170040A00000200000FFFF64
:1043800080B400AF0A4B4FF00812C3F81425084A56
:10439000084B5B7C013B1B0443F0807343F08203BA
:1043A000C2F8183500BFBD465DF8047B704700BFFA
:1043B00000100040A000002090B583B000AF03467D
:1043C000FB71FB7903F00103002B06D0144C154858
:1043D000FFF722FF0346C4F81C35FB7903F0020304
:1043E000002B06D00E4C1048FFF716FF0346C4F80A
:1043F0002035FB7903F00403002B0DD0084C0B484B
:10440000FFF7F2FE0346C4F82435054C0848FFF7D1
:10441000EBFE0346C4F8283500BF0C37BD4690BDFF
:1044200000100040A0000020A4000020A8000020F0
:10443000AC00002080B400AF044B054A927AC3F868
:104440000C2500BFBD465DF8047B7047001000409E
:104450007007002080B400AF144B154A127AC3F8DD
:104460001025134B1B7A042B18D801A252F823F005
:104470008D440000854400009D44000095440000E8
:10448000854400000B4B30221A6009E0094B4022A2
:104490001A6005E0074B49221A6001E0002300E0A2
:1044A00001231846BD465DF8047B704700100040AC
:1044B000700700203028002080B400AF154B5B7AD5
:1044C000012B0ED0022B02D0002B16D013E0124B82
:1044D0004FF6FF72C3F83C250F4B104AC3F838253E
:1044E0000CE00D4BFF22C3F83C250B4B40F20712AA
:1044F000C3F8382502E0002306E000BF064B054A5A
:10450000527AC3F8342501231846BD465DF8047B72
:10451000704700BF7007002000100040211001000C
:1045200080B582B000AF0123FB71FFF783FFFFF777
:1045300091FF03461A46FB791340002B14BF012359
:104540000023FB71FFF7B8FF03461A46FB791340BF
:10455000002B14BF01230023FB71FFF711FFFB7930
:10456000084A9289862A8CBF01220022D2B21340C7
:10457000002B14BF01230023FB71FB791846083779
:10458000BD4680BD7007002080B400AF0C4B0022F8
:104590001A620B4B00225A62094B00229A62094BA5
:1045A0000022C3F8C820074B0022C3F8CC20054BDB
:1045B0000022C3F8D02000BFBD465DF8047B7047E1
:1045C000C00B00204C26002080B582B000AFFFF762
:1045D000DBFF00237B600EE07A681346DB001344A8
:1045E0001A01D21A124B1A4412497B6841F823204F
:1045F0007B6801337B607B68072BEDDD00233B602C
:104600000EE03A681346DB0013441A01D21A0A4B33
:104610001A440A493B6841F823203B6801333B6058
:104620003B68312BEDDD00BF0837BD4680BD00BFC4
:1046300088070020C00B0020EC0B00204C26002037
:1046400080B500AF0E4B9B6A002B16D00120FFF700
:1046500053FD0B4B9B6A013B094A9362084B5B6A13
:104660000133074A5362064B5B6A072B02D9044B9E
:1046700000225A620120FFF725FD00BF80BD00BF68
:10468000C00B002080B582B000AF0346FB71274B02
:10469000D3F8D030312B44D8254B1B78822B01D94D
:1046A00000233FE0214BD3F8C830204A52F8233092
:1046B0001F4A12781A711D4BD3F8C8301B4A52F8A2
:1046C0002330581D194BD3F8C830184A52F82330FC
:1046D0001B791A46164903F0C9FE144BD3F8C830AB
:1046E000124A52F82330134AD2F8482552B25A706F
:1046F0000E4BD3F8C83001330C4AC2F8C8300B4B0C
:10470000D3F8C830312B03D9084B0022C3F8C82096
:10471000064BD3F8D0300133044AC2F8D03001231D
:1047200000E0002318460837BD4680BD4C26002017
:10473000A42700200010004080B400AF084B0422E2
:10474000C3F81025064B0022C3F80825044B40F29D
:104750000222C3F8002200BFBD465DF8047B70470B
:1047600000A0004080B400AF124B134AC3F860258C
:10477000104B124AC3F864250E4B114AC3F8682542
:104780000C4B104AC3F86C250A4B0F4AC3F870252E
:10479000084B0E4AC3F87425064B0D4AC3F878251A
:1047A000044B0C4AC3F87C2500BFBD465DF8047B72
:1047B000704700BF00F001400011004000A0004021
:1047C0000411004004A0004040A10040101000402F
:1047D00044A100400010004080B500AF284B0122EA
:1047E0001A60284B5B6A274A52F82330264A136026
:1047F000254B1B68591D244B1B681B791A462348FF
:1048000003F034FE224A234B1B68C2F80032204BCF
:104810001022C3F80423204B204A1A60204B0122A7
:104820001A701B4A184B1B681B78C2F82C35184AA3
:10483000154B1B681B78194601238B40C2F8303595
:10484000134B184AD27CC3F80825114B0F4AC3F802
:1048500004250120FFF784FC0120FFF733FC0C4BFB
:104860000022C3F804210A4B0022C3F80821084B98
:104870000022C3F81021064B01221A6000BF80BD40
:104880002C280020C00B00206807002020270020D3
:1048900000100040B400002034280020A948000087
:1048A00065070020A000002080B500AF0C4B1B68FE
:1048B00043F001030A4A1360FFF7C2FE094B9B6AEB
:1048C000002B06D1084B00221A701420FFF72EFC93
:1048D00004E01420FFF72AFCFFF77EFF00BF80BD35
:1048E00028280020C00B00206507002080B500AFFD
:1048F000134A144B1B68C2F80032FFF741FD104BFE
:10490000114AC3F804250E4B0022C3F810210C4BAA
:1049100001221A6100BF0A4BD3F81031002BFAD0E4
:10492000074B0022C3F81021054A064B1B6843F0D1
:104930000403C2F80032024B01225A6000BF80BD5E
:1049400000100040B4000020A427002080B500AF74
:10495000124BD3F80034002B02D1FFF7C7FF1CE045
:104960000F4BD3F8D030312B02D9FFF7BFFF14E043
:10497000FFF7BCFF094BD3F80834DBB21846FFF74A
:1049800081FE0346002B08D0064B1B6843F004034E
:10499000044A13601420FFF7C9FB80BD00100040DB
:1049A0004C2600202828002080B582B000AF786017
:1049B0000F4B1B7883F00103DBB2002B01D00823DF
:1049C00012E07B68002B01D10E230DE00120FFF7E0
:1049D00093FB084B1A687B681A60064B00221A602A
:1049E0000120FFF76FFB002318460837BD4680BD46
:1049F000640700202828002080B500AF1F4BD3F8A3
:104A00000031002B0AD01D4BD3F8043303F001030F
:104A1000002B03D0194B0022C3F80021174BD3F809
:104A20000C31002B11D0154BD3F8043303F00803DD
:104A3000002B0AD0114B0022C3F80C21104B1B682D
:104A4000002B02D00E4B1B6898470C4BD3F810314B
:104A5000002B11D0094BD3F8043303F01003002BC3
:104A60000AD0064B0022C3F81021064B1B68002B0E
:104A700002D0044B1B68984700BF80BD0010004067
:104A8000382800203428002080B584B000AF78603A
:104A90007B68002B01D10E2362E0334B1B78002B87
:104AA00007D000F073F8F860FB68002B01D0FB68BA
:104AB00056E07B685B682D4A1360182279682C48A1
:104AC00003F0D4FC2B4B00221A60FFF729FD0346AC
:104AD00083F00103DBB2002B01D0072340E0264B1B
:104AE0004FF0E732C3F81C25234B4FF04332C3F895
:104AF0002025214B214AC3F824251F4B204AC3F807
:104B00002825FFF761FDFFF717FEFFF72BFE184B77
:104B10005B7C03F0070319460120FFF73BFB144BB6
:104B20009B7C03F0070319461420FFF733FB142086
:104B3000FFF7C8FA134B00221A700B4B01221A70B0
:104B40004FF08053D3F8043103F47F43B3F58A4F19
:104B500005D10D4A0C4B1B6843F48063136000239E
:104B600018461037BD4680BD640700206C07002042
:104B7000700700202828002000100040E743C323CE
:104B8000A363E313650700203C17004080B500AF26
:104B9000094B4FF47052C3F80825084B00221A70D5
:104BA000FFF7F2FC1420FFF7A7FA054B0322C3F826
:104BB00000220023184680BD00F001406507002058
:104BC0000010004080B584B000AF1C4B1B687B60B8
:104BD00007F108031846FFF7E7FEF860FB68002BB3
:104BE00027D1174B1B68002B23D0BB6803F00103B0
:104BF000002B06D000233B70114B1B683A46104631
:104C00009847BB6803F00203002B06D001233B70DA
:104C10000B4B1B683A4610469847BB6803F00403E9
:104C2000002B06D002233B70054B1B683A4610460A
:104C3000984700BF1037BD4680BD00BF2C2800201C
:104C40006C07002080B582B000AF78602E4B1B78D7
:104C500083F00103DBB2002B01D0082350E07B6816
:104C6000002B01D10E234BE07B681B79002B0DD06C
:104C70007B681B79822B09D8244B1B78002B07D12A
:104C80007B681A79214BDB7C9A4201D9092337E0F2
:104C90001F4B9B6A072B01D9042331E07B681B78EB
:104CA000072B01D907232BE00120FFF725FA184B2A
:104CB0001B6A174A52F8233087227968184603F096
:104CC000D5FB134B1B6A0133114A1362104B1B6A4D
:104CD000072B02D90E4B00221A620D4B9B6A01333F
:104CE0000B4A93620120FFF7EDF9084B1B7C002B68
:104CF00005D1084B1B78002B01D1FFF76DFD002378
:104D000018460837BD4680BD6407002070070020A4
:104D1000C00B00206507002080B584B000AF78602C
:104D2000294B1B7883F00103DBB2002B01D0082351
:104D300046E07B68002B01D10E2341E0234BD3F8E2
:104D4000D030002B01D105233AE00120FFF7D4F940
:104D50001E4BD3F8CC301D4A52F82330FB60FB6861
:104D60001A797B681A71FB681A787B681A70FB687D
:104D700093F901207B685A707B68581DFB68591DA8
:104D80007B681B791A4603F071FB104BD3F8CC30CB
:104D900001330E4AC2F8CC300C4BD3F8CC30312B57
:104DA00003D90A4B0022C3F8CC20084BD3F8D030EB
:104DB000013B064AC2F8D0300120FFF783F90023F7
:104DC00018461037BD4680BD640700204C260020E1
:104DD00080B500AF224B1B78002B01D011233DE0A2
:104DE000204B4FF0FF32C3F808231E4B0022C3F8BC
:104DF00010211D4B1D4A1A601A4A1D4B1B6843F0B7
:104E00000403C2F80032174B1022C3F80423144BDA
:104E100004221A70134B174A927CC3F83025114BA9
:104E2000144AD27CC3F808250E4B134AC3F8042554
:104E30000120FFF795F90120FFF744F9094B002203
:104E4000C3F80421074B0022C3F80821054B0022B8
:104E5000C3F81021034B01225A600023184680BD7D
:104E60006507002000100040342800204D49000054
:104E7000B4000020A0000020A427002080B400AFD0
:104E8000144B1B78042B1DD1134B0022C3F80022B6
:104E9000114B4FF0FF32C3F80823104B00221A6069
:104EA0000D4B0022C3F810210B4B01221A6100BFE9
:104EB000094BD3F81031002BFAD0064B00221A70A0
:104EC000002301E040F201131846BD465DF8047B63
:104ED000704700BF65070020001000403428002004
:104EE00080B500AF0D4B1B7883F00103DBB2002BC4
:104EF00001D008230FE00120FFF7FEF8084B002245
:104F00009A62074B00221A62054B00225A62012066
:104F1000FFF7D8F80023184680BD00BF64070020C3
:104F2000C00B002080B584B000AF78601D4B1B78AB
:104F3000002B01D0112331E07B68002B01D10E231F
:104F40002CE04FF08053D3F8043103F47F43B3F5E2
:104F5000844F18D1144B5B7C052B01D1134B01E01E
:104F60004FF07F43FB607868FFF756F90246FB6815
:104F70001340002B07D10E4BD3F82435DBB2002BA6
:104F800001D107230AE004227968074803F06EFA8A
:104F90000120FFF711FAFFF74FF9034618461037C3
:104FA000BD4680BD65070020A00000200000FFFF77
:104FB0000010004080B584B000AF7860324B1B78A1
:104FC000002B01D011235BE07B68002B01D10E2365
:104FD00056E04FF08053D3F8043103F47F43B3F528
:104FE000844F42D1294B5B7C052B01D1284B01E03A
:104FF0004FF07F43FB607868FFF70EF90246FB68CD
:105000001340002B31D1234BD3F8243503F47F43D5
:10501000002B28D01F4BD3F8243503F47F03002B3B
:1050200021D01C4BD3F8243503F07F43002B1AD03A
:10503000184BD3F8283503F07F43002B13D0154BC2
:10504000D3F8283503F47F03002B0CD0114BD3F891
:10505000283503F47F43002B05D00E4BD3F82835B9
:10506000DBB2002B01D107230AE0042279680A4849
:1050700003F0FCF90220FFF79FF9FFF7DDF8034684
:1050800018461037BD4680BD65070020A0000020EF
:105090000000FFFF00100040A400002080B584B095
:1050A00000AF78600B46FB70334B1B78002B01D0B0
:1050B00011235CE07B68002B01D10E2357E0FB78C5
:1050C000082B01D9072352E04FF08053D3F8043165
:1050D00003F47F43B3F5844F31D1284B5B7C052B20
:1050E00001D1274B01E04FF07F43BB60FB78002BE1
:1050F0000CD0244BD3F81C25BB681340002B05D1E2
:105100007B681B78002B01D1072330E01D4BD3F8BF
:105110002025BB681340002B11D10123FB730AE04B
:10512000FB7B7A6813441B78002B01D107231EE018
:10513000FB7B0133FB73FA7BFB789A42F0D3FB785D
:105140001A467968104803F091F90C4AFB781374F9
:10515000FB78C3F10803FF2242FA03F3DAB2074BEC
:105160009A740420FFF728F9FFF766F803461846FB
:105170001037BD4680BD00BF65070020A00000209D
:105180000000FFFF00100040A800002080B483B0A2
:1051900000AF78600A4B1B78002B01D0112309E087
:1051A0007B68642B01D9072304E07B68DAB2054BE6
:1051B000DA74002318460C37BD465DF8047B70474F
:1051C00065070020A000002080B582B000AF034634
:1051D000FB710A4B1B78002B01D011230AE0084B0E
:1051E0009B7AFA799A4204D0054AFB799372FFF7C9
:1051F00021F9002318460837BD4680BD6507002009
:105200007007002080B400AF0A4BD3F84031002B68
:105210000AD0084B0022C3F84021074B1B78032B10
:1052200002D1064B01221A6100BFBD465DF8047B26
:10523000704700BF00A0014065070020001000403B
:1052400080B588B000AF786039603B68FB617B68EF
:105250001B783B737B685B683B617B681B7A3B75A3
:105260007B68DB68BB61084AFB6952F82330074959
:10527000FA6951F8221007F10C021046984700BF56
:105280002037BD4680BD00BF3C28002040280020BC
:1052900080B588B000AF786039603B68FB617B689F
:1052A0001B783B737B685B683B617B689B68DBB208
:1052B0003B757B68DB68BB61074AFB6952F82330AA
:1052C0000649FA6951F8221007F10C021046984776
:1052D00000BF2037BD4680BD3C280020402800206C
:1052E000B0B58EB000AFF860B9607A60FB681B782B
:1052F0003B6329493B6B7A6841F82320BB681A69F4
:1053000026493B6B41F82320BB685B7F1946244A42
:105310003B6B13440A461A70BB6807F110041D4624
:105320000FCD0FC495E80F0084E80F003B6B3B6284
:1053300000237B63FB681B781A46194B9B5C002B90
:105340000ED0FB68181D7B68002B01D0154A00E0C9
:10535000002207F11003194602F038F8786315E0CF
:10536000FB681B781A460E4B9B5C002B0ED1FB682A
:1053700003F10C007B68002B01D00B4A00E00022F7
:1053800007F11003194601F029F878637B6B184682
:105390003837BD46B0BD00BF3C2800204028002063
:1053A000082A0020415200009152000080B483B0CE
:1053B00000AF0346FB714FF08043D3F80C3403F089
:1053C0000112FB7943F480339A420CBF012300237E
:1053D000DBB218460C37BD465DF8047B704780B5DC
:1053E00000AF0120FFF7E2FF0346184680BD80B5FD
:1053F00000AF02F058FC00BF80BD000080B582B055
:1054000000AF00237B60104B1B78002B02D085235C
:105410007B6014E00C4B00229A600B4B00225A6018
:10542000094B00221A61084B0022DA60074802F09B
:1054300011FC786002F02EFC034B01221A707B688D
:1054400018460837BD4680BD442800208D55000011
:1054500080B485B000AF786039607B681B68FB6002
:1054600006E0FA683B689A420DD0FB681B68FB6057
:10547000FB68002BF5D17B681A683B681A607B6873
:105480003A681A6000E000BF1437BD465DF8047B3F
:10549000704780B485B000AF78607B681B68FB60A4
:1054A000FB68002B03D0FB681A687B681A60FB68F6
:1054B00018461437BD465DF8047B704780B582B04E
:1054C00000AF7860194B5B78DBB2002B12D07B68A1
:1054D000002B03D07B685B68002098470020FEF714
:1054E000DBFD124B5B680133104A53600020FEF76E
:1054F000DDFD17E00020FEF7CFFD7B68002B03D019
:1055000079680B48FFF7A4FF084B5B68002B01D1BB
:10551000FFF76DFF054B5B680133044A53600020C1
:10552000FEF7C4FD00BF0837BD4680BD44280020FB
:105530004C28002080B500AFFFF751FF0346184606
:1055400080BD000080B584B000AF0346FB71FB79DD
:10555000002B02D10B4BFB6001E00B4BFB60F868AA
:10556000FFF797FFB860BB68002B05D0BB685B688E
:10557000FA7910469847F2E700BF00BF1037BD46E2
:1055800080BD00BF4C2800205428002080B582B088
:1055900000AF0346FB71FB79002B05D1094B0122BB
:1055A0005A700020FFF7CEFFFB79012B05D1054B88
:1055B00001229A700120FFF7C5FF00BF0837BD46E2
:1055C00080BD00BF4428002080B400AFBFF34F8FE0
:1055D0000549054BDB6803F4E062044B1343CB60E1
:1055E000BFF34F8F00BFFDE700ED00E00400FA05B8
:1055F00080B400AF034B044A1A6000BFBD465DF89B
:10560000047B7047B80000200090D00380B500AF45
:1056100000F068F90346002B06D0A04AA04B1B6897
:105620001B0A03F01F03136000F08EF90346002BE2
:1056300002D09C4B9C4A1A6000F0A8F90346002B4C
:1056400006D09A4A9A4B1B685B0B03F00703136062
:1056500000F0CEF90346002B05D0964A954BDB6847
:1056600023F08073D36000F0E5F90346002B0ED0E1
:105670004FF080430022C3F80C214FF080430022FA
:10568000C3F810214FF080430022C3F8382500F002
:1056900003FA0346002B02D0874B03221A6000F066
:1056A0001DFA0346002B0BD0844B05221A60844B55
:1056B00001221A60834B00221A60834B3F221A603A
:1056C00000F02EFA0346002B76D0804A4FF080532C
:1056D000D3F80434C2F820357C4A4FF08053D3F815
:1056E0000834C2F82435794A4FF08053D3F80C348B
:1056F000C2F82835754A4FF08053D3F81034C2F8F9
:105700002C35724A4FF08053D3F81434C2F8303538
:105710006E4A4FF08053D3F81834C2F834356B4AD0
:105720004FF08053D3F81C34C2F84035674A4FF02D
:105730008053D3F82034C2F84435644A4FF0805384
:10574000D3F82434C2F84835604A4FF08053D3F878
:105750002834C2F84C355D4A4FF08053D3F82C34CE
:10576000C2F85035594A4FF08053D3F83034C2F85C
:105770005435564A4FF08053D3F83434C2F860356C
:10578000524A4FF08053D3F83834C2F864354F4A48
:105790004FF08053D3F83C34C2F868354B4A4FF091
:1057A0008053D3F84034C2F86C35484A4FF08053E8
:1057B000D3F84434C2F8703500F0D4F90346002B16
:1057C00005D0434A434B1B6803F04F03136000F0BE
:1057D000FBF90346002B0DD04FF08043D3F8003483
:1057E00003F00103002B05D04FF080436FF001025E
:1057F000C3F8002400F01AFA0346002B05D0364AFD
:10580000354B1B6843F480631360344A334BD3F841
:10581000883043F47003C2F88830BFF34F8FBFF372
:105820006F8F4FF01023D3F80032002B05DB4FF0C1
:105830001023D3F80432002B2BDA294B0122C3F8B2
:10584000042500BF264BD3F80034002BFAD04FF0CC
:1058500010231522C3F8002200BF214BD3F80034D7
:10586000002BFAD04FF010231522C3F8042200BFFA
:105870001B4BD3F80034002BFAD0194B0022C3F88D
:10588000042500BF164BD3F80034002BFAD0FFF7E5
:105890009BFEFFF7ADFE00BF80BD00BF403501405D
:1058A0002403001074C007400DF0ADBA3C05004061
:1058B00044020010F0ED00E0A0050040105600404A
:1058C00088560040185600401456004000C0004062
:1058D000E40E0040580200103C17004000ED00E0CC
:1058E00000E0014080B400AF144B1B68DBB2062B14
:1058F0001DD1134B1B6803F00F03002B17D1114B65
:105900001B6803F0F003302B01D1012310E00D4B95
:105910001B6803F0F003402B01D1012308E0094B81
:105920001B6803F0F003502B01D1012300E000239A
:105930001846BD465DF8047B704700BFE00F00F0DD
:10594000E40F00F0E80F00F080B400AF0C4B1B68D0
:10595000DBB2062B0DD10B4B1B6803F00F03002BA2
:1059600007D1094B1B6803F0F003302B01D1012351
:1059700000E000231846BD465DF8047B704700BF79
:10598000E00F00F0E40F00F0E80F00F080B400AF8B
:10599000144B1B68DBB2062B1DD1134B1B6803F0A5
:1059A0000F03002B17D1114B1B6803F0F003302BB2
:1059B00001D1012310E00D4B1B6803F0F003402BD5
:1059C00001D1012308E0094B1B6803F0F003502BC1
:1059D00001D1012300E000231846BD465DF8047B99
:1059E000704700BFE00F00F0E40F00F0E80F00F098
:1059F00080B400AF0C4B1B68DBB2062B0DD10B4BF8
:105A00001B6803F00F03002B07D1094B1B6803F041
:105A1000F003302B01D1012300E000231846BD46DE
:105A20005DF8047B704700BFE00F00F0E40F00F06A
:105A3000E80F00F080B400AF144B1B68DBB2062BFC
:105A40001DD1134B1B6803F00F03002B17D1114B13
:105A50001B6803F0F003302B01D1012310E00D4B44
:105A60001B6803F0F003402B01D1012308E0094B30
:105A70001B6803F0F003502B01D1012300E0002349
:105A80001846BD465DF8047B704700BFE00F00F08C
:105A9000E40F00F0E80F00F080B400AF0C4B1B687F
:105AA000DBB2062B0DD10B4B1B6803F00F03002B51
:105AB00007D1094B1B6803F0F003302B01D1012300
:105AC00000E000231846BD465DF8047B704700BF28
:105AD000E00F00F0E40F00F0E80F00F080B400AF3A
