:100000000000012081310000A9310000AB31000067
:10001000AD310000AF310000B13100000000000040
:10002000000000000000000000000000B3310000EC
:10003000B531000000000000B7310000B931000008
:1000400021430000BD1E0000915100005D3F0000F3
:10005000BB310000BB310000A9050000994C000035
:10006000BB310000BB310000BB3100004149000042
:10007000BB310000BB310000BB310000BB310000D0
:10008000BB310000BB310000BB310000BB310000C0
:1000900089200000BB310000BB310000BB310000F3
:1000A000BB310000BB310000C5240000BB310000A3
:1000B000BB310000BB310000000000000000000068
:1000C000BB310000BB310000BB310000BB31000080
:1000D000BB310000BB310000BB310000000000005C
:1000E0000000000000000000000000000000000010
:1000F0000000000000000000000000000000000000
:1001000000000000000000000000000000000000EF
:1001100000000000000000000000000000000000DF
:1001200000000000000000000000000000000000CF
:1001300000000000000000000000000000000000BF
:1001400000000000000000000000000000000000AF
:10015000000000000000000000000000000000009F
:10016000000000000000000000000000000000008F
:10017000000000000000000000000000000000007F
:10018000000000000000000000000000000000006F
:10019000000000000000000000000000000000005F
:1001A000000000000000000000000000000000004F
:1001B000000000000000000000000000000000003F
:1001C000000000000000000000000000000000002F
:1001D000000000000000000000000000000000001F
:1001E000000000000000000000000000000000000F
:1001F00000000000000000000000000000000000FF
:1002000010B5054C237833B9044B13B10448AFF350
:1002100000800123237010BD0405002000000000B1
:10022000405900000C4B43B10C480D4910B5AFF3D9
:1002300000800C48036823B910BD0A48036833B92D
:100240007047094B002BF7D0BDE810401847064B0C
:10025000002BF5D0184700BF0000000040590000F7
:10026000080500200005002000000000154B002BB1
:1002700008BF134B9D46A3F5803A00218B460F46DD
:100280001348144A121A05F0B9F80F4B002B00D08E
:1002900098470E4B002B00D0984700200021040007
:1002A0000D000D48002802D00C4805F073F904F049
:1002B000E3FF2000290000F02FFA04F0CDFF00BF7B
:1002C0000000080000000120000000000000000005
:1002D000040500209026002095550000A15500003F
:1002E00080B483B000AF0346FB71094997F907302A
:1002F0005B09FA7902F01F02012000FA02F241F8CC
:10030000232000BF0C37BD465DF8047B704700BF5B
:1003100000E100E080B483B000AF0346FB710949FF
:1003200097F907305B09FA7902F01F02012000FA01
:1003300002F2203341F8232000BF0C37BD465DF8A0
:10034000047B704700E100E080B483B000AF034657
:10035000FB71094997F907305B09FA7902F01F022E
:10036000012000FA02F2603341F8232000BF0C376D
:10037000BD465DF8047B704700E100E080B483B0C7
:1003800000AF03463960FB7197F90730002B0BDA99
:100390000D49FB7903F00F03043B3A68D2B25201D6
:1003A000D2B20B441A7609E0084997F907303A6847
:1003B000D2B25201D2B20B4483F8002300BF0C37F3
:1003C000BD465DF8047B704700ED00E000E100E011
:1003D00080B483B000AF78604FF0A04318460C376C
:1003E000BD465DF8047B704780B584B000AF78608F
:1003F000084611461A460346FB700B46BB7013466F
:100400007B703B1D1846FFF7E3FFF8607A68F978C8
:10041000BB785B0019437B789B0019433B7E1B0232
:1004200019433B7F1B041943FB6802F5E07243F854
:10043000221000BF1037BD4680BD80B584B002AF2A
:1004400078600023019300230093002301220121FF
:100450007868FFF7C9FF00BF0837BD4680BD80B58B
:1004600084B002AF7860002301930023009300233F
:10047000012200217868FFF7B7FF00BF0837BD46AB
:1004800080BD80B584B002AF78600B46FB70134628
:10049000BB70FA78BB7801930023009313460022C7
:1004A00000217868FFF7A0FF00BF0837BD4680BD78
:1004B00080B584B000AF78603B1D1846FFF788FF19
:1004C000F8607B68012202FA03F31946F86800F02D
:1004D00019F800BF1037BD4680BD80B584B000AFAD
:1004E00078603B1D1846FFF773FFF8607B680122B8
:1004F00002FA03F31946F86800F013F800BF10374A
:10050000BD4680BD80B483B000AF786039607B6841
:100510003A68C3F8082500BF0C37BD465DF8047B78
:10052000704780B483B000AF786039607B683A6808
:10053000C3F80C2500BF0C37BD465DF8047B70473F
:1005400080B483B000AF7860054A064B1B6803F0A7
:100550004F03136000BF0C37BD465DF8047B704746
:10056000E40E00405802001080B500AF0C4A0D4B5D
:100570001B6803F04F03136000F094F90420FFF7A9
:100580005CFF0420FFF794FF00F032FC00F0C0FB9A
:100590000420FFF7A2FF00F095F900BF80BD00BF67
:1005A000E40E00405802001090B52DED048B87B08A
:1005B00004AF4F4A4F4B1B6803F04F03136000F02A
:1005C00071F900F06FFA0420FFF737FF0420FFF7FE
:1005D0006FFF0620FFF79EFE0620FFF7B5FE464B95
:1005E000D3F87C31002B69D0434B0022C3F87C2127
:1005F000424B1B78DBB283F00103DBB2002B0DD042
:10060000032200210F20FFF73CFF00F03BFF0246D2
:100610003B4B1A60394B01221A704FE0374B1B7865
:10062000DBB2002B4AD0022200210F20FFF729FF66
:1006300000F028FF0246324B1B68D31A7B60314B17
:100640001B6801332F4A136000F075FF38602E4A93
:100650002E492F4800F064FE284B00221A702C4BC4
:10066000D3ED007A9FED2B7A67EE877ABDEEE78AAD
:10067000264BD3ED007A9FED277A67EE877AFDEE61
:10068000E78A214BD3ED007A9FED227A67EE877AD5
:10069000BDEEE79A1B4B1C6800F0D8FE03460293A0
:1006A0003B68019300947B6819EE102A18EE901AAB
:1006B00018EE100A00F0CAFB00F02AFB0E4B4FF0B8
:1006C0000042C3F8042303210620FFF757FE06204B
:1006D000FFF706FE0420FFF7C2FE00F0C9F900F0A4
:1006E000F1F800BF0C37BD46BDEC048B90BD00BFD8
:1006F000E40E004058020010006000402005002079
:100700006026002024050020300500202C05002054
:100710002805002000007A4480B584B000AF00F0C6
:10072000D3FFB860BB687B607B68002B02D0786821
:1007300000F023FF0023FB6006E0FB681846FFF78C
:100740008EFEFB680133FB60FB681F2BF5DD00F0BC
:100750008BF800F069FC0021204800F04DFAB860E9
:10076000BB683B603B68002B02D0386800F005FF97
:100770001B4800F049F91A4800F042FD022000F041
:100780004FFD032000F06AFD082000F0ABFD00F0F3
:10079000A2FE00F0C8FE0620FFF7D6FD02220021CF
:1007A0000F20FFF76EFE0F4B4FF00042C3F80423FB
:1007B00003210620FFF7E2FD0620FFF791FD00F080
:1007C000EDFA00F0A5FA084800F0A6F800F050F99C
:1007D00000F078F830BF40BF30BFFBE741050000B4
:1007E000BC560000006000406905000080B483B082
:1007F00000AF786039607B683A68C3F8042300BFB3
:100800000C37BD465DF8047B704780B483B000AF01
:1008100078600B46FB70FA787B6813441A46012314
:10082000136000BF0C37BD465DF8047B704780B590
:1008300082B000AF786039607B681B683968184601
:10084000FFF7D4FF00BF0837BD4680BD80B582B03A
:1008500000AF78607B681B6808211846FFF7D5FF5A
:1008600000BF0837BD4680BD80B582B000AF01F043
:10087000FDFF78607B683B603B68002B02D03868E6
:1008800000F07BFE002002F095F800BF02F0E6F8D1
:10089000034683F00103DBB2002BF7D100BF08371A
:1008A000BD4680BD80B500AF002002F083F800BFD8
:1008B00002F0D4F8034683F00103DBB2002BF7D13A
:1008C00000BF80BD80B500AF02F0B0F800BF80BDB2
:1008D00080B582B000AF0346FB71FB79002B10D1CD
:1008E0000A48FFF7B3FF4FF480310848FFF79FFF36
:1008F000074B1B780133DAB2054B1A70054B1B68A6
:10090000984700BF0837BD4680BD00BFCC560000E9
:10091000000000203405002080B588B000AF78606A
:10092000214A7B681360002002F000F800BF02F04B
:1009300039F8034683F00103DBB2002BF7D11B4AE1
:1009400007F10C0392E8030018600433198040F2A9
:10095000FF73BB8107F10C03154A1946154803F0D4
:100960004BFEF861FB69BB61BB69002B02D0B86923
:1009700000F003FE00210F4803F03CFF012350224A
:1009800000210C4803F0B4FEF861FB697B617B69D0
:10099000002B02D0786900F0F0FD064803F08EFECF
:1009A00000BF2037BD4680BD34050020D45600006E
:1009B000D1080000CC56000080B582B000AF78604E
:1009C0007B680433184602F017FF00BF0837BD46A6
:1009D00080BD80B582B000AF78607B680433184674
:1009E00002F04CFF00BF0837BD4680BD80B582B025
:1009F00000AF78607B680433184602F05BFF00BFED
:100A00000837BD4680BD000080B588B000AF786073
:100A1000164A7B68136007F1080300221A605A60C7
:100A20009A60DA601A23BB601923FB604FF0CC7325
:100A30003B6102233B750D4B186807F10801002349
:100A4000002201F08FFEF861FB69BB61BB69002BDE
:100A500002D0B86900F091FD044B1B681846FFF7FF
:100A6000B8FF00BF2037BD4680BD00BF380500205D
:100A700080B500AF094B1B681846FFF7B7FF074B5F
:100A80001B681846FFF798FF054B00221A60044BBD
:100A90001B68034B01221A6000BF80BD380500208F
:100AA000FC3F004080B500AF034B1B681846FFF7C2
:100AB000ABFF00BF80BD00BF3805002080B485B00B
:100AC00000AF0346FB710023FB60FB68002B01D1E4
:100AD000044BFB60FB6818461437BD465DF8047B89
:100AE000704700BF1C00002080B400AF00BFBD46AF
:100AF0005DF8047B704780B400AF00BFBD465DF871
:100B0000047B704780B584B000AF786039603B6883
:100B100001229A703B6800221A707B681A783B6841
:100B20009A717B685A783B68DA717B685B88DAB2C5
:100B30003B681A727B685B881B0A9BB2DAB23B681F
:100B40005A727B681B785BB2002B02DA0523FB73B9
:100B50000DE07B689B88DAB23B689A727B689B8861
:100B60001B0A9BB2DAB23B68DA720723FB737B681D
:100B7000DA79FB7B1344DAB23B681A713B681A7965
:100B80003B685A713B685A1DFB7BD0187B6899689B
:100B90007B68DB791A4604F097FB00BF1037BD462F
:100BA00080BD000080B582B000AF78607B681B78A4
:100BB000012B09D0022B13D0002B0DD1FFF79BFF87
:100BC0000B4B01221A700CE001F008FBFFF793FFBA
:100BD000074B01221A7004E0064B01221A7000E054
:100BE00000BF044B01221A7000BF0837BD4680BD0C
:100BF0003D0500203C05002080B58CB000AF78603A
:100C000039603B4B1B687B613A4B1B683B613A4A3E
:100C100007F1080392E8030083E80300374A7B6882
:100C20001360374A3B681360364B0022DA81354B3C
:100C300001221A75334B01221A70324B0822DA74E2
:100C4000304B03221A722F4B2F4A5A602D4B002231
:100C50005A702C4B02225A722A4801F077F9F86236
:100C6000FB6ABB62BB6A002B01D0BB6A3CE007F1A8
:100C70001403184601F0D4FAF862FB6A7B627B6ABF
:100C8000002B01D07B6A2FE007F11003184601F01A
:100C90000FFBF862FB6A3B623B6A002B01D03B6AA8
:100CA00022E007F108030821184601F075FBF862FD
:100CB000FB6AFB61FB69002B01D0FB6914E00E208D
:100CC00001F0E2FBF862FB6ABB61BB69002B01D05B
:100CD000BB6909E00D4B08221A710C4B00221A70F7
:100CE0000A4B00225A71002318463037BD4680BD9A
:100CF000E0560000E4560000E856000040050020E1
:100D00004405002004000020A50B00001C0000206A
:100D100080B400AF00BF064B1B78DBB283F0010349
:100D2000DBB2002BF7D100BFBD465DF8047B7047F6
:100D30003C05002080B584B000AF7860FFF7D4FE9A
:100D40007B681B781846FFF7B9FEF860F968786889
:100D5000FFF7D8FE044B00221A70F86801F0D4F9AE
:100D600000BF1037BD4680BD3C05002080B586B071
:100D700000AF0346FB7182233B73FB797B7343F225
:100D80000103FB810023FB7407F10C031846FFF7F6
:100D9000D1FF002318461837BD4680BD80B500AF8F
:100DA0000020FFF7E3FF00BF80BD000080B586B0E4
:100DB00000AF03463960FB711346BB710B4B1B78C8
:100DC00063F07F03DBB23B73FB797B7343F2010378
:100DD000FB813B687B61BB79FB7407F10C03184610
:100DE000FFF7A8FF00BF1837BD4680BDA300002055
:100DF00080B582B000AF134B1B681B0EDBB23B709B
:100E0000104B1B681B0CDBB27B700E4B1B681B0A64
:100E1000DBB2BB700B4B1B68DBB2FB700A4BD3F829
:100E20000C35DBB23B713B46052219460120FFF72A
:100E3000BDFF044B1B685A1C02490A60184608375C
:100E4000BD4680BD480500200010004080B58CB034
:100E500000AFF860B9607A603B60FB681B16DBB2DC
:100E60003B75FB681B14DBB27B75FB681B12DBB2A6
:100E7000BB75FB68DBB2FB75BB681B16DBB23B7650
:100E8000BB681B14DBB27B76BB681B12DBB2BB7684
:100E9000BB68DBB2FB767B681B16DBB23B777B68FB
:100EA0001B14DBB27B777B681B12DBB2BB777B68E2
:100EB000DBB2FB773B681B0EDBB287F820303B6868
:100EC0001B0CDBB287F821303B681B0ADBB287F8CA
:100ED00022303B68DBB287F82330BB6B1B0EDBB2E2
:100EE00087F82430BB6B1B0CDBB287F82530BB6B5B
:100EF0001B0ADBB287F82630BB6BDBB287F82730E2
:100F0000FB6B1B0EDBB287F82830FB6B1B0CDBB2D4
:100F100087F82930FB6B1B0ADBB287F82A30FB6BA2
:100F2000DBB287F82B30B7F940301B121BB2DBB2B3
:100F300087F82C30B7F84030DBB287F82D3007F156
:100F400014031A221946B120FFF730FF00BF3037D3
:100F5000BD4680BD80B582B000AF786039607B68E7
:100F6000002B01D1054B7B603968786803F0B4FF32
:100F7000034618460837BD4680BD00BF2059000013
:100F800080B485B000AF78607B681B78002B18D1E7
:100F90007B685B681B88FB81B7F90E304FF41672D3
:100FA00002FB03F3002B01DA03F2FF339B129BB227
:100FB0001A46520013445B009BB246339AB2054B6B
:100FC0001A80054B01221A7000BF1437BD465DF828
:100FD000047B7047A40000204E05002080B584B03B
:100FE00000AF0F4B00221A7001210E4804F02EF8BA
:100FF000F860FB68BB60BB68002B02D0B86800F0EB
:10100000BCFA04F0A5F8F860FB687B607B68002BF5
:1010100002D0786800F0B1FA00BF1037BD4680BD3D
:101020004E0500204C05002080B586B000AF134966
:101030000020FFF78FFF78617B693B613B69002BE4
:1010400002D0386900F099FA0D4A3B4607CA03C33B
:101050001A703B461946002003F09CFF78617B69BB
:10106000FB60FB68002B02D0F86800F086FAFFF7FF
:10107000B5FF00BF1837BD4680BD00BF810F00001F
:101080001459000080B588B002AFF8607A601A4643
:101090000B46FB721346BB7200237B61FB68181D75
:1010A000BA7AF97A97F82030009313467A6802F0FA
:1010B00009FE78617B6918461837BD4680BD80B54A
:1010C00086B000AFF8607A601A460B46FB72134692
:1010D000BB7200237B61FB68181DBB7AF97A7A68C2
:1010E00002F018FE78617B6918461837BD4680BD4E
:1010F00080B588B002AF0346FB71144B1868142109
:10110000FA1D012300930123FFF7BCFF78617B697F
:101110003B613B69002B02D0386900F02EFA0B4B83
:101120001868142107F10B020123FFF7C8FF78614B
:101130007B69FB60FB68002B02D0F86800F01DFAA9
:10114000FB7A18461837BD4680BD00BF5005002009
:1011500080B588B002AF03463A60FB710B46BB71A5
:10116000134B18681421FA1D012300930123FFF784
:1011700089FF78617B693B613B69002B02D038694C
:1011800000F0FBF90A4B18681421BB793A68FFF7A5
:1011900096FF78617B69FB60FB68002B02D0F868E2
:1011A00000F0EBF9002318461837BD4680BD00BF9C
:1011B0005005002080B588B002AF03460A46FB7197
:1011C0001346BB71FB793B73BB797B730B4B186880
:1011D000142107F10C02012300930223FFF752FFB1
:1011E00078617B693B613B69002B02D0386900F074
:1011F000C4F900BF1837BD4680BD00BF50050020B0
:1012000080B483B000AF7860044A7B68136000BF8D
:101210000C37BD465DF8047B704700BF50050020C9
:1012200080B584B000AF0346FB711920FFF760FF63
:101230000346FB7397F90F3023F003035AB297F973
:10124000073013435BB2FB73FB7B19461920FFF792
:10125000B1FF00BF1037BD4680BD000080B584B02F
:1012600000AF0346FB71FB79002B03D1184B194AE1
:101270001A6013E0FB79012B03D1154B164A1A6053
:101280000CE0FB79022B03D1114B144A1A6005E0E4
:10129000FB79032B02D10E4B114A1A601A20FFF77B
:1012A00027FF0346FB7397F90F3003F03F035AB251
:1012B000FB799B015BB213435BB2FB73FB7B19466B
:1012C0001A20FFF777FF00BF1037BD4680BD00BF73
:1012D000642600200000FA4400007A450000FA4528
:1012E00000007A4680B584B000AF0346FB711A2037
:1012F000FFF7FEFE0346FB7397F90F3023F00F0351
:101300005AB297F9073013435BB2FB73FB7B194664
:101310001A20FFF74FFF00BF1037BD4680BD000009
:1013200080B58AB000AFF860B9607A6007F1140345
:1013300000221A609A800023FB840023BB840023D0
:101340007B844FF00003FB6107F114031A4606216A
:101350000420FFF7FDFE3B7D1AB27B7D1B021BB212
:1013600013431BB2FB84BB7D1AB2FB7D1B021BB275
:1013700013431BB2BB843B7E1AB27B7E1B021BB2A3
:1013800013431BB27B84FB8CB3F5006F03D3FB8C40
:10139000A3F58053FB84BB8CB3F5006F03D3BB8CE8
:1013A000A3F58053BB847B8CB3F5006F03D37B8C98
:1013B000A3F580537B84B7F9263007EE903AF8EE18
:1013C000E77AC7ED077A1F4B93ED007AD7ED077ADE
:1013D00027EE277ADFED1C6AC7EE267AFB68C3ED9D
:1013E000007AB7F9243007EE903AF8EEE77AC7EDC5
:1013F000077A144B93ED007AD7ED077A27EE277A18
:10140000DFED116AC7EE267ABB68C3ED007AB7F943
:10141000223007EE903AF8EEE77AC7ED077A094BEB
:1014200093ED007AD7ED077A27EE277ADFED066A8B
:10143000C7EE267A7B68C3ED007A00BF2837BD4629
:1014400080BD00BF642600200000004580B582B04A
:1014500000AF0023FB710023BB801120FFF748FE83
:101460000346FB7197F90730DA0F13445B105BB248
:101470009BB217339BB2BB80B7F9043018460837CC
:10148000BD4680BD80B582B000AF3B4600210A4614
:101490001A800A469A703B461A4603210A20FFF733
:1014A00057FE3B78DB08DBB27B607B785B011A463A
:1014B0007B6813437B60BB785B031A467B681343EE
:1014C0007B607B68642202FB03F37B607B681846C9
:1014D0000837BD4680BD80B500AF04212120FFF74D
:1014E00069FE00212020FFF765FE02212420FFF77E
:1014F00061FEFA213F20FFF75DFE02214020FFF749
:1015000059FE01214120FFF755FE00214220FFF73F
:1015100051FE0F214320FFF74DFE04211F20FFF74E
:1015200049FE00BF80BD80B500AF01212020FFF73C
:1015300041FE00BF80BD80B582B000AF3B460021B8
:101540000A461A800A469A703B461A46032115201D
:10155000FFF7FEFD3B787B607B781B021A467B68B9
:1015600013437B60BB781B041A467B6813437B6084
:101570007B6818460837BD4680BD80B586B000AF91
:1015800078600023FB6000233B617B687B6107F18F
:101590000C031A46002144F2010000F019F800BFC4
:1015A0001837BD4680BD000080B400AFBFF34F8F39
:1015B0000549054BDB6803F4E062044B1343CB6041
:1015C000BFF34F8F00BFFDE700ED00E00400FA0518
:1015D00080B584B000AFF860B9607A6072B6064B2F
:1015E0001B6803F00103002B00D000BEFFF7DCFFF7
:1015F00000BF1037BD4680BDF0ED00E080B400AF05
:1016000072B6054B1B680133034A136000BFBD4629
:101610005DF8047B704700BF5405002080B400AF24
:10162000074B1B68013B064A1360054B1B68002BE8
:1016300000D162B600BFBD465DF8047B704700BFB5
:101640005405002080B582B000AF7860FFF7D6FF68
:1016500000BF0837BD4680BD80B582B000AF0346ED
:10166000FB71FFF7DBFF00BF0837BD4680BD80B4CC
:1016700083B000AF786039607B683A681A607B6835
:101680001B681A687B685A607B685A687B681B68AD
:101690005B689A4202D17B6800225A6000BF0C3717
:1016A000BD465DF8047B704780B483B000AF7860BE
:1016B0007B6800221A60BFF35F8F00BF0C37BD4606
:1016C0005DF8047B7047000080B500AF064B002238
:1016D0001A700648FFF7E8FF05490648FFF7C7FFFD
:1016E0000023184680BD00BF5C050020580500207F
:1016F000245900006005002080B483B000AF034689
:10170000FB71094997F907305B09FA7902F01F026A
:10171000012000FA02F241F8232000BF0C37BD4639
:101720005DF8047B704700BF00E100E080B483B047
:1017300000AF0346FB71094997F907305B09FA7955
:1017400002F01F02012000FA02F2203341F82320A8
:1017500000BF0C37BD465DF8047B704700E100E038
:1017600080B483B000AF0346FB71094997F9073095
:101770005B09FA7902F01F02012000FA02F24033FD
:1017800041F8232000BF0C37BD465DF8047B70474D
:1017900000E100E080B483B000AF0346FB7109496B
:1017A00097F907305B09FA7902F01F02012000FA6D
:1017B00002F2603341F8232000BF0C37BD465DF8CC
:1017C000047B704700E100E080B483B000AF0346C3
:1017D0003960FB7197F90730002B0BDA0D49FB7963
:1017E00003F00F03043B3A68D2B25201D2B20B4469
:1017F0001A7609E0084997F907303A68D2B25201DF
:10180000D2B20B4483F8002300BF0C37BD465DF80D
:10181000047B704700ED00E000E100E080B487B099
:1018200000AF78607B681B687B617B69FB60FB684D
:1018300093FAA3F3BB60BB683B613B691BBA00BF73
:1018400018461C37BD465DF8047B704780B584B0F0
:1018500000AF78607868FFF7E1FF0346FB60FB6844
:101860001BBA00BF18461037BD4680BD80B48DB08E
:1018700000AF4FF08053D3F8043103F47F43B3F546
:10188000844F11D1474A474BD3F8503623F0010318
:10189000C2F85036444A444B1B6823F0807323F04F
:1018A000010343F0807313604FF08053D3F8043189
:1018B00003F47F43B3F58A4F6CD13C4B5B7C052B23
:1018C00001D13B4B01E04FF07F43FB62354BD3F836
:1018D0001C25FB6A1340BB62324BD3F82025FB6A00
:1018E00013407B62BA6A7B6A9A4253D12D4BD3F87C
:1018F0002435DBB23B622B4BD3F824351B0ADBB219
:10190000FB61284BD3F824351B0CDBB2BB61254BA4
:10191000D3F824351B0EDBB27B61224BD3F828357C
:10192000DBB23B611F4BD3F828351B0ADBB2FB60EF
:101930001C4BD3F828351B0CDBB2BB60194BD3F81A
:1019400028351B0EDBB27B603A6AFB699A4217D0DE
:101950003A6ABB699A4213D03A6A7B699A420FD0BD
:101960003A6A3B699A420BD03A6AFB689A4207D0BE
:101970003A6ABB689A4203D03A6A7B689A4209D1B4
:10198000094A094B1B6823F0807323F0010343F0DD
:1019900080731360002318463437BD465DF8047B1E
:1019A000704700BF0010004074170040A8000020DE
:1019B0000000FFFF80B400AF0A4B4FF00812C3F8DD
:1019C0001425084A084B5B7C013B1B0443F08073E1
:1019D00043F08203C2F8183500BFBD465DF8047BB2
:1019E000704700BF00100040A800002090B583B0F1
:1019F00000AF0346FB71FB7903F00103002B06D017
:101A0000144C1548FFF722FF0346C4F81C35FB7938
:101A100003F00203002B06D00E4C1048FFF716FF10
:101A20000346C4F82035FB7903F00403002B0DD0E6
:101A3000084C0B48FFF7F2FE0346C4F82435054C6A
:101A40000848FFF7EBFE0346C4F8283500BF0C3703
:101A5000BD4690BD00100040A8000020AC00002052
:101A6000B0000020B400002080B400AF044B054A51
:101A7000927AC3F80C2500BFBD465DF8047B704721
:101A8000001000407405002080B400AF144B154ACC
:101A9000127AC3F81025134B1B7A042B18D801A215
:101AA00052F823F0C11A0000B91A0000D11A000040
:101AB000C91A0000B91A00000B4B30221A6009E065
:101AC000094B40221A6005E0074B49221A6001E0E9
:101AD000002300E001231846BD465DF8047B7047F3
:101AE0000010004074050020B025002080B400AF35
:101AF000154B5B7A012B0ED0022B02D0002B16D097
:101B000013E0124B4FF6FF72C3F83C250F4B104AFF
:101B1000C3F838250CE00D4BFF22C3F83C250B4BD6
:101B200040F20712C3F8382502E0002306E000BFA8
:101B3000064B054A527AC3F8342501231846BD46A0
:101B40005DF8047B704700BF740500200010004062
:101B50002110010080B582B000AF0123FB71FFF7B7
:101B600083FFFFF791FF03461A46FB791340002BD2
:101B700014BF01230023FB71FFF7B8FF03461A4689
:101B8000FB791340002B14BF01230023FB71FFF7E7
:101B900011FFFB79084A9289862A8CBF0122002214
:101BA000D2B21340002B14BF01230023FB71FB7939
:101BB00018460837BD4680BD7405002080B400AFCC
:101BC0000C4B00221A620B4B00225A62094B002276
:101BD0009A62094B0022C3F8C820074B0022C3F8C1
:101BE000CC20054B0022C3F8D02000BFBD465DF8D5
:101BF000047B7047C40900205024002080B582B0C7
:101C000000AFFFF7DBFF00237B600EE07A6813462E
:101C1000DB0013441A01D21A124B1A4412497B6892
:101C200041F823207B6801337B607B68072BEDDD67
:101C300000233B600EE03A681346DB0013441A01B0
:101C4000D21A0A4B1A440A493B6841F823203B68E0
:101C500001333B603B68312BEDDD00BF0837BD46EB
:101C600080BD00BF8C050020C4090020F0090020C1
:101C70005024002080B500AF0E4B9B6A002B16D07D
:101C80000120FFF753FD0B4B9B6A013B094A93620E
:101C9000084B5B6A0133074A5362064B5B6A072BAA
:101CA00002D9044B00225A620120FFF725FD00BF34
:101CB00080BD00BFC409002080B400AF084B0422DF
:101CC000C3F81025064B0022C3F80825044B40F248
:101CD0000222C3F8002200BFBD465DF8047B7047B6
:101CE00000A0004080B400AF124B134AC3F8602537
:101CF000104B124AC3F864250E4B114AC3F86825ED
:101D00000C4B104AC3F86C250A4B0F4AC3F87025D8
:101D1000084B0E4AC3F87425064B0D4AC3F87825C4
:101D2000044B0C4AC3F87C2500BFBD465DF8047B1C
:101D3000704700BF00F001400011004000A00040CB
:101D40000411004004A0004040A1004010100040D9
:101D500044A100400010004080B500AF284B012294
:101D60001A60284B5B6A274A52F82330264A1360D0
:101D7000254B1B68591D244B1B681B791A462348A9
:101D800003F0A2FA224A234B1B68C2F80032204B10
:101D90001022C3F80423204B204A1A60204B012252
:101DA0001A701B4A184B1B681B78C2F82C35184A4E
:101DB000154B1B681B78194601238B40C2F8303540
:101DC000134B184AD27CC3F80825114B0F4AC3F8AD
:101DD00004250120FFF7DEFC0120FFF78DFC0C4BF2
:101DE0000022C3F804210A4B0022C3F80821084B43
:101DF0000022C3F81021064B01221A6000BF80BDEB
:101E0000AC250020C40900206C05002024250020FA
:101E100000100040BC000020B4250020291E000056
:101E200069050020A800002080B500AF0C4B1B689E
:101E300043F001030A4A1360FFF71CFF094B9B6A3A
:101E4000002B06D1084B00221A701420FFF788FCE3
:101E500004E01420FFF784FCFFF77EFF00BF80BD85
:101E6000A8250020C40900206905002080B582B0A3
:101E700000AF78600F4B1B7883F00103DBB2002BBF
:101E800001D0082312E07B68002B01D10E230DE066
:101E90000120FFF74BFC084B1A687B681A60064B61
:101EA00000221A600120FFF727FC0023184608379C
:101EB000BD4680BD68050020A825002080B500AF84
:101EC0001F4BD3F80031002B0AD01D4BD3F804333D
:101ED00003F00103002B03D0194B0022C3F80021AB
:101EE000174BD3F80C31002B11D0154BD3F804331A
:101EF00003F00803002B0AD0114B0022C3F80C2179
:101F0000104B1B68002B02D00E4B1B6898470C4BE4
:101F1000D3F81031002B11D0094BD3F8043303F060
:101F20001003002B0AD0064B0022C3F81021064BE9
:101F30001B68002B02D0044B1B68984700BF80BD74
:101F400000100040B8250020B425002080B584B0E2
:101F500000AF78607B68002B01D10E2362E0334B29
:101F60001B78002B07D000F073F8F860FB68002B9B
:101F700001D0FB6856E07B685B682D4A136018222D
:101F800079682C4803F0A0F92B4B00221A60FFF768
:101F9000E1FD034683F00103DBB2002B01D00723F0
:101FA00040E0264B4FF0E732C3F81C25234B4FF09F
:101FB0004332C3F82025214B214AC3F824251F4B67
:101FC000204AC3F82825FFF719FEFFF775FEFFF733
:101FD00089FE184B5B7C03F0070319460120FFF7CD
:101FE000F3FB144B9B7C03F0070319461420FFF707
:101FF000EBFB1420FFF780FB134B00221A700B4BF6
:1020000001221A704FF08053D3F8043103F47F4358
:10201000B3F58A4F05D10D4A0C4B1B6843F480631E
:102020001360002318461037BD4680BD68050020A8
:102030007005002074050020A82500200010004035
:10204000E743C323A363E313690500203C17004063
:1020500080B500AF094B4FF47052C3F80825084B08
:1020600000221A70FFF7AAFD1420FFF75FFB054B53
:102070000322C3F800220023184680BD00F001406F
:10208000690500200010004080B584B000AF1C4BF3
:102090001B687B6007F108031846FFF7E7FEF8604E
:1020A000FB68002B27D1174B1B68002B23D0BB6884
:1020B00003F00103002B06D000233B70114B1B687B
:1020C0003A4610469847BB6803F00203002B06D03F
:1020D00001233B700B4B1B683A4610469847BB6880
:1020E00003F00403002B06D002233B70054B1B6852
:1020F0003A461046984700BF1037BD4680BD00BF26
:10210000AC2500207005002080B582B000AF78605B
:102110002E4B1B7883F00103DBB2002B01D0082388
:1021200050E07B68002B01D10E234BE07B681B79CC
:10213000002B0DD07B681B79822B09D8244B1B7890
:10214000002B07D17B681A79214BDB7C9A4201D99D
:10215000092337E01F4B9B6A072B01D9042331E089
:102160007B681B78072B01D907232BE00120FFF7A1
:10217000DDFA184B1B6A174A52F823308722796818
:10218000184603F0A1F8134B1B6A0133114A13627E
:10219000104B1B6A072B02D90E4B00221A620D4B03
:1021A0009B6A01330B4A93620120FFF7A5FA084BA3
:1021B0001B7C002B05D1084B1B78002B01D1FFF7AE
:1021C000CBFD002318460837BD4680BD68050020BA
:1021D00074050020C40900206905002080B500AF07
:1021E0000D4B1B7883F00103DBB2002B01D00823D9
:1021F0000FE00120FFF79AFA084B00229A62074B82
:1022000000221A62054B00225A620120FFF774FA7D
:102210000023184680BD00BF68050020C4090020C7
:1022200080B584B000AF78601D4B1B78002B01D0C7
:10223000112331E07B68002B01D10E232CE04FF0FD
:102240008053D3F8043103F47F43B3F5844F18D19E
:10225000144B5B7C052B01D1134B01E04FF07F4306
:10226000FB607868FFF7F2FA0246FB681340002B28
:1022700007D10E4BD3F82435DBB2002B01D1072355
:102280000AE004227968074803F01EF80120FFF7EE
:10229000ADFBFFF7EBFA034618461037BD4680BD8D
:1022A00069050020A80000200000FFFF001000408A
:1022B00080B584B000AF7860324B1B78002B01D022
:1022C00011235BE07B68002B01D10E2356E04FF019
:1022D0008053D3F8043103F47F43B3F5844F42D1E4
:1022E000294B5B7C052B01D1284B01E04FF07F434C
:1022F000FB607868FFF7AAFA0246FB681340002BE0
:1023000031D1234BD3F8243503F47F43002B28D05D
:102310001F4BD3F8243503F47F03002B21D01C4B33
:10232000D3F8243503F07F43002B1AD0184BD3F891
:10233000283503F07F43002B13D0154BD3F82835F5
:1023400003F47F03002B0CD0114BD3F8283503F492
:102350007F43002B05D00E4BD3F82835DBB2002B82
:1023600001D107230AE0042279680A4802F0ACFF91
:102370000220FFF73BFBFFF779FA034618461037B8
:10238000BD4680BD69050020A80000200000FFFFB9
:1023900000100040AC00002080B584B000AF786031
:1023A0000B46FB70334B1B78002B01D011235CE0F4
:1023B0007B68002B01D10E2357E0FB78082B01D955
:1023C000072352E04FF08053D3F8043103F47F43E6
:1023D000B3F5844F31D1284B5B7C052B01D1274BC2
:1023E00001E04FF07F43BB60FB78002B0CD0244B07
:1023F000D3F81C25BB681340002B05D17B681B78E4
:10240000002B01D1072330E01D4BD3F82025BB68FA
:102410001340002B11D10123FB730AE0FB7B7A6888
:1024200013441B78002B01D107231EE0FB7B0133F3
:10243000FB73FA7BFB789A42F0D3FB781A467968F3
:10244000104802F041FF0C4AFB781374FB78C3F18B
:102450000803FF2242FA03F3DAB2074B9A7404200E
:10246000FFF7C4FAFFF702FA034618461037BD46D5
:1024700080BD00BF69050020A80000200000FFFF0C
:1024800000100040B000002080B483B000AF78603E
:102490000A4B1B78002B01D0112309E07B68642BC9
:1024A00001D9072304E07B68DAB2054BDA74002314
:1024B00018460C37BD465DF8047B7047690500205F
:1024C000A800002080B400AF0A4BD3F84031002BA5
:1024D0000AD0084B0022C3F84021074B1B78032B7E
:1024E00002D1064B01221A6100BFBD465DF8047B94
:1024F000704700BF00A001406905002000100040A7
:1025000080B584B000AF78607B68002B0AD0074BA1
:1025100043F00103FB607B689B01BB60FB68B8680C
:10252000984700E000BF1037BD4680BD305900001D
:1025300080B483B000AF78604FF0A04318460C37EA
:10254000BD465DF8047B704780B584B000AF78600D
:102550003B1D1846FFF7ECFFF8607B68012202FA8A
:1025600003F31946F86800F03CF800BF1037BD4689
:1025700080BD80B584B000AF78603B1D1846FFF782
:10258000D7FFF8607B68012202FA03F31946F86866
:1025900000F036F800BF1037BD4680BD80B584B06E
:1025A00000AF78603B1D1846FFF7C2FFF860F8687F
:1025B00000F00AF802467B6822FA03F303F00103F5
:1025C00018461037BD4680BD80B483B000AF786038
:1025D0007B68D3F8103518460C37BD465DF8047B90
:1025E000704780B483B000AF786039607B683A6828
:1025F000C3F8082500BF0C37BD465DF8047B704763
:1026000080B483B000AF786039607B683A68C3F803
:102610000C2500BF0C37BD465DF8047B704780B5C4
:1026200084B000AF78604FF0A0427B681B6803F570
:10263000E07340F20C6142F823104FF0A0427B6837
:102640005B6803F5E07340F20C6142F823107B688D
:102650001B681846FFF778FF7B685B681846FFF732
:1026600073FF4FF0A0427B681B6803F5E07340F2F4
:102670000D6142F823104FF0A0427B685B6803F5C0
:10268000E07340F20D6142F823100420FFF738FF99
:102690000023FB601EE07B685B681846FFF77EFF47
:1026A0000346002B03D0FB68002B17D124E07B6886
:1026B0001B681846FFF75DFF0420FFF721FF7B68CA
:1026C0001B681846FFF740FF0420FFF719FFFB685F
:1026D0000133FB60FB68082BDDDD00E000BF7B6899
:1026E0005B681846FFF745FF0420FFF709FF7B688A
:1026F0005B681846FFF728FF1037BD4680BD000015
:1027000080B588B000AF786039603B68FB617B685A
:102710001B783B737B681B793B747B685B797B74AC
:102720007B689B68DBB2BB747B68DB68DBB2FB74E5
:102730007B681B697B617B685B69BB61074AFB69DE
:1027400052F823300649FA6951F8221007F10C02B9
:102750001046984700BF2037BD4680BDBC250020ED
:10276000C425002080B586B000AFF860B9607A60FB
:102770003B60FB681B787B6112497B697A6841F892
:10278000232011497B693A6841F82320BB685B7BB1
:10279000002B02D0B868FFF742FF00233B61FB68C3
:1027A000181D7B68002B01D0084A00E000227B69DD
:1027B000B96800F08FFF38613B6918461837BD468D
:1027C00080BD00BFBC250020C425002001270000DB
:1027D00080B400AF4FF08043D3F818341B0C03F0E3
:1027E0000103002B14BF01230023DBB21846BD46B2
:1027F0005DF8047B704780B483B000AF0346FB7183
:102800004FF08043D3F80C3403F00112FB7943F40A
:1028100080339A420CBF01230023DBB218460C37E9
:10282000BD465DF8047B704780B500AF0120FFF71F
:10283000E2FF0346184680BD80B500AFFFF7C8FF32
:102840000346184680BD80B500AF01F046FD00BFCD
:1028500080BD000080B500AF01F04EFD024B0022AC
:102860005A7000BF80BD00BFCC25002080B582B06B
:1028700000AF00237B60104B1B78002B02D0852318
:102880007B6014E00C4B00229A600B4B00225A60D4
:10289000094B00221A61084B0022DA60074801F058
:1028A000E3FC786001F000FD034B01221A707B68A5
:1028B00018460837BD4680BDCC250020B52A00004B
:1028C00080B485B000AF786039607B681B68FB60BE
:1028D00006E0FA683B689A420DD0FB681B68FB6013
:1028E000FB68002BF5D17B681A683B681A607B682F
:1028F0003A681A6000E000BF1437BD465DF8047BFB
:10290000704780B485B000AF78607B681B68FB605F
:10291000FB68002B03D0FB681A687B681A60FB68B1
:1029200018461437BD465DF8047B704780B582B009
:1029300000AF7860194B9B78DBB2002B12D07B681C
:10294000002B03D07B685B68012098470020FEF7CE
:1029500079FE124BDB680133104AD3600020FEF78A
:102960007BFE17E00020FEF76DFE7B68002B03D096
:1029700079680B48FFF7A4FF084BDB68002B01D1F7
:1029800001F09BFC054BDB680133044AD360002057
:10299000FEF762FE00BF0837BD4680BDCC25002093
:1029A000DC25002080B500AFFFF746FF0346184640
:1029B00080BD000080B582B000AF7860194B5B78B5
:1029C000DBB2002B12D07B68002B03D07B685B68E6
:1029D000002098470020FEF735FE124B5B6801335C
:1029E000104A53600020FEF737FE17E00020FEF784
:1029F00029FE7B68002B03D079680B48FFF760FF46
:102A0000084B5B68002B01D1FFF71DFF054B5B688E
:102A10000133044A53600020FEF71EFE00BF083752
:102A2000BD4680BDCC250020D425002080B500AF58
:102A30000020FEF707FE084B5B68013B064A536027
:102A4000054B5B68002B01D1FFF704FF0020FEF768
:102A500003FE00BF80BD00BFCC25002080B500AFC5
:102A6000FFF7E2FE0346184680BD000080B584B043
:102A700000AF0346FB71FB79002B02D10B4BFB60CF
:102A800001E00B4BFB60F868FFF73BFFB860BB68E9
:102A9000002B05D0BB685B68FA7910469847F2E7CF
:102AA00000BF00BF1037BD4680BD00BFD425002049
:102AB000DC25002080B582B000AF0346FB71FB79B6
:102AC000002B05D1094B01225A700020FFF7CEFFE1
:102AD000FB79012B05D1054B01229A700120FFF7EC
:102AE000C5FF00BF0837BD4680BD00BFCC25002014
:102AF00080B400AFBFF34F8F0549054BDB6803F48B
:102B0000E062044B1343CB60BFF34F8F00BFFDE780
:102B100000ED00E00400FA0580B400AF034B044A66
:102B20001A6000BFBD465DF8047B7047C0000020FE
:102B30000090D00380B500AF00F068F90346002B89
:102B400006D0A04AA04B1B681B0A03F01F031360AA
:102B500000F08EF90346002B02D09C4B9C4A1A6071
:102B600000F0A8F90346002B06D09A4A9A4B1B683E
:102B70005B0B03F00703136000F0CEF90346002B54
:102B800005D0964A954BDB6823F08073D36000F044
:102B9000E5F90346002B0ED04FF080430022C3F826
:102BA0000C214FF080430022C3F810214FF08043E6
:102BB0000022C3F8382500F003FA0346002B02D0A8
:102BC000874B03221A6000F01DFA0346002B0BD03E
:102BD000844B05221A60844B01221A60834B002229
:102BE0001A60834B3F221A6000F02EFA0346002B36
:102BF00076D0804A4FF08053D3F80434C2F82035A1
:102C00007C4A4FF08053D3F80834C2F82435794A0F
:102C10004FF08053D3F80C34C2F82835754A4FF082
:102C20008053D3F81034C2F82C35724A4FF08053D9
:102C3000D3F81434C2F830356E4A4FF08053D3F8CD
:102C40001834C2F834356B4A4FF08053D3F81C3433
:102C5000C2F84035674A4FF08053D3F82034C2F8A9
:102C60004435644A4FF08053D3F82434C2F84835D1
:102C7000604A4FF08053D3F82834C2F84C355D4A8F
:102C80004FF08053D3F82C34C2F85035594A4FF0E6
:102C90008053D3F83034C2F85435564A4FF080533D
:102CA000D3F83434C2F86035524A4FF08053D3F829
:102CB0003834C2F864354F4A4FF08053D3F83C346F
:102CC000C2F868354B4A4FF08053D3F84034C2F80D
:102CD0006C35484A4FF08053D3F84434C2F870350D
:102CE00000F0D4F90346002B05D0434A434B1B6840
:102CF00003F04F03136000F0FBF90346002B0DD0E7
:102D00004FF08043D3F8003403F00103002B05D0CB
:102D10004FF080436FF00102C3F8002400F01AFA6C
:102D20000346002B05D0364A354B1B6843F48063BD
:102D30001360344A334BD3F8883043F47003C2F83D
:102D40008830BFF34F8FBFF36F8F4FF01023D3F84E
:102D50000032002B05DB4FF01023D3F80432002B98
:102D60002BDA294B0122C3F8042500BF264BD3F8E8
:102D70000034002BFAD04FF010231522C3F80022A4
:102D800000BF214BD3F80034002BFAD04FF01023B2
:102D90001522C3F8042200BF1B4BD3F80034002BCC
:102DA000FAD0194B0022C3F8042500BF164BD3F804
:102DB0000034002BFAD0FFF79BFEFFF7ADFE00BFFB
:102DC00080BD00BF403501402403001074C007409F
:102DD0000DF0ADBA3C05004044020010F0ED00E0FB
:102DE000A00500401056004088560040185600408C
:102DF0001456004000C00040E40E0040580200108D
:102E00003C17004000ED00E000E0014080B400AF5E
:102E1000144B1B68DBB2062B1DD1134B1B6803F050
:102E20000F03002B17D1114B1B6803F0F003302B5D
:102E300001D1012310E00D4B1B6803F0F003402B80
:102E400001D1012308E0094B1B6803F0F003502B6C
:102E500001D1012300E000231846BD465DF8047B44
:102E6000704700BFE00F00F0E40F00F0E80F00F043
:102E700080B400AF0C4B1B68DBB2062B0DD10B4BA3
:102E80001B6803F00F03002B07D1094B1B6803F0ED
:102E9000F003302B01D1012300E000231846BD468A
:102EA0005DF8047B704700BFE00F00F0E40F00F016
:102EB000E80F00F080B400AF144B1B68DBB2062BA8
:102EC0001DD1134B1B6803F00F03002B17D1114BBF
:102ED0001B6803F0F003302B01D1012310E00D4BF0
:102EE0001B6803F0F003402B01D1012308E0094BDC
:102EF0001B6803F0F003502B01D1012300E00023F5
:102F00001846BD465DF8047B704700BFE00F00F037
:102F1000E40F00F0E80F00F080B400AF0C4B1B682A
:102F2000DBB2062B0DD10B4B1B6803F00F03002BFC
:102F300007D1094B1B6803F0F003302B01D10123AB
:102F400000E000231846BD465DF8047B704700BFD3
:102F5000E00F00F0E40F00F0E80F00F080B400AFE5
:102F6000144B1B68DBB2062B1DD1134B1B6803F0FF
:102F70000F03002B17D1114B1B6803F0F003302B0C
:102F800001D1012310E00D4B1B6803F0F003402B2F
:102F900001D1012308E0094B1B6803F0F003502B1B
:102FA00001D1012300E000231846BD465DF8047BF3
:102FB000704700BFE00F00F0E40F00F0E80F00F0F2
:102FC00080B400AF0C4B1B68DBB2062B0DD10B4B52
:102FD0001B6803F00F03002B07D1094B1B6803F09C
:102FE000F003302B01D1012300E000231846BD4639
:102FF0005DF8047B704700BFE00F00F0E40F00F0C5
:10300000E80F00F080B400AF0C4B1B68DBB2062B5E
:103010000DD10B4B1B6803F00F03002B07D1094B9D
:103020001B6803F0F003302B01D1012300E00023E3
:103030001846BD465DF8047B704700BFE00F00F006
:10304000E40F00F0E80F00F080B400AF0C4B1B68F9
:10305000DBB2062B0DD10B4B1B6803F00F03002BCB
:1030600007D1094B1B6803F0F003502B01D101235A
:1030700000E000231846BD465DF8047B704700BFA2
:10308000E00F00F0E40F00F0E80F00F080B400AFB4
:10309000144B1B68DBB2062B1DD1134B1B6803F0CE
:1030A0000F03002B17D1114B1B6803F0F003302BDB
:1030B00001D1012310E00D4B1B6803F0F003402BFE
:1030C00001D1012308E0094B1B6803F0F003502BEA
:1030D00001D1012300E000231846BD465DF8047BC2
:1030E000704700BFE00F00F0E40F00F0E80F00F0C1
:1030F00080B400AF144B1B68DBB2062B1DD1134B01
:103100001B6803F00F03002B17D1114B1B6803F052
:10311000F003302B01D1012310E00D4B1B6803F0AD
:10312000F003402B01D1012308E0094B1B6803F099
:10313000F003502B01D1012300E000231846BD46C7
:103140005DF8047B704700BFE00F00F0E40F00F073
:10315000E80F00F080B400AF074B1B68062B05D1C9
:10316000064B1B68062B01D1012300E00023184603
:10317000BD465DF8047B704730010010340100103B
:103180000649074A074B9B1A03DD043BC858D05039
:10319000FBDCFFF7CFFCFDF769F800004C5900009D
:1031A0000000002004050020FEE7FEE7FEE7FEE742
:1031B000FEE7FEE7FEE7FEE7FEE7FEE780B483B04A
:1031C00000AF0346FB71094997F907305B09FA79AB
:1031D00002F01F02012000FA02F241F8232000BF92
:1031E0000C37BD465DF8047B704700BF00E100E08E
:1031F00080B483B000AF0346FB71094997F90730EB
:103200005B09FA7902F01F02012000FA02F2203372
:1032100041F8232000BF0C37BD465DF8047B7047A2
:1032200000E100E080B483B000AF0346FB710949C0
:1032300097F907305B09FA7902F01F02012000FAC2
:1032400002F2603341F8232000BF0C37BD465DF821
:10325000047B704700E100E080B483B000AF034618
:103260003960FB7197F90730002B0BDA0D49FB79B8
:1032700003F00F03043B3A68D2B25201D2B20B44BE
:103280001A7609E0084997F907303A68D2B2520134
:10329000D2B20B4483F8002300BF0C37BD465DF863
:1032A000047B704700ED00E000E100E080B483B0F3
:1032B00000AF78607B6803F06043B3F1005F0CBF40
:1032C00001230023DBB218460C37BD465DF8047BB2
:1032D000704780B485B000AF78607B681B0BFB73D0
:1032E00097F90F3018461437BD465DF8047B7047D8
:1032F00080B582B000AF03460A46FB711346BB712E
:10330000BA7997F9073011461846FFF7A5FF00BFB5
:103310000837BD4680BD80B582B000AF0346FB7163
:1033200097F907301846FFF77DFF97F907301846E1
:10333000FFF744FF00BF0837BD4680BD80B582B0AF
:1033400000AF0346FB7197F907301846FFF750FFAF
:1033500000BF0837BD4680BD80B483B000AF786041
:103360000B46FB70FB787A68134401221A6000BF99
:103370000C37BD465DF8047B704780B485B000AF64
:1033800078600B467B807B887A68134400221A6041
:103390007B887A6813441B68FB60FB6800BF1437A6
:1033A000BD465DF8047B704780B483B000AF7860A1
:1033B0000B467B807B887A6813441B68002B14BF04
:1033C00001230023DBB218460C37BD465DF8047BB1
:1033D000704780B483B000AF786039607B68D3F801
:1033E00000223B68DB431A407B68C3F8002200BF21
:1033F0000C37BD465DF8047B704780B483B000AFE6
:10340000786039607B683A68C3F8042300BF0C37E2
:10341000BD465DF8047B704780B483B000AF786030
:1034200039607B683A68C3F8082300BF0C37BD4693
:103430005DF8047B704780B483B000AF78607B6830
:103440000622C3F8002500BF0C37BD465DF8047B9B
:10345000704780B483B000AF78607B680022C3F807
:10346000002500BF0C37BD465DF8047B704780B473
:1034700085B000AFF860B9607A60FB68BA68C3F8DD
:103480000825FB687A68C3F80C2500BF1437BD46D1
:103490005DF8047B704780B483B000AF786039601A
:1034A0007B683A68C3F8242500BF0C37BD465DF839
:1034B000047B704780B485B000AF78607B68D3F838
:1034C000C434FB607B68FA68C3F8C424FB68184600
:1034D0001437BD465DF8047B704780B483B000AFFD
:1034E00078600B46FB70FA787B68C3F8882500BFCC
:1034F0000C37BD465DF8047B704780B485B000AFE3
:10350000F860B9607A60BA68FB68C3F84425FB6864
:103510007A68C3F8482500BF1437BD465DF8047BC0
:10352000704780B485B000AFF860B9607A60BA685F
:10353000FB68C3F83425FB687A68C3F8382500BFF8
:103540001437BD465DF8047B704780B483B000AF8C
:10355000786039607B683A68C3F8002200BF0C3796
:10356000BD465DF8047B704780B483B000AF7860DF
:103570007B68D3F84C3518460C37BD465DF8047BA4
:10358000704780B483B000AF78607B68D3F83C3577
:1035900018460C37BD465DF8047B704780B483B095
:1035A00000AF78607B680122C3F8502500BF0C375C
:1035B000BD465DF8047B704780B483B000AF78608F
:1035C0007B680022C3F8502500BF0C37BD465DF86C
:1035D000047B704780B483B000AF78607B680122C1
:1035E000C3F8402500BF0C37BD465DF8047B70472B
:1035F00080B483B000AF78607B680022C3F84025B8
:1036000000BF0C37BD465DF8047B704780B483B0C3
:1036100000AF78604FF0A04318460C37BD465DF808
:10362000047B704780B584B000AF786008461146CF
:103630001A460346FB700B46BB7013467B703B1D5E
:103640001846FFF7E3FFF8607A68F978BB785B000B
:1036500019437B789B0019433B7E1B0219433B7F38
:103660001B041943FB6802F5E07243F8221000BF07
:103670001037BD4680BD80B584B002AF78600023AE
:103680000193002300930023012200217868FFF7B3
:10369000C9FF00BF0837BD4680BD80B485B000AF0C
:1036A00078600323FB607B6803F00203002B02D0E9
:1036B00048F20123FB607B6803F00403002B02D077
:1036C00048F20223FB60FB6818461437BD465DF8DC
:1036D000047B704780B58AB002AFF860B9607A6049
:1036E0003B60FB681B791A46342303FB02F3404A14
:1036F0001344FB61FB6993F82D30002B03D00823A2
:10370000BB61BB6970E0FB681A68FB681B791946EE
:10371000384B53F821301946104601F059FD034645
:10372000002B03D01123BB61BB695DE0FB697A68A4
:103730001A60FB693A685A60FB6900229A60FB696B
:10374000002283F83020FB69002283F82F20BB6819
:103750005A7BFB6983F83220BB6818680023019309
:1037600006230093032300220021FFF75BFFBB68C1
:1037700058680023019306230093032300220021AD
:10378000FFF750FFFB681B687B61BB681968BB686B
:103790005B681A467869FFF76AFEBB689B68194642
:1037A0007869FFF778FEFB691B68002B15D0FB6872
:1037B0001B681846FFF78DFD03461A46BB681B7B46
:1037C00019461046FFF794FDFB681B681846FFF783
:1037D00080FD03461846FFF79EFDFB69012283F832
:1037E0002D200023BB61BB6918462037BD4680BD34
:1037F000E02500203859000080B584B000AF786023
:103800007B681B791A46342303FB02F31A4A1344DC
:10381000FB60FB681B68002B08D07B681B681846A0
:10382000FFF757FD03461846FFF788FD786800F05C
:1038300041F87B681B68184601F0F9FCFB6893F8B7
:10384000323083F00103DBB2002B0DD07B681B68A4
:10385000D3F808351846FFF70EFF7B681B68D3F8CE
:103860000C351846FFF707FFFB68002283F82D2070
:1038700000BF1037BD4680BDE025002080B584B074
:1038800000AF78607B681B791A46342303FB02F390
:10389000074A1344FB607B681B681846FFF7CBFDA3
:1038A000FB68022283F82D2000BF1037BD4680BD83
:1038B000E025002080B584B000AF78607B681B797C
:1038C0001A46342303FB02F30E4A1344FB607B6861
:1038D0001B68BB60FB6800229A600B49B868FFF761
:1038E0009BFD4FF4BC51B868FFF773FDB868FFF754
:1038F000B0FDFB68012283F82D2000BF1037BD46C4
:1039000080BD00BFE025002002029C0180B582B08E
:1039100000AF786039603B6803F00103002B03D0EF
:103920007868FFF73BFE02E07868FFF745FE3B68EA
:1039300003F00203002B03D07868FFF74BFE02E090
:103940007868FFF755FE00BF0837BD4680BD000010
:10395000B0B588B000AFF860B9607A603B60002312
:10396000FB610823FB764FF482733B837B68DB6843
:103970001846FFF79BFC034683F00103DBB2002BE4
:1039800003D01023FB61FB6977E1A049B868FFF71A
:1039900043FDFB6893F82F30DBB2002B09D0FB68A6
:1039A0009B681946B868FFF728FD1123FB61FB6986
:1039B00063E13B6803F00403002B06D13B6803F08E
:1039C0001003002B01D1012300E0002303F00103C9
:1039D000DAB2FB6883F82F20FB687A6803F10C04E5
:1039E00015460FCD0FC42B6823603B6803F010030E
:1039F000002B14BF01230023DAB2FB6883F83020C8
:103A00007B685B781946B868FFF767FD4FF48271F1
:103A1000B868FFF7B2FC4FF49271B868FFF7ADFCDD
:103A20003968B868FFF772FF7B681B78032B00F2D8
:103A3000C88001A252F823F03B3B0000933B0000FA
:103A4000E93A0000493A00007B681B691846FFF715
:103A50002DFC034683F00103DBB2002B03D01023BF
:103A6000FB61FB6909E14FF48071B868FFF76DFDF8
:103A70007B68D9687B685B681A46B868FFF73DFDCC
:103A80004FF4A871B868FFF778FC4FF4B071B868CC
:103A9000FFF773FC4FF4A471B868FFF76EFC2021A8
:103AA000B868FFF759FC0821B868FFF755FC00BF5C
:103AB0004FF4A871B868FFF777FC034683F0010361
:103AC000DBB2002BF4D14FF4A871B868FFF755FCB6
:103AD0007B6819697B689B681A46B868FFF70DFD1B
:103AE000FB684B4A9A606FE07B68D9687B685B68CB
:103AF0001A46B868FFF701FD7B681B691846FFF797
:103B0000D5FB034683F00103DBB2002B03D0102367
:103B1000FB61FB69B1E07B6819697B689B681A46A9
:103B2000B868FFF7FEFC4FF48451B868FFF70DFD4D
:103B3000FB6840F202229A6046E07B68D9687B68A5
:103B40005B681A46B868FFF7D8FC3B6803F02003AF
:103B5000002B10D04FF48071B868FFF7F6FCFB68BB
:103B60002B4A9A604FF4A471B868FFF706FC4FF433
:103B7000A4733B8308E04FF40071B868FFF7E5FCDD
:103B8000FB6840F202229A602021B868FFF7E4FB4C
:103B90001AE07B68D9687B685B681A46B868FFF7EB
:103BA000C0FC4FF48051B868FFF7CFFCFB6840F2CF
:103BB00002229A600023FB762021B868FFF7CCFB35
:103BC00002E00723FB6100BF3B6803F00803002B02
:103BD00008D17B681B78032B04D0FB7E1946B8689C
:103BE000FFF7BAFBFB681B68002B2BD03B6803F088
:103BF0000403002B03D0FB684FF400729A60FB684B
:103C00009B681946B868FFF7F8FB35E002029C0193
:103C1000000204004FF49271B868FFF7C5FB034639
:103C2000002B0FD04FF49271B868FFF7A6FB20214C
:103C3000B868FFF791FB1421B868FFF78DFB4FF4CC
:103C400082733B833B8B1946B868FFF7ADFB034695
:103C500083F00103DBB2002BDCD1B868FFF72AFC4C
:103C60007861FB68002283F82F207B69002B03D04A
:103C70007869FFF712FDF861FB6918462037BD46E9
:103C8000B0BD00BF80B586B000AFF860B9607A60A3
:103C900000237B61FB681B791A46342303FB02F384
:103CA000074A13443B61FB6819687B68BA68386946
:103CB000FFF74EFE78617B6918461837BD4680BD18
:103CC000E025002080B58AB000AFF8607A603B60E4
:103CD0000B46FB7207F1140300221A605A609A60C7
:103CE000DA601A61FB7A7B753B68BB617B683B627B
:103CF00097F83030002B01D0202200E0002207F19D
:103D000014031946F868FFF7BDFF03461846283725
:103D1000BD4680BD80B58AB000AFF8607A603B6078
:103D20000B46FB7207F1140300221A605A609A6076
:103D3000DA601A6101233B75FB7A7B753B68BB61D6
:103D40007B683B6207F1140300221946F868FFF70D
:103D500099FF034618462837BD4680BDB0B58AB0E6
:103D600000AF786039604FF492717868FFF71CFB00
:103D70000346002B27D04FF492717868FFF7FDFAC5
:103D80004FF482717868FFF70FFB034683F001035D
:103D9000DBB2002B17D03B689B6819467868FFF7A9
:103DA0003BFB3B6802229A603B689B681946786837
:103DB000FFF723FB20217868FFF7CEFA14217868FB
:103DC000FFF7CAFAC5E04FF482717868FFF7ECFAA2
:103DD0000346002B51D04FF482717868FFF7CDFA7B
:103DE0003B6807F1100403F10C050FCD0FC42B68DD
:103DF00023603B6893F82E30002B1BD03B681B7B65
:103E0000012B04D17868FFF7BCFB034603E0786818
:103E1000FFF7AAFB03467B613B681B7B022B04D1A7
:103E20007868FFF7AEFB034603E07868FFF79CFB7A
:103E30000346BB614FF4B0717868FFF79EFA4FF408
:103E4000AE717868FFF799FA3B6893F8303083F0E9
:103E50000103DBB2002B04D13B6893F82E30002B1A
:103E60004DD000217868FFF770FB3B6800229A6014
:103E700039497868FFF7D0FA41E04FF4A4717868C7
:103E8000FFF77BFA3B681B7B002B1CD13B6807F1DB
:103E9000100403F10C050FCD0FC42B6823603B68A1
:103EA00093F8303083F00103DBB2002B27D00021E0
:103EB0007868FFF74AFB3B6800229A6026497868D9
:103EC000FFF7AAFA1BE04FF400717868FFF73DFB9B
:103ED0003B6840F202229A601F497868FFF79CFA1B
:103EE0003B689B6819467868FFF787FA082178686D
:103EF000FFF732FA20217868FFF72EFA29E0786878
:103F0000FFF7D8FA78627B6A03F00203002B02D035
:103F100001233B7309E07B6A03F00403002B02D00A
:103F200002233B7301E000233B733B6893F830307E
:103F300083F00103DBB2002B03D03B68002283F83F
:103F40002F203B681B683A68516807F10C02104645
:103F500098472837BD46B0BD02029C0180B500AF2E
:103F600002490348FFF7FAFE00BF80BDE0250020AC
:103F70000030004080B483B000AF0346FB710949B4
:103F800097F907305B09FA7902F01F02012000FA65
:103F900002F241F8232000BF0C37BD465DF8047BD8
:103FA000704700BF00E100E080B483B000AF03467B
:103FB000FB71094997F907305B09FA7902F01F0292
:103FC000012000FA02F2603341F8232000BF0C37D1
:103FD000BD465DF8047B704700E100E080B483B02B
:103FE00000AF03463960FB7197F90730002B0BDAFD
:103FF0000D49FB7903F00F03043B3A68D2B252013A
:10400000D2B20B441A7609E0084997F907303A68AA
:10401000D2B25201D2B20B4483F8002300BF0C3756
:10402000BD465DF8047B704700ED00E000E100E074
:1040300080B582B000AF03460A46FB711346BB71E0
:10404000BA7997F9073011461846FFF7C7FF00BF46
:104050000837BD4680BD80B582B000AF0346FB7116
:1040600097F907301846FFF79FFF97F90730184672
:10407000FFF780FF00BF0837BD4680BD80B483B026
:1040800000AF0346FB71114A97F90730002B00DAA5
:104090001F335B115BB252F8232097F90730594266
:1040A00003F01F0301F01F0158BF4B425BB222FA1D
:1040B00003F303F00103002B14BF01230023DBB241
:1040C00018460C37BD465DF8047B704700E100E000
:1040D00080B483B000AF78604FF080427B68C2F854
:1040E000043300BF0C37BD465DF8047B704780B4D5
:1040F00083B000AF78604FF080427B68C2F808332D
:1041000000BF0C37BD465DF8047B704780B483B0B8
:1041100000AF0346FB71FB7903F1804301221A6073
:1041200000BF0C37BD465DF8047B704780B485B096
:1041300000AF0346FB80FB8803F1804300221A6036
:10414000FB8803F180431B68FB60FB6800BF1437EA
:10415000BD465DF8047B704780B483B000AF034672
:10416000FB80FB8803F180431B68002B14BF0123F5
:104170000023DBB218460C37BD465DF8047B704760
:1041800080B483B000AF0346FB714FF08042FB79EF
:1041900003F00303C2F8183500BF0C37BD465DF8C5
:1041A000047B704780B483B000AF0346FB714FF0CF
:1041B0008043D3F80C3403F00112FB7943F48033CD
:1041C0009A420CBF01230023DBB218460C37BD46D0
:1041D0005DF8047B704780B582B000AF0023FB71AF
:1041E0000020FFF74BFF034683F00103DBB2002BF7
:1041F00007D0FB7919460020FFF71AFF0020FFF7D0
:104200002AFF00BF0837BD4680BD000080B485B0DE
:1042100000AF134BDB68FB60114AFB6843F080730F
:10422000D360104B1B68BB600E4ABB6843F00103B0
:1042300013600C4B5B687B6000BF0A4B5A687B685D
:10424000D31AB3F50A5FF8D3064ABB681360044A71
:10425000FB68D36000BF1437BD465DF8047B704730
:10426000F0ED00E0001000E080B485B000AF7860B1
:104270000023FB600B4B1B79002B02D08523FB60D6
:1042800008E0084A7B681360064B01221A71054B4F
:1042900000225A71FB6818461437BD465DF8047B4E
:1042A000704700BF1426002080B500AFFFF793FFD2
:1042B0000120FFF765FF00BF80BD80B500AF4FF460
:1042C0008270FFF733FF0220FFF702FFFFF79EFF28
:1042D0000820FFF71BFF00BF80BD80B500AF4FF483
:1042E0008070FFF723FF0120FFF7F2FE0020FFF7A9
:1042F0000DFF00BF80BD000080B500AF0420FFF7B8
:1043000005FF00BF0120FFF74DFF0346002BF9D149
:10431000024B00225A7100BF80BD00BF142600204E
:1043200080B500AF4FF48070FFF716FF0346002BF7
:1043300014D04FF48070FFF7F9FE0120FFF7D7FE8D
:10434000104B5B7983F00103DBB2002B06D00D4BE1
:1043500001225A710B4B1B68002098474FF4827062
:10436000FFF7FAFE0346002B0AD04FF48270FFF7E6
:10437000DDFE0220FFF7BBFE024B1B6801209847C1
:1043800000BF80BD1426002080B483B000AF034678
:10439000FB71094997F907305B09FA7902F01F02AE
:1043A000012000FA02F241F8232000BF0C37BD467D
:1043B0005DF8047B704700BF00E100E080B483B08B
:1043C00000AF0346FB71094997F907305B09FA7999
:1043D00002F01F02012000FA02F2603341F82320AC
:1043E00000BF0C37BD465DF8047B704700E100E07C
:1043F00080B483B000AF03463960FB7197F9073092
:10440000002B0BDA0D49FB7903F00F03043B3A68EC
:10441000D2B25201D2B20B441A7609E0084997F998
:1044200007303A68D2B25201D2B20B4483F800236B
:1044300000BF0C37BD465DF8047B704700ED00E01F
:1044400000E100E080B582B000AF03460A46FB7190
:104450001346BB71BA7997F9073011461846FFF732
:10446000C7FF00BF0837BD4680BD80B582B000AF32
:104470000346FB7197F907301846FFF79FFF97F93E
:1044800007301846FFF780FF00BF0837BD4680BDE4
:1044900080B485B000AFF860B9607A60FB68BA6834
:1044A00002F5A872796843F8221000BF1437BD46A0
:1044B0005DF8047B704780B483B000AF78603960EA
:1044C0007B683A68C3F8042300BF0C37BD465DF82B
:1044D000047B704780B483B000AF786039607B683C
:1044E0003A68C3F8082300BF0C37BD465DF8047B6B
:1044F000704780B483B000AF786039607B68D3F8D0
:1045000004233B68134018460C37BD465DF8047B16
:10451000704780B483B000AF78600B467B807B88A7
:104520007A6813441B6818460C37BD465DF8047B57
:10453000704780B485B000AF78600B467B807B8885
:104540007A68134400221A607B887A6813441B68D7
:10455000FB60FB6800BF1437BD465DF8047B704705
:1045600080B483B000AF78607B68D3F80435184618
:104570000C37BD465DF8047B704780B483B000AF54
:10458000786039607B683A68C3F8082500BF0C374B
:10459000BD465DF8047B704780B483B000AF78609F
:1045A0000B46FB70FA787B6813441A4601231360AC
:1045B00000BF0C37BD465DF8047B704780B483B004
:1045C00000AF786039607B683A68C3F8442300BF65
:1045D0000C37BD465DF8047B704780B483B000AFF4
:1045E000786039607B683A68C3F8482300BF0C37AD
:1045F000BD465DF8047B704780B586B000AFF860BB
:10460000B9607A60FB685B7919462A4A7B6842F890
:104610002130FB685B791946274A0B465B000B4447
:1046200013441B78002B03D008237B617B693DE09A
:10463000FB6893F90420BB689B7819461046FFF786
:1046400001FFFB6893F904301846FFF70EFFFB6883
:104650001A68BB681B8819461046FFF78EFFFB6877
:104660005B791946BB681879134A0B465B000B440B
:104670001344013302461A70FB685B791946BB6824
:10468000D8780D4A0B465B000B44134402330246B4
:104690001A70FB685B791946074A0B465B000B44AE
:1046A000134401221A7000237B617B691846183776
:1046B000BD4680BD1C2600202026002080B582B08B
:1046C00000AF78607B681B6800211846FFF764FF25
:1046D0007B685B791946054A0B465B000B44134423
:1046E00002221A7000BF0837BD4680BD2026002078
:1046F00080B58AB000AFF860B9607A60FB704FF4A3
:104700008032BB6802FA03F33B62BB689BB2503352
:104710009BB29B00FB83FB681B68396A1846FFF756
:104720005CFFFB681B68396A1846FFF7D3FE7B689D
:1047300023F07F437B60FB685B7919462C4A0B466C
:104740005B000B44134401331B78002B2CD0FB6817
:104750001B687A68B9681846FFF79AFEFB681B6801
:104760001846FFF7FDFEB861BA697B68D31A7B6211
:10477000BA697B689A4205D27B6A03F1FF1303F59D
:104780007F437B62FB685B791946194A0B465B00E5
:104790000B44134402331B781A467B6A9A420ADDA3
:1047A0000D237B617B691FE0FB681B687A68B96831
:1047B0001846FFF76DFEFB78002B0CD0FB681B68DA
:1047C000FA8B11461846FFF7B4FEFB681B68396A7E
:1047D0001846FFF770FEFB681B68396A1846FFF73A
:1047E000EDFE00237B617B6918462837BD4680BDFE
:1047F0002026002080B584B000AF78600B46FB70A7
:104800004FF48073FB810123BB607B681B68FA89CE
:1048100011461846FFF78DFE7B681B68B96818467D
:10482000FFF7CCFEFB78002B05D07B681B68B968CE
:104830001846FFF740FE00BF1037BD4680BD0000A0
:1048400080B588B000AFF860B9607A604FF480330B
:10485000BB614FF4A073FB820023FB612CE0B969BC
:10486000F868FFF746FE0346002B1CD0FB8A19466A
:10487000F868FFF74EFE0346002B14D0B969F868BC
:10488000FFF7ABFEB969F868FFF724FEFB8A19460B
:10489000F868FFF74EFE294ABB6852F82330FA69E0
:1048A000D2B210469847BB695B00BB61FB8A0433F8
:1048B000FB82FB690133FB61FA697B689A42CED3C4
:1048C0004FF48073FB820121F868FFF712FE034664
:1048D000002B12D0FB8A1946F868FFF71AFE034630
:1048E000002B0AD0FB8A1946F868FFF722FE134A0C
:1048F000BB6852F82330042098474FF48273FB8240
:104900000221F868FFF7F5FD0346002B12D0FB8A61
:104910001946F868FFF7FDFD0346002B0AD0FB8A15
:104920001946F868FFF705FE044ABB6852F82330C1
:104930000520984700BF2037BD4680BD1C260020BB
:1049400080B500AF032200210248FFF779FF00BFC6
:1049500080BD00BF00B0004080B483B000AF03460C
:10496000FB71094997F907305B09FA7902F01F02D8
:10497000012000FA02F241F8232000BF0C37BD46A7
:104980005DF8047B704700BF00E100E080B483B0B5
:1049900000AF0346FB71094997F907305B09FA79C3
:1049A00002F01F02012000FA02F2603341F82320D6
:1049B00000BF0C37BD465DF8047B704700E100E0A6
:1049C00080B483B000AF03463960FB7197F90730BC
:1049D000002B0BDA0D49FB7903F00F03043B3A6817
:1049E000D2B25201D2B20B441A7609E0084997F9C3
:1049F00007303A68D2B25201D2B20B4483F8002396
:104A000000BF0C37BD465DF8047B704700ED00E049
:104A100000E100E080B582B000AF03460A46FB71BA
:104A20001346BB71BA7997F9073011461846FFF75C
:104A3000C7FF00BF0837BD4680BD80B582B000AF5C
:104A40000346FB7197F907301846FFF79FFF97F968
:104A500007301846FFF780FF00BF0837BD4680BD0E
:104A600080B483B000AF0346FB71FB7903F1804350
:104A700003F5E04301221A6000BF0C37BD465DF824
:104A8000047B704780B483B000AF0346FB80FB8893
:104A900003F1804303F5E0431B68002B14BF01239F
:104AA0000023DBB218460C37BD465DF8047B704727
:104AB00080B485B000AF0346FB80FB8803F18043E0
:104AC00003F5E04300221A60FB8803F1804303F5FD
:104AD000E0431B68FB60FB6800BF1437BD465DF810
:104AE000047B704780B483B000AF0346FB710B4674
:104AF000BB7113467B710A49FB797A7951331B01EB
:104B00000B4404331A600649FB79BA7951331B010F
:104B10000B441A6000BF0C37BD465DF8047B70473C
:104B20000070004080B483B000AF7860044A7B68B6
:104B3000C2F8043300BF0C37BD465DF8047B7047F4
:104B40000070004080B483B000AF7860044A7B6896
:104B5000C2F8083300BF0C37BD465DF8047B7047D0
:104B60000070004080B400AF044B0122C3F8002560
:104B700000BFBD465DF8047B704700BF0070004079
:104B800080B400AF044B0022C3F8002500BFBD462F
:104B90005DF8047B704700BF0070004080B483B0B4
:104BA00000AF78603960074A7B68C2F82C36054A46
:104BB0003B68C2F8303600BF0C37BD465DF8047B59
:104BC000704700BF0070004080B483B000AF034660
:104BD000FB71054AFB79C2F8F03500BF0C37BD46C2
:104BE0005DF8047B704700BF0070004080B483B064
:104BF00000AF0346FB71054AFB79C2F8F43500BFEC
:104C00000C37BD465DF8047B704700BF0070004064
:104C100080B582B000AF03463960FB711D48FB7957
:104C20003A68127802F003013A685278120102F0F1
:104C3000300211433A689278120202F4E0621143A2
:104C40003A68D278120302F4805211433A6812791A
:104C5000120402F4E02211433A685279120502F478
:104C6000801211433A689279120602F080720A4368
:104C70001B01034403F5A3631A603B68D9793B68C1
:104C80001A7AFB791846FFF72DFF00BF0837BD469B
:104C900080BD00BF0070004080B58CB000AF4FF405
:104CA0008270FFF7EFFE0346002B45D04FF4827071
:104CB000FFF7FEFE874B93F82E3083F00103DBB243
:104CC000002B04D1834B93F82F30002B34D00023DA
:104CD0003B76804B5B68FB617E4B1B899BB23B84C0
:104CE0007C4BDB68002B03D17A4B00221A7419E04D
:104CF000784B1A8B774B5A83764BDB68754A536037
:104D0000744B1A8B734B1A81724B0022DA60714B11
:104D100093F82E3083F00103DBB2002B02D0002089
:104D2000FFF79EFE6B4B1B6807F118021046984771
:104D3000684B002283F82F20664B93F82E30002B0F
:104D400062D04FF48070FFF79DFE0346002B5BD0CE
:104D50004FF48070FFF7ACFE5E4B5A8B5D4B93F8BF
:104D60002D309BB29A421CD95A4B5A8B594B93F80F
:104D70002D309BB2D31A9AB2564B5A83554B5A6870
:104D8000544B1B899BB21946524B5B8BCB1A5B0071
:104D90001A44504B93F82D3019461046FFF7FEFE8B
:104DA0002BE04C4B5A8B4B4B93F82D309BB29A42D5
:104DB00014D1484BDB68002B10D0464B012283F8FE
:104DC0002F20444B00225A83424BDA68414B93F820
:104DD0002D3019461046FFF7E1FE0EE03D4B5A8B91
:104DE0003C4B93F82D309BB29A4206D1394B0122AD
:104DF00083F82F20374B00225A834FF48270FFF73D
:104E000057FE0420FFF72CFE4FF48870FFF73AFEA0
:104E10000346002B0ED04FF48870FFF749FE2D4B50
:104E200000221A7402233B732A4B1B6807F10C0201
:104E3000104698474FF48A70FFF724FE0346002B74
:104E400007D04FF48A70FFF733FE224B00221A740A
:104E50003CE0204B5B69FB6235E0FB6AB3FA83F30D
:104E6000BB624FF00042BB6A22FA03F3DB43FA6AEB
:104E70001340FB62BB6A9BB246339BB29B00FB8430
:104E8000FB8C1846FFF7FEFD0346002B1BD0FB8C66
:104E90001846FFF70DFE01233B70FB8CA3F58C73C6
:104EA000DB08DBB23B71FB8CA3F58C7303F00403CE
:104EB000002B0CBF01230023DBB27B71054B1B6869
:104EC0003A4610469847FB6A002BC6D100BF3037E0
:104ED000BD4680BD2426002080B584B000AF786038
:104EE00039602B4B93F82C30002B03D00823FB6048
:104EF000FB6848E0264A3B6813607B681B781846CD
:104F0000FFF762FE7B685B781846FFF76FFE7B68F1
:104F1000DA781F4B83F82E201D4B012283F82C20BA
:104F20001B4B00221A741A4B002283F82D20184BB9
:104F300000225A61164B002283F82F206FF00040A8
:104F4000FFF700FE4FF48270FFF7B2FD4FF4807060
:104F5000FFF7AEFD7B689B7819460720FFF75AFDE7
:104F60000720FFF76AFD0220FFF7DCFD084B93F8EE
:104F70002E30002B02D00120FFF7D4FDFFF7F2FD09
:104F80000023FB60FB6818461037BD4680BD00BF9C
:104F90002426002080B584B000AF03463960FB7141
:104FA000294B1B7CDBB2002B03D01123FB60FB6879
:104FB00045E03B681B79002B03D03B681B79012B34
:104FC00001D1FFF7DDFDFB791F4A0C335B00134471
:104FD0001B79002B07D11C4B93F82D300133DAB22B
:104FE000194B83F82D20FB793A68D179164A0C3396
:104FF0005B0013440A461A71FB793A68117A124A27
:105000000C335B0013440A465A71FB793968184621
:10501000FFF7FEFD3B68D9793B681A7AFB791846A1
:10502000FFF760FD3B681B79002B03D03B681B79C1
:10503000012B01D1FFF796FD0023FB60FB681846AA
:105040001037BD4680BD00BF2426002080B584B047
:1050500000AF78600B467B801220FFF773FD3B4B5F
:105060001B7CDBB2022B06D11220FFF75BFD112364
:10507000FB60FB6866E0354B1B7CDBB2012B33D158
:10508000324BDB68002B06D00220FFF74BFD1123CB
:10509000FB60FB6856E02D4A7B68D3602B4A7B8817
:1050A00013832A4B93F82E3083F00103DBB2002BDD
:1050B00013D000BF4FF48070FFF7E4FC034683F089
:1050C0000103DBB2002BF5D14FF48070FFF7F0FC49
:1050D0007B8819467868FFF761FD0220FFF722FD03
:1050E0000023FB60FB682DE00220FFF71BFD174B40
:1050F00001221A74154A7B685360144A7B88138115
:10510000124B0022DA60114B93F82E30002B0AD09C
:105110000E4A7B8853830D4B93F82D3019467868DF
:10512000FFF73CFD0BE07B8819467868FFF736FDFA
:105130004FF48070FFF7BCFC0020FFF791FC0023C8
:10514000FB60FB6818461037BD4680BD2426002052
:1051500080B582B000AF00237B600C4B1B7CDBB2C0
:10516000012B02D008237B600BE0084B93F82E3014
:10517000002B03D00020FFF773FC02E00420FFF7B0
:105180006FFC7B6818460837BD4680BD242600208A
:1051900080B500AF024B1B68984700BF80BD00BFC1
:1051A0005426002080B483B000AF78607B68064A44
:1051B000934201D1054B00E0002318460C37BD4651
:1051C0005DF8047B704700BF00200040542600209B
:1051D00080B586B000AF786039607868FFF7E2FF8D
:1051E00038613B69002B1BD00023FB750020FCF7C6
:1051F00029FA3B691B79002B02D00123FB7505E0DE
:105200003B693A681A603B6901221A710020FCF779
:1052100023FAFB7D002B03D01123FB60FB6802E027
:105220000023FB60FB6818461837BD4680BD80B57B
:1052300084B000AF78607868FFF7B4FFF860FB686F
:10524000002B05D0FB6800221A60FB6800221A714F
:1052500000BF1037BD4680BD08B50021044600F0F0
:1052600025F9044B1868C36B03B19847204600F03A
:1052700017FA00BF3C59000070B50F4E0F4D761B5A
:10528000B61018BF002405D0013455F8043B9847E8
:10529000A642F9D10A4E0B4D761B00F003FAB61068
:1052A00018BF002406D0013455F8043B9847A642A5
:1052B000F9D170BD70BD00BFF4040020F4040020DB
:1052C000FC040020F4040020844641EA000313F0AB
:1052D00003036DD1403A41D351F8043B40F8043BFD
:1052E00051F8043B40F8043B51F8043B40F8043BC0
:1052F00051F8043B40F8043B51F8043B40F8043BB0
:1053000051F8043B40F8043B51F8043B40F8043B9F
:1053100051F8043B40F8043B51F8043B40F8043B8F
:1053200051F8043B40F8043B51F8043B40F8043B7F
:1053300051F8043B40F8043B51F8043B40F8043B6F
:1053400051F8043B40F8043B51F8043B40F8043B5F
:1053500051F8043B40F8043B403ABDD2303211D3FF
:1053600051F8043B40F8043B51F8043B40F8043B3F
:1053700051F8043B40F8043B51F8043B40F8043B2F
:10538000103AEDD20C3205D351F8043B40F8043BFF
:10539000043AF9D2043208D0D2071CBF11F8013BFD
:1053A00000F8013B01D30B8803806046704700BFC3
:1053B000082A13D38B078DD010F003038AD0C3F1D2
:1053C0000403D21ADB071CBF11F8013B00F8013BB4
:1053D00080D331F8023B20F8023B7BE7043AD9D373
:1053E000013A11F8013B00F8013BF9D20B78037048
:1053F0004B7843708B7883706046704770B4860733
:1054000046D0541E002A41D0CAB2034602E014F12D
:10541000FF343BD303F8012B9D07F8D1032C2ED981
:10542000CDB245EA05250F2C45EA054519D903F10A
:1054300010022646103E0F2E42F8105C42F80C5C1B
:1054400042F8085C42F8045C02F11002F2D8A4F1C0
:10545000100222F00F0204F00F041032032C134448
:105460000DD91E462246043A032A46F8045BFAD8B0
:10547000221F22F003020432134404F003042CB16F
:10548000C9B21C4403F8011B9C42FBD170BC70479D
:1054900014460346C2E700BF024B13B1024800F0B6
:1054A00079B8704700000000A15500002DE9F04FC9
:1054B000354B85B00E460190186800F08BF8334BE1
:1054C0001B68029303F5A4730393029BD3F84871FE
:1054D00037B3DDF80CA04FF00109D3467C68651E98
:1054E0000ED4013407EB84044FF00008FEB1D4F869
:1054F00000319E421BD0013D6B1CA4F10404F5D188
:10550000234B6BB17B68002B39D13B6843B13846E4
:10551000CBF80030AFF30080DBF80070002FDDD156
:10552000194B186805B0BDE8F04F00F055B87B681E
:105530002268013BAB420CBF7D60C4F80080002AAA
:10554000D9D0D7F88811D7F804A009FA05F30B428F
:105550000FD0D7F88C110B420DD1D4F880100198E0
:1055600090477B685345B0D1DBF80030BB42C2D0D6
:10557000ABE79047F5E7D4F880009047F1E7BB46EA
:105580003F68002FAAD1CBE7F00400203C5900006F
:1055900000000000002301461A46184600F01EB81D
:1055A00038B50A4C0A4D641BA4100AD004F180439C
:1055B000013B05EB8305013C55F804399847002C65
:1055C000F9D1BDE8384000F073B800BF00050020F5
:1055D000FC040020704700BF704700BF2DE9F8436E
:1055E0002C4D0646286898460F469146FFF7F2FF75
:1055F000294B1C68D4F84831002B3ED05A681F2A2A
:105600001CDC02F1010E76B103EB82010124C1F82A
:105610008890D3F8880194402043022EC3F8880173
:10562000C1F8088123D00232C3F804E0286843F8A7
:105630002270FFF7D1FF0020BDE8F883174B0BB3B2
:105640004FF4C870AFF300800346D8B1D4F84821B6
:105650000260002141600A46C4F848014FF0010E83
:10566000C0F88811C0F88C11002EDCD0CCE7D3F83C
:105670008C110C43C3F88C41D5E704F5A673C4F82C
:105680004831BBE72868FFF7A7FF4FF0FF30BDE8C0
:10569000F88300BFF00400203C5900000000000027
:1056A000FEE700BFF8B500BFF8BC08BC9E467047D7
:1056B000F8B500BFF8BC08BC9E467047000000006B
:1056C00000300040000000000100000000B0004079
:1056D0000B00030000000741000000000000000074
:1056E000E7E7E7E7C2C2C2C2E7C2C3C4C5C6C7C8CC
:1056F000616C6976653A3100616C6976653A256C52
:10570000753B6E623A2575003B727825643A2564D4
:105710002C2D25642C25640073697A65206E6F74C6
:1057200020302C206E6F742035206275743A256409
:105730000000000073697A65206E6F742031342098
:105740006275743A2575000074656D703A2D00001D
:1057500074656D703A000000256C642E2530326C43
:10576000643B000068756D3A256C752E2530336CEE
:10577000753B70726573733A256C752E2530326CEB
:10578000750000003B6C696768743A252E303366FB
:105790000000000068756D3A256C752E2530336C5D
:1057A000753B70726573733A252E303366000000C6
:1057B0003B6961713A252E3032660000783A252E19
:1057C0003033663B793A252E3033663B7A3A252EC4
:1057D0003033663B73686F636B6475723A252E30A5
:1057E00033663B73686F636B636F756E743A252E17
:1057F000693B73746570636F756E743A252E693BEF
:1058000073656E736574656D703A252E69000000CE
:1058100073697A65206E6F742033206275743A253F
:105820006400000073697A65206E6F742032206214
:1058300075743A2564000000766F6C746167653A90
:1058400025752E25303375007069643A25643B63F5
:1058500074726C3A3078253032583B7372633A2553
:10586000643B0000646573743A25643B00000000EB
:1058700061636B3A313B000072657365743A3100C5
:105880007061796C6F61643A000000000D0A0000DD
:10589000727373693A2D25643B6E6F646569643A6F
:1058A00025643B636F6E74726F6C3A3078253032CA
:1058B000580000003B7069643A2573003B706964CE
:1058C0003A307825303258003B6C656E6774683A20
:1058D00025643B646174613A3078000025303258A9
:1058E00020000000307825303258203078253032C2
:1058F0005820307825303258203078253032580002
:105900003B2028256429207061796C6F61643A20FE
:1059100030780000000000000200000900000000D4
:105920000100070144590000445900000400000030
:105930000338FDD8704700005D3F0000C80000201C
:045940000000000063
:0859440028A9FF7F010000000B
:10594C000100000001000000000000000102000046
:10595C00FA0003000001022000000000000000001B
:10596C000201000000000000000000000000000028
:10597C00000000000000000000000000000000001B
:10598C00000000000000000000000000000000000B
:10599C0000000000000000000000000000000000FB
:1059AC0000000000000000000000000000000000EB
:1059BC0000000000000000000000000000000000DB
:1059CC0000000000000000000000000000000000CB
:1059DC0000000000000000000000000000000000BB
:1059EC000000000228230000E7E7E7E7C2C2C2C2BA
:1059FC00E7C2C3C4C5C6C7C80805FF02130100002F
:105A0C000090D0030000000000000000B403002050
:105A1C001C04002084040020000000000000000092
:105A2C00000000000000000000000000000000006A
:105A3C00000000000000000000000000000000005A
:105A4C00000000000000000000000000000000004A
:105A5C00000000000000000000000000000000003A
:105A6C00000000000000000000000000000000002A
:105A7C00000000000000000000000000000000001A
:105A8C00000000000000000000000000000000000A
:105A9C0000000000000000000000000000000000FA
:105AAC0000000000000000000000000000000000EA
:105ABC0001000000000000000E33CDAB34126DE687
:105ACC00ECDE05000B0000000000000000000000F0
