:1000000000000120A1280000C9280000CB28000022
:10001000CD280000CF280000D128000000000000FB
:10002000000000000000000000000000D3280000D5
:10003000D528000000000000D7280000D9280000C3
:10004000293000002119000029370000DD280000B8
:10005000DB280000DB280000C9030000F5320000A7
:10006000DB280000DB280000DB280000F131000065
:10007000DB280000DB280000DB280000DB28000074
:10008000DB280000DB280000DB280000DB28000064
:10009000051C0000DB280000DB280000DB28000036
:1000A000DB280000DB280000E5210000DB28000041
:1000B000DB280000DB28000000000000000000003A
:1000C000DB280000DB280000DB280000DB28000024
:1000D000DB280000DB280000DB2800000000000017
:1000E0000000000000000000000000000000000010
:1000F0000000000000000000000000000000000000
:1001000000000000000000000000000000000000EF
:1001100000000000000000000000000000000000DF
:1001200000000000000000000000000000000000CF
:1001300000000000000000000000000000000000BF
:1001400000000000000000000000000000000000AF
:10015000000000000000000000000000000000009F
:10016000000000000000000000000000000000008F
:10017000000000000000000000000000000000007F
:10018000000000000000000000000000000000006F
:10019000000000000000000000000000000000005F
:1001A000000000000000000000000000000000004F
:1001B000000000000000000000000000000000003F
:1001C000000000000000000000000000000000002F
:1001D000000000000000000000000000000000001F
:1001E000000000000000000000000000000000000F
:1001F00000000000000000000000000000000000FF
:1002000010B5054C237833B9044B13B10448AFF350
:1002100000800123237010BD0805002000000000AD
:10022000B85700000C4B43B10C480D4910B5AFF363
:1002300000800C48036823B910BD0A48036833B92D
:100240007047094B002BF7D0BDE810401847064B0C
:10025000002BF5D0184700BF00000000B857000081
:100260000C0500200405002000000000154B002BA9
:1002700008BF134B9D46A3F5803A00218B460F46DD
:100280001348144A121A03F051FB0F4B002B00D0F5
:1002900098470E4B002B00D0984700200021040007
:1002A0000D000D48002802D00C4803F00BFC03F0B1
:1002B0007BFA2000290000F005F903F065FA00BF81
:1002C0000000080000000120000000000000000005
:1002D000080500207C260020C53A0000D13A000025
:1002E000704700BF70B5334B334A1B68334C03F083
:1002F0004F03136000F0A2F900F01CFA2268304BA3
:10030000511CA3FB01035B09C3EB0313B1EB830F88
:100310003BD02C4B0532A3FB0213DB0803EB83031A
:10032000B2EB430F1ED04FF0A04303214FF4002245
:10033000C3F84C17C3F80C2500F022FC01F080F83C
:100340004FF0A0434FF400210222C3F80815C3F870
:100350004C2723680133236000F0D6F9BDE87040D4
:1003600000F076B94FF0A04503234FF48016C5F88E
:100370005037C5F80C6500F0B1FA00F0A1FA02237D
:10038000C5F80865C5F85037DAE74FF0A0450323F4
:100390004FF40036C5F84437C5F80C6500F0B0FBE3
:1003A00000F02EFB00F08CFA0223C5F80865C5F8B2
:1003B0004437C5E758020010E40E00402405002031
:1003C00089888888CDCCCCCC2DE9F041374B384A90
:1003D0001B6803F04F03136084B000F02FF900F0A6
:1003E000A9F9344B34494022C3F88020C3F8802156
:1003F000D1F87C31002B41D000234FF0A044C1F84C
:100400007C3100F059FD4FF4002603234FF40035F2
:10041000C4F84C3702A9C4F80C656846C4F84437E0
:10042000C4F80C5500F070FD00F0E0FF0022234BF3
:100430001FFA80F8DDE9020104F096FE05F044F9A8
:1004400000221E4B0746DDE9000104F08DFE05F099
:100450003BF943463A464FF47A7100F081FA00F0D6
:100460002FFA0223C4F80865C4F84C37C4F80855BD
:10047000C4F8443701F018F800F0C0FB4FF0A04278
:100480000C4B0D480E49C2F878174FF0004460211C
:100490004022C0F8044383F806131A6000F034F9D0
:1004A00000F0D6F804B0BDE8F08100BF580200109B
:1004B000E40E004000E100E00060004000408F409A
:1004C0000C00030070B53E4B3E4A1B6803F04F031F
:1004D000136001F001F900286ED100234FF0A04015
:1004E000022103F5E0720133202B40F82210F8D1ED
:1004F00000F094F800F0D0FA0021334800F082F9BF
:10050000002856D13148324C00F0DEF8314800F076
:10051000A1F8032000F0DCF92C4800F03DFF052590
:1005200044F001044FF47A40A047013DFAD1012084
:1005300000F0EEFF012001F01FF8022001F04EF85C
:1005400000F07EFF00F018F980B200F059FA00F0D8
:10055000B7F91E4800F0F8FA05254FF47A40A04795
:10056000013DFAD14FF4007000F084FB4FF480504D
:1005700000F0BEFB042000F0F9FB012000F036FC87
:100580004FF0A04500F0C0F8134B1448144E402221
:100590004FF000446021C3F88021C5F87867C0F8A7
:1005A000044383F806131A6000F052F801F0AAF829
:1005B000FCE701F04BF8A5E701F048F88DE700BF34
:1005C00058020010E40E0040E1020000385700001D
:1005D00030570000E502000000E100E0006000404C
:1005E0000C00030000B1704730B4084B084C094AB6
:1005F000094901254FF480302560C3F804031378BE
:1006000009682B44137030BC084700BF00B000409D
:1006100008B00040000000202805002008B501F0C7
:10062000B9FE38B9002001F007FF01F047FF0028AC
:10063000FBD008BD01F00AF8F4E700BF08B50020C0
:1006400001F0FAFE01F03AFF0028FBD008BD00BF20
:1006500001F020BF10B5184B82B01860002001F0E7
:10066000B5FE01F0E1FE0028FBD0144B144A93E8DC
:10067000030002AB40F2FF74009023F8084DADF880
:1006800004101048194602F0FFFC90B900210D48F3
:1006900002F098FD01234FF4F0720021094802F0A6
:1006A00047FD08B100F0D2FF064802F035FD02B068
:1006B00010BD00F0CBFFE9E72805002048570000F7
:1006C000E505000050570000F0B585B000231A255D
:1006D0000C4C009519274FF0CC76022569461A4636
:1006E00003932060019702968DF80C5001F0B4FD41
:1006F00008B100F0ABFF2068043002F087FA05B0C3
:10070000F0BD00BF2C05002010B5084C2068043057
:1007100002F08CFA2068043002F022FA044B002226
:100720001A60012219681A6010BD00BF2C05002054
:10073000FC3F0040F0B50F4C85B0002503952B46DB
:100740002A464FF01A0E19274FF0CC760225206862
:10075000CDF800E06946019702968DF80C5001F043
:100760007BFD08B100F072FF2068043002F04EFA01
:1007700005B0F0BD2C050020F0B500270E4E83B06B
:100780003D4601243068012304300DF10302214667
:1007900002F02CFB631C28B902AA2A44012702F8A4
:1007A000044C3D44DCB2802CECD10FB98DF80470C0
:1007B000BDF8040003B0F0BD2C05002010B504788E
:1007C000012C12D00AD3022C0C4B02D101221A7038
:1007D00010BD01221A7001221A7010BD084A074B81
:1007E0000121117001221A7010BD01F0E9FA044ACA
:1007F000024B147001221A7010BD00BF300500209A
:1008000031050020F0B5274A274D1468274B284EA4
:1008100085B00746009402F108048E4694E8030070
:1008200052682F6002AC032584E80300214FC6F80C
:1008300000E00021022601921D72012208251846BF
:100840005F605E72D98159701A751A70DD7401F09B
:1008500091F808B105B0F0BD684601F0C7FA00286C
:10086000F8D101A801F068FB0028F3D12046294601
:1008700001F028FC0028EDD1322001F09FFC002877
:10088000E8D10D4A0D4E10704FF080414FF00F141B
:10089000D1F800341571234050713360C1F8004421
:1008A000D8E700BF585700003C0500200400002096
:1008B00038050020BD0700001C0000204005002076
:1008C000024A1378002BFCD0704700BF300500208F
:1008D000014B1870704700BF01000020F0B51B4DA0
:1008E0001B4B2A6819781B481B4C160E002366F315
:1008F0000703160C66F30F23160A83B066F317433B
:1009000062F31F630093D0F80C358DF80430022297
:1009100041F08003582101270026A37122720A2387
:100920000522617204F10A00694623716371A770A0
:10093000E771267002F060FF084B20461E7001F040
:100940009FF92868C3192B6003B0F0BD340500205F
:1009500001000020001000401C0000203005002095
:10096000F0B5244D244C2D7885B045F080058DF8E8
:100970000D300127B52358268DF803008DF8071098
:10098000A571A770E371070E030C0D0E66724FF090
:10099000020E0E0C000A090A8DF80B2084F808E0FC
:1009A0008DF800704FEA126E8DF80130170C130AA3
:1009B0008DF802008DF804508DF80560002513268F
:1009C0008DF806100E22694604F10A008DF808E041
:1009D0008DF80A308DF8097025708DF80C5026714D
:1009E000667102F009FF054B20461D7001F048F9C1
:1009F00005B0F0BD010000201C00002030050020E3
:100A0000F0B5144B144C197883B002230246060A41
:100A100041F080014FF0010E8DF8052000251A46A7
:100A20008DF80460A171072601A9582704F10A0076
:100A300084F802E0E3712372677225702671667193
:100A400002F0DAFE054B20461D7001F019F903B0E3
:100A5000F0BD00BF010000201C0000203005002078
:100A600003788BB943680A4AB3F9003003EB830378
:100A7000C3EB0313DB0048BF03F2FF339B1203EB0E
:100A800043035B0046331380024B01221A70704708
:100A9000A40000204605002000B51449144885B084
:100AA00002F00AFDF8B9134B93E8070001AB03C34A
:100AB00001A900201A7002F04DFD08B100F0C6FD3A
:100AC0000D4B0E48002201211A7002F0ADFD38B91D
:100AD00002F00AFE08B100F0B9FD05B05DF804FBB4
:100AE00000F0B4FDF4E700F0B1FDDCE7610A0000BE
:100AF0007457000068570000460500204405002098
:100B000038B50E4C237803B9FEE70D4B1D8802F073
:100B100003FE034608B1284638BD01210948237069
:100B200002F082FD38B902F0DFFD0028F3D000F0BA
:100B30008DFD284638BD00F089FDF4E7460500200C
:100B4000A40000204405002070B584B000240B4EA2
:100B5000009405460323043003AA482135608DF82C
:100B60000C408DF80D408DF80E4002F07DF808B174
:100B700000F06CFD002004B070BD00BF48050020EF
:100B800070B51D4D84B004AA0023286802F8053D05
:100B9000012304300093482102F066F840BB286826
:100BA00003AA04300223482102F020F908B100F022
:100BB0004DFD9DF80D309DF80C40286844EA032453
:100BC00024F00104A4B20025260A043003AA0095EB
:100BD000032348218DF80D408DF80E608DF80C50E0
:100BE00002F042F808B100F031FD002004B070BD01
:100BF00000F02CFDD3E700BF4805002070B51C4D68
:100C000084B004AA0023286802F8053D01230430BB
:100C10000093482102F028F838BB286803AA043062
:100C20000223482102F0E2F808B100F00FFD9DF820
:100C30000D309DF80C40286844EA032444F0010478
:100C40000025260A043003AA0095032348218DF8C5
:100C50000D408DF80E608DF80C5002F005F808B1CB
:100C600000F0F4FC002004B070BD00F0EFFCD4E70D
:100C70004805002070B51D4D84B004AA29680023E2
:100C800002F8053D012306460093081D482101F0A6
:100C9000EBFF40BB286803AA04300223482102F07E
:100CA000A5F808B100F0D2FC9DF80D309DF80C407D
:100CB000286844EA032424F4707434430025260A87
:100CC000043003AA0095032348218DF80D408DF8C8
:100CD0000E608DF80C5001F0C7FF08B100F0B6FCB3
:100CE000002004B070BD00F0B1FCD3E7480500203F
:100CF00070B51D4D84B004AA2968002302F8053D93
:100D0000012306460093081D482101F0ADFF40BBBA
:100D1000286803AA04300223482102F067F808B1CA
:100D200000F094FC9DF80D309DF80C40286844EAD2
:100D3000032424F4C05434430025260A043003AAB3
:100D40000095032348218DF80D408DF80E608DF835
:100D50000C5001F089FF08B100F078FC002004B0CD
:100D600070BD00F073FCD3E74805002070B51E4D40
:100D700084B004AA2968032302F8053D012306462E
:100D80000093081D482101F06FFF48BB286803AAA3
:100D900004300223482102F029F808B100F056FC83
:100DA0009DF80D309DF80C40286844EA032424F097
:100DB0000604344303250021260A0091043003AAC7
:100DC0002B4648218DF80D408DF80E608DF80C50A3
:100DD00001F04AFF08B100F039FC002004B070BDFA
:100DE00000F034FCD2E700BF4805002070B5314D5B
:100DF00084B004AA0023286802F8053D01230430CA
:100E00000093482101F030FF00284FD1286803AA41
:100E100004300223482101F0E9FF08B100F016FC7C
:100E20009DF80D209DF80C402868002344EA022418
:100E3000FE2102220093FF2614438DF80C208DF82A
:100E40000D100430032303AA48218DF80E6001F031
:100E50000BFF08B100F0FAFB286800230121FF26F0
:100E600000938DF80C100430032303AA48218DF859
:100E70000D608DF80E6001F0F7FE08B100F0E6FBA2
:100E800028688DF80D400025240A043003AA009537
:100E9000032348218DF80E408DF80C5001F0E4FE3C
:100EA00008B100F0D3FB002004B070BD00F0CEFB11
:100EB000ACE700BF4805002010B5114C84B004AA6F
:100EC0000623206802F8053D0123043000934821E1
:100ED00001F0CAFE88B920680223043003AA482121
:100EE00001F084FF08B100F0B1FB9DF80D009DF802
:100EF0000C3043EA002004B010BD00F0A7FBEAE785
:100F000048050020000000002DE9F04FCA4F8BB0CB
:100F10000AAA04233C6802F8053D012383468A4659
:100F2000201D0093482101F09FFE002840F0D7804B
:100F3000386809AA04300223482101F057FF08B19C
:100F400000F084FB0AAA0523386802F8063D012355
:100F50000430009348219DF825409DF8245001F06D
:100F600083FE002840F0B88038680223043009AAC4
:100F7000482101F03BFF08B100F068FB0AAA0023FA
:100F8000386802F8073D01230430009348219DF89A
:100F900025809DF8249001F067FE002840F099809C
:100FA00038680223043009AA482101F01FFF08B164
:100FB00000F04CFB0AAA0023386802F8083D9DF8AF
:100FC00025600123043000934821C6F3C10601F0D7
:100FD0004BFE00287AD1386809AA04300223482140
:100FE00001F004FF08B100F031FB012E9DF825C08F
:100FF0009DF824E065D0002E5ED19FED6F7B8DEDD6
:10100000067B9FED6F7B8DED047B9FED6F7B70A169
:10101000D1E900018DED027B6FA3D3E9002370A716
:10102000D7E900674EEA0C2ECEF3831EBEF1030F04
:1010300014D0BEF1020F00F05681BEF1010F00F096
:101040006B81BEF1000F4DD0BEF1080F00F067813B
:10105000BEF10C0F00F066810026002745EA04204F
:1010600004F00CF832463B4604F07EF8044649EAA8
:1010700008200D4604F002F832463B4604F074F8AE
:10108000002206460F466D4B2046294604F0FCFA26
:10109000002840D1CBE900450022684B3046394654
:1010A00004F0F2FA002840F0CB8001231846CAE988
:1010B00000670BB0BDE8F08F032E00F01781022E01
:1010C00013D0002318460BB0BDE8F08F00F0BEFA35
:1010D00081E700F0BBFA63E700F0B8FA44E700F0FC
:1010E000B5FA25E706460F46B8E79FED3F7B8DED45
:1010F000067B9FED3F7B8DED047B9FED2F7B3EA11B
:10110000D1E900018DED027B2DA3D3E9002330A7A7
:10111000D7E9006786E79FED3A1B45EC104B02F0DC
:101120005BFD51EC100B9FED381B45EC104BCDE9EE
:10113000040102F051FDDDE9040135A3D3E90023E8
:101140008DED020B04F010F89DED020B80468946F0
:1011500031A3D3E9002351EC100B04F005F802464B
:101160000B464046494603F04BFE9FED2D1B45ECD8
:10117000104B8046894602F02FFD2BA3D3E90023B4
:1011800051EC100B03F0F0FF42464B4603F03AFEE1
:1011900027A3D3E90023804689462046294603F049
:1011A000E3FF02460B464046494603F02BFECBE9DF
:1011B000000171E7AFF3008000000040BF7DCD3F2C
:1011C00000000040BF7DBD3F00000040BF7D9D3F4F
:1011D00000000040BF7DAD3F00000040BF7D8D3F5F
:1011E00000000040BF7D7D3F00000040BF7DFD3F0F
:1011F00000000040BF7DED3F00000040BF7DDD3FAF
:101200000000000000001040000000000000084046
:101210003B288FB17A28653D6EF41EC9862B443E6B
:101220000000000000000040B0CA182E915C153F7D
:10123000287E8CB96B09F03F4805002000408F40A4
:101240009FED3B1B47EC106B02F0C6FC51EC100B02
:101250009FED391B47EC106BCDE9040102F0BCFC9B
:10126000DDE904013EA3D3E900238DED020B03F079
:101270007BFF9DED020B04460D463BA3D3E9002303
:1012800051EC100B03F070FF02460B462046294636
:1012900003F0B6FD9FED2A1B47EC106B04460D468C
:1012A00002F09AFC32A3D3E9002351EC100B03F0B7
:1012B0005BFF22462B4603F0A5FD2FA3D3E90023B5
:1012C00004460D463046394603F04EFF02460B46B3
:1012D0002046294603F096FD0123CAE9000118467D
:1012E0000BB0BDE8F08F16461F46B7E69FED167BA4
:1012F0008DED067B9FED167B8DED047B9FED167BC0
:101300001FA1D1E900018DED027B1FA3D3E90023CA
:101310001FA7D7E9006785E6DDE902679EE6DDE9FC
:1013200004679BE6DDE9066798E600BFAFF300803F
:101330000000000000001040000000000000084015
:10134000000000000000004000000040BF7DED3FB5
:1013500000000040BF7DDD3F00000040BF7DBD3F7D
:101360003B288FB17A28653D6EF41EC9862B443E1A
:10137000B0CA182E915C153F287E8CB96B09F03FDE
:1013800000000040BF7DCD3F00000040BF7DAD3F6D
:1013900000000040BF7D9D3F30B585B004AA062304
:1013A00002F8023D104C01230546009304305321FE
:1013B000256001F059FC98B92068012304300DF133
:1013C0000F02532101F012FD08B100F03FF99DF822
:1013D0000F00A0F1B200B0FA80F0400905B030BDB6
:1013E00000F034F9E8E700BF4C05002010B5134CBD
:1013F00084B004AA1023206802F8053D01230430BC
:101400000093532101F030FCA8B920680323043075
:1014100003AA532101F0EAFC08B100F017F99DF886
:101420000D309DF80E209DF80C001B0243EA02438C
:10143000184304B010BD00F009F9E6E74C050020A0
:1014400030B5184C85B004AA0023206802F8053D89
:10145000012304300093532101F006FCF8B9206801
:1014600003AA04300123532101F0C0FC08B100F0AD
:10147000EDF820689DF80C40002544F0020404308B
:1014800003AA0095022353218DF80D408DF80C50CE
:1014900001F0EAFB08B100F0D9F805B030BD00F06A
:1014A000D5F8DCE74C05002030B5184C85B004AA0F
:1014B0000023206802F8053D0123043000935321E6
:1014C00001F0D2FBF8B9206803AA043001235321AC
:1014D00001F08CFC08B100F0B9F820689DF80C40D0
:1014E000002584F00204043003AA0095022353214E
:1014F0008DF80D408DF80C5001F0B6FB08B100F0EE
:10150000A5F805B030BD00F0A1F8DCE74C050020DF
:1015100030B5184C85B004AA0023206802F8053DB8
:10152000012304300093532101F09EFBF8B9206899
:1015300003AA04300123532101F058FC08B100F044
:1015400085F820689DF80C40002544F0080404301C
:1015500003AA0095022353218DF80D408DF80C50FD
:1015600001F082FB08B100F071F805B030BD00F069
:101570006DF8DCE74C05002030B5174C85B004AAA7
:101580002168052302F8053D012305460093081D47
:10159000532101F069FBE0B9206803AA043001235C
:1015A000532101F023FC08B100F050F820688DF8B9
:1015B0000D50002300930524043003AA0223532175
:1015C0008DF80C4001F050FB08B100F03FF805B079
:1015D00030BD00F03BF8DFE74C05002070B51A4D38
:1015E00084B004AA2968042302F8053D01230646B5
:1015F0000093081D532101F037FB10BB286803AA94
:1016000004300123532101F0F1FB08B100F01EF872
:101610009DF80C402868002304F0700444EA061486
:1016200000930425043003AA022353218DF80D40B2
:101630008DF80C5001F018FB08B100F007F804B069
:1016400070BD00F003F8D9E74C05002000B585B067
:1016500000230390194601AA44F20100019302936A
:1016600000F004F805B05DF804FB00BF72B6094B4A
:101670001B68DB0700D500BEBFF34F8F0649074B41
:10168000CA6802F4E0621343CB60BFF34F8F00BF20
:10169000FDE700BFF0ED00E000ED00E00400FA051A
:1016A00072B6024A13680133136070475005002078
:1016B000034A1368013B136003B962B6704700BF69
:1016C0005005002001600B6843604A68934204BFE4
:1016D00000234360704700BF064A074B10B5002443
:1016E00014701C60BFF35F8F04490548FFF7EAFFE1
:1016F000204610BD5C0500206005002078570000E2
:101700005405002008B50020FFF7CAFFF1EE103A9B
:1017100023F09F03E1EE103ABFF35F8F054B4022A9
:10172000C3F884210020FFF7C3FF20BF40BF20BFC4
:1017300008BD00BF00E100E04FF08053D3F8043152
:1017400003F47F43B3F5844F1DD04FF08053D3F89B
:10175000043103F47F43B3F58A4F01D00020704772
:10176000F0B52C4B2C4A5C7CD2F81C152B4BD2F8D4
:101770002005052C18BF4FF07F43194003409942C4
:1017800012D00020F0BD2449254AD1F8503623F06C
:101790000103C1F85036136823F0807323F001036E
:1017A00043F080731360D0E7D2F82435D2F82415C3
:1017B000D2F82405D2F82475D2F82845D2F8285555
:1017C000D2F82865D2F828E5DBB2C1F307229342AC
:1017D00014D0C0F30740834210D0B3EB176F0DD085
:1017E000E4B2A3420AD0C5F30725AB4206D0C6F344
:1017F0000746B34202D0B3EB1E6FC2D1084A13684A
:1018000023F0807323F0010343F080731360002002
:10181000F0BD00BFA8000020001000400000FFFF46
:10182000741700402DE9F0413248334B0268996A41
:1018300042F001020260002952D05A6A2F48013258
:101840000224072A01F1FF31996288BF0022C0F803
:1018500080405A62294C9A6A02262660002A3FD0AC
:101860005A6A274FDFF8B0804FF48011C4F8001196
:1018700053F82210234B0A79C8F8001001250531CE
:1018800038461D6001F0B8FF1F4B20492048DFF8A3
:101890008CE040F21312C3F800221022C3F8042394
:1018A000D8F800200D701178C0F800E0C3F82C15AE
:1018B0001278184905FA02F2C97CC3F830250022D3
:1018C000C3F80815C3F80475C4F880612660C3F82E
:1018D0000421C3F80821C3F810211D60BDE8F08180
:1018E0000A49064B00204FF480120870C3F800210B
:1018F000BDE8F08184050020C420002000E100E064
:101900002825002088050020001000408C050020BC
:10191000B4250020A8000020B025002025180000D4
:10192000124BD3F8002132B1D3F80423D00744BFBF
:101930000022C3F800210D4BD3F80C2132B1D3F8AB
:101940000423110744BF0022C3F80C21074BD3F82E
:10195000102152B1D3F80423D20606D50021044A3F
:10196000C3F81011136803B1184770470010004006
:10197000B425002000283AD0F8B58C4D2B78DBB187
:101980008B4B8C4F8C4E8D498D4A8E4C4FF4705E34
:10199000C3F808E500233B704FF48017C6F8807049
:1019A00003260B624B628B62C2F8C830C2F8CC309F
:1019B000C2F8D030C4F80062834C844B42681A608D
:1019C00001461822204601F017FF7E4A237A8048FC
:1019D000A17A00260660C2F80C15C2F81035042B57
:1019E00000F2CB80DFE803F0B2C4C905C4000E20CA
:1019F0007047784B49221A600127627A012A00F069
:101A0000AE800AD3022A40F0BC806E4B72494FF67A
:101A1000FF70C3F83C05C3F83815704BA689587C95
:101A2000684B6F49C3F83425421E41EA0242862EB4
:101A30004FF00811C3F81415C3F8182540F29F8021
:101A4000002F00F09C80674E5C48674F5C4A6749F6
:101A50004FF0E73EC3F81CE54FF0433EC3F820E5E6
:101A6000C3F8247506F18707476006F58777876016
:101A700006F29517C76006F50777076106F2A327F8
:101A8000476106F22A37876106F2B137C761C3F8AA
:101A900028150027564B5749C2F8C870C2F8CC70B9
:101AA000C2F8D0700660076247628762043A42F863
:101AB000043F87338B42FAD1607C4F49A27C3C4B78
:101AC0003D4E3C4F4FF0040EC1F810E5440140F28A
:101AD000022E0020C1F80805C1F800E2DFF820E17D
:101AE000C3F860E5C3F86415A1F50E41FC39C3F8ED
:101AF000681501F50F41C3F86C1501F59E71C3F827
:101B00007015A1F511413039C3F8741501F5114173
:101B10003431C3F8781552012A49C3F87C15E4B270
:101B2000D2B24FF4801E01214FF0805386F801435A
:101B300086F81423C6F800E038702970D3F8043111
:101B400003F47F43B3F58A4F2AD0F8BD214B4022DE
:101B50001A60627A012A4FF001077FF452AF194BE5
:101B6000FF2040F20711C3F83C05C3F8381554E7CD
:101B7000184B30221A6001273FE700273DE7072076
:101B8000F8BD164A164B527C0E49013A43EA02430D
:101B90004FF00812C1F81425C1F818350720F8BD18
:101BA000164A136843F480631360F8BD7C05002077
:101BB00000F001408C05002000E100E0C42000207E
:101BC00090050020001000406405002080050020E2
:101BD00084050020AC25002021100100A800002071
:101BE00082000001F0200020E743C323A363E31336
:101BF00064060020C220002000A000403C170040E6
:101C00000011004070B5194B194A1B78126882B058
:101C100001928BB1174B1849184D0222C3F880204E
:101C200000260C680E601A602B682BB1E10716D4F1
:101C3000A2070BD4630701D402B070BD02A802232F
:101C400000F8083D2B68984702B070BD02A8012338
:101C500000F8083D2B6898476307EDD5EEE702A82A
:101C600000F8086D9847A207E4D5EFE77C0500204F
:101C70008805002000E100E08405002080050020A8
:101C8000434B1B780BB908207047C0B10279531E33
:101C9000DBB2812B01D9092070472DE9F0473D4C7B
:101CA00023782BB9E37C934202D20920BDE8F08768
:101CB000394DAB6A072B04D90420BDE8F0870E200C
:101CC00070470378072B02D90720BDE8F087334A15
:101CD0002B6A324E01460220C2F8800055F82300DC
:101CE000872201F089FD2B6A207C0133072B88BFF6
:101CF00000232B62AB6A02270133AB62376030B935
:101D0000DFF8A89099F800401CB1BDE8F0870020EA
:101D1000FBE76B6ADFF8988055F82310DFF894A092
:101D20001F4B0A79CAF800100125053140461D6095
:101D300001F062FD1B4BDFF880E0DFF880C01A493C
:101D400040F21312C3F800221022C3F80423DAF879
:101D5000002089F800501078CEF800C0C3F82C0598
:101D60001278C97C05FA02F2C3F83025C3F80815C9
:101D7000C3F80485C6F880713760C3F80441C3F81E
:101D80000841C3F810411D602046BDE8F08700BF40
:101D90007C05002064050020C420002000E100E054
:101DA0008805002000100040A80000208C050020BD
:101DB00028250020B0250020B4250020251800008B
:101DC000074B1B780BB908207047064B064A0020CA
:101DD0000221C2F880109862116018625862704740
:101DE0007C050020C420002000E100E0F8B54D4B48
:101DF0001B780BB11120F8BD002800F090804FF047
:101E00008053494CD3F8043103F47F43B3F5844F36
:101E10001ED001460422444801F0EEFC236893FAE8
:101E2000A3F3424A4FF08051C2F81C35D1F8043177
:101E300003F47F43B3F5844F61D04FF08053D3F860
:101E4000043103F47F43B3F58A4F14D00020F8BD6A
:101E5000617C374A0368052918BF4FF07F4293FA27
:101E6000A3F31A42D5D1314BD3F8243513F0FF0F29
:101E7000CFD10720F8BD2D4A647C2D4BD2F81C151C
:101E8000D2F82005052C18BF4FF07F4319400340BE
:101E90009942DBD1D2F82435D2F82415D2F82405A2
:101EA000D2F82475D2F82845D2F82855D2F82865FA
:101EB000D2F828E5DBB2C1F30722934214D0C0F375
:101EC0000740834210D0B3EB176F0DD0E4B2A342AA
:101ED0000AD0C5F30725AB4206D0C6F30746B34286
:101EE00002D0B3EB1E6FB1D1124A136823F0807396
:101EF00023F0010343F0807313600020F8BDD2F893
:101F000050360C4923F00103C2F850360B6823F019
:101F1000807323F0010343F080730B608DE70E2084
:101F2000F8BD00BF8C050020A80000200010004074
:101F30000000FFFF74170040F8B55C4B1B780BB135
:101F40001120F8BD00283BD04FF08053584CD3F8F7
:101F5000043103F47F43B3F5844F1ED001460422BD
:101F6000544801F049FC636893FAA3F3524A4FF0D6
:101F70008051C2F82035D1F8043103F47F43B3F522
:101F8000844F63D04FF08053D3F8043103F47F4380
:101F9000B3F58A4F16D00020F8BD617C474A03682C
:101FA000052918BF4FF07F4293FAA3F31A42D5D107
:101FB000414BD3F8242512F47F4F57D10720F8BDA9
:101FC0000E20F8BD3C4A647C3C4BD2F81C15D2F87C
:101FD0002005052C18BF4FF07F431940034099425C
:101FE000D9D1D2F82435D2F82415D2F82405D2F864
:101FF0002475D2F82845D2F82855D2F82865D2F8A9
:1020000028E5DBB2C1F30722934214D0C0F30740A6
:10201000834210D0B3EB176F0DD0E4B2A3420AD0C5
:10202000C5F30725AB4206D0C6F30746B34202D03C
:10203000B3EB1E6FAFD1224A136823F0807323F0F5
:10204000010343F0807313600020F8BDD2F85036CE
:102050001B4923F00103C2F850360B6823F080734C
:1020600023F0010343F080730B608BE7D3F8242542
:1020700012F47F0FA2D0D3F8242512F07F4F9DD009
:10208000D3F8282512F07F4F98D0D3F8282512F4E2
:102090007F0F93D0D3F8282512F47F4F8ED0D3F83A
:1020A000283513F0FF0F89D058E700BF8C050020BA
:1020B000A8000020AC000020001000400000FFFF3E
:1020C0007417004038B5384B1B780BB1112038BD60
:1020D00050B3082901D9072038BD4FF08053334D44
:1020E000D3F8043103F47F43B3F5844F1ED00C467C
:1020F000224601462E4801F07FFBC4F10802FF236F
:102100001341AB742C74AB6893FAA3F3294A1BBA3E
:10211000C2F82435EB6893FAA3F31BBAC2F828354A
:10212000BDE83840FFF708BB0E2038BD6A7C224B63
:10213000052A18BF4FF07F43002930D01D4AD2F83E
:102140001C25134202D10278002AC4D0194AD2F8C1
:1021500020251342CBD10129C9D04378002BBAD016
:102160000229C4D08378002BB5D00329BFD0C3780F
:10217000002BB0D00429BAD00379002BABD00529AD
:10218000B5D04379002BA6D00629B0D08379002B97
:10219000A1D00829ABD1C379002BA8D19BE7054B6F
:1021A000D3F82035A3E700BF8C050020A80000204D
:1021B000B0000020001000400000FFFF074B1B781C
:1021C00013B1112318467047642802D90723184613
:1021D0007047034AD0741846704700BF8C05002032
:1021E000A8000020074BD3F8402132B10021064A55
:1021F000C3F840111378032B00D07047034B012222
:102200001A61704700A001408C05002000100040BA
:10221000F0B585B0057804790D4A0E4B477986688C
:102220008DF800508DF80440C5680469406903903A
:1022300053F821308DF805708DF806608DF8075041
:10224000029452F821106846984705B0F0BD00BFCF
:10225000B8250020C02500202DE9F04F824690F8D7
:102260000090384D384845F829300C46497B40F8F5
:10227000292081B0934669B9344ABBF1000F4B461F
:1022800021460AF1040008BF002201B0BDE8F04F6A
:1022900000F0E2BB23682E4A4FF0A04503F5E0733F
:1022A00040F20C6145F82310636803F5E0730127E1
:1022B00045F82310236807FA03F3C5F80835636867
:1022C00007FA03F3C5F80835236803F5E07340F215
:1022D0000D6145F82310636803F5E07342EA0708CF
:1022E00045F823104FF48070C04700266268D5F887
:1022F0001035D340DB074FF4807020D4236807FAF1
:1023000003F3C5F80C35C047236807FA03F3013619
:10231000C5F808354FF48070C047092EE6D16268D1
:1023200001254FF0A04605FA02F2C6F80C254FF43D
:102330008070C04763689D40C6F808559CE7002E32
:10234000EED199E7B8250020C02500201122000019
:102350009057000010B568B101280AD10C4C2369D0
:10236000A07033B10CCB0120226198472369002B68
:10237000F8D110BD064CA36801226270002BF8D082
:102380000CCB0020A2609847A368002BF8D110BDA9
:10239000C825002010B50B4C237882B013B18520DE
:1023A00002B010BD08486360A3602361E36000F0E1
:1023B000C3FD019000F0CEFD01980123237002B00F
:1023C00010BD00BFC82500205523000038B5154DAD
:1023D000AB78044673B110B14368012098470020E0
:1023E000FFF75EF9EB680133EB600020BDE8384091
:1023F000FFF75EB903F0FF00FFF752F964B12A69F5
:1024000042B1944208D0134601E09C4204D01B68BC
:10241000002BFAD122602C61EB68002BE2D100F096
:10242000ADFDDFE7C82500204FF08043D3F8180446
:10243000C0F30040704700BF38B5154D6B780446B7
:1024400073B110B14368002098470020FFF728F9C6
:102450006B6801336B600020BDE83840FFF728B996
:1024600003F0FF00FFF71CF964B1AA6842B194427F
:1024700008D0134601E09C4204D01B68002BFAD11F
:102480002260AC606B68002BE2D100F0A7FDDFE7B3
:10249000C825002038B5084C0020FFF701F9636813
:1024A000013B6360656815B900F0AAFD6570002006
:1024B000BDE83840FFF7FCB8C82500204FF0804346
:1024C000D3F80C0400F00110A0F10110B0FA80F074
:1024D00040097047F0B4B44B1A78062A20D0B34BA9
:1024E0001B68062B00F08A80B14AD2F8883043F48A
:1024F0007003C2F88830BFF34F8FBFF36F8F4FF078
:102500001023D3F80022002AC0F28A81D3F80432C3
:10251000002BC0F28581A74BA74A1A60F0BC704718
:1025200004331B681807DAD1A44B1B6803F0F002D0
:10253000302A00F0658103F0E003402B00F0608159
:102540009E4B1B6803F0F003302B00F01E819B4B69
:102550001B6803F0F002302A00F0078103F0E0036B
:10256000402B00F00281954B1B6803F0F003302BE9
:1025700000F0EB80914B1B6803F0F002302A00F072
:10258000D08003F0E003402B00F0CB808B4B1B6826
:1025900003F0F003302B00F0B680884B1B6803F08B
:1025A000F003302B00F09880844B1B6803F0F0039D
:1025B000502B3FD0814B1B6803F0F002302A28D00B
:1025C00003F0E003402B24D07C4B1B6803F0F002A7
:1025D000302A03D003F0E003402B80D14FF080433A
:1025E000D3F80024D2077FF57AAF6FF00102C3F869
:1025F00000246E4B1B68062B7FF476AF704B1B6874
:10260000062B7FF471AF6F4A136843F48063136045
:102610006AE76D4B6D4A1B6803F04F031360624B12
:102620001B78062B7FF45BAF694B1B6818077FF4A0
:1026300056AFC9E74FF08052664BD2F80414C3F886
:102640002015D2F80814C3F82415D2F80C14C3F8D6
:102650002815D2F81014C3F82C15D2F81414C3F8A6
:102660003015D2F81814C3F83415D2F81C14C3F876
:102670004015D2F82014C3F84415D2F82414C3F836
:102680004815D2F82814C3F84C15D2F82C14C3F806
:102690005015D2F83014C3F85415D2F83414C3F8D6
:1026A0006015D2F83814C3F86415D2F83C14C3F896
:1026B0006815D2F840143C48C3F86C15D2F844149D
:1026C0000278C3F87015062A7FF409AF404B1B68E7
:1026D0001C077FF404AF6DE73F4E404C4049414B2F
:1026E0000527012500203F223760256008601A6019
:1026F0002D4B1B78062B7FF4F2AE354B1B681D0764
:102700007FF4EDAE50E7284B374A1B780321062BA8
:1027100011607FF4E4AE2E4B1B681E077FF4DFAE22
:102720003BE74FF080430022C3F80C21C3F810218F
:10273000C3F838251C4B1B78062B7FF470AF244B55
:102740001B681F077FF4CBAE20E72849164ACB68E9
:10275000127823F08073062ACB607FF4C0AE1C4B46
:102760001B681B077FF4BBAE04E7214B0E4A1B68B6
:1027700012782049C3F34233062A0B60B8D1144BB8
:102780001B681A077FF4ABAEEDE6074B1A4A1B78BD
:102790001A491160062B7FF4A2AE0D4B1B68190776
:1027A0007FF49DAED3E600BFE00F00F030010010D3
:1027B00000ED00E0BC0000200090D003E80F00F026
:1027C000340100103C17004058020010E40E004095
:1027D000E40F00F000C00040105600408856004052
:1027E0001856004014560040A0050040F0ED00E0EF
:1027F000440200103C05004074C007400DF0ADBA23
:10280000204B214A1B6812782049C3F30423062A6F
:102810000B608FD11E4B1B6819073FF491AE5EE62B
:102820001C4B0122C3F80425D3F80024002AFBD056
:102830004FF0102315221749C3F80022D1F80034B5
:10284000002BFBD04FF010221521124BC2F80412BE
:10285000D3F80024002AFBD000220E49C3F8042537
:10286000D1F80034002BFBD0BFF34F8F0A490B4B3C
:10287000CA6802F4E0621343CB60BFF34F8F00BF1E
:10288000FDE700BF24030010E00F00F040350140D9
:10289000E40F00F000E0014000ED00E00400FA0564
:1028A0000649074A074B9B1A03DD043BC858D05022
:1028B000FBDCFFF70FFEFDF7D9FC0000C45700005A
:1028C0000000002008050020FEE7FEE7FEE7FEE727
:1028D000FEE7FEE7FEE7FEE7FEE7FEE7F0B55B4B4F
:1028E000D3F824218DB0BAB10022C3F82421D3F843
:1028F00024210592059AD3F804216AB9544A022189
:102900009068C3F8080391609268C3F80423012219
:102910001A625A610DB0F0BD4C4C4D4DD4F80431E3
:10292000002B2FD00023C4F8043105F10C070FCF82
:1029300007AED4F804E13F68CDF810E00FC695F873
:102940002E30049A3760002B36D02B7B012B79D0A8
:10295000D4F84C250892022B71D03C4BD3F84C256F
:102960003A4B09920022C3F86021D3F8601102911A
:102970000299C3F85C21D3F85C310393039B95F86B
:10298000302028E0C4F84831D4F848212B7B01924C
:10299000019A002B3AD105F10C070FCF07AE0FC6F5
:1029A00095F830203B683360EAB92A4BC4F800221E
:1029B000AA60C4F8083316E0C4F86031D4F8602186
:1029C0000292029AC4F85C31D4F85C3195F8302058
:1029D0000393039B3AB91D4B1E480021C3F8001214
:1029E000A960C3F808031949D1F8C434C1F8C43444
:1029F00099071DD501238DF818300AB985F82F20C5
:102A00002B68696806A898470DB0F0BD4FF40071B7
:102A100040F202220F4BC4F80012AA60C4F8083337
:102A2000AB68C4F804330123A36023620DB0F0BD8A
:102A300013F0040318BF02238DF81830DDE7D4F833
:102A40003C258DE7D4F83C35089386E700300040FC
:102A5000DC25002002029C012DE9F84F0779DFF800
:102A6000FC80342404FB07F408EB040595F82D6082
:102A700016B10820BDE8F88F8A46834635490068BC
:102A80009946164600F056FE10B11120BDE8F88FA9
:102A900048F80460A860C5F8049085F82F0085F810
:102AA00030009AF80D3085F83230DAF800304FF007
:102AB000A04203F5E07340F20C6142F82310DAF80B
:102AC000043003F5E07342F82310DBF80030DAF845
:102AD0000020DAF80410C3F80825C3F80C15DAF85A
:102AE0000820C3F8242526B3DBF800109AF80C3030
:102AF000090B4AB2002A24DB02F1604202F561426E
:102B00005B01DBB282F80033DBF80020120B42F3EA
:102B1000C40323F0604323F0030303F1604303F590
:102B2000614302F01F02012101FA02F2C3F8802181
:102B30001A60342303FB0783012283F82D20BDE8AC
:102B4000F88F054A01F00F015B010A44DBB21376EE
:102B5000DAE700BFDD280000FCEC00E0DC25002007
:102B6000F8B50579264E342303FB05F30446F358E4
:102B7000002B42D0036823481B0B5AB25209203263
:102B800003F01F03012101FA03F340F822302279F8
:102B900023681D49342707FB026200209060C3F8B8
:102BA0000813D3F800124FF0010E21F4BC51C3F802
:102BB000001282F82DE0C3F8000507FB05672068C6
:102BC00000F0D6FD97F8323083B92368D3F8083582
:102BD0004FF0A04203F5E073022142F8231023686E
:102BE000D3F80C3503F5E07342F82310342303FBCC
:102BF0000565002385F82D30F8BD2A46C8E700BFDB
:102C0000DC25002000E100E002029C010379064976
:102C10000268342000FB03130220062183F82D00F4
:102C2000C2F80015704700BFDC25002010B40C4C22
:102C3000027903680B49342000FB024200209060B7
:102C4000C3F80813D3F80012012421F4BC51C3F8CF
:102C5000001282F82D40C3F800055DF8044B704760
:102C6000DC25002002029C012DE9F04F8DB01546B5
:102C70009DF85840002C02F060444FF000020CBF59
:102C800094464FF0200CB4F1005F0892079209922D
:102C90000A920B9203D010200DB0BDE8F08F90F88F
:102CA00004B0DFF844A106684FF034081F4608FB63
:102CB0000BA84B4BC6F8083398F82F3003F0FF09E8
:102CC0003BB1D8F80830C6F8043311200DB0BDE888
:102CD000F08F8DF81D1008970A9507AC8E460FCC23
:102CE00001944FF0010488F82F40C6F888E5C6F833
:102CF0000491D6F804E1CDF810E008F10C0EAEE82E
:102D00000F00049BC6F82491D6F824310593019B4B
:102D1000059A1B68C6F8509588F83090C6F840951B
:102D2000CEF80030C6F84455C6F84875BCF1000F1F
:102D300018D14FF4007240F20223C6F800224FF47B
:102D40008271C8F808303423012203FB0BF332628E
:102D5000B2605AF803005344A0B19B68C6F804332C
:102D6000002099E71F4B4FF48072C6F80022C8F884
:102D70000830C6F84891D6F848310393039B4FF4C6
:102D8000A471E0E71046314402E0D6F82421D2B91C
:102D90000B68002BF9D0342303FB0BAAD6F8C434FC
:102DA000C6F8C43400228AF82F20BBB113F0020FFA
:102DB00048F2012048F2022208BF032013F0040F5A
:102DC00018BF104668E7C6F82431D6F824310693B8
:102DD000069B30624FF482717061D4E718465BE75E
:102DE00002029C0100020400DC2500202DE9F04FC6
:102DF00002F060448BB01646B4F1005F4FF0000261
:102E00000692059207920892099203D010200BB007
:102E1000BDE8F08F90F804B0DFF818A107684FF014
:102E2000340808FB0BF89E460AEB0809404BC7F82C
:102E3000083399F82F3003F0FF053BB1D9F808307B
:102E4000C7F8043311200BB0BDE8F08F4FF0010339
:102E50008DF81510CDF818E008968DF8143005ACF3
:102E60008C460FCC01944FF0010489F82F40C7F82D
:102E700088C5C7F80451D7F804C1CDF808C009F1D6
:102E80000C0CACE80F00029BC7F82451D7F8243192
:102E90000393019B03981968C7F8505540F2022329
:102EA0004FF48052C7F8405589F83050C7F8346560
:102EB000CCF80010C7F838E5C7F80022C9F8083088
:102EC00001233B623B605AF808302BB1D9F8083037
:102ED000C7F8043328469AE7012302E0D7F8241103
:102EE000D9B9D7F80421002AF8D0342303FB0BAA60
:102EF000D7F8C434C7F8C43400228AF82F20ABB105
:102F000013F0020F48F2012048F2022208BF03200A
:102F100013F0040F18BF104679E7C7F82421D7F83B
:102F200024210492049A3B627B61DAE718466EE73B
:102F300002029C01DC250020054A13790BB1852093
:102F4000704701211060537118461171704700BF1E
:102F500010260020084A136813F0010305D101214F
:102F600082F80033C2F8801111604FF080430122D3
:102F7000C3F81825704700BF00E100E010B4134902
:102F8000134B144A0020086083B0096801914FF088
:102F900080410220019CC1F80403D86840F0807190
:102FA000D960146844F001031360516853685B1AD8
:102FB000B3F50A5FFAD30649074B14600122C860D3
:102FC0001A6003B05DF8044B704700BF0401004075
:102FD000F0ED00E0001000E008000040074B002288
:102FE0001A6082B01B68019301994FF0804301225F
:102FF000C3F804231A6002B0704700BF000100400C
:10300000074B01221A604FF08042D2F80C3403F0D3
:103010000113B3F1011FF8D0024B00225A7170471F
:10302000040000401026002010B5144B1A6882B02E
:1030300062B10021124A19601B68507900934FF069
:1030400080410123009CC1F8083390B10D4B1A68F0
:103050006AB100221A601B6801934FF0804202217E
:10306000074B0198C2F808131B680120984702B06B
:1030700010BD116853718847E8E700BF00010040A8
:10308000102600200401004070B443791F4C204EEC
:1030900003EB430546F82320655D15B1082070BC9D
:1030A000704790F904308A78002B27DB03F16043E6
:1030B00003F561435201D2B283F8002390F9042052
:1030C00053099B0003F1604303F56143012502F0BE
:1030D0001F0205FA02F2C3F880211A6003680A8809
:1030E000C3F8082543790879C97803EB4303E2184C
:1030F000E55450709170002070BC7047054D03F08E
:103100000F0352011D44D2B22A76D7E718260020B9
:103110001C260020FCEC00E00368044A0121196031
:10312000437903EB43030221D15470471826002052
:10313000F0B54FF480350468214E8D40C4F84853F3
:103140000468C4F80853447904EB4404344483B05D
:10315000647822F07F42D4B1046801F5A87744F87E
:1031600027200468D4F804E5AEEB020772454279E3
:1031700002EB4202164488BF07F1FF17B27888BFFE
:1031800007F57F47974208DA0D2003B0F0BD0468C9
:1031900001F5A87644F82620046823B90020C4F875
:1031A000445303B0F0BD5031890089B2002363500D
:1031B000625803680192019AC3F804530468EDE76A
:1031C0001826002010B403680022C3F8002183B041
:1031D000D3F80031026801930123019CC2F8443303
:1031E00011B10268C2F8043303B05DF8044B7047B4
:1031F00010B53B4BD3F80423D20384B003D5394A2E
:10320000116800293CD1364BD3F80423940303D52D
:10321000354A1168002942D1314BD3F804235003B9
:1032200003D5324A1168002949D12D4BD3F8042324
:10323000D10702D5D3F80021B2B9294BD3F8042322
:10324000920702D5D3F804210AB904B010BD0022B8
:10325000C3F80421264AD3F80431019305201368EA
:10326000019A984704B010BD0022C3F80021204AFB
:10327000D3F80031029304201368029A9847DCE7E0
:103280004FF480310020C3F84813194CC3F80813D9
:103290001060136803932368039A9847B3E74FF4C9
:1032A00000310024C3F848131148C3F80813146010
:1032B000136803930368039A01209847ACE74FF41F
:1032C00080210024C3F848130948C3F80813146088
:1032D000136803930368039A02209847A5E700BF89
:1032E00000B0004040B1004044B1004048B100404F
:1032F0001C2600202DE9F041684B1A6888B0002A8E
:103300003CD1674F97F82E30002B45D1654B1A689A
:10331000002A5ED1644B1C68002C6AD17E699EB184
:103320004FF000480125B6FA86F2930003F58C733E
:1033300003F1804101F5E04128FA02F2086826EA2B
:10334000020620B9002EEED108B0BDE8F081A3F549
:103350008C730C6083F0040209680491C2F380024C
:10336000DB088DF819208DF818308DF814503B6863
:10337000049A05A89847002ED5D1E5E70022484FCA
:103380001A60196897F82E3000910099002B39D0F7
:1033900097F82F30002B4ED1444B1A68002AB5D035
:1033A00000221A6097F82D0019687B8B019184B276
:1033B000A34201994ED85FD0384B3D4A0021196095
:1033C0001B680293012302991360364B1A68002A86
:1033D000A0D000221A6008A81B680393022100F8FD
:1033E0000C1D3B6803993A7498472F4B1C68002CBE
:1033F00094D000221A601B680593059B3A7408B0AC
:10340000BDE8F081FA68786839898DF81430069043
:10341000ADF81C10002A2CD02648398B7A60012286
:10342000FB607983398102603B6805A898470023D7
:1034300087F82F3066E7FB68786839898DF81420A3
:103440000690ADF81C10A3B1398B7B60FA607983CC
:103450003981E9E73A897968164D1B1B9BB292B214
:10346000D21A01EB42027B83C5F82C26C5F8300640
:10347000A2E700233B74D7E7FB684BB10D497A8381
:10348000012287F82F20C1F82C36C1F8300693E7C7
:1034900001227B8387F82F208EE700BF0471004054
:1034A000202600201071004014710040007100407F
:1034B0000470004000700040214B93F82C200AB1AA
:1034C00008207047F0B51F4C05781960C4F8F05516
:1034D00045781D49C4F8F4556FF000451A74C67854
:1034E000C4F8085383B00A600968184D0191019926
:1034F0002A60817883F82E602D681548009549016F
:1035000083F82D205A6183F82F208025C9B2022725
:103510000122F6B2DDF800E083F82C2080F80713D2
:10352000C0F880510560C4F804730EB1C4F80423D8
:10353000044B01220020C3F8002503B0F0BD00BFFA
:1035400020260020007000400471004000710040FF
:1035500000E100E0324A137C0BB111207047F0B556
:103560000C79012C55D900F10C0502EB45031B79B0
:10357000002B43D04B788E780F7891F803E01B0135
:10358000360206F4E06603F03003334307F0030627
:103590004F794FEA0E3E33430EF4805E8E793F053D
:1035A00007F4801743EA0E033B4336061D4F06F02F
:1035B0008076240402EB450204F4E024334307EB55
:1035C00000150001CE791671234300F180400C7A7A
:1035D000547100F5E040C5F81835CB790A7AC0F887
:1035E0001425C0F81035CB790A7AC0F81425C0F834
:1035F00010350B79012B07D90020F0BD92F82D3042
:10360000013382F82D30B5E70123C7F800350020DB
:10361000F0BD03F0FF05034BC3F800550C79A2E79A
:103620002026002000700040F0B42C4A2C4B1224BD
:10363000C2F808431D7C022D82B01CD01C7C012CDA
:103640001FD093F82E405860022701250026C2F8AB
:1036500004731D74DE601981E4B9224BC2F82C0694
:10366000C2F830161C601B680193019B1560204650
:1036700002B0F0BC70471120C2F8044302B0F0BCA5
:103680007047DC688CB102231120C2F8043302B009
:10369000F0BC704793F82D40C2F82C063046598391
:1036A000C2F8304602B0F0BC704793F82E20D860C4
:1036B00019836AB90B4A1368002BFCD000231360EE
:1036C0001268064B0092009AC3F82C06C3F8301615
:1036D000024B0222C3F804230020C9E70070004017
:1036E0002026002000710040084A137CDBB2012B29
:1036F00001D00820704792F82E0010B9044A1360D8
:103700007047044A00201360704700BF2026002045
:103710000470004000700040024B187C003018BF5D
:103720000120704720260020014B1B68184700BF6E
:103730005026002038B50C4B984201D0002038BDEF
:1037400000200D46FDF7ACFF084B1C7924B100208A
:10375000FDF7AEFF112038BD012220461D601A7111
:10376000FDF7A6FF204638BD00200040502600206F
:10377000034B984203D1034B00221A601A71704721
:10378000002000405026002008B50021044600F02B
:1037900025F9044B1868C36B03B19847204600F025
:1037A00017FA00BF9857000070B50F4E0F4D761BEB
:1037B000B61018BF002405D0013455F8043B9847D3
:1037C000A642F9D10A4E0B4D761B01F0A3FFB610AD
:1037D00018BF002406D0013455F8043B9847A64290
:1037E000F9D170BD70BD00BFF8040020F8040020BE
:1037F00000050020F8040020844641EA000313F08D
:1038000003036DD1403A41D351F8043B40F8043BE7
:1038100051F8043B40F8043B51F8043B40F8043BAA
:1038200051F8043B40F8043B51F8043B40F8043B9A
:1038300051F8043B40F8043B51F8043B40F8043B8A
:1038400051F8043B40F8043B51F8043B40F8043B7A
:1038500051F8043B40F8043B51F8043B40F8043B6A
:1038600051F8043B40F8043B51F8043B40F8043B5A
:1038700051F8043B40F8043B51F8043B40F8043B4A
:1038800051F8043B40F8043B403ABDD2303211D3EA
:1038900051F8043B40F8043B51F8043B40F8043B2A
:1038A00051F8043B40F8043B51F8043B40F8043B1A
:1038B000103AEDD20C3205D351F8043B40F8043BEA
:1038C000043AF9D2043208D0D2071CBF11F8013BE8
:1038D00000F8013B01D30B8803806046704700BFAE
:1038E000082A13D38B078DD010F003038AD0C3F1BD
:1038F0000403D21ADB071CBF11F8013B00F8013B9F
:1039000080D331F8023B20F8023B7BE7043AD9D35D
:10391000013A11F8013B00F8013BF9D20B78037032
:103920004B7843708B7883706046704770B486071D
:1039300046D0541E002A41D0CAB2034602E014F118
:10394000FF343BD303F8012B9D07F8D1032C2ED96C
:10395000CDB245EA05250F2C45EA054519D903F1F5
:1039600010022646103E0F2E42F8105C42F80C5C06
:1039700042F8085C42F8045C02F11002F2D8A4F1AB
:10398000100222F00F0204F00F041032032C134433
:103990000DD91E462246043A032A46F8045BFAD89B
:1039A000221F22F003020432134404F003042CB15A
:1039B000C9B21C4403F8011B9C42FBD170BC704788
:1039C00014460346C2E700BF024B13B1024800F0A1
:1039D00079B8704700000000D13A00002DE9F04F9F
:1039E000354B85B00E460190186800F08BF8334BCC
:1039F0001B68029303F5A4730393029BD3F84871E9
:103A000037B3DDF80CA04FF00109D3467C68651E82
:103A10000ED4013407EB84044FF00008FEB1D4F853
:103A200000319E421BD0013D6B1CA4F10404F5D172
:103A3000234B6BB17B68002B39D13B6843B13846CF
:103A4000CBF80030AFF30080DBF80070002FDDD141
:103A5000194B186805B0BDE8F04F00F055B87B6809
:103A60002268013BAB420CBF7D60C4F80080002A95
:103A7000D9D0D7F88811D7F804A009FA05F30B427A
:103A80000FD0D7F88C110B420DD1D4F880100198CB
:103A900090477B685345B0D1DBF80030BB42C2D0C1
:103AA000ABE79047F5E7D4F880009047F1E7BB46D5
:103AB0003F68002FAAD1CBE7F00400209857000000
:103AC00000000000002301461A46184600F01EB808
:103AD00038B50A4C0A4D641BA4100AD004F1804387
:103AE000013B05EB8305013C55F804399847002C50
:103AF000F9D1BDE8384001F013BE00BF0405002035
:103B000000050020704700BF704700BF2DE9F84353
:103B10002C4D0646286898460F469146FFF7F2FF5F
:103B2000294B1C68D4F84831002B3ED05A681F2A14
:103B30001CDC02F1010E76B103EB82010124C1F815
:103B40008890D3F8880194402043022EC3F888015E
:103B5000C1F8088123D00232C3F804E0286843F892
:103B60002270FFF7D1FF0020BDE8F883174B0BB39D
:103B70004FF4C870AFF300800346D8B1D4F84821A1
:103B80000260002141600A46C4F848014FF0010E6E
:103B9000C0F88811C0F88C11002EDCD0CCE7D3F827
:103BA0008C110C43C3F88C41D5E704F5A673C4F817
:103BB0004831BBE72868FFF7A7FF4FF0FF30BDE8AB
:103BC000F88300BFF00400209857000000000000B8
:103BD000FEE700BF000000002DE9F04F2DED028B45
:103BE000DFF80CA38BB057EC106B55EC114B00F0C9
:103BF00083F99AF90080B0EE408AF0EE608AB8F15D
:103C0000FF3F34D022462B462046294601F046FD90
:103C1000834660BB32463B463046394601F03EFDA6
:103C20008146002840F09F8030463946002200231C
:103C300001F002FD20B3002200232046294601F0B6
:103C4000FBFC8346002867D09FED9F7B0122A44B9D
:103C5000CDF820900092CDE90267CDE904458DEDC5
:103C6000067B0193B8F1000F49D09FED998BB0EE20
:103C7000480AF0EE680A0BB0BDEC028BBDE8F08F8D
:103C8000B0EE480AF0EE680A00F07AFF804600289D
:103C900000F084804FF000084FF0000951EC180B41
:103CA00042464B4601F0C8FC0028E0D047EC106BC0
:103CB00000F066FF0028DAD045EC104B00F060FF02
:103CC0000028D4D09AF90030854A019204210022BC
:103CD000022BCDE90267CDE90445CDE906890091C3
:103CE000089203D0684600F053FF60B901F00CFD64
:103CF0002223036007E09FED747B8DED067B684611
:103D000000F046FF50B3089B1BB101F0FDFC089B7F
:103D100003609DED068BAAE745EC104B00F030FFE9
:103D20000028A4D0002200232046294601F08EFC62
:103D300000289CD06A4A9AF90030CDF820B00121C1
:103D4000CDE90267CDE904458DE80600002BD2D00D
:103D500064490020022BCDE90601D0D101F0D4FC4A
:103D600021230360CFE7002200232046294601F0EB
:103D700063FC00283FF47BAF9FED558B584BCDF88B
:103D800020B00122B8F1020FCDE90267CDE9044568
:103D90008DED068B8DE80C00B1D168E747EC106B18
:103DA00000F0EEFE00283FF475AF45EC104B00F03C
:103DB000E7FE00283FF46EAF53EC182B18EE100A04
:103DC000194601F06BFC002861D103239AF90080A9
:103DD0000093434B0890CDE90267CDE90445019378
:103DE000B8F1000F2DD1DFF80C914FF060480022A0
:103DF000002330463946CDE9068901F027FC00282A
:103E00003FF470AF0022384B2046294601F0ACF950
:103E100004460D4645EC104B00F0C6FE204653EC20
:103E2000102B294601F008FC70BB304B9AF900803A
:103E30004FF06042CDE90623B8F1020F7FF452AF94
:103E400054E79FED257B00220023304639468DED57
:103E5000067B01F0FBFB0028EED00022224B20461F
:103E6000294601F081F904460D4645EC104B00F05F
:103E70009BFE204653EC102B294601F0DDFB18B9C0
:103E8000184B0022CDE906239AF90080D4E7144BA1
:103E90009AF90090CDF820800122CDE90267CDE9A2
:103EA00004458DE80C00B9F1000F3FF424AF002267
:103EB00000231046194601F081FAB9F1020FCDE94D
:103EC00006013FF44BAF1AE70000000000000000BD
:103ED000000000000000F03F000000000000F07F44
:103EE0009C5700000000F0FF0000E03FFFFFEFC71D
:103EF000F4040020FFFFEF472DE9F04F51EC110BC8
:103F000021F0004858EA000493B03ED053EC102B47
:103F1000714E23F00044B44210EE10AA1D462DDC71
:103F2000894611EE10EA28D0B04527DC6A4EB0452C
:103F300000F08380002D16461F46CDE90001C0F237
:103F400081804FF0000BBEF1000F2FD1624B9845DE
:103F500000F09580614B984568D0B9F1804F00F032
:103F6000D1835F4B994521D1002D1FDB47EC106BAE
:103F700013B0BDE8F04F00F02FBD6AB104F140442A
:103F800004F5801454EA0A0308D15449002041EC96
:103F9000100B13B0BDE8F08FA045C7DD514813B03A
:103FA000BDE8F04F00F0F8BD4FF0000B47EC106B90
:103FB00000F0DEFD51EC100BBAF1000F1AD124B164
:103FC000464B25F040429A4214D1B9F1000FC0F29D
:103FD000D383002DDBDA04F1404404F5801454EA65
:103FE0000B0300F0AF84BBF1010FD0D101F100430E
:103FF0001946CCE7ED0F05F1FF3A5BEA0A0353D00F
:10400000394B984576DD03F10473984540F30684F7
:10401000364B9C4253DDB9F1000F53DD2CA3D3E99D
:1040200000231046194601F09FF8B0E7B9F1000FE0
:10403000C0F25A8430463946A9E7BEF1000F3FF47A
:1040400079AF9BE72A4B98452BDCA3F15473984535
:104050007FF777AF4FEA2853A3F2FF33142B40F3D7
:104060005984C3F134032EFA03F202FA03F39E4596
:104070007FF467AF02F00102C2F1020B63E704F1C3
:10408000404303F5801353EA0A033FF47EAF174B16
:104090009C4240F33E83B9F1000F13DBDDE90001E0
:1040A00075E74FF0020B4EE732463B461046194685
:1040B00000F0A6FE02460B4601F080F967E7B9F171
:1040C000000FABDB0020002161E700BFAFF30080F1
:1040D0009C7500883CE4377E0000F07F0000F03FD4
:1040E0000000E03FA05700000000E041FFFFEF3F6D
:1040F000FFFF3F43B4F5801F4FF0000205DAD64BB7
:1041000001F032F86FF034020C462315D34EC4F39D
:104110001304A3F2FF33134444F07F55B4421A460C
:104120000D9345F4401540F32E83CD4B9C4240F354
:104130000D849FEDB37B8DED087B8DED0E7B9FEDA8
:10414000B27B13468DED067B01330D93A5F58015EB
:104150004FF00008DDE906232946CDE90A0100F009
:104160004FFEDDE9062306460F46DDE90A0100F0B1
:1041700049FE02460B460020BA4901F01FF90346EA
:104180000C46CDE9103402460B463046394600F065
:10419000EBFF6B1043F0005303F5002303EB08051E
:1041A0000A4600230146CDE902120293DDE90289A5
:1041B0000024CDE904122B4622464046494600F031
:1041C000D3FF02460B463046394600F019FEDDE9C2
:1041D000062306460F462046294600F011FE0246F9
:1041E0000B46DDE90A0100F00BFE42464B4600F0AB
:1041F000BBFF02460B463046394600F001FEDDE9C2
:10420000102300F0B1FFDDE90445CDE906012246A7
:104210002B462046294600F0A7FF7DA3D3E90023C3
:1042200004460D4600F0A0FF7BA3D3E9002300F075
:10423000E9FD22462B4600F097FF79A3D3E900233E
:1042400000F0E0FD22462B4600F08EFF76A3D3E976
:10425000002300F0D7FD22462B4600F085FF74A313
:10426000D3E9002300F0CEFD22462B4600F07CFF70
:1042700071A3D3E9002300F0C5FD224606460F4690
:104280002B462046294600F06FFF02460B4630467B
:10429000394600F069FF424604460D464B46DDE9CB
:1042A000040100F0AFFDDDE9062300F05DFF2246CA
:1042B0002B4600F0A7FD424606460F464B464046B9
:1042C000494600F051FF0022674BCDE90A0100F09A
:1042D00099FD32463B4600F095FD02980D46044696
:1042E00022462B464046494600F03EFF00228046CB
:1042F00089465D4B2046294600F082FDDDE90A2310
:1043000000F07EFD02460B463046394600F078FD4F
:10431000DDE9042300F028FF224606460F462B461F
:10432000DDE9060100F020FF02460B463046394623
:1043300000F068FD06460F4602460B4640464946D9
:10434000CDE9048900F05EFD02983DA3D3E9002386
:1043500004460D4600F008FFDDE904238046894647
:104360002046294600F04CFD02460B4630463946B1
:1043700000F046FD34A3D3E9002300F0F5FE34A39A
:10438000D3E9002306460F462046294600F0ECFEFE
:1043900002460B463046394600F034FDDDE90E2377
:1043A00000F030FD06460D980F4600F077FE3246CD
:1043B00004460D463B464046494600F023FDDDE9F4
:1043C000082300F01FFD22462B4600F01BFD02983B
:1043D00022462B46CDE9020100F012FDDDE908235B
:1043E00000F00EFD42464B4600F00AFD02460B4629
:1043F0003046394600F004FD8046894636E000BF6D
:104400000000000000000000000000000000F03F7D
:10441000EF4E454A287ECA3F65DBC9934A86CD3FA9
:1044200001411DA96074D13F4D268F515555D53F8F
:10443000FFAB6FDBB66DDB3F033333333333E33F27
:10444000000000E009C7EE3FFD033ADC09C7EE3F7C
:10445000F5015B14E02F3EBE000040438E98030040
:1044600079B60B000000F03F000008400BF1FF336D
:1044700053EA0A0300F07B819FEDC97B8DED067B3B
:10448000DDE900AB53465C46CDE9003400230093E0
:10449000DDE90045504622462B46594600F0B0FC67
:1044A000DDE9022300F060FE524606460F465B46F9
:1044B0004046494600F058FE02460B463046394613
:1044C00000F0A0FC2246804689462B46DDE9020129
:1044D000CDE9048900F048FE0B46024606460F4629
:1044E0004046494600F08EFCC74B994204460D46B3
:1044F0008A4640F3188101F13F4303F5E00303438B
:1045000040F0FA81A8A3D3E90023DDE9040100F01B
:1045100079FC3246804689463B462046294600F0D3
:104520006FFC02460B464046494601F0ADF80028B4
:1045300040F0E281A8464FEA28534FF48012A3F2DC
:10454000FE3342FA03F35344C3F30A52AF4DA2F2CF
:10455000FF321541C3F3130423EA05010020C2F121
:10456000140B44F48014BAF1000F02460B4644FACF
:104570000BFB30463946B8BFCBF1000B00F040FCD6
:1045800002460B4606460F46DDE9040100F03AFC00
:104590004FEA0B5A0D46002485A3D3E90023204699
:1045A000294600F0E1FD3246804689463B462046DA
:1045B000294600F025FC02460B46DDE9040100F027
:1045C0001FFC7DA3D3E9002300F0CEFD7CA3D3E93B
:1045D000002306460F462046294600F0C5FD024648
:1045E0000B463046394600F00DFC06460F460246A3
:1045F0000B464046494600F005FC42464B46044601
:104600000D4600F0FDFB02460B463046394600F0F1
:10461000F7FB2246804689462B462046294600F075
:10462000A3FD69A3D3E9002306460F4600F09CFDD5
:1046300067A3D3E9002300F0E3FB32463B4600F0DA
:1046400093FD65A3D3E9002300F0DCFB32463B4633
:1046500000F08AFD62A3D3E9002300F0D1FB3246CB
:104660003B4600F081FD60A3D3E9002300F0CAFBC4
:1046700032463B4600F078FD02460B46204629466E
:1046800000F0BEFB06460F4602460B462046294672
:1046900000F06AFD0022CDE900014FF08043304672
:1046A000394600F0ADFB02460B46DDE9000100F0A3
:1046B00085FE424606460F464B462046294600F0F8
:1046C00053FD42464B4600F09DFB02460B463046EA
:1046D000394600F095FB22462B4600F091FB02463E
:1046E0000B4600204A4900F08BFB8A44BAF5801F34
:1046F00002460B46C0F23A815146DDE9062300F03E
:1047000033FD44E432463B463046394600F02CFD4A
:104710003DE4B9F1000FBFF6D5ACDDE90034184631
:1047200004F1004133E43B4B21F00048984540F34D
:104730000081394B0B4403430CD132463B4600F019
:104740005FFB02460B46DDE9040100F089FF00280B
:104750003FF4F1AEDDE9060125A3D3E9002300F023
:1047600003FD23A3D3E9002300F0FEFC0FE49FED3B
:10477000227B8DED067B83E602460B460020244912
:1047800000F01CFE25E49FED1E7B8DED087B8DED7A
:104790000E7B9FED037B4FF000088DED067BD9E487
:1047A000000000000000F03FFE822B654715973C9B
:1047B00000000000432EE63FEF39FAFE422EE63FAE
:1047C000396CA80C615C20BED0A4BE726937663E0D
:1047D000F16BD2C541BDBB3E2CDE25AF6A56113F01
:1047E00093BDBE166CC1663F3E5555555555C53FE8
:1047F00059F3F8C21F6EA501000000000000F0BFD1
:104800000000000000000000FFFF8F40FFFF0F00CE
:104810000000F03FFFCB904000346F3F6A4B9C425A
:104820007FF74DAC694B9C423FF7F5AB0022674BDD
:1048300000F0E6FA54A3D3E9002304460D4600F045
:1048400093FC53A3D3E9002380468946204629469A
:1048500000F08AFC0022CDE902015D4B204629468A
:1048600000F082FC02460B464BA1D1E9000100F0AA
:10487000C7FA22462B4600F077FC02460B46002082
:10488000544900F0BDFA22462B4606460F46204604
:10489000294600F069FC02460B463046394600F0D6
:1048A00063FC3FA3D3E9002300F05EFC02460B4605
:1048B000DDE9020100F0A4FA02460B4604460D466B
:1048C0004046494600F09EFA42464B460020CDE95C
:1048D000020100F095FA02460B462046294600F0F8
:1048E0008FFA80468946C1E532463B46002037496B
:1048F00000F064FDFFF74BBBDDE906012AA3D3E915
:10490000002300F031FC28A3D3E9002300F02CFCA5
:10491000FFF73DBBBEF1000F7FF446ABC3F11403BC
:1049200048FA03F202FA03F3984527D0F346FFF75B
:1049300011BB284B98453FF7FEADDDE900239246B9
:10494000934628E602460B46FFF7B0BB9FED187B67
:104950008DED087B9FED187B8DED0E7B9FED187B19
:104960004FF480288DED067BFFF7F4BB584643ECEF
:10497000102B00F0ADF951EC100BBEE602F0010275
:10498000C2F1020BFFF7E6BA000000604715F73FDF
:1049900044DF5DF80BAE543E555555555555D53F42
:1049A000FE822B654715F73F9C7500883CE4377EF7
:1049B0000000004003B8E23F06D0CF43EBFD4C3E81
:1049C000000000000000F83FFEFFEF3F0000F03F56
:1049D0000000D03F0000E03F2DE9F041634855EC76
:1049E000104BA84300F09580002D2B4610EE102AA6
:1049F00070DD2F157DD0A7F2FF37C3F31303F9073E
:104A000043F4801361D403EBD27100260B447F1072
:104A10005200B64616204FF400110EEB01049C42E2
:104A20004FEAD2754FEA420203DC1B1B04EB010E76
:104A30000E44013805EB43034FEA5101EDD18446A2
:104A400020244FF0004109E020D003EBD275013C57
:104A50004FEA51012B444FEA420220D0734501EB4B
:104A60000C05F1DD002D05EB010C09DBF04695424C
:104A7000A3EB0E0300D9013B521B0844C646E4E7F2
:104A8000BCF1000FF2DB0EF10108F0E79542DCD833
:104A9000002D05EB010C4EDB98460023ECE7134399
:104AA00002D0421C4BD0013040087110F30701F1D5
:104AB0007F5101F5001148BF40F0004001EB075362
:104AC000024643EC102BBDE8F0815B0003EBD27390
:104AD000520098E710EE101A25F00040014328D04C
:104AE000ADBB2F46D30A153F5205002BFAD0DE028C
:104AF00028D4002400E004465B00DD0204F101003C
:104B0000F9D5C0F1200122FA01F10B433F1B82408D
:104B100071E710EE102A2B4610EE100A294600F01D
:104B200023FB22462B4600F06DF941EC100BBDE84B
:104B3000F081BDE8F081BCF1000FA4DAACE70136EA
:104B40002046B2E7002020214FF0FF34DBE710EED3
:104B5000102A2B462046294600F052F902460B4601
:104B600000F02CFC41EC100BBDE8F0810000F07F60
:104B700053EC102B23F0004343EC102B704700BF85
:104B800010EE903A43F0004000F58010C00F7047DF
:104B900000207047000000009FED010B704700BF30
:104BA000000000000000F87FF0B553EC102BC3F3B9
:104BB0000A56A6F2FF30132883B019464FEAD37481
:104BC00010EE105A2FDC002849DB3E4E064103EA66
:104BD000060717432CD0760833401D430CD04FF402
:104BE0008023132821EA060643FA00F141EA060170
:104BF0000CBF4FF000450025334800EBC4042A46A3
:104C0000D4E9004510462B46224600F0FBF8CDE9DA
:104C1000000122462B46DDE9000100F0F1F841ECED
:104C2000100B03B0F0BD332806DDB0F5806F40D027
:104C300043EC102B03B0F0BDA6F213464FF0FF304B
:104C4000F0400242F4D040080242D5D04FF08043F9
:104C500025EA000043FA06F646EA0005CCE723F011
:104C600000401043E4D0C3F313001043474207430E
:104C7000154D5E0C3F0B07F40023760405EBC402D0
:104C800043EA0601D2E9006710EE100A32463B46BD
:104C900000F0B8F8CDE900013B463246DDE90001FD
:104CA00000F0AEF821F0004343EAC47141EC100B70
:104CB000C0E710EE100A194600F0A4F841EC100B02
:104CC000B8E700BFFFFF0F00A8570000000000007A
:104CD00053EC102B70B5C3F30A541946054614BBA8
:104CE00023F0004111432AD019460022384B394E97
:104CF00010EE100A00F038FAB54202460B461FDBF0
:104D0000C1F30A54363C2C4440F2FE7084421FDC4E
:104D1000002C2DDD21F0FF4121F4E00141EA045394
:104D200043EC102B70BD40F2FF708442EBD110EECB
:104D3000100A194600F066F841EC100B70BD70BD0A
:104D40001FA3D3E9002300F00FFA41EC100B70BD54
:104D500043EC112B9FED1C0B00F040F81AA3D3E994
:104D6000002351EC100B00F0FFF941EC100B70BD6B
:104D700014F1350F13DA4CF250318D4243EC112B04
:104D8000E8DC9FED0F0B00F029F80DA3D3E9002319
:104D900051EC100B00F0E8F941EC100B70BD21F064
:104DA000FF4121F4E001363441EA0453104619462C
:104DB0000022094B00F0D8F941EC100B70BD00BF88
:104DC00059F3F8C21F6EA5019C7500883CE4377E3C
:104DD00000005043B03CFFFF0000903C53EC102B10
:104DE00011EE900A23F0004100F0004041EA000378
:104DF00043EC102B704700BF81F0004102E000BF80
:104E000083F0004330B54FEA41044FEA430594EA8A
:104E1000050F08BF90EA020F1FBF54EA000C55EAC5
:104E2000020C7FEA645C7FEA655C00F0E2804FEA96
:104E30005454D4EB5555B8BF6D420CDD2C4480EA78
:104E4000020281EA030382EA000083EA010180EAA8
:104E5000020281EA0303362D88BF30BD11F0004FF6
:104E60004FEA01314FF4801C4CEA113102D040422C
:104E700061EB410113F0004F4FEA03334CEA133367
:104E800002D0524263EB430394EA050F00F0A7807F
:104E9000A4F10104D5F1200E0DDB02FA0EFC22FA7A
:104EA00005F2801841F1000103FA0EF2801843FA6E
:104EB00005F359410EE0A5F120050EF1200E012A5F
:104EC00003FA0EFC28BF4CF0020C43FA05F3C0189D
:104ED00051EBE37101F0004507D54FF0000EDCF116
:104EE000000C7EEB00006EEB0101B1F5801F1BD3BF
:104EF000B1F5001F0CD349085FEA30004FEA3C0CC3
:104F000004F101044FEA445212F5800F80F09A80B8
:104F1000BCF1004F08BF5FEA500C50F1000041EBBC
:104F2000045141EA050130BD5FEA4C0C404141EBC0
:104F3000010111F4801FA4F10104E9D191F0000FE7
:104F400004BF01460020B1FA81F308BF2033A3F16A
:104F50000B03B3F120020CDA0C3208DD02F1140C61
:104F6000C2F10C0201FA0CF021FA02F10CE002F19C
:104F70001402D8BFC2F1200C01FA02F120FA0CFC95
:104F8000DCBF41EA0C019040E41AA2BF01EB0451DE
:104F9000294330BD6FEA04041F3C1CDA0C340EDCDC
:104FA00004F11404C4F1200220FA04F001FA02F31F
:104FB00040EA030021FA04F345EA030130BDC4F1DD
:104FC0000C04C4F1200220FA02F001FA04F340EAD2
:104FD0000300294630BD21FA04F0294630BD94F083
:104FE000000F83F4801306BF81F480110134013D6A
:104FF0004EE77FEA645C18BF7FEA655C29D094EADB
:10500000050F08BF90EA020F05D054EA000C04BF58
:105010001946104630BD91EA030F1EBF0021002043
:1050200030BD5FEA545C05D14000494128BF41F0E2
:10503000004130BD14F580043CBF01F5801130BD46
:1050400001F0004545F0FE4141F470014FF00000D1
:1050500030BD7FEA645C1ABF194610467FEA655C82
:105060001CBF0B46024650EA013406BF52EA033524
:1050700091EA030F41F4002130BD00BF90F0000F12
:1050800004BF0021704730B54FF4806404F132044E
:105090004FF000054FF0000150E700BF90F0000F07
:1050A00004BF0021704730B54FF4806404F132042E
:1050B00010F0004548BF40424FF000013EE700BFFE
:1050C00042004FEAE2014FEA31014FEA02701FBF8E
:1050D00012F07F4393F07F4F81F06051704792F060
:1050E000000F14BF93F07F4F704730B54FF46074DA
:1050F00001F0004521F0004120E700BF50EA010225
:1051000008BF704730B54FF000050AE050EA0102D1
:1051100008BF704730B511F0004502D5404261EB41
:1051200041014FF4806404F132045FEA915C3FF482
:10513000DCAE4FF003025FEADC0C18BF03325FEA1B
:10514000DC0C18BF033202EBDC02C2F1200300FAD0
:1051500003FC20FA02F001FA03FE40EA0E0021FAF5
:1051600002F11444C1E600BF70B54FF0FF0C4CF4DF
:10517000E06C1CEA11541DBF1CEA135594EA0C0F95
:1051800095EA0C0F00F0DEF82C4481EA030621EAD0
:105190004C5123EA4C5350EA013518BF52EA03350B
:1051A00041F4801143F4801338D0A0FB02CE4FF0BD
:1051B0000005E1FB02E506F00042E0FB03E54FF0ED
:1051C0000006E1FB03569CF0000F18BF4EF0010EE5
:1051D000A4F1FF04B6F5007F64F5407404D25FEAE1
:1051E0004E0E6D4146EB060642EAC62141EA555194
:1051F0004FEAC52040EA5E504FEACE2EB4F1FD0CD6
:1052000088BFBCF5E06F1ED8BEF1004F08BF5FEA53
:10521000500E50F1000041EB045170BD06F0004605
:1052200046EA010140EA020081EA0301B4EB5C04B2
:10523000C2BFD4EB0C0541EA045170BD41F48011AA
:105240004FF0000E013C00F3AB8014F1360FDEBFCF
:10525000002001F0004170BDC4F10004203C35DAAB
:105260000C341BDC04F11404C4F1200500FA05F32E
:1052700020FA04F001FA05F240EA020001F00042CF
:1052800021F0004110EBD37021FA04F642EB060145
:105290005EEA430E08BF20EAD37070BDC4F10C046F
:1052A000C4F1200500FA04F320FA05F001FA04F233
:1052B00040EA020001F0004110EBD37041F100011F
:1052C0005EEA430E08BF20EAD37070BDC4F120052A
:1052D00000FA05F24EEA020E20FA04F301FA05F292
:1052E00043EA020321FA04F001F0004121FA04F23A
:1052F00020EA020000EBD3705EEA430E08BF20EA0A
:10530000D37070BD94F0000F0FD101F00046400043
:1053100041EB010111F4801F08BF013CF7D041EAC5
:10532000060195F0000F18BF704703F000465200C9
:1053300043EB030313F4801F08BF013DF7D043EA9A
:105340000603704794EA0C0F0CEA135518BF95EA50
:105350000C0F0CD050EA410618BF52EA4306D1D1D7
:1053600081EA030101F000414FF0000070BD50EAF6
:10537000410606BF1046194652EA430619D094EA80
:105380000C0F02D150EA013613D195EA0C0F05D16A
:1053900052EA03361CBF104619460AD181EA0301BE
:1053A00001F0004141F0FE4141F470014FF0000076
:1053B00070BD41F0FE4141F4780170BD70B54FF011
:1053C000FF0C4CF4E06C1CEA11541DBF1CEA135591
:1053D00094EA0C0F95EA0C0F00F0A7F8A4EB050473
:1053E00081EA030E52EA03354FEA013100F088806A
:1053F0004FEA03334FF0805545EA131343EA126333
:105400004FEA022245EA111545EA10654FEA0026E7
:105410000EF000419D4208BF964244F1FD0404F5A0
:10542000407402D25B084FEA3202B61A65EB0305FC
:105430005B084FEA32024FF480104FF4002CB6EBB9
:10544000020E75EB030E22BFB61A754640EA0C0039
:105450005B084FEA3202B6EB020E75EB030E22BF79
:10546000B61A754640EA5C005B084FEA3202B6EBBA
:10547000020E75EB030E22BFB61A754640EA9C0079
:105480005B084FEA3202B6EB020E75EB030E22BF49
:10549000B61A754640EADC0055EA060E18D04FEA07
:1054A000051545EA16754FEA06164FEAC30343EAA7
:1054B00052734FEAC2025FEA1C1CC0D111F4801F74
:1054C0000BD141EA00014FF000004FF0004CB6E76D
:1054D00011F4801F04BF01430020B4F1FD0C88BF0C
:1054E000BCF5E06F3FF6AFAEB5EB030C04BFB6EB17
:1054F000020C5FEA500C50F1000041EB045170BD0A
:105500000EF0004E4EEA113114EB5C04C2BFD4EB36
:105510000C0541EA045170BD41F480114FF0000EBA
:10552000013C90E645EA060E8DE60CEA135594EA36
:105530000C0F08BF95EA0C0F3FF43BAF94EA0C0F39
:105540000AD150EA01347FF434AF95EA0C0F7FF4AE
:1055500025AF104619462CE795EA0C0F06D152EA02
:1055600003353FF4FDAE1046194622E750EA4106E6
:1055700018BF52EA43067FF4C5AE50EA41047FF4F7
:105580000DAF52EA43057FF4EBAE12E74FF0FF3C5C
:1055900006E000BF4FF0010C02E000BF4FF0010C2D
:1055A0004DF804CD4FEA410C7FEA6C5C4FEA430CA6
:1055B00018BF7FEA6C5C1BD001B050EA410C0CBFF5
:1055C00052EA430C91EA030F02BF90EA020F002057
:1055D000704710F1000F91EA030F58BF994208BFBE
:1055E00090422CBFD8176FEAE37040F0010070477B
:1055F0004FEA410C7FEA6C5C02D150EA013C07D1D2
:105600004FEA430C7FEA6C5CD6D152EA033CD3D01C
:105610005DF8040B704700BF8446104662468C4616
:105620001946634600E000BF01B5FFF7B7FF002849
:1056300048BF10F1000F01BD4DF808EDFFF7F4FF72
:105640000CBF012000205DF808FB00BF4DF808EDFD
:10565000FFF7EAFF34BF012000205DF808FB00BF20
:105660004DF808EDFFF7E0FF94BF012000205DF842
:1056700008FB00BF4DF808EDFFF7CEFF94BF0120F7
:1056800000205DF808FB00BF4DF808EDFFF7C4FFF0
:1056900034BF012000205DF808FB00BF4FEA410C39
:1056A0007FEA6C5C02D150EA013C0AD14FEA430C1C
:1056B0007FEA6C5C02D152EA033C02D14FF0000059
:1056C00070474FF0010070474A0011D212F50012E6
:1056D00011D20DD56FF47873B3EB62520ED44FEA4A
:1056E000C12343F0004343EA505323FA02F07047CA
:1056F0004FF00000704750EA013002D14FF0FF3008
:1057000070474FF000007047014B1868704700BFAA
:10571000C0000020F8B500BFF8BC08BC9E4670472A
:10572000F8B500BFF8BC08BC9E46704700000000FA
:105730000338FDD870470000000000000030004032
:105740000000000001000000000007410000000010
:1057500000B000400B000300E7E7E7E7C2C2C2C2A7
:10576000E7C2C3C4C5C6C7C80000000002000009E4
:105770000000000001000701BC570000BC570000FA
:105780000400000000000000000000000000000015
:105790000338FDD870470000C8000020706F770004
:1057A0000000000000000000000000000000304386
:0C57B00000000000000030C300000000FA
:0857BC00B0AAFF7F010000000C
:1057C40001030000010000000000000001020000CD
:1057D400FA000300000102200000000000000000A5
:1057E40002010000000000000000000000000000B2
:1057F40000000000000000000000000000000000A5
:105804000000000000000000000000000000000094
:105814000000000000000000000000000000000084
:105824000000000000000000000000000000000074
:105834000000000000000000000000000000000064
:105844000000000000000000000000000000000054
:105854000000000000000000000000000000000044
:105864000000000028230000E7E7E7E7C2C2C2C245
:10587400E7C2C3C4C5C6C7C80805FF020090D00369
:10588400C80000200000000000000000B403002055
:105894001C0400208404002000000000000000001C
:1058A40000000000000000000000000000000000F4
:1058B40000000000000000000000000000000000E4
:1058C40000000000000000000000000000000000D4
:1058D40000000000000000000000000000000000C4
:1058E40000000000000000000000000000000000B4
:1058F40000000000000000000000000000000000A4
:105904000000000000000000000000000000000093
:105914000000000000000000000000000000000083
:105924000000000000000000000000000000000073
:1059340001000000000000000E33CDAB34126DE610
:10594400ECDE05000B000000000000000000000079
:105954000000000000000000000000000000000043
:105964000000000000000000000000000000000033
:105974000000000000000000000000000000000023
:105984000000000000000000000000000000000013
:105CB4005826002001000000C93900002502000018
:085CC4000102000000000000D5
:04000003000028A130
:00000001FF
