:1000000000000120E53A00000D3B00000F3B00001E
:10001000113B0000133B0000153B000000000000F6
:10002000000000000000000000000000173B00007E
:10003000193B0000000000001B3B00001D3B0000BE
:100040006D420000652B00006D490000213B00005F
:100050001F3B00001F3B0000B103000039450000BA
:100060001F3B00001F3B00001F3B00003544000009
:100070001F3B00001F3B00001F3B00001F3B000018
:100080001F3B00001F3B00001F3B00001F3B000008
:10009000492E00001F3B00001F3B00001F3B0000DB
:1000A0001F3B00001F3B0000293400001F3B0000E5
:1000B0001F3B00001F3B000000000000000000008C
:1000C0001F3B00001F3B00001F3B00001F3B0000C8
:1000D0001F3B00001F3B00001F3B00000000000012
:1000E0000000000000000000000000000000000010
:1000F0000000000000000000000000000000000000
:1001000000000000000000000000000000000000EF
:1001100000000000000000000000000000000000DF
:1001200000000000000000000000000000000000CF
:1001300000000000000000000000000000000000BF
:1001400000000000000000000000000000000000AF
:10015000000000000000000000000000000000009F
:10016000000000000000000000000000000000008F
:10017000000000000000000000000000000000007F
:10018000000000000000000000000000000000006F
:10019000000000000000000000000000000000005F
:1001A000000000000000000000000000000000004F
:1001B000000000000000000000000000000000003F
:1001C000000000000000000000000000000000002F
:1001D000000000000000000000000000000000001F
:1001E000000000000000000000000000000000000F
:1001F00000000000000000000000000000000000FF
:1002000010B5054C237833B9044B13B10448AFF350
:1002100000800123237010BDAC0600200000000008
:10022000487300000C4B43B10C480D4910B5AFF3B7
:1002300000800C48036823B910BD0A48036833B92D
:100240007047094B002BF7D0BDE810401847064B0C
:10025000002BF5D0184700BF0000000048730000D5
:10026000B00600207806002000000000154B002B8F
:1002700008BF134B9D46A3F5803A00218B460F46DD
:100280001348144A121A04F097FC0F4B002B00D0AD
:1002900098470E4B002B00D0984700200021040007
:1002A0000D000D48002802D00C4804F043FE04F075
:1002B0009DFB2000290000F0DFF804F087FB00BF61
:1002C0000000080000000120000000000000000005
:1002D000AC060020702E0020354F0000414F00007A
:1002E000704700BFF8B5294B294A1B68294C03F019
:1002F0004F03136000F042F900F0BCF92268264B6E
:10030000511CA3FB01035B09C3EB0313B1EB830F88
:1003100034D0224B0532A3FB0213DB0803EB83032B
:10032000B2EB430F25D01E481E4F00F0D9FB1C48EE
:1003300000F0A6FD00F08CFE1B491C4B00204FF086
:10034000A046C1F87C0140224FF00045E020C3F8F0
:100350008021C6F84077C1F8045383F806031A6079
:1003600023680133236000F06FF9BDE8F84000F026
:100370000FB900F06BFA00F021FAF1E700F08CFB06
:1003800000F00CFB00F01AFAEAE700BF5802001078
:10039000E40E0040C806002089888888CDCCCCCCEB
:1003A000946F00000C0003000060004000E100E0DA
:1003B00030B52DED028B2B4B2B4A1B6803F04F03FE
:1003C000136083B000F0DAF800F054F94FF0A04366
:1003D0002649274A032510244020C3F81057C3F8A4
:1003E0000845C1F88000D2F87C3183B94FF0A043B2
:1003F00010210222C3F80C15C3F8102700F024F9CD
:1004000003B0BDEC028BBDE8304000F0C1B8002362
:10041000C2F87C3100F0B0FB00F008FCBCEEC08AF2
:1004200000F034FD0128FBD000F0A8FF044600F0E6
:10043000B1FF054600F0A8FF0E4BDA6C4FF47A735B
:1004400003FB02F3294602460093204618EE103AB9
:1004500000F040FA00F0B2F900F072FB00F0A0FFEB
:10046000C4E700BF58020010E40E004000E100E0C5
:1004700000600040842D002008B5254B254A1B68EC
:1004800003F04F03136002F0CBF94FF4004100205A
:1004900001F02AFEA8BB02F0C3F902F03FFA68BBE4
:1004A00000234FF0A041022003F5E0720133202B1E
:1004B00041F82200F8D10323C1F8103700F04EF8BC
:1004C00000F0B6FA144800F09FF8134800F0D6FB8D
:1004D0000021124800F014F9B0B9114800F05AF8A0
:1004E000032000F0ADF900F071F900F067F900F0B9
:1004F000ABF800F04DF802F027FAFCE701F0C8FB7A
:10050000CEE701F0C5FBC6E701F0C2FBE5E700BF9F
:1005100058020010E40E0040946F0000E102000059
:10052000E502000000B1704730B4084B084C094A9E
:10053000094901254FF480302560C3F8040313787E
:1005400009682B44137030BC084700BF00B000405E
:1005500008B0004000000020CC06002008B503F0E1
:100560003BF838B9002003F089F803F0C9F80028F7
:10057000FBD008BD01F08CFBF4E700BF08B50020FC
:1005800003F07CF803F0BCF80028FBD008BD00BFE6
:1005900003F0A2B810B5184B82B01860002003F029
:1005A00037F803F063F80028FBD0144B144A93E8A3
:1005B000030002AB40F2FF74009023F8084DADF841
:1005C00004101048194603F081FE90B900210D482F
:1005D00003F01AFF01234FF4F0720021094803F0E1
:1005E000C9FE08B101F054FB064803F0B7FE02B0A3
:1005F00010BD01F04DFBE9E7CC060020A46F000020
:1006000025050000AC6F0000F0B585B000231A2569
:100610000C4C009519274FF0CC76022569461A46F6
:1006200003932060019702968DF80C5002F036FF7C
:1006300008B101F02DFB2068043003F009FC05B07F
:10064000F0BD00BFD006002010B5084C2068043073
:1006500003F00EFC2068043003F0A4FB044B0022DE
:100660001A60012219681A6010BD00BFD006002070
:10067000FC3F0040F0B50F4C85B0002503952B469C
:100680002A464FF01A0E19274FF0CC760225206823
:10069000CDF800E06946019702968DF80C5002F003
:1006A000FDFE08B101F0F4FA2068043003F0D0FB3D
:1006B00005B0F0BDD006002010B50478012C12D092
:1006C0000AD3022C0C4B02D101221A7010BD012258
:1006D0001A7001221A7010BD084A074B01211170CF
:1006E00001221A7010BD02F08DFC044A024B1470F6
:1006F00001221A7010BD00BFD4060020D5060020CC
:10070000F0B5274A274D1468274B284E85B0074679
:10071000009402F108048E4694E8030052682F60AA
:1007200002AC032584E80300214FC6F800E0002155
:10073000022601921D720122082518465F605E7232
:10074000D98159701A751A70DD7402F035FA08B142
:1007500005B0F0BD684602F06BFC0028F8D101A896
:1007600002F00CFD0028F3D12046294602F0CCFD12
:100770000028EDD1322002F043FE0028E8D10D4AD6
:100780000D4E10704FF080414FF00F14D1F800342F
:100790001571234050713360C1F80044D8E700BFA1
:1007A000BC6F0000E006002004000020DC060020F2
:1007B000B90600001C000020E4060020024A13785D
:1007C000002BFCD0704700BFD4060020F0B5184ABB
:1007D000184B12681878184C110E002361F30703A8
:1007E000110C83B061F30F23110A61F3174302A9BF
:1007F00062F31F63002541F8043D4FF0010E40F005
:10080000800309260422202704F10A00A37184F83A
:1008100002E067722570E57125722671667104F039
:1008200031F9064B20461D7002F04CFB03B0F0BDC1
:10083000E4060020010000201C000020D406002057
:10084000014B1870704700BF01000020F0B51C4D2F
:100850001C4B2A6819781C481C4C160E002366F3A2
:100860000703160C66F30F23160A83B066F31743CB
:1008700062F31F630093D0F80C358DF8043041F01B
:10088000800320214FF0010E00260A270522617205
:1008900004F10A006946A37184F802E084F807E0D5
:1008A000267026722771677104F0ECF8084B204619
:1008B0001E7002F007FB2868431C2B6003B0F0BDDC
:1008C000D806002001000020001000401C0000207D
:1008D000D4060020F0B52E4D2E4C2E7887B046F071
:1008E0008006A671B22720260C9DE7716672071656
:1008F00006148DF807008DF80B108DF804708DF834
:1009000005600F0E0E0C4FF0010E0012090A8DF853
:100910000F2084F802E08DF806004FEA126E8DF881
:100920000870100C8DF809608DF80A101E0E1F0C4F
:10093000290E120A8DF817508DF813308DF80CE03F
:100940001B0A4FEA154E8DF80D008DF80E208DF81C
:1009500010608DF811700026192714228DF81410DC
:100960002D0A01A904F10A008DF812308DF815E066
:100970008DF81650267026722771677104F082F880
:10098000054B20461E7002F09DFA07B0F0BD00BF77
:10099000010000201C000020D4060020F0B5134BFD
:1009A000134C1B7883B00246022643F080030121DA
:1009B0004FEA102E00258DF80520A371324607233B
:1009C000A170202701A904F10A008DF804E0237129
:1009D0006371677225702572E67104F053F8054B58
:1009E00020461D7002F06EFA03B0F0BD0100002039
:1009F0001C000020D406002003788BB943680A4A03
:100A0000B3F9003003EB8303C3EB0313DB0048BFF0
:100A100003F2FF339B1203EB43035B004633138067
:100A2000024B01221A707047A4000020EA06002041
:100A300000B51449144885B003F060FEF8B9134BB3
:100A400093E8070001AB03C301A900201A7003F06B
:100A5000A3FE08B101F01CF90D4B0E480022012144
:100A60001A7003F003FF38B903F060FF08B101F01A
:100A70000FF905B05DF804FB01F00AF9F4E701F0A5
:100A800007F9DCE7F9090000E06F0000D46F00000F
:100A9000EA060020E806002038B50E4C237803B99A
:100AA000FEE70D4B1D8803F059FF034608B12846A9
:100AB00038BD01210948237003F0D8FE38B903F08E
:100AC00035FF0028F3D001F0E3F8284638BD01F0E7
:100AD000DFF8F4E7EA060020A4000020E806002082
:100AE00070B5164C84B00346002100910126C6253E
:100AF00023608DF80E10043003AA032345218DF8DE
:100B00000C608DF80D5003F0D1F908B101F0C0F878
:100B1000206800240226C025043003AA0094032381
:100B200045218DF80E408DF80C608DF80D5003F0C6
:100B3000BDF908B101F0ACF804B070BDEC060020BE
:100B400070B50C4B84B01868002300930126C025B3
:100B500010240430032303AA45218DF80C608DF87E
:100B60000D508DF80E4003F0A1F908B101F090F896
:100B700004B070BDEC06002070B52B4D84B000248D
:100B8000012612E028680223043003AA452103F05D
:100B90004FFA08B101F07CF89DF80D301B0604F106
:100BA000010212D4D4B2372C2FD02868009604301A
:100BB00001230DF1090245218DF8096003F076F952
:100BC0000028DFD001F064F8DCE7362C1DD004AA41
:100BD0000023286802F8053D0123043000934521D5
:100BE00003F064F9E8B9286803AA04300223452118
:100BF00003F01EFA08B101F04BF89DF80C309DF897
:100C00000D0040EA032004B070BD04AA2868012347
:100C100002F8063D04300093452103F047F900280F
:100C2000E1D001F035F8DEE7EC06002030B50446EF
:100C300083B0000B05F06CFC41EC100B04F004FADF
:100C4000C4F30B008DED000B05F072FC9DED000B65
:100C500004460D46002251EC100B074B05F0CEFC6C
:100C600002460B462046294605F0C8FC05F076FFF3
:100C700000EE100A03B030BD00002440F0B591B082
:100C800010AAD0237C4C02F8313D05460123009385
:100C900004307621256003F009F9002840F0E8804F
:100CA0002068172304300DF10B02762103F0C0F900
:100CB00008B100F0EDFF10AA8A23206802F8323D47
:100CC000012304300093762103F0F0F8002840F06F
:100CD000CC802068172304300AAA762103F0A8F9F3
:100CE00008B100F0D5FF10AAE123206802F8333DD7
:100CF000012304300093762103F0D8F8002840F057
:100D0000B18020680E23043006AA762103F090F902
:100D100008B100F0BDFF10AA0023206802F8343D9E
:100D2000012304300093762103F0C0F8002840F03E
:100D3000968020680523043004AA762103F078F910
:100D400008B100F0A5FF9DF821309DF820109DF816
:100D50002D709DF82F009DF829C09DF828209DF842
:100D60002C609DF82E509DF833E09DF8324041EA0A
:100D70000321424B42EA0C2246EA072645EA0025B7
:100D80009DF835709DF834001A859DF82A20D98485
:100D900044EA0E249DF83A109DF83BE083F82A209F
:100DA00040EA07209DF83C209DF83D709E8541EA71
:100DB0000E219DF83760DD8542EA07229DF8365006
:100DC0009DF8307083F830705C86988683F83660C2
:100DD00019875A8783F837509DF83E509DF819209F
:100DE0009DF818709DF81AE09DF823609DF8224048
:100DF00083F83C5002F00F05120945EA0E1542EA4D
:100E0000071244EA06249DF81B709DF81C609DF8AB
:100E100012009DF914101D835A839DF81D509DF8F2
:100E20001E201F775E779DF81F709DF824609D77C8
:100E3000DA779DF825509DF8102083F82070C0F3D4
:100E40000110091183F821605C8483F8245083F831
:100E50003E2083F83D0083F83F1011B0F0BD00F054
:100E600017FF66E700F014FF4BE700F011FF30E7D3
:100E700000F00EFF14E700BFF0060020842D0020D4
:100E8000014B1860704700BFF006002010B5114CF0
:100E900084B004AA7323206802F8013D01230430C2
:100EA0000093762103F002F880B920680123043012
:100EB0000DF10E02762103F0BBF808B100F0E8FE58
:100EC0009DF80E00C0F3C00004B010BD00F0E0FEBD
:100ED000EBE700BFF0060020F0B52C4C2C4823694E
:100EE00094F91E1094F91D7094F91C60658B03EB46
:100EF000830380331B1203FB01F180FB012ECA1711
:100F0000C2EB6E1203FB02F24FEAA21E03FB07F1D3
:100F1000D21780FB0EE7C2EB671280FB01E7C9170F
:100F2000C1EB67110A4403FB06F66188B4F818E0C8
:100F300094F9207002F5804205FB02F580FB06C2A1
:100F4000F617C6EB6216A1EB0E1203FB07F3AD1208
:100F5000A2EB660202FB05F280FB0310E57FDB17C4
:100F6000C3EB6013911303EBC51301FB01F189126D
:100F70001B1103FB01F302EB63034FF47A709B1226
:100F800000FB03F31813A064F0BD00BF842D002004
:100F90001F85EB51F0B52D4B1A6993F93070B3F9F9
:100FA0003440B3F92EE093F936605210A2F57A423C
:100FB000951005FB05F569137F0101FB07F102FBA5
:100FC00004F4B3F9327002FB0EF2ED12C91006FB05
:100FD00005F501EB620164009E8DB3F9382004EB46
:100FE000A5043F048914C0F5801007EBA40401F5A3
:100FF0000041A0EB243406FB01F140F63540C91353
:1010000000FB04F0B0FBF1F04000C11086100412A8
:10101000B3F93A5001FB01F102FB06F204FB04F7BD
:1010200093F83C60491305FB01F104FB07F45213EC
:1010300002EB213206FB04F493F9371002EB644211
:1010400002EBC11200EB22105864F0BD842D002089
:101050002DE9F043C24D89B0286800230093722621
:101060000124043004AA022376218DF810608DF843
:10107000114002F01BFF08B100F00AFE28680023AF
:101080000093742625240430022304AA76218DF8C7
:1010900010608DF8114002F009FF08B100F0F8FD72
:1010A00028680024752604300094022304AA7621BF
:1010B0008DF811408DF8106002F0F8FE08B100F0D4
:1010C000E7FD2868002310240093712604300223D2
:1010D0000DEB040276218DF810608DF8114002F0BE
:1010E000E5FE08B100F0D4FD9E4C9F4FB4F92220DC
:1010F00094F924309D4E02F5163101F29911C8225F
:1011000002FB01F287FB0201D217C2EBE10202F5FA
:10111000481294F9210094F93E1003EB830303EB8A
:10112000830387FB02E7D21786FB03E6C2EBA70225
:10113000DB1700F5447000FB02F0C3EBA61301EBD4
:10114000811294F83D6001EB42021B02311D02F551
:10115000803203EB600393FBF1F393FBF2F3FA3B72
:1011600003EB03135B0082492868323381FB0321C0
:10117000DB17C3EB6111002200925A268DF8111083
:101180000430022304AA76218DF8106002F08EFE4E
:1011900008B100F07DFD2868002364210093322609
:1011A0008DF810100430022304AA76218DF8116006
:1011B00002F07CFE08B100F06BFD2868002374216A
:1011C000009325268DF810100430022304AA7621FE
:1011D0008DF8116002F06AFE08B100F059FD08AA0E
:1011E0001D23286802F8113D012304300093762165
:1011F00002F05CFE002840F0AF80286804AA0430AA
:101200000F23762102F014FF08B100F041FD9DF894
:1012100016509DF815209DF81730E18C94F92AE0BE
:10122000B4F928609DF813009DF812702D0145EA6D
:10123000023545EA13154900C1EBD5010A46CB1723
:101240005B104FEA320202FB03FCA2FB022303EB1A
:101250004C034FEA123C4FEA0E124CEA035C4FEA91
:10126000E2794FEA233E0CFB09F302FB0E3E86FBBC
:101270000189ACFB022373444FEAD821920B42EA66
:10128000834241EA495111449DF81E309DF814C033
:101290009DF81D80BDF818609DF810E065600001A4
:1012A00001EB810240EA073747EA1C1780324FEA18
:1012B000931C4CEA880C2EF07F0E121275BA384639
:1012C00003F0100603F00F0321612264A4F80CC0A0
:1012D000A37584F814E0A76066756580FFF75AFE71
:1012E00060646088234FFFF7F7FDA57D224B94F9DA
:1012F0003F1053F82560A06440F23C5205200023C3
:10130000C1FB0023A2FB0601020CA08957F825505F
:1013100006FB0311C60342EA014216F17F464FEA7B
:101320005047A5FB02894FEA214347F1FF37921945
:1013300005FB03994FEA58207B415F104FEA3206C4
:1013400040EAC95080194FEA6921794105F056FCFD
:10135000E06409B0BDE8F08300F09AFC4DE700BFFF
:10136000F0060020842D002067666666D34D62106B
:101370001F85EB5124700000E46F0000014B186CD6
:10138000704700BF842D0020014B586C704700BF90
:10139000842D0020014B986C704700BF842D0020E5
:1013A00030B50A4B85B018680024742504300094C9
:1013B000022303AA76218DF80D408DF80C5002F01F
:1013C00075FD08B100F064FC05B030BDF0060020EA
:1013D000826802B9704710B5044643690168006924
:1013E00098470023A36010BD0EB400B582B00399E6
:1013F00029B102AA04AB42F8043D00F095F802B00E
:101400005DF804EB03B070472DE9F84F1746B94279
:10141000884606461D46DDF828B00B9A7DD30B465C
:101420004FF00109B3FBF7F39F4209F10109F9D924
:10143000A94538BFA94612F0010A02D1BBF1000F3D
:1014400049D1B268012402E0013D07FB04F4012DFB
:10145000FAD8B8FBF4F18F42F7D9324D05E0B4FB6E
:10146000F7F4A4B1B8FBF4F1B268685C531CB36044
:1014700033689854B26873689A4204FB1188EED3BB
:101480003046FFF7A5FFB4FBF7F4002CEAD1BAF120
:10149000000F16D0BBF1000F33D0CB4588BF2024FE
:1014A0003ED9B3683268591CB160D454B2687368CD
:1014B0009A420BF1FF3B06D2BBF1000F09D0D94590
:1014C000EFD1BDE8F88F3046FFF782FFBBF1000F88
:1014D000F5D1BDE8F88F93071AD42024CB45B0D9B5
:1014E000B2683368511CB1609C54B26873689A4208
:1014F0000BF1FF3B07D2BBF1000FA3D0CB45F0D1DE
:10150000A0E7BDE8F88F3046FFF762FFB268F2E768
:10151000002D0CBF30242024E0E74FF0010987E7BD
:10152000BDE8F88F68700000002900F06F822DE997
:10153000F04F064685B093460C460B780DE0B26836
:101540003168501CB0608B54B26873689A4280F066
:10155000D3802378002B00F0BA800134002B00F0F8
:10156000B680252BEBD14FF00008234614F8012B51
:101570002D2A00F0BB80302A00F0BB802B2A00F01F
:10158000AD802A2A00F0BC80A2F13005E9B2092919
:1015900098BF013302D9A9E1A1F130051C4613F827
:1015A000012BA2F1300005EB8501092802EB410176
:1015B000F2D92E2A00F0B080002701E014F8012FA4
:1015C00002F0FB03682BF9D0253A532A7AD8DFE8DA
:1015D00012F07A01790079007900790079007900B8
:1015E0007900790079007900790079007900790033
:1015F0007900790079007900790079007900790023
:101600007900790079007900790079007900790012
:101610007900790079007900790079007900790002
:1016200079007900790079007900790079007900F2
:1016300079007900790079006A01790079007900F0
:1016400079007900790079007900790079005501F5
:10165000FC007900790079007900FC0079007900BC
:101660007900790079007900540079007900CA0086
:101670007900BA00790079006A01DBF80020131DB7
:10168000CBF80030B368156831685A1CB2604FF06F
:101690003002CA54B3687268934280F0A081326805
:1016A000581C7821B060D154B26873689A4280F0B7
:1016B000928100220823019229460093102230468D
:1016C000FFF7A2FE01342378002B7FF446AF337B73
:1016D000002B40F0058105B0BDE8F08F234614F8DB
:1016E000012B2D2A48F004087FF445AF48F001088B
:1016F0003BE748F0020838E73046FFF769FE28E785
:10170000DBF80020111DCBF8001015685A782E2A3E
:1017100003F101047FF450AF6278A2F13003092B8A
:1017200004F101044FF000073FF64AAF07EB8707CB
:1017300002EB470714F8012FA2F13003092BA7F1A0
:101740003007F3D93CE7DBF800301A1DCBF8002056
:101750001968CDF804803B4600950A223046FFF711
:1017600053FE0134AFE7DBF800301A1DCBF8002040
:1017700018F0010FD3F8009040F0BB80B9F1000FD2
:1017800000F04781484603F0DBFA0746BD4240F2CD
:10179000F180002D00F0EE804FF0200805E0BD4202
:1017A00000F0E880002D00F0E580B3683268591C35
:1017B000B16002F80380B26873689A4205F1FF35A0
:1017C000EDD33046FFF704FEE9E7DBF800301A1DE1
:1017D000CBF80020D3F8009089EAE973A3EBE97312
:1017E000092B4FF0010A09DD8F4A82FB0312DB1738
:1017F000C3EBA203092B0AF1010AF5DCBA4538BF95
:10180000BA462DB3B9F1000F02DB18F0040F00D077
:10181000013D18F0020F40F0F58018F0010F17D1CC
:10182000002D00F0FE80AA4538BF202110D2B268FA
:101830003368501CB0609954B26873689A4205F1DD
:10184000FF3580F0E880002D00F0EB80AA45EED156
:10185000B9F1000FC0F2C88018F0040F7BD108F076
:101860000303022B00F09A808DE820013B46494695
:101870000A223046FFF7C8FD013424E7DBF80020D8
:10188000131DCBF80030B36831681278581CB06073
:10189000CA54B26873689A42FFF414AF3046FFF737
:1018A00097FD01340FE7DBF800301A1DCBF800205C
:1018B0001968CDF804803B46009510223046FFF7AA
:1018C000A3FD0134FFE6B3683268591CB1604FF0E4
:1018D0002501D154B26873689A42DFD20134F2E62E
:1018E000304605B0BDE8F04FFFF772BD1C4600253D
:1018F0005FE64F46A7EB090817F8013B8BB1B268CA
:101900003168501CB0608B54B26873689A42F1D34E
:101910003046FFF75DFDA7EB090817F8013B002BE8
:10192000EDD145457FF6CEAE202705E045453FF495
:10193000C9AE002D3FF4C6AEB3683268591CB16021
:10194000D754B26873689A4205F1FF35EED330463A
:10195000FFF73EFDEAE7B2683368501C2B21B06008
:101960009954B26873689A42FFF479AF3046FFF732
:101970002FFD74E709F1FF3919F8013F002B3FF4FF
:10198000A1AEB2683168501CB0608B54B268736805
:101990009A42F1D33046FFF71BFDEDE7002F7FF4AD
:1019A00063AF002D33D0AA45BFF45EAFB268336891
:1019B000511CB1604FF030019954B26873689A427B
:1019C00005F1FF3503D215B3AA45EFD14CE73046F8
:1019D000FFF7FEFCF7E73046FFF7FAFC69E6304612
:1019E000FFF7F6FCB3685AE6B2683368501C2D2145
:1019F000B0609954B26873689A42C9F10009FFF463
:101A00002EAFB3E7002F3FF423AF06E77047002562
:101A10002AE74F46BAE630460391FFF7D9FC03990F
:101A200011E7002514E700BF676666662DE9F84FE9
:101A30004400DFF87CA126180AEBC6068146D6F8DA
:101A40002C80B8F1010F8B46174661D038D3B8F11E
:101A5000020F30D100F1010909EB4909756A4FEA1B
:101A6000C9094FF000081CE0326A641BBC420AEB53
:101A700009012346A2EB050428BF3B469C42486867
:101A800028BF1C4628445946224602F0FBFF336A11
:101A900025449D4208BF00253F1BA044A344756216
:101AA0000BD0B36AAB4203F1FF34DDD8326A134482
:101AB000013B5C1BDAE74FF000084046BDE8F88FB9
:101AC000B36A756AAB429CBF326A9B18013B5B1BD1
:101AD0009F42F2D804440AEBC40400F10109266ACB
:101AE000761B09EB4909B7420AEBC90A56D3DAF863
:101AF000040032462844BD1B02F0C4FFDAF804009B
:101B00000BEB06012A4602F0BDFFB8466562D4E73A
:101B1000B36A756AAB4226D903F1FF38366AA8EB7F
:101B20000508B84528BFB846761BB04523D309F150
:101B3000010707EB47070AEBC707A144786832465D
:101B4000594628440AEBC90AA8EB060502F09AFF99
:101B500078680BEB06012A4602F094FFCAF824507D
:101B60004046BDE8F88F366A03EB060808F1FF38F7
:101B7000A8EB0508D5E709F1010303EB43030AEBE2
:101B8000C303A14458680AEBC90A2844594642468F
:101B9000454402F077FFCAF824508EE7DAF80400D3
:101BA0003A4628443D4402F06DFFB846656284E73A
:101BB000D42D0020F8B5104C104B114AE36140259C
:101BC0000023104FA36210266362E362A36563657E
:101BD000E3650D492562A2610225A264E01DE76468
:101BE00026652561656103F035F82046074903F055
:101BF00031F82023A371F8BDD42D00200407002064
:101C000078700000F40600208470000088700000E6
:101C1000704700BF00B583B0044B0093044A4023D3
:101C200000F00CFE03B05DF804FB00BF351C0000A3
:101C30004807002002B32DE9F843114B114E8846A6
:101C4000144643F0010903270025224608EB05014D
:101C50000020FFF7EBFE03461D444FF47A40E41AE0
:101C600023B9337833B1C847013F06D0012333701D
:101C7000002CEAD1BDE8F88370473770BDE8F883DF
:101C80009070000044070020704700BFFFF792BF2C
:101C900000B585B000230390194601AA44F2010063
:101CA0000193029300F004F805B05DF804FB00BF57
:101CB00010B572B600F04CFC00F082FA0028FBD19F
:101CC000104C11492088000440F0010000F0A2FBF4
:101CD0000E4B1B68DB0700D500BE20880C490004B2
:101CE00040F0020000F096FBBFF34F8F09490A4B0A
:101CF000CA6802F4E0621343CB60BFF34F8F00BFAA
:101D0000FDE700BF90060020A4700000F0ED00E0A9
:101D1000B070000000ED00E00400FA0572B6024A5F
:101D2000136801331360704788070020034A136863
:101D3000013B136003B962B6704700BF88070020FB
:101D400000B550E8002F0B4640E8003E9EF0000F23
:101D5000F7D110465DF804FB00B550E8003F03EBF7
:101D6000010240E8002E9EF0000FF6D110465DF80B
:101D700004FB00BF00B550E8003FA3EB010240E8C0
:101D8000002E9EF0000FF6D110465DF804FB00BF58
:101D900000B5012350E8002F42EA030E40E800E1BD
:101DA00091F0000FF6D170465DF804FB00B50023FA
:101DB00050E800EF0EEA030240E8002191F0000F26
:101DC000F6D170465DF804FBB8B130B44168826862
:101DD0000468521AD2B2531E2160DBB242B10168CC
:101DE0000A685C1E551C0D601370E3B2FF2BF6D120
:101DF00003680020187130BC70470E20704700BF88
:101E000070B504460020FFF789FF236861681A68EF
:101E10008A4215D9511E19602168A3680D68087996
:101E2000A68A12F8012CE4685B1BDBB2984206FB21
:101E3000024400D20B710020FFF778FF204670BDEE
:101E400000240020FFF772FF204670BD38B505461C
:101E500000200C46FFF762FF2A681368591C1160C6
:101E6000E968AA8A641AB4FBF2F41C700020BDE889
:101E70003840FFF75BBF00BFFFF7A6BF2DE9F04179
:101E8000B0F81480CF1CA8F1040847440646B7FBFD
:101E9000F8F7FFF7B5FF80B3FFB200250123013F3C
:101EA0000446A0F8068006600571437128D080467C
:101EB00009E06379AF4203F101036371C8F80000E0
:101EC000066080461CD03046FFF79AFF0135002897
:101ED000EFD16679721E16D02346013082421B680C
:101EE000FBD81F684EB1214600250C6801353846E5
:101EF000FFF7ACFFAE422146F7D10020BDE8F081EC
:101F00002046BDE8F0812768EDE700BF04300121DD
:101F1000FFF722BFF8B5012104460430FFF72AFF7E
:101F2000C0B200B1F8BD6679721E12D023460130EE
:101F300082421B68FBD81F68002EF3D02146002484
:101F40000D6801343846FFF781FFA6422946F7D1D4
:101F5000F8BD2768F2E700BF2DE9F843C6880433CF
:101F60000F46B3FBF6F5904606FB1533044615B154
:101F7000013D2468FCD1F51A454528BF4546B8F116
:101F8000000F15D04FF000090433E018A8EB050846
:101F90002A4607EB090102F075FD4645A94424686D
:101FA00035464FF0000328BF4546B8F1000FEBD18E
:101FB000BDE8F8832DE9F843C68804330F46B3FB28
:101FC000F6F5904606FB1531044615B1013D24682F
:101FD000FCD1751A454528BF4546B8F1000F15D00C
:101FE0004FF0000904312144A8EB05082A4607EB0D
:101FF000090002F047FD4645A944246835464FF0E4
:10200000000128BF4546B8F1000FEBD1BDE8F883C9
:10201000F0B5334D85B005F58360FFF7B9FE05F2E5
:102020001440FFF7B5FE6A68AF6802EA0701CB1CEF
:1020300005EB8303541C187810F0030F00F003061F
:102040000ED010F0040016D0012E37D0022E02F16F
:102050000200ECD15A8800EB921202EA0701E6E78F
:102060004007F1D459881A8804EB911404EB9212BA
:1020700002EA0701DBE705EB8101531CC968019106
:102080003B4005EB830301F00301DB680293012968
:1020900002F102041CD0022918D1BDF80630BDF8A7
:1020A0000A60C3F38913033304EB93040D48FFF76D
:1020B0007DFE00B16C60304605B0F0BD1B88023279
:1020C000C3F383131A4402EA0701B0E70646EDE7BB
:1020D000BDF80430BDF80A60C3F383131C44E5E780
:1020E0005C080020700C00200F4B104810B5002237
:1020F000FF240121C3F818249C6083F820141A607F
:102100005A60C3F81424FFF7B7FE58B9084A094BC0
:10211000D21AD20806D00849034621F823300133E9
:102120009A42FAD110BD00BF5C080020AC730000D9
:10213000AC7300004C7300007C06002021B9124AE9
:1021400002EBC0000068704730B410490E4D491BC7
:10215000C9080ED00E4B5A88824218BF002205D102
:102160000FE0DC88844203F1040305D00132914280
:10217000F7D1002030BC704705EBC200006830BCCE
:1021800070472846FAE700BF4C730000AC730000AC
:102190007C060020094B013903EBC00003290BD852
:1021A000DFE801F00208060402207047407970471A
:1021B0000079704704207047002070474C7300007E
:1021C0002DE9F0478E4C94E80C009A4284B061D01F
:1021D0000023C4F81834BFF34F8F6368A5682768DD
:1021E0000EE011F0040623D001F0030101294BD0C9
:1021F000022903D15288023303EB92139F4212D972
:1022000003EA0500C21C04EB820211788E07E8D1B4
:102210004807E9D451881288013303EB911303EB8B
:1022200092139F42ECD80020676004B0BDE8F087AD
:1022300004EB80005A1CC16801912A4004EB820221
:1022400001F00301D2680292022903F1020825D0AD
:10225000012972D0D4F8105435B12B6828469B68F8
:1022600098476D68002DF8D1664B674918880004BF
:1022700040F0020000F0CEF860682368C01A18BF72
:10228000012004B0BDE8F08712880233C2F3831244
:102290001344B3E7002004B0BDE8F087BDF8063072
:1022A0005A48C3F38919B9F1500FCA46A8BF4FF075
:1022B000500A6AF38F130AF10801ADF80630FFF7F0
:1022C000DDFD07460028C5D0FFF720FE334625EA8E
:1022D00008060136082201A93846B600FFF73CFE81
:1022E000B2457FD9002E68D1524608234849384666
:1022F000FFF732FE09F1030608EB9606D4F818340E
:10230000002B56D1D4F810544DB16B7A394628467B
:1023100013B12B681B6898476D68002DF5D13846BE
:10232000FFF7F8FD0020FFF7F9FCD4F8183403B9E3
:1023300066600020FFF7FAFC9EE7BDF804303348E2
:10234000C3F38312062A28BF0622911C62F3891365
:102350008900ADF80430FFF791FD074600283FF4EF
:1023600079AFFFF7D3FD3346082201A93846FFF7BE
:10237000F3FDBDF8043013F4707F3ED0B2464FF049
:10238000080905EA080103314B4604EB81010422E8
:102390003846FFF7E1FDBDF804300AF1010AC3F346
:1023A000831308F10106534509F10409B046E8D842
:1023B000A4E73846FFF7AEFD5EE705EA0801033102
:1023C000AAEB060504EB810132463846EDB208233C
:1023D000FFF7C2FD2A4606F108030D493846FFF70C
:1023E000BBFD87E705EA0801033104EB8101524692
:1023F00008233846FFF7B0FD7CE746467EE700BF7E
:102400005C08002090060020C0700000AC73000043
:10241000680800202DE9F843DFF8D890074600202F
:102420008846D9F80850FFF779FCD9F80820D9F880
:102430000430D9F80060134401339B1B012B55D89D
:1024400009F21C4401212046FFF786FCFFF7E0FD5E
:1024500001462046FFF780FC99E80A00D9F80820D9
:10246000134401335B1A012BECD901240A400332D7
:1024700044F004036FF3891349F82230023100203D
:10248000C9F80010FFF752FC00211948FFF758FC6B
:1024900080F3100033192B4009EB8303000435400F
:1024A000033540EA1740D86019F8253067F3C503B3
:1024B00009F8253039F825306FF3891329F82530CC
:1024C00059F8252068F39F22134664F301036FF344
:1024D000820349F8252009F8253099F820341BB1EA
:1024E000FFF76EFE0028FBD1BDE8F8833146BCE75C
:1024F000780C00205C08002030B4144DD5F810444E
:10250000002154B1237A8B4213D0234602E01A7A79
:102510008A420ED05B68002BF9D10172D5F81034D5
:102520007BB15B684360D5F810345860084630BC16
:10253000704701310A29E4D14FF0FF31084630BC21
:102540007047C5F810044360F0E700BF5C08002046
:1025500038B5084BD3F81044012583F820543CB11A
:102560002368657220465B6898476468002CF7D141
:1025700038BD00BF5C0800202DE9F04784B01D463F
:102580000C9C002394F80C802373EB8881460E4644
:102590001746002B3BD1297A05290FD06B7A002BE7
:1025A0003DD1404BA88853F821A00021FFF7C6FD7C
:1025B000524603463C492046FEF716FF062F0FD829
:1025C000DFE807F0484D535A04633900F168B068FA
:1025D00096E80C000191009049462046FEF704FF62
:1025E0002B7A052B05D06B7A5BB930492046FEF774
:1025F000FBFE2046FEF7ECFE84F80C8004B0BDE83C
:10260000F0872B4A2B492046FEF7EEFEEDE7284ADD
:1026100000922949294A2046FEF7E6FEBBE7A88832
:10262000FFF7B8FD264B234953F820202046FEF73C
:10263000DBFE297AB5E77069316996E80C000390F2
:10264000B068F76802918DE8810049462046FEF7A0
:10265000CBFEC5E749462046FEF7C6FEC0E7326816
:1026600049462046FEF7C0FEBAE7494696E80C0008
:102670002046FEF7B9FEB3E7B16896E80C002046A5
:1026800000914946FEF7B0FEAAE7B068F7683169E5
:1026900096E80C0002918DE8810049462046FEF73D
:1026A000A3FE9DE760710000507100005C710000A6
:1026B000447100004C7100002C7100002471000076
:1026C000EC700000082900D970472DE9F04F1D4635
:1026D000904600232A7B2B7385B0B8F8063003920E
:1026E00007460E46002B6BD198F80810052911D02B
:1026F00098F80930002B6BD13C4BB8F8040053F824
:1027000021400021FFF71AFD22460346384928469A
:10271000FEF76AFEDFF8F8B0DFF8F8900024A64272
:10272000494628463ED93A5D0134FEF75DFE082C45
:10273000F5D13049DFF8E090DFF8E0B02846FEF749
:1027400053FE002411E017F804A002F077F950447A
:102750005946437813F0970F14BF52462E2228464D
:102760000134FEF741FE082C08D0A642494628460F
:10277000E9D80134FEF738FE082CF6D198F8083075
:10278000052B02D098F80930A3B91B492846FEF75B
:102790002BFE2846FEF71CFE9DF80C302B7305B06F
:1027A000BDE8F08F013459462846FEF71DFE082C7F
:1027B000B5D1BEE7114A12492846FEF715FEE4E7F7
:1027C0000E4A00920F49104A2846FEF70DFE8BE78D
:1027D000B8F80400FFF7DEFC0C4B094953F8202041
:1027E0002846FEF701FE98F8081085E760710000A2
:1027F000507100001C7100005C7100004471000009
:102800004C7100002C71000024710000EC7000007D
:102810001871000010710000587100002071000054
:1028200010B5054CFFF732FA20460421FFF764FE8D
:102830000123637210BD00BFA8000020F0B595B061
:10284000002415460F4608461E46FFF75FFB384634
:1028500023460822089505A91A9D09960D950A9404
:102860008DF82C400C94FFF7A5FB9DF814300798C9
:1028700006998DF8114003F00302012A029003919A
:1028800028D0022A04D03846FFF744FB15B0F0BD2B
:10289000BDF81650C3F3C2038DF81030C5F3891587
:1028A0000826082D2C4628BF0824334622460EA9A8
:1028B0003846FFF77FFB2D1B214608AB02AA0EA866
:1028C0002644FFF7FFFE002DEBD13846FFF722FB31
:1028D00015B0F0BDBDF81460059DC6F38316C3F3B3
:1028E000C204B2000EA9384608238DF81040C5F383
:1028F0009525FFF75FFB08AB0093324628460EA9EB
:1029000002ABFFF739FEBEE701600B6843604A681F
:10291000934204BF00234360704700BF064A074B41
:1029200010B5002414701C60BFF35F8F0449054884
:10293000FFF7EAFF204610BD880C00208C0C002019
:10294000CC710000800C002008B50020FFF7E6F9EC
:10295000F1EE103A23F09F03E1EE103ABFF35F8FE0
:10296000054B4022C3F884210020FFF7DFF920BF88
:1029700040BF20BF08BD00BF00E100E04FF0805322
:10298000D3F8043103F47F43B3F5844F1DD04FF0E7
:102990008053D3F8043103F47F43B3F58A4F01D059
:1029A00000207047F0B52C4B2C4A5C7CD2F81C15EB
:1029B0002B4BD2F82005052C18BF4FF07F43194050
:1029C0000340994212D00020F0BD2449254AD1F895
:1029D000503623F00103C1F85036136823F080739A
:1029E00023F0010343F080731360D0E7D2F824355D
:1029F000D2F82415D2F82405D2F82475D2F8284547
:102A0000D2F82855D2F82865D2F828E5DBB2C1F310
:102A10000722934214D0C0F30740834210D0B3EB97
:102A2000176F0DD0E4B2A3420AD0C5F30725AB421D
:102A300006D0C6F30746B34202D0B3EB1E6FC2D135
:102A4000084A136823F0807323F0010343F0807376
:102A500013600020F0BD00BFB40000200010004053
:102A60000000FFFF741700402DE9F0413248334B5E
:102A70000268996A42F001020260002952D05A6A43
:102A80002F4801320224072A01F1FF31996288BFE1
:102A90000022C0F880405A62294C9A6A02262660B9
:102AA000002A3FD05A6A274FDFF8B0804FF48011D8
:102AB000C4F8001153F82210234B0A79C8F800100B
:102AC0000125053138461D6001F0DCFF1F4B204910
:102AD0002048DFF88CE040F21312C3F800221022E5
:102AE000C3F80423D8F800200D701178C0F800E076
:102AF000C3F82C151278184905FA02F2C97CC3F8FC
:102B000030250022C3F80815C3F80475C4F88061A5
:102B10002660C3F80421C3F80821C3F810211D6002
:102B2000BDE8F0810A49064B00204FF4801208707E
:102B3000C3F80021BDE8F081B00C0020F027002090
:102B400000E100E0542C0020B40C002000100040F4
:102B5000B80C0020E02C0020B4000020DC2C002069
:102B6000692A0000124BD3F8002132B1D3F80423B4
:102B7000D00744BF0022C3F800210D4BD3F80C212D
:102B800032B1D3F80423110744BF0022C3F80C214B
:102B9000074BD3F8102152B1D3F80423D20606D53F
:102BA0000021044AC3F81011136803B11847704795
:102BB00000100040E02C002000283AD0F8B58C4DE1
:102BC0002B78DBB18B4B8C4F8C4E8D498D4A8E4CC4
:102BD0004FF4705EC3F808E500233B704FF4801794
:102BE000C6F8807003260B624B628B62C2F8C83055
:102BF000C2F8CC30C2F8D030C4F80062834C844BA9
:102C000042681A6001461822204601F03BFF7E4AC6
:102C1000237A8048A17A00260660C2F80C15C2F813
:102C20001035042B00F2CB80DFE803F0B2C4C905F5
:102C3000C4000E207047784B49221A600127627A3F
:102C4000012A00F0AE800AD3022A40F0BC806E4B0D
:102C500072494FF6FF70C3F83C05C3F83815704B46
:102C6000A689587C684B6F49C3F83425421E41EA57
:102C70000242862E4FF00811C3F81415C3F8182528
:102C800040F29F80002F00F09C80674E5C48674FA9
:102C90005C4A67494FF0E73EC3F81CE54FF0433EFE
:102CA000C3F820E5C3F8247506F18707476006F5E9
:102CB0008777876006F29517C76006F50777076183
:102CC00006F2A327476106F22A37876106F2B13779
:102CD000C761C3F828150027564B5749C2F8C8707A
:102CE000C2F8CC70C2F8D070066007624762876293
:102CF000043A42F8043F87338B42FAD1607C4F4953
:102D0000A27C3C4B3D4E3C4F4FF0040EC1F810E509
:102D1000440140F2022E0020C1F80805C1F800E28B
:102D2000DFF820E1C3F860E5C3F86415A1F50E41B2
:102D3000FC39C3F8681501F50F41C3F86C1501F5AE
:102D40009E71C3F87015A1F511413039C3F874159F
:102D500001F511413431C3F8781552012A49C3F8FD
:102D60007C15E4B2D2B24FF4801E01214FF08053A3
:102D700086F8014386F81423C6F800E038702970FD
:102D8000D3F8043103F47F43B3F58A4F2AD0F8BD5A
:102D9000214B40221A60627A012A4FF001077FF42A
:102DA00052AF194BFF2040F20711C3F83C05C3F89E
:102DB000381554E7184B30221A6001273FE70027E7
:102DC0003DE70720F8BD164A164B527C0E49013AE2
:102DD00043EA02434FF00812C1F81425C1F8183530
:102DE0000720F8BD164A136843F480631360F8BDEA
:102DF000A80C002000F00140B80C002000E100E029
:102E0000F0270020BC0C002000100040900C002097
:102E1000AC0C0020B00C0020D82C002021100100A8
:102E2000B4000020820000011C280020E743C323D7
:102E3000A363E313900D0020EE27002000A00040C4
:102E40003C1700400011004070B5194B194A1B781F
:102E5000126882B001928BB1174B1849184D0222AB
:102E6000C3F8802000260C680E601A602B682BB116
:102E7000E10716D4A2070BD4630701D402B070BDDA
:102E800002A8022300F8083D2B68984702B070BDE5
:102E900002A8012300F8083D2B6898476307EDD589
:102EA000EEE702A800F8086D9847A207E4D5EFE71F
:102EB000A80C0020B40C002000E100E0B00C0020C1
:102EC000AC0C0020434B1B780BB908207047C0B1F5
:102ED0000279531EDBB2812B01D9092070472DE9FD
:102EE000F0473D4C23782BB9E37C934202D2092072
:102EF000BDE8F087394DAB6A072B04D90420BDE843
:102F0000F0870E2070470378072B02D90720BDE811
:102F1000F087334A2B6A324E01460220C2F8800005
:102F200055F82300872201F0ADFD2B6A207C013388
:102F3000072B88BF00232B62AB6A02270133AB62E9
:102F4000376030B9DFF8A89099F800401CB1BDE8AF
:102F5000F0870020FBE76B6ADFF8988055F82310B4
:102F6000DFF894A01F4B0A79CAF80010012505313B
:102F700040461D6001F086FD1B4BDFF880E0DFF866
:102F800080C01A4940F21312C3F800221022C3F87D
:102F90000423DAF8002089F800501078CEF800C039
:102FA000C3F82C051278C97C05FA02F2C3F8302563
:102FB000C3F80815C3F80485C6F880713760C3F8F4
:102FC0000441C3F80841C3F810411D602046BDE824
:102FD000F08700BFA80C0020900C0020F0270020F4
:102FE00000E100E0B40C002000100040B40000201C
:102FF000B80C0020542C0020DC2C0020E02C0020F9
:10300000692A0000074B1B780BB908207047064B54
:10301000064A00200221C2F88010986211601862EE
:1030200058627047A80C0020F027002000E100E063
:10303000F8B54D4B1B780BB11120F8BD002800F0FE
:1030400090804FF08053494CD3F8043103F47F4310
:10305000B3F5844F1ED001460422444801F012FD0E
:10306000236893FAA3F3424A4FF08051C2F81C350B
:10307000D1F8043103F47F43B3F5844F61D04FF0AE
:103080008053D3F8043103F47F43B3F58A4F14D04F
:103090000020F8BD617C374A0368052918BF4FF04E
:1030A0007F4293FAA3F31A42D5D1314BD3F824359A
:1030B00013F0FF0FCFD10720F8BD2D4A647C2D4BB4
:1030C000D2F81C15D2F82005052C18BF4FF07F430D
:1030D000194003409942DBD1D2F82435D2F82415A7
:1030E000D2F82405D2F82475D2F82845D2F828550C
:1030F000D2F82865D2F828E5DBB2C1F30722934263
:1031000014D0C0F30740834210D0B3EB176F0DD03B
:10311000E4B2A3420AD0C5F30725AB4206D0C6F3FA
:103120000746B34202D0B3EB1E6FB1D1124A136807
:1031300023F0807323F0010343F0807313600020B9
:10314000F8BDD2F850360C4923F00103C2F85036CE
:103150000B6823F0807323F0010343F080730B604E
:103160008DE70E20F8BD00BFB80C0020B400002091
:10317000001000400000FFFF74170040F8B55C4BE2
:103180001B780BB11120F8BD00283BD04FF08053C5
:10319000584CD3F8043103F47F43B3F5844F1ED069
:1031A00001460422544801F06DFC636893FAA3F3CE
:1031B000524A4FF08051C2F82035D1F8043103F45F
:1031C0007F43B3F5844F63D04FF08053D3F804317D
:1031D00003F47F43B3F58A4F16D00020F8BD617C1D
:1031E000474A0368052918BF4FF07F4293FAA3F3BB
:1031F0001A42D5D1414BD3F8242512F47F4F57D131
:103200000720F8BD0E20F8BD3C4A647C3C4BD2F848
:103210001C15D2F82005052C18BF4FF07F4319402C
:1032200003409942D9D1D2F82435D2F82415D2F8E6
:103230002405D2F82475D2F82845D2F82855D2F8BA
:103240002865D2F828E5DBB2C1F30722934214D0F7
:10325000C0F30740834210D0B3EB176F0DD0E4B238
:10326000A3420AD0C5F30725AB4206D0C6F30746F2
:10327000B34202D0B3EB1E6FAFD1224A136823F0E2
:10328000807323F0010343F0807313600020F8BDC6
:10329000D2F850361B4923F00103C2F850360B68B0
:1032A00023F0807323F0010343F080730B608BE7FE
:1032B000D3F8242512F47F0FA2D0D3F8242512F0DE
:1032C0007F4F9DD0D3F8282512F07F4F98D0D3F8A8
:1032D000282512F47F0F93D0D3F8282512F47F4FBE
:1032E0008ED0D3F8283513F0FF0F89D058E700BFF0
:1032F000B80C0020B4000020B800002000100040EE
:103300000000FFFF7417004038B5384B1B780BB135
:10331000112038BD50B3082901D9072038BD4FF01E
:103320008053334DD3F8043103F47F43B3F5844F16
:103330001ED00C46224601462E4801F0A3FBC4F1E4
:103340000802FF231341AB742C74AB6893FAA3F308
:10335000294A1BBAC2F82435EB6893FAA3F31BBAC7
:10336000C2F82835BDE83840FFF708BB0E2038BD4D
:103370006A7C224B052A18BF4FF07F43002930D0CA
:103380001D4AD2F81C25134202D10278002AC4D06B
:10339000194AD2F820251342CBD10129C9D043784C
:1033A000002BBAD00229C4D08378002BB5D00329D2
:1033B000BFD0C378002BB0D00429BAD00379002B3A
:1033C000ABD00529B5D04379002BA6D00629B0D0C3
:1033D0008379002BA1D00829ABD1C379002BA8D1C8
:1033E0009BE7054BD3F82035A3E700BFB80C0020BE
:1033F000B4000020BC000020001000400000FFFFCF
:10340000074B1B7813B1112318467047642802D963
:10341000072318467047034AD0741846704700BF08
:10342000B80C0020B4000020074BD3F8402132B183
:103430000021064AC3F840111378032B00D07047CF
:10344000034B01221A61704700A00140B80C002014
:1034500000100040F0B585B0057804790D4A0E4B98
:10346000477986688DF800508DF80440C568046976
:103470004069039053F821308DF805708DF806608F
:103480008DF80750029452F821106846984705B00D
:10349000F0BD00BFE42C0020EC2C00202DE9F04F03
:1034A000824690F80090384D384845F829300C464F
:1034B000497B40F8292081B0934669B9344ABBF171
:1034C000000F4B4621460AF1040008BF002201B05C
:1034D000BDE8F04F00F0E2BB23682E4A4FF0A04554
:1034E00003F5E07340F20C6145F82310636803F5BF
:1034F000E073012745F82310236807FA03F3C5F8A2
:103500000835636807FA03F3C5F80835236803F53F
:10351000E07340F20D6145F82310636803F5E07332
:1035200042EA070845F823104FF48070C047002690
:103530006268D5F81035D340DB074FF4807020D493
:10354000236807FA03F3C5F80C35C047236807FA68
:1035500003F30136C5F808354FF48070C047092ED3
:10356000E6D1626801254FF0A04605FA02F2C6F8DE
:103570000C254FF48070C04763689D40C6F808551D
:103580009CE7002EEED199E7E42C0020EC2C0020E3
:1035900055340000F071000010B568B101280AD15F
:1035A0000C4C2369A07033B10CCB012022619847E9
:1035B0002369002BF8D110BD064CA368012262706C
:1035C000002BF8D00CCB0020A2609847A368002BFA
:1035D000F8D110BDF42C002010B50B4C237882B02C
:1035E00013B1852002B010BD08486360A360236159
:1035F000E36000F0C3FD019000F0CEFD01980123CF
:10360000237002B010BD00BFF42C002099350000DB
:1036100038B5154DAB78044673B110B1436801203D
:1036200098470020FEF77AFBEB680133EB6000203F
:10363000BDE83840FEF77ABB03F0FF00FEF76EFBF3
:1036400064B12A6942B1944208D0134601E09C4219
:1036500004D01B68002BFAD122602C61EB68002B90
:10366000E2D100F0ADFDDFE7F42C00204FF0804305
:10367000D3F81804C0F30040704700BF38B5154DAB
:103680006B78044673B110B143680020984700205E
:10369000FEF744FB6B6801336B600020BDE83840E7
:1036A000FEF744BB03F0FF00FEF738FB64B1AA68E5
:1036B00042B1944208D0134601E09C4204D01B68FA
:1036C000002BFAD12260AC606B68002BE2D100F0D5
:1036D000A7FDDFE7F42C002038B5084C0020FEF7EA
:1036E0001DFB6368013B6360656815B900F0AAFDC6
:1036F00065700020BDE83840FEF718BBF42C0020B0
:103700004FF08043D3F80C0400F00110A0F1011039
:10371000B0FA80F040097047F0B4B44B1A78062A2A
:1037200020D0B34B1B68062B00F08A80B14AD2F838
:10373000883043F47003C2F88830BFF34F8FBFF373
:103740006F8F4FF01023D3F80022002AC0F28A8135
:10375000D3F80432002BC0F28581A74BA74A1A6028
:10376000F0BC704704331B681807DAD1A44B1B6800
:1037700003F0F002302A00F0658103F0E003402BF3
:1037800000F060819E4B1B6803F0F003302B00F0CB
:103790001E819B4B1B6803F0F002302A00F007816A
:1037A00003F0E003402B00F00281954B1B6803F00F
:1037B000F003302B00F0EB80914B1B6803F0F0021C
:1037C000302A00F0D08003F0E003402B00F0CB80E3
:1037D0008B4B1B6803F0F003302B00F0B680884B56
:1037E0001B6803F0F003302B00F09880844B1B68BB
:1037F00003F0F003502B3FD0814B1B6803F0F00225
:10380000302A28D003F0E003402B24D07C4B1B68E7
:1038100003F0F002302A03D003F0E003402B80D104
:103820004FF08043D3F80024D2077FF57AAF6FF0D2
:103830000102C3F800246E4B1B68062B7FF476AFA1
:10384000704B1B68062B7FF471AF6F4A136843F40B
:10385000806313606AE76D4B6D4A1B6803F04F038A
:103860001360624B1B78062B7FF45BAF694B1B68C0
:1038700018077FF456AFC9E74FF08052664BD2F875
:103880000414C3F82015D2F80814C3F82415D2F88C
:103890000C14C3F82815D2F81014C3F82C15D2F85C
:1038A0001414C3F83015D2F81814C3F83415D2F82C
:1038B0001C14C3F84015D2F82014C3F84415D2F8EC
:1038C0002414C3F84815D2F82814C3F84C15D2F8BC
:1038D0002C14C3F85015D2F83014C3F85415D2F88C
:1038E0003414C3F86015D2F83814C3F86415D2F84C
:1038F0003C14C3F86815D2F840143C48C3F86C1562
:10390000D2F844140278C3F87015062A7FF409AF80
:10391000404B1B681C077FF404AF6DE73F4E404CE3
:103920004049414B0527012500203F223760256093
:1039300008601A602D4B1B78062B7FF4F2AE354BD6
:103940001B681D077FF4EDAE50E7284B374A1B7804
:103950000321062B11607FF4E4AE2E4B1B681E077B
:103960007FF4DFAE3BE74FF080430022C3F80C2129
:10397000C3F81021C3F838251C4B1B78062B7FF4A5
:1039800070AF244B1B681F077FF4CBAE20E728499C
:10399000164ACB68127823F08073062ACB607FF436
:1039A000C0AE1C4B1B681B077FF4BBAE04E7214B6A
:1039B0000E4A1B6812782049C3F34233062A0B6073
:1039C000B8D1144B1B681A077FF4ABAEEDE6074B7A
:1039D0001A4A1B781A491160062B7FF4A2AE0D4BD0
:1039E0001B6819077FF49DAED3E600BFE00F00F01F
:1039F0003001001000ED00E0C80000200090D0036E
:103A0000E80F00F0340100103C170040580200108D
:103A1000E40E0040E40F00F000C0004010560040EB
:103A2000885600401856004014560040A00500403B
:103A3000F0ED00E0440200103C05004074C0074077
:103A40000DF0ADBA204B214A1B6812782049C3F310
:103A50000423062A0B608FD11E4B1B6819073FF405
:103A600091AE5EE61C4B0122C3F80425D3F8002476
:103A7000002AFBD04FF0102315221749C3F800226B
:103A8000D1F80034002BFBD04FF010221521124B3F
:103A9000C2F80412D3F80024002AFBD000220E49F9
:103AA000C3F80425D1F80034002BFBD0BFF34F8FAF
:103AB0000A490B4BCA6802F4E0621343CB60BFF3C0
:103AC0004F8F00BFFDE700BF24030010E00F00F0A0
:103AD00040350140E40F00F000E0014000ED00E05F
:103AE0000400FA050649074A074B9B1A03DD043B0D
:103AF000C858D050FBDCFFF70FFEFCF7B7FB000007
:103B0000CC73000000000020AC060020FEE7FEE7BA
:103B1000FEE7FEE7FEE7FEE7FEE7FEE7FEE7FEE77D
:103B2000F0B55B4BD3F824218DB0BAB10022C3F8B5
:103B30002421D3F824210592059AD3F804216AB9E7
:103B4000544A02219068C3F8080391609268C3F850
:103B5000042301221A625A610DB0F0BD4C4C4D4D48
:103B6000D4F80431002B2FD00023C4F8043105F120
:103B70000C070FCF07AED4F804E13F68CDF810E092
:103B80000FC695F82E30049A3760002B36D02B7B69
:103B9000012B79D0D4F84C250892022B71D03C4BE4
:103BA000D3F84C253A4B09920022C3F86021D3F890
:103BB000601102910299C3F85C21D3F85C31039340
:103BC000039B95F8302028E0C4F84831D4F8482108
:103BD0002B7B0192019A002B3AD105F10C070FCFF4
:103BE00007AE0FC695F830203B683360EAB92A4B20
:103BF000C4F80022AA60C4F8083316E0C4F86031A3
:103C0000D4F860210292029AC4F85C31D4F85C3195
:103C100095F830200393039B3AB91D4B1E480021B1
:103C2000C3F80012A960C3F808031949D1F8C434D5
:103C3000C1F8C43499071DD501238DF818300AB98D
:103C400085F82F202B68696806A898470DB0F0BD4D
:103C50004FF4007140F202220F4BC4F80012AA6028
:103C6000C4F80833AB68C4F804330123A3602362AB
:103C70000DB0F0BD13F0040318BF02238DF8183007
:103C8000DDE7D4F83C258DE7D4F83C35089386E78A
:103C900000300040082D002002029C012DE9F84F61
:103CA0000779DFF8FC80342404FB07F408EB0405F3
:103CB00095F82D6016B10820BDE8F88F8A46834636
:103CC000354900689946164600F056FE10B111209D
:103CD000BDE8F88F48F80460A860C5F8049085F83E
:103CE0002F0085F830009AF80D3085F83230DAF878
:103CF00000304FF0A04203F5E07340F20C6142F84F
:103D00002310DAF8043003F5E07342F82310DBF8EF
:103D10000030DAF80020DAF80410C3F80825C3F8F8
:103D20000C15DAF80820C3F8242526B3DBF80010B8
:103D30009AF80C30090B4AB2002A24DB02F16042E7
:103D400002F561425B01DBB282F80033DBF8002050
:103D5000120B42F3C40323F0604323F0030303F187
:103D6000604303F5614302F01F02012101FA02F2F0
:103D7000C3F880211A60342303FB0783012283F8F0
:103D80002D20BDE8F88F054A01F00F015B010A44C0
:103D9000DBB21376DAE700BF213B0000FCEC00E069
:103DA000082D0020F8B50579264E342303FB05F3D2
:103DB0000446F358002B42D0036823481B0B5AB229
:103DC0005209203203F01F03012101FA03F340F8E6
:103DD0002230227923681D49342707FB0262002024
:103DE0009060C3F80813D3F800124FF0010E21F4CD
:103DF000BC51C3F8001282F82DE0C3F8000507FBA0
:103E00000567206800F0D6FD97F8323083B9236843
:103E1000D3F808354FF0A04203F5E073022142F8D1
:103E200023102368D3F80C3503F5E07342F8231010
:103E3000342303FB0565002385F82D30F8BD2A46A1
:103E4000C8E700BF082D002000E100E002029C014D
:103E5000037906490268342000FB0313022006217F
:103E600083F82D00C2F80015704700BF082D002010
:103E700010B40C4C027903680B49342000FB024259
:103E800000209060C3F80813D3F80012012421F435
:103E9000BC51C3F8001282F82D40C3F800055DF84C
:103EA000044B7047082D002002029C012DE9F04FC1
:103EB0008DB015469DF85840002C02F060444FF03C
:103EC00000020CBF94464FF0200CB4F1005F089242
:103ED000079209920A920B9203D010200DB0BDE810
:103EE000F08F90F804B0DFF844A106684FF0340872
:103EF0001F4608FB0BA84B4BC6F8083398F82F3029
:103F000003F0FF093BB1D8F80830C6F8043311209C
:103F10000DB0BDE8F08F8DF81D1008970A9507AC1D
:103F20008E460FCC01944FF0010488F82F40C6F85C
:103F300088E5C6F80491D6F804E1CDF810E008F160
:103F40000C0EAEE80F00049BC6F82491D6F824317D
:103F50000593019B059A1B68C6F8509588F8309028
:103F6000C6F84095CEF80030C6F84455C6F84875F6
:103F7000BCF1000F18D14FF4007240F20223C6F8D2
:103F800000224FF48271C8F808303423012203FB69
:103F90000BF33262B2605AF803005344A0B19B683D
:103FA000C6F80433002099E71F4B4FF48072C6F81F
:103FB0000022C8F80830C6F84891D6F84831039373
:103FC000039B4FF4A471E0E71046314402E0D6F8B9
:103FD0002421D2B90B68002BF9D0342303FB0BAAA0
:103FE000D6F8C434C6F8C43400228AF82F20BBB1F6
:103FF00013F0020F48F2012048F2022208BF03200A
:1040000013F0040F18BF104668E7C6F82431D6F83D
:1040100024310693069B30624FF482717061D4E7BD
:1040200018465BE702029C0100020400082D0020F4
:104030002DE9F04F02F060448BB01646B4F1005FFA
:104040004FF000020692059207920892099203D05F
:1040500010200BB0BDE8F08F90F804B0DFF818A185
:1040600007684FF0340808FB0BF89E460AEB080976
:10407000404BC7F8083399F82F3003F0FF053BB1E8
:10408000D9F80830C7F8043311200BB0BDE8F08F21
:104090004FF001038DF81510CDF818E008968DF853
:1040A000143005AC8C460FCC01944FF0010489F814
:1040B0002F40C7F888C5C7F80451D7F804C1CDF818
:1040C00008C009F10C0CACE80F00029BC7F82451A2
:1040D000D7F824310393019B03981968C7F850550A
:1040E00040F202234FF48052C7F8405589F830500F
:1040F000C7F83465CCF80010C7F838E5C7F80022D7
:10410000C9F8083001233B623B605AF808302BB1F4
:10411000D9F80830C7F8043328469AE7012302E0AB
:10412000D7F82411D9B9D7F80421002AF8D03423BC
:1041300003FB0BAAD7F8C434C7F8C43400228AF8AA
:104140002F20ABB113F0020F48F2012048F20222F7
:1041500008BF032013F0040F18BF104679E7C7F813
:104160002421D7F824210492049A3B627B61DAE788
:1041700018466EE702029C01082D0020054A1379BB
:104180000BB18520704701211060537118461171E1
:10419000704700BF3C2D0020084A136813F001034C
:1041A00005D1012182F80033C2F8801111604FF06F
:1041B00080430122C3F81825704700BF00E100E0EA
:1041C00010B41349134B144A0020086083B00968E7
:1041D00001914FF080410220019CC1F80403D8688E
:1041E00040F08071D960146844F001031360516895
:1041F00053685B1AB3F50A5FFAD30649074B14609C
:104200000122C8601A6003B05DF8044B704700BF1C
:1042100004010040F0ED00E0001000E00800004064
:10422000074B00221A6082B01B68019301994FF07E
:1042300080430122C3F804231A6002B0704700BF14
:1042400000010040074B01221A604FF08042D2F873
:104250000C3403F00113B3F1011FF8D0024B00221C
:104260005A717047040000403C2D002010B5144BDB
:104270001A6882B062B10021124A19601B68507935
:1042800000934FF080410123009CC1F8083390B1A6
:104290000D4B1A686AB100221A601B6801934FF037
:1042A00080420221074B0198C2F808131B680120C5
:1042B000984702B010BD116853718847E8E700BF06
:1042C000000100403C2D00200401004070B44379FF
:1042D0001F4C204E03EB430546F82320655D15B1C6
:1042E000082070BC704790F904308A78002B27DBD7
:1042F00003F1604303F561435201D2B283F8002316
:1043000090F9042053099B0003F1604303F56143D6
:10431000012502F01F0205FA02F2C3F880211A609B
:1043200003680A88C3F8082543790879C97803EB3C
:104330004303E218E55450709170002070BC704740
:10434000054D03F00F0352011D44D2B22A76D7E780
:10435000442D0020482D0020FCEC00E00368044AB6
:1043600001211960437903EB43030221D1547047C3
:10437000442D0020F0B54FF480350468214E8D4067
:10438000C4F848530468C4F80853447904EB44045F
:10439000344483B0647822F07F42D4B1046801F5DC
:1043A000A87744F827200468D4F804E5AEEB0207A8
:1043B0007245427902EB4202164488BF07F1FF17AB
:1043C000B27888BF07F57F47974208DA0D2003B01F
:1043D000F0BD046801F5A87644F82620046823B9E6
:1043E0000020C4F8445303B0F0BD5031890089B2B5
:1043F00000236350625803680192019AC3F8045382
:104400000468EDE7442D002010B403680022C3F8CF
:10441000002183B0D3F80031026801930123019C8D
:10442000C2F8443311B10268C2F8043303B05DF836
:10443000044B704710B53B4BD3F80423D20384B030
:1044400003D5394A116800293CD1364BD3F80423EF
:10445000940303D5354A1168002942D1314BD3F872
:104460000423500303D5324A1168002949D12D4B4A
:10447000D3F80423D10702D5D3F80021B2B9294BD0
:10448000D3F80423920702D5D3F804210AB904B063
:1044900010BD0022C3F80421264AD3F80431019349
:1044A00005201368019A984704B010BD0022C3F894
:1044B0000021204AD3F80031029304201368029AA5
:1044C0009847DCE74FF480310020C3F84813194CBB
:1044D000C3F808131060136803932368039A98477E
:1044E000B3E74FF400310024C3F848131148C3F870
:1044F00008131460136803930368039A0120984714
:10450000ACE74FF480210024C3F848130948C3F8EE
:1045100008131460136803930368039A02209847F2
:10452000A5E700BF00B0004040B1004044B10040EA
:1045300048B10040482D00202DE9F041684B1A6831
:1045400088B0002A3CD1674F97F82E30002B45D118
:10455000654B1A68002A5ED1644B1C68002C6AD136
:104560007E699EB14FF000480125B6FA86F29300AD
:1045700003F58C7303F1804101F5E04128FA02F262
:10458000086826EA020620B9002EEED108B0BDE880
:10459000F081A3F58C730C6083F004020968049128
:1045A000C2F38002DB088DF819208DF818308DF8E1
:1045B00014503B68049A05A89847002ED5D1E5E72A
:1045C0000022484F1A60196897F82E300091009920
:1045D000002B39D097F82F30002B4ED1444B1A685E
:1045E000002AB5D000221A6097F82D0019687B8B3D
:1045F000019184B2A34201994ED85FD0384B3D4A15
:10460000002119601B680293012302991360364B45
:104610001A68002AA0D000221A6008A81B68039319
:10462000022100F80C1D3B6803993A7498472F4B00
:104630001C68002C94D000221A601B680593059B0F
:104640003A7408B0BDE8F081FA68786839898DF865
:1046500014300690ADF81C10002A2CD02648398B57
:104660007A600122FB607983398102603B6805A88A
:104670009847002387F82F3066E7FB687868398908
:104680008DF814200690ADF81C10A3B1398B7B6017
:10469000FA6079833981E9E73A897968164D1B1BFD
:1046A0009BB292B2D21A01EB42027B83C5F82C2650
:1046B000C5F83006A2E700233B74D7E7FB684BB18F
:1046C0000D497A83012287F82F20C1F82C36C1F8D2
:1046D000300693E701227B8387F82F208EE700BF07
:1046E000047100404C2D00201071004014710040F6
:1046F000007100400470004000700040214B93F8AE
:104700002C200AB108207047F0B51F4C05781960BD
:10471000C4F8F05545781D49C4F8F4556FF00045CC
:104720001A74C678C4F8085383B00A600968184D33
:10473000019101992A60817883F82E602D681548CF
:104740000095490183F82D205A6183F82F20802598
:10475000C9B202270122F6B2DDF800E083F82C206E
:1047600080F80713C0F880510560C4F804730EB1D7
:10477000C4F80423044B01220020C3F8002503B031
:10478000F0BD00BF4C2D00200070004004710040BF
:104790000071004000E100E0324A137C0BB11120AF
:1047A0007047F0B50C79012C55D900F10C0502EBDE
:1047B00045031B79002B43D04B788E780F7891F806
:1047C00003E01B01360206F4E06603F030033343D6
:1047D00007F003064F794FEA0E3E33430EF4805E36
:1047E0008E793F0507F4801743EA0E033B433606F4
:1047F0001D4F06F08076240402EB450204F4E02409
:10480000334307EB00150001CE791671234300F105
:1048100080400C7A547100F5E040C5F81835CB792A
:104820000A7AC0F81425C0F81035CB790A7AC0F896
:104830001425C0F810350B79012B07D90020F0BDE5
:1048400092F82D30013382F82D30B5E70123C7F8F7
:1048500000350020F0BD03F0FF05034BC3F8005501
:104860000C79A2E74C2D002000700040F0B42C4AD7
:104870002C4B1224C2F808431D7C022D82B01CD0A0
:104880001C7C012C1FD093F82E4058600227012574
:104890000026C2F804731D74DE601981E4B9224B4E
:1048A000C2F82C06C2F830161C601B680193019BED
:1048B0001560204602B0F0BC70471120C2F80443D6
:1048C00002B0F0BC7047DC688CB102231120C2F842
:1048D000043302B0F0BC704793F82D40C2F82C06A8
:1048E00030465983C2F8304602B0F0BC704793F8A6
:1048F0002E20D86019836AB90B4A1368002BFCD0AC
:10490000002313601268064B0092009AC3F82C062D
:10491000C3F83016024B0222C3F804230020C9E773
:10492000007000404C2D002000710040084A137CAC
:10493000DBB2012B01D00820704792F82E0010B98D
:10494000044A13607047044A00201360704700BF98
:104950004C2D00200470004000700040024B187C79
:10496000003018BF012070474C2D0020014B1B6800
:10497000184700BF7C2D002038B50C4B984201D061
:10498000002038BD00200D46FDF7C8F9084B1C7902
:1049900024B10020FDF7CAF9112038BD01222046BC
:1049A0001D601A71FDF7C2F9204638BD0020004095
:1049B0007C2D0020034B984203D1034B00221A6048
:1049C0001A717047002000407C2D002008B500219E
:1049D000044600F03BFA044B1868C36B03B19847D8
:1049E000204600F02DFB00BF2072000070B50F4E76
:1049F0000F4D761BB61018BF002405D0013455F8B2
:104A0000043B9847A642F9D10A4E0B4D761B02F0A3
:104A1000B5FAB61018BF002406D0013455F8043B8F
:104A20009847A642F9D170BD70BD00BF6C0600204A
:104A30006C060020740600206C060020044B054A1A
:104A40001B685B6B002B08BF1346D3F8EC00704764
:104A5000CC000020F804002082B049B15AB16BB1FB
:104A600013780B601278101C18BF012002B0704739
:104A700001A9002AF3D1104602B070476FF001007F
:104A8000F4E700BF844641EA000313F003036DD14D
:104A9000403A41D351F8043B40F8043B51F8043B01
:104AA00040F8043B51F8043B40F8043B51F8043B08
:104AB00040F8043B51F8043B40F8043B51F8043BF8
:104AC00040F8043B51F8043B40F8043B51F8043BE8
:104AD00040F8043B51F8043B40F8043B51F8043BD8
:104AE00040F8043B51F8043B40F8043B51F8043BC8
:104AF00040F8043B51F8043B40F8043B51F8043BB8
:104B000040F8043B51F8043B40F8043B51F8043BA7
:104B100040F8043B403ABDD2303211D351F8043B47
:104B200040F8043B51F8043B40F8043B51F8043B87
:104B300040F8043B51F8043B40F8043B103AEDD2F6
:104B40000C3205D351F8043B40F8043B043AF9D247
:104B5000043208D0D2071CBF11F8013B00F8013B1A
:104B600001D30B8803806046704700BF082A13D327
:104B70008B078DD010F003038AD0C3F10403D21A3F
:104B8000DB071CBF11F8013B00F8013B80D331F873
:104B9000023B20F8023B7BE7043AD9D3013A11F8F3
:104BA000013B00F8013BF9D20B7803704B7843705E
:104BB0008B7883706046704770B4860746D0541E69
:104BC000002A41D0CAB2034602E014F1FF343BD3BD
:104BD00003F8012B9D07F8D1032C2ED9CDB245EA5D
:104BE00005250F2C45EA054519D903F11002264683
:104BF000103E0F2E42F8105C42F80C5C42F8085C44
:104C000042F8045C02F11002F2D8A4F1100222F082
:104C10000F0204F00F041032032C13440DD91E466A
:104C20002246043A032A46F8045BFAD8221F22F0EF
:104C300003020432134404F003042CB1C9B21C442F
:104C400003F8011B9C42FBD170BC7047144603461D
:104C5000C2E700BF80EA0102844612F0030F4FD181
:104C600011F0030F32D14DF8044D11F0040F51F83B
:104C7000043B0BD0A3F101329A4312F0803F04BFF2
:104C80004CF8043B51F8043B16D100BF51F8044BDB
:104C9000A3F101329A4312F0803FA4F101320BD10B
:104CA0004CF8043BA24312F0803F04BF51F8043B90
:104CB0004CF8044BEAD023460CF8013B13F0FF0FED
:104CC0004FEA3323F8D15DF8044B704711F0010F20
:104CD00006D011F8012B0CF8012B002A08BF7047F1
:104CE00011F0020FBFD031F8022B12F0FF0F16BFE8
:104CF0002CF8022B8CF8002012F47F4FB3D17047B0
:104D000011F8012B0CF8012B002AF9D1704700BFD4
:104D10000000000000000000000000000000000093
:104D20000000000000000000000000000000000083
:104D30000000000000000000000000000000000073
:104D400090F800F06DE9024520F007016FF0000CCB
:104D500010F0070491F820F040F049804FF0000473
:104D60006FF00700D1E9002391F840F000F108004E
:104D700082FA4CF2A4FA8CF283FA4CF3A2FA8CF386
:104D80004BBBD1E9022382FA4CF200F10800A4FAED
:104D90008CF283FA4CF3A2FA8CF3E3B9D1E9042341
:104DA00082FA4CF200F10800A4FA8CF283FA4CF378
:104DB000A2FA8CF37BB9D1E9062301F1200182FA32
:104DC0004CF200F10800A4FA8CF283FA4CF3A2FA38
:104DD0008CF3002BC6D0002A04BF04301A4612BA46
:104DE000B2FA82F2FDE8024500EBD2007047D1E949
:104DF000002304F00305C4F100004FEAC50514F0D8
:104E0000040F91F840F00CFA05F562EA05021CBFA8
:104E100063EA050362464FF00004A9E721B1FF2AC7
:104E200004D80A7001207047084670478A2303603F
:104E30004FF0FF30704700BF024B13B1024800F043
:104E400079B8704700000000414F00002DE9F04F95
:104E5000354B85B00E460190186800F08BF8334B47
:104E60001B68029303F5A4730393029BD3F8487164
:104E700037B3DDF80CA04FF00109D3467C68651EFE
:104E80000ED4013407EB84044FF00008FEB1D4F8CF
:104E900000319E421BD0013D6B1CA4F10404F5D1EE
:104EA000234B6BB17B68002B39D13B6843B138464B
:104EB000CBF80030AFF30080DBF80070002FDDD1BD
:104EC000194B186805B0BDE8F04F00F055B87B6885
:104ED0002268013BAB420CBF7D60C4F80080002A11
:104EE000D9D0D7F88811D7F804A009FA05F30B42F6
:104EF0000FD0D7F88C110B420DD1D4F88010019847
:104F000090477B685345B0D1DBF80030BB42C2D03C
:104F1000ABE79047F5E7D4F880009047F1E7BB4650
:104F20003F68002FAAD1CBE7640600202072000062
:104F300000000000002301461A46184600F01EB883
:104F400038B50A4C0A4D641BA4100AD004F1804302
:104F5000013B05EB8305013C55F804399847002CCB
:104F6000F9D1BDE8384002F00FB800BF7806002044
:104F700074060020704700BF704700BF2DE9F8435A
:104F80002C4D0646286898460F469146FFF7F2FFDB
:104F9000294B1C68D4F84831002B3ED05A681F2A90
:104FA0001CDC02F1010E76B103EB82010124C1F891
:104FB0008890D3F8880194402043022EC3F88801DA
:104FC000C1F8088123D00232C3F804E0286843F80E
:104FD0002270FFF7D1FF0020BDE8F883174B0BB319
:104FE0004FF4C870AFF300800346D8B1D4F848211D
:104FF0000260002141600A46C4F848014FF0010EEA
:10500000C0F88811C0F88C11002EDCD0CCE7D3F8A2
:105010008C110C43C3F88C41D5E704F5A673C4F892
:105020004831BBE72868FFF7A7FF4FF0FF30BDE826
:10503000F88300BF6406002020720000000000001A
:10504000FEE700BF00000000B0EE401AF0EE601A6C
:105050009FED010B00F004B80000000000000040CC
:105060002DE9F04F2DED028BDFF80CA38BB057EC40
:10507000106B55EC114B00F083F99AF90080B0EEFB
:10508000408AF0EE608AB8F1FF3F34D022462B46CA
:105090002046294601F04CFD834660BB32463B4624
:1050A0003046394601F044FD8146002840F09F809B
:1050B000304639460022002301F008FD20B30022CB
:1050C00000232046294601F001FD8346002867D0D1
:1050D0009FED9F7B0122A44BCDF820900092CDE95B
:1050E0000267CDE904458DED067B0193B8F1000F11
:1050F00049D09FED998BB0EE480AF0EE680A0BB0EC
:10510000BDEC028BBDE8F08FB0EE480AF0EE680A05
:1051100000F07AFF8046002800F084804FF00008FD
:105120004FF0000951EC180B42464B4601F0CEFC03
:105130000028E0D047EC106B00F066FF0028DAD0C2
:1051400045EC104B00F060FF0028D4D09AF90030F5
:10515000854A019204210022022BCDE90267CDE9A4
:105160000445CDE906890091089203D0684600F015
:1051700053FF60B901F084F82223036007E09FED3C
:10518000747B8DED067B684600F046FF50B3089BAC
:105190001BB101F075F8089B03609DED068BAAE733
:1051A00045EC104B00F030FF0028A4D00022002373
:1051B0002046294601F094FC00289CD06A4A9AF9BE
:1051C0000030CDF820B00121CDE90267CDE90445DA
:1051D0008DE80600002BD2D064490020022BCDE9D7
:1051E0000601D0D101F04CF821230360CFE7002263
:1051F00000232046294601F069FC00283FF47BAFDC
:105200009FED558B584BCDF820B00122B8F1020F1D
:10521000CDE90267CDE904458DED068B8DE80C00E4
:10522000B1D168E747EC106B00F0EEFE00283FF4C8
:1052300075AF45EC104B00F0E7FE00283FF46EAF71
:1052400053EC182B18EE100A194601F071FC0028D7
:1052500061D103239AF900800093434B0890CDE974
:105260000267CDE904450193B8F1000F2DD1DFF8B5
:105270000C914FF060480022002330463946CDE9BA
:10528000068901F02DFC00283FF470AF0022384B56
:105290002046294601F0B2F904460D4645EC104B74
:1052A00000F0C6FE204653EC102B294601F00EFC00
:1052B00070BB304B9AF900804FF06042CDE9062375
:1052C000B8F1020F7FF452AF54E79FED257B002227
:1052D0000023304639468DED067B01F001FC0028A5
:1052E000EED00022224B2046294601F087F90446E1
:1052F0000D4645EC104B00F09BFE204653EC102B66
:10530000294601F0E3FB18B9184B0022CDE906232A
:105310009AF90080D4E7144B9AF90090CDF82080D8
:105320000122CDE90267CDE904458DE80C00B9F111
:10533000000F3FF424AF002200231046194601F06D
:1053400087FAB9F1020FCDE906013FF44BAF1AE736
:105350000000000000000000000000000000F03F1E
:10536000000000000000F07F347300000000F0FF38
:105370000000E03FFFFFEFC768060020FFFFEF4798
:105380002DE9F04F51EC110B21F0004858EA0004D0
:1053900093B03ED053EC102B714E23F00044B44236
:1053A00010EE10AA1D462DDC894611EE10EA28D019
:1053B000B04527DC6A4EB04500F08380002D1646CC
:1053C0001F46CDE90001C0F281804FF0000BBEF115
:1053D000000F2FD1624B984500F09580614B9845A6
:1053E00068D0B9F1804F00F0D1835F4B994521D14E
:1053F000002D1FDB47EC106B13B0BDE8F04F00F041
:105400002FBD6AB104F1404404F5801454EA0A0344
:1054100008D15449002041EC100B13B0BDE8F08FC7
:10542000A045C7DD514813B0BDE8F04F00F0F8BD0E
:105430004FF0000B47EC106B00F0DEFD51EC100B51
:10544000BAF1000F1AD124B1464B25F040429A42DE
:1054500014D1B9F1000FC0F2D383002DDBDA04F1CF
:10546000404404F5801454EA0B0300F0AF84BBF110
:10547000010FD0D101F100431946CCE7ED0F05F142
:10548000FF3A5BEA0A0353D0394B984576DD03F1C6
:105490000473984540F30684364B9C4253DDB9F1C2
:1054A000000F53DD2CA3D3E900231046194601F069
:1054B000A5F8B0E7B9F1000FC0F25A84304639467A
:1054C000A9E7BEF1000F3FF479AF9BE72A4B98455F
:1054D0002BDCA3F1547398457FF777AF4FEA28533D
:1054E000A3F2FF33142B40F35984C3F134032EFA93
:1054F00003F202FA03F39E457FF467AF02F0010264
:10550000C2F1020B63E704F1404303F5801353EA51
:105510000A033FF47EAF174B9C4240F33E83B9F140
:10552000000F13DBDDE9000175E74FF0020B4EE7DA
:1055300032463B461046194600F0ACFE02460B468A
:1055400001F086F967E7B9F1000FABDB002000211D
:1055500061E700BFAFF300809C7500883CE4377EB4
:105560000000F07F0000F03F0000E03F0472000008
:105570000000E041FFFFEF3FFFFF3F43B4F5801F16
:105580004FF0000205DAD64B01F038F86FF0340224
:105590000C462315D34EC4F31304A3F2FF33134474
:1055A00044F07F55B4421A460D9345F4401540F33C
:1055B0002E83CD4B9C4240F30D849FEDB37B8DED4C
:1055C000087B8DED0E7B9FEDB27B13468DED067B48
:1055D00001330D93A5F580154FF00008DDE9062392
:1055E0002946CDE90A0100F055FEDDE9062306460D
:1055F0000F46DDE90A0100F04FFE02460B4600208F
:10560000BA4901F025F903460C46CDE910340246AB
:105610000B463046394600F0F1FF6B1043F0005363
:1056200003F5002303EB08050A4600230146CDE9F4
:1056300002120293DDE902890024CDE904122B460F
:1056400022464046494600F0D9FF02460B46304606
:10565000394600F01FFEDDE9062306460F462046C8
:10566000294600F017FE02460B46DDE90A0100F06C
:1056700011FE42464B4600F0C1FF02460B46304643
:10568000394600F007FEDDE9102300F0B7FFDDE941
:105690000445CDE9060122462B462046294600F066
:1056A000ADFF7DA3D3E9002304460D4600F0A6FF1D
:1056B0007BA3D3E9002300F0EFFD22462B4600F048
:1056C0009DFF79A3D3E9002300F0E6FD22462B4697
:1056D00000F094FF76A3D3E9002300F0DDFD22461D
:1056E0002B4600F08BFF74A3D3E9002300F0D4FD18
:1056F00022462B4600F082FF71A3D3E9002300F07D
:10570000CBFD224606460F462B462046294600F092
:1057100075FF02460B463046394600F06FFF4246A1
:1057200004460D464B46DDE9040100F0B5FDDDE918
:10573000062300F063FF22462B4600F0ADFD4246F3
:1057400006460F464B464046494600F057FF0022AA
:10575000674BCDE90A0100F09FFD32463B4600F061
:105760009BFD02980D46044622462B46404649467C
:1057700000F044FF0022804689465D4B20462946C2
:1057800000F088FDDDE90A2300F084FD02460B46A7
:105790003046394600F07EFDDDE9042300F02EFF9F
:1057A000224606460F462B46DDE9060100F026FF9D
:1057B00002460B463046394600F06EFD06460F465F
:1057C00002460B4640464946CDE9048900F064FD97
:1057D00002983DA3D3E9002304460D4600F00EFFD6
:1057E000DDE90423804689462046294600F052FD23
:1057F00002460B463046394600F04CFD34A3D3E94F
:10580000002300F0FBFE34A3D3E9002306460F4635
:105810002046294600F0F2FE02460B463046394645
:1058200000F03AFDDDE90E2300F036FD06460D9846
:105830000F4600F07DFE324604460D463B4640468C
:10584000494600F029FDDDE9082300F025FD224648
:105850002B4600F021FD029822462B46CDE902019D
:1058600000F018FDDDE9082300F014FD42464B4628
:1058700000F010FD02460B463046394600F00AFDA6
:105880008046894636E000BF0000000000000000AE
:10589000000000000000F03FEF4E454A287ECA3F5E
:1058A00065DBC9934A86CD3F01411DA96074D13F94
:1058B0004D268F515555D53FFFAB6FDBB66DDB3FA6
:1058C000033333333333E33F000000E009C7EE3FD7
:1058D000FD033ADC09C7EE3FF5015B14E02F3EBE45
:1058E000000040438E98030079B60B000000F03FA3
:1058F000000008400BF1FF3353EA0A0300F07B81FC
:105900009FEDC97B8DED067BDDE900AB53465C4620
:10591000CDE9003400230093DDE9004550462246DE
:105920002B46594600F0B6FCDDE9022300F066FE86
:10593000524606460F465B464046494600F05EFE2C
:1059400002460B463046394600F0A6FC2246804609
:1059500089462B46DDE90201CDE9048900F04EFEBF
:105960000B46024606460F464046494600F094FC68
:10597000C74B994204460D468A4640F3188101F10F
:105980003F4303F5E003034340F0FA81A8A3D3E9C2
:105990000023DDE9040100F07FFC324680468946A1
:1059A0003B462046294600F075FC02460B46404621
:1059B000494601F0B3F8002840F0E281A8464FEADA
:1059C00028534FF48012A3F2FE3342FA03F35344F8
:1059D000C3F30A52AF4DA2F2FF321541C3F31304D1
:1059E00023EA05010020C2F1140B44F48014BAF13B
:1059F000000F02460B4644FA0BFB30463946B8BF4F
:105A0000CBF1000B00F046FC02460B4606460F4663
:105A1000DDE9040100F040FC4FEA0B5A0D4600247A
:105A200085A3D3E900232046294600F0E7FD32464E
:105A3000804689463B462046294600F02BFC02461C
:105A40000B46DDE9040100F025FC7DA3D3E900232A
:105A500000F0D4FD7CA3D3E9002306460F46204680
:105A6000294600F0CBFD02460B463046394600F091
:105A700013FC06460F4602460B464046494600F0D8
:105A80000BFC42464B4604460D4600F003FC024622
:105A90000B463046394600F0FDFB224680468946DB
:105AA0002B462046294600F0A9FD69A3D3E900232F
:105AB00006460F4600F0A2FD67A3D3E9002300F0DD
:105AC000E9FB32463B4600F099FD65A3D3E900238C
:105AD00000F0E2FB32463B4600F090FD62A3D3E9C2
