:1000000000000120752A00009D2A00009F2A0000A0
:10001000A12A0000A32A0000A52A00000000000079
:10002000000000000000000000000000A72A0000FF
:10003000A92A000000000000AB2A0000AD2A000041
:10004000FD310000F51A0000FD380000B12A000063
:10005000AF2A0000AF2A0000C5030000C934000029
:10006000AF2A0000AF2A0000AF2A0000C53300000D
:10007000AF2A0000AF2A0000AF2A0000AF2A00001C
:10008000AF2A0000AF2A0000AF2A0000AF2A00000C
:10009000D91D0000AF2A0000AF2A0000AF2A0000DF
:1000A000AF2A0000AF2A0000B9230000AF2A0000E9
:1000B000AF2A0000AF2A000000000000000000008E
:1000C000AF2A0000AF2A0000AF2A0000AF2A0000CC
:1000D000AF2A0000AF2A0000AF2A00000000000095
:1000E0000000000000000000000000000000000010
:1000F0000000000000000000000000000000000000
:1001000000000000000000000000000000000000EF
:1001100000000000000000000000000000000000DF
:1001200000000000000000000000000000000000CF
:1001300000000000000000000000000000000000BF
:1001400000000000000000000000000000000000AF
:10015000000000000000000000000000000000009F
:10016000000000000000000000000000000000008F
:10017000000000000000000000000000000000007F
:10018000000000000000000000000000000000006F
:10019000000000000000000000000000000000005F
:1001A000000000000000000000000000000000004F
:1001B000000000000000000000000000000000003F
:1001C000000000000000000000000000000000002F
:1001D000000000000000000000000000000000001F
:1001E000000000000000000000000000000000000F
:1001F00000000000000000000000000000000000FF
:1002000010B5054C237833B9044B13B10448AFF350
:1002100000800123237010BD0805002000000000AD
:10022000685D00000C4B43B10C480D4910B5AFF3AD
:1002300000800C48036823B910BD0A48036833B92D
:100240007047094B002BF7D0BDE810401847064B0C
:10025000002BF5D0184700BF00000000685D0000CB
:100260000C0500200405002000000000154B002BA9
:1002700008BF134B9D46A3F5803A00218B460F46DD
:100280001348144A121A03F03BFC0F4B002B00D00A
:1002900098470E4B002B00D0984700200021040007
:1002A0000D000D48002802D00C4803F0F5FC03F0C7
:1002B00065FB2000290000F0C3F803F04FFB00BFEE
:1002C0000000080000000120000000000000000005
:1002D00008050020B8260020993C0000A53C00003D
:1002E000704700BFF8B52F4B2F4A1B682F4C03F007
:1002F0004F0313604FF0A04500F010F900F08AF9A9
:1003000003221023C5F81027C5F808352168284BAB
:10031000481CA3FB0062120902EB8202B0EB820FC1
:1003200039D00531A3FB01231B0903EB8303B1EB98
:10033000830F2BD01F48204F01F0A4F91D4800F077
:1003400071FB00F0D1FF1D491D4B0020C1F87C015D
:1003500040224FF00046E020C3F88021C5F84077E6
:10036000C1F8046383F806031A604FF0A04310211C
:100370000222C3F80C15C3F8102723680133236049
:1003800000F032F9BDE8F84000F0D2B800F00AFA07
:1003900000F0D8F9E9E700F021FB00F09FFA00F047
:1003A000D1F9E2E758020010E40E004024050020D5
:1003B000CDCCCCCCF45C00000C000300006000400D
:1003C00000E100E070B51A4B1A4A1B6803F04F03B6
:1003D000136000F0A3F800F01DF9174A174B4021F5
:1003E000C2F88010D3F87C21E2B10022C3F87C214E
:1003F00001F01EF9044601F027F9054601F01EF947
:10040000064601F08BF901F0E3F9FCEEC07A3246C2
:100410002946204617EE903A00F008FA01F062F9FA
:1004200001F018F900F0E0F8BDE8704000F080B885
:1004300058020010E40E004000E100E000600040BF
:1004400008B51B4B1B4A1B6803F04F03136001F0F8
:100450002DFA38BB00234FF0A040022103F5E072D3
:100460000133202B40F82210F8D100F047F800F0BB
:1004700081FA0021104800F013F9B0B90F4800F0DC
:1004800093F80F4800F056F8032000F085F900F0CB
:1004900061F900F057F900F0A7F800F049F801F011
:1004A0001BFAFCE701F0BCF9D4E701F0B9F9E5E784
:1004B00058020010E40E0040E1020000F45C00006D
:1004C000E502000000B1704730B4084B084C094AFF
:1004D000094901254FF480302560C3F804031378DF
:1004E00009682B44137030BC084700BF00B00040BF
:1004F00008B00040000000202805002008B502F0E8
:1005000033F838B9002002F081F802F0C1F8002871
:10051000FBD008BD01F084F9F4E700BF08B5002066
:1005200002F074F802F0B4F80028FBD008BD00BF58
:1005300002F09AB810B5184B82B01860002002F093
:100540002FF802F05BF80028FBD0144B144A93E814
:10055000030002AB40F2FF74009023F8084DADF8A1
:1005600004101048194602F079FE88B900210D48A0
:1005700002F012FF0123102200210A4802F0C2FEFD
:1005800008B101F04DF9074802F0B0FE02B010BD0D
:1005900001F046F9EAE700BF28050020045D0000ED
:1005A000C50400000C5D0000F0B585B000231A25DD
:1005B0000C4C009519274FF0CC76022569461A4657
:1005C00003932060019702968DF80C5001F02EFFE6
:1005D00008B101F025F92068043002F001FC05B0F3
:1005E000F0BD00BF2C05002010B5084C2068043079
:1005F00002F006FC2068043002F09CFB044B002251
:100600001A60012219681A6010BD00BF2C05002075
:10061000FC3F0040F0B50F4C85B0002503952B46FC
:100620002A464FF01A0E19274FF0CC760225206883
:10063000CDF800E06946019702968DF80C5001F064
:10064000F5FE08B101F0ECF82068043002F0C8FBB8
:1006500005B0F0BD2C05002010B50478012C12D097
:100660000AD3022C0C4B02D101221A7010BD0122B8
:100670001A7001221A7010BD084A074B012111702F
:1006800001221A7010BD01F085FC044A024B14705F
:1006900001221A7010BD00BF300500203105002076
:1006A0002DE9F041224A234B234D244F5F6092E80D
:1006B000120086B008328046029192E8030001944D
:1006C000019AC5F8008004AC84E803004FF0030EE3
:1006D00000210226039208250122184683F808E02B
:1006E0005E72D98159701A751A70DD7401F02CFA96
:1006F00010B106B0BDE8F0810DEB050001F060FC23
:100700000028F6D103A801F001FD0028F1D1204610
:10071000294601F0C1FD0028EBD10E2001F038FE82
:100720000028E6D1064B1D7118705871E1E700BF33
:10073000145D000004000020380500205906000068
:100740001C000020024A1378002BFCD0704700BF29
:1007500030050020F0B50E4C85B000250123A370B4
:100760000399257005238227102604F10A002A46E2
:10077000237223716371A7716672E57103F026F924
:10078000044B20461D7005B0BDE8F04001F062BB8F
:100790001C00002030050020014B1870704700BF7E
:1007A00001000020F0B51C4D1C4B2A6819781C482C
:1007B0001C4C160E002366F30703160C66F30F237A
:1007C000160A83B066F3174362F31F630093D0F8F1
:1007D0000C358DF80430052741F0800301214FF0DE
:1007E000100E0026A3713A460A23A170E17104F1AC
:1007F0000A00694684F809E0237163712670277244
:1008000003F0E4F8084B20461E7001F023FB286833
:10081000431C2B6003B0F0BD340500200100002014
:10082000001000401C00002030050020F0B5284DCD
:10083000284C2D78012745F0800585B01026A5713C
:10084000A770B0250527E5712772051640FA06F74F
:100850008DF803008DF807108DF800508DF80170A9
:100860000D0E21FA06F70012090A8DF80B208DF8FB
:1008700002008DF80450100E22FA06F58DF805706E
:100880008DF806101F0E23FA06F1120A8DF80F30AC
:100890008DF808001B0A8DF809508DF80A200025F4
:1008A00032468DF80C708DF80D101527694604F14D
:1008B0000A008DF80E30257066722771677103F09B
:1008C00085F8054B20461D7001F0C4FA05B0F0BD57
:1008D000010000201C00002030050020F0B5144B62
:1008E000144C1B7883B00226020A43F080030521D2
:1008F0004FF0010E8DF805008DF804200025A3713E
:10090000324607232172102701A904F10A0084F856
:1009100002E02371637167722570E67103F056F887
:10092000054B20461D7001F095FA03B0F0BD00BFE5
:10093000010000201C0000203005002003788BB946
:1009400043680A4AB3F9003003EB8303C3EB031394
:10095000DB0048BF03F2FF339B1203EB43035B0052
:1009600046331380024B01221A707047A400002006
:100970003E05002000B51449144885B002F086FEFB
:10098000F8B9134B93E8070001AB03C301A900209A
:100990001A7002F0C9FE08B100F042FF0D4B0E487C
:1009A000002201211A7002F029FF38B902F086FFF7
:1009B00008B100F035FF05B05DF804FB00F030FF32
:1009C000F4E700F02DFFDCE73D090000305D00009A
:1009D000245D00003E0500203C05002038B50E4C8B
:1009E000237803B9FEE70D4B1D8802F07FFF034615
:1009F00008B1284638BD01210948237002F0FEFEE7
:100A000038B902F05BFF0028F3D000F009FF284658
:100A100038BD00F005FFF4E73E050020A4000020EB
:100A20003C05002070B58CB00CAAD02302F8233D01
:100A3000124C01230546009304307621256002F014
:100A4000FDF9C0B920680DF12F0204300123762191
:100A500002F0B6FA60B99DF82F30094D0022602BE4
:100A60002A700FD0002B0CBF202008200CB070BDC6
:100A700000F0D6FEEFE700F0D3FEE3E740050020EC
:100A8000502600200CAA20680126882302F8023D87
:100A900004300096334676212E7002F0CFF90028FC
:100AA00040F01E842068012304300DF12F027621CE
:100AB00002F086FA08B100F0B3FE0CAA892302F80E
:100AC000033D20689DF82F30AB8201230430009352
:100AD000762102F0B3F9002840F0FE83206801235C
:100AE00004300DF12F02762102F06AFA08B100F00D
:100AF00097FEAE8A9DF82F1020680CAA8A2302F870
:100B0000043D46EA01260123009304307621AE829B
:100B100002F094F9002840F0DC83206801230430BF
:100B20000DF12F02762102F04BFA08B100F078FEA9
:100B30000CAA8B2302F8053D20689DF82F30EB822C
:100B4000012304300093762102F078F9002840F068
:100B5000BD832068012304300DF12F02762102F0BD
:100B60002FFA08B100F05CFEEE8A9DF82F10206885
:100B70000CAA8C2302F8063D46EA012601230093C5
:100B800004307621EE8202F059F9002840F09B8370
:100B90002068012304300DF12F02762102F010FAB3
:100BA00008B100F03DFE0CAA8D2302F8073D206835
:100BB0009DF82F302B83012304300093762102F01F
:100BC0003DF9002840F07C832068012304300DF1BA
:100BD0002F02762102F0F4F908B100F021FE2E8BED
:100BE0009DF82F1020680CAA8E2302F8083D46EAD3
:100BF000012601230093043076212E8302F01EF992
:100C0000002840F05A832068012304300DF12F02A0
:100C1000762102F0D5F908B100F002FE0CAA8F236C
:100C200002F8093D20689DF82F306B8301230430C2
:100C30000093762102F002F9002840F03B832068FF
:100C4000012304300DF12F02762102F0B9F908B129
:100C500000F0E6FD6E8B9DF82F1020680CAA902303
:100C600002F80A3D46EA012601230093043076216A
:100C70006E8302F0E3F8002840F019832068012316
:100C800004300DF12F02762102F09AF908B100F03C
:100C9000C7FD0CAA912302F80B3D20689DF82F3068
:100CA000AB83012304300093762102F0C7F80028BB
:100CB00040F0FA822068012304300DF12F027621E2
:100CC00002F07EF908B100F0ABFDAE8B9DF82F105D
:100CD00020680CAA922302F80C3D46EA0126012363
:100CE000009304307621AE8302F0A8F8002840F08B
:100CF000D8822068012304300DF12F02762102F002
:100D00005FF908B100F08CFD0CAA932302F80D3DA9
:100D100020689DF82F30EB83012304300093762167
:100D200002F08CF8002840F0B982206801230430DA
:100D30000DF12F02762102F043F908B100F070FDA9
:100D4000EE8B9DF82F1020680CAA942302F80E3D1C
:100D500046EA01260123009304307621EE8302F057
:100D60006DF8002840F097822068012304300DF1CF
:100D70002F02762102F024F908B100F051FD0CAAEF
:100D8000952302F80F3D20689DF82F302B84012316
:100D900004300093762102F051F8002840F0788268
:100DA0002068012304300DF12F02762102F008F9AA
:100DB00008B100F035FD2E8C9DF82F1020680CAA8C
:100DC000962302F8103D46EA0126012300930430E1
:100DD00076212E8402F032F8002840F056822068F6
:100DE000012304300DF12F02762102F0E9F808B159
:100DF00000F016FD0CAA972302F8113D20689DF81B
:100E00002F306B84012304300093762102F016F812
:100E1000002840F037822068012304300DF12F02B2
:100E2000762102F0CDF808B100F0FAFC6E8C9DF846
:100E30002F1020680CAA982302F8123D46EA0126DA
:100E400001230093043076216E8401F0F7FF00281F
:100E500040F015822068012304300DF12F02762125
:100E600002F0AEF808B100F0DBFC0CAA992302F8FE
:100E7000133D20689DF82F30AB840123043000938C
:100E8000762101F0DBFF002840F0F6812068012385
:100E900004300DF12F02762102F092F808B100F033
:100EA000BFFCAE8C9DF82F1020680CAA9A2302F884
:100EB000143D46EA01260123009304307621AE84D6
:100EC00001F0BCFF002840F0D481206801230430E9
:100ED0000DF12F02762102F073F808B100F0A0FCAA
:100EE0000CAA9B2302F8153D20689DF82F30EB8457
:100EF000012304300093762101F0A0FF002840F088
:100F0000B5812068012304300DF12F02762102F013
:100F100057F808B100F084FCEE8C9DF82F10206883
:100F20000CAA9C2302F8163D46EA012601230093F1
:100F300004307621EE8401F081FF002840F0938197
:100F40002068012304300DF12F02762102F038F8D9
:100F500008B100F065FC0CAA9D2302F8173D20683B
:100F60009DF82F302B85012304300093762101F06A
:100F700065FF002840F074812068012304300DF1E2
:100F80002F02762102F01CF808B100F049FC2E8DEA
:100F90009DF82F1020680CAA9E2302F8183D46EAFF
:100FA000012601230093043076212E8501F046FFAF
:100FB000002840F052812068012304300DF12F02F7
:100FC000762101F0FDFF08B100F02AFC0CAA9F2356
:100FD00002F8193D20689DF82F306B8501230430FD
:100FE0000093762101F02AFF002840F03381206829
:100FF000012304300DF12F02762101F0E1FF08B149
:1010000000F00EFC6E8D9DF82F1020680CAAA12315
:1010100002F81A3D46EA01260123009304307621A6
:101020006E8501F00BFF002840F01181206801233C
:1010300004300DF12F02762101F0C2FF08B100F05B
:10104000EFFB0CAAE12302F81B3D20689DF82F302E
:1010500085F82C30012304300093762101F0EEFE58
:10106000002840F0F1802068012304300DF12F02A8
:10107000762101F0A5FF08B100F0D2FB0CAAE22313
:1010800002F81C3D20689DF82F30EB8501230430C9
:101090000093762101F0D2FE002840F0D280206833
:1010A000012304300DF12F02762101F089FF08B1F0
:1010B00000F0B6FBEE8D9DF82F1020680CAAE323FC
:1010C00002F81D3D46EA01260123009304307621F3
:1010D000EE8501F0B3FE002840F0B08020680123C7
:1010E00004300DF12F02762101F06AFF08B100F003
:1010F00097FB0CAAE42302F81E3D20689DF82F30D0
:1011000085F83030012304300093762101F096FEFB
:10111000002840F090802068012304300DF12F0258
:10112000762101F04DFF08B100F07AFB0CAA9DF882
:101130002F602068E52302F81F3D3601012300934C
:10114000043076216E8601F079FE002870D1206887
:10115000012304300DF12F02762101F031FF08B197
:1011600000F05EFB9DF82F60698E20680CAAE523D5
:1011700006F00F0602F8203D0E43012300930430D1
:1011800076216E8601F05AFE00284ED12068012398
:1011900004300DF12F02762101F012FF08B100F0AA
:1011A0003FFB0CAA9DF82F602068E62302F8213D42
:1011B00036090123009304307621AE8601F03EFE0D
:1011C00080BB2068012304300DF12F02762101F04D
:1011D000F7FE08B100F024FBAE8E9DF82F102068BA
:1011E0000CAAE72302F8223D46EA011601230093E8
:1011F00004307621AE8601F021FE80B920680DF121
:101200002F0204300123762101F0DAFE08B100F04C
:1012100007FB9DF82F3085F83630002026E400F0DB
:10122000FFFAEBE700F0FCFACBE700F0F9FAADE7E4
:1012300000F0F6FA8BE700F0F3FA6CE700F0F0FA52
:101240004CE700F0EDFA2AE700F0EAFA0BE700F0CD
:10125000E7FAEBE600F0E4FAC9E600F0E1FAAAE604
:1012600000F0DEFA88E600F0DBFA69E600F0D8FA72
:1012700047E600F0D5FA28E600F0D2FA06E600F0DC
:10128000CFFAE7E500F0CCFAC5E500F0C9FAA6E52B
:1012900000F0C6FA84E500F0C3FA65E500F0C0FA94
:1012A00043E500F0BDFA24E500F0BAFA02E500F0EB
:1012B000B7FAE3E400F0B4FAC1E400F0B1FAA2E452
:1012C00000F0AEFA80E400F0ABFA61E400F0A8FAB6
:1012D0003FE400F0A5FA20E400F0A2FAFFF7FEBB1D
:1012E00000F09EFAFFF7DEBB2DE9F04FCE4D8BB03C
:1012F000286800230093F2260124043008AA022360
:1013000076218DF820608DF8214001F097FD08B11D
:1013100000F086FA286800230093F4262524043080
:10132000022308AA76218DF820608DF8214001F073
:1013300085FD08B100F074FABC4C2378002B40F016
:1013400036816368A168D4F80CE00593A38AB4F9E8
:101350001850B4F91600B4F91CA0C3EB211202FB1B
:1013600002F212135B00C3EBE10305FB02F500FB85
:1013700003F3AD1305EBE325B5F5FA384FEAE5794C
:1013800049F1FF39A8FB0812B4F91E00256108FBDA
:1013900009F3CDE9021202EB430300FB03F70393C9
:1013A000029B0AFB09F6C1174FEAEA7B03FB0177B0
:1013B000A0FB030108FB0B63AAFB08AB3944060A38
:1013C0009B4446EA01664FEA0B334FEA0A32921910
:1013D0004FEA2127668B43EA1A537B41003243F5DB
:1013E0000043A2FB060106FB031105EB85004A1032
:1013F0008030CB17001252EA0301A06300F09780FF
:10140000B4F922A00AFB09F14FEAEA7B08FB0B11B1
:10141000AAFB08AB8B444FEA4B4141EADA314FEA71
:101420004A40DDE902ABB4F9248008FB0BF64FEA31
:10143000E879CEF5801E0AFB0966A8FB0A89B4F993
:1014400020A0B1444FEAEE7C10EB08004FF00006FC
:101450004FEACA0741EB09014FEACE7A80194FEAF9
:10146000CC7B4BEA5E0B7941BAEB00006BEB0101E0
:1014700010EB000A41EB010B1AEB000A4BEB010BDE
:101480004FEA8B174FEA8A1647EA9A671AEB060A61
:101490004BEB070B4FEA8B064FEA8A0746EA9A7630
:1014A00017EB000A46EB010B4FEA8A074FEA8B065F
:1014B000C01946EA9A76714104F04AFAB4F92A2032
:1014C000B4F928804E13470B47EAC14702FB06FEDA
:1014D000D31707FB03EEA2FB0723734402FB06F6B8
:1014E00007FB036608FB01FEA2FB07234FEAE8792E
:1014F000334400FB09EE560EA8FB0089F14446EA8E
:10150000C3164FEAD84A80194FEA63674AEA493A54
:1015100079414FEAE94B1AEB000AB4F926604BEB2C
:10152000010B4FEA1A2242EA0B623001121894F8BA
:10153000300094F93610E263A5F5963606FB00F00C
:1015400006FB01F2C01200F50041B4F932700598B3
:10155000B4F93450B4F92E30921202FB01F2921217
:101560003905C1EB803102F5001206FB151503FBAE
:1015700002F305F5804503F50053ED139B1303FBC0
:1015800005F3DA1394F82C1002FB02F2D21101FBDE
:1015900002F2A3EB221323EAE373B3F1C85FA8BFFF
:1015A0004FF0C8531B1323640BB0BDE8F08F0AAA99
:1015B000F723286802F8093D0123043000937621BF
:1015C00001F03CFC60BB286808AA0430082376219F
:1015D00001F0F6FC08B100F023F99DF824309DF8E5
:1015E00021E09DF825709DF822509DF823109DF86C
:1015F00020609DF826009DF827201B014FEA0E1E53
:1016000043EA17134EEA151E43EA01314EEA063E3D
:1016100002EB00230593A160C4F80CE0636095E63B
:1016200000F0FEF8CFE700BF400500205026002064
:10163000014B986B704700BF50260020014BD86BC0
:10164000704700BF50260020014B186C704700BF48
:101650005026002030B50A4B85B018680024F425C8
:1016600004300094022303AA76218DF80D408DF8F2
:101670000C5001F0E3FB08B100F0D2F805B030BD2A
:101680004005002070B5164C84B00346002100913F
:101690000126C62523608DF80E10043003AA03230B
:1016A00045218DF80C608DF80D5001F0C7FB08B195
:1016B00000F0B6F8206800240226C025043003AAF2
:1016C0000094032345218DF80E408DF80C608DF8B1
:1016D0000D5001F0B3FB08B100F0A2F804B070BDEA
:1016E0004405002070B50C4B84B0186800230093AB
:1016F0000126C02510240430032303AA45218DF8B8
:101700000C608DF80D508DF80E4001F097FB08B17C
:1017100000F086F804B070BD4405002070B52B4D74
:1017200084B00024012612E028680223043003AAB2
:10173000452101F045FC08B100F072F89DF80D302C
:101740001B0604F1010212D4D4B2372C2FD0286822
:101750000096043001230DF1090245218DF809603E
:1017600001F06CFB0028DFD000F05AF8DCE7362CE3
:101770001DD004AA0023286802F8053D0123043087
:101780000093452101F05AFBE8B9286803AA043008
:101790000223452101F014FC08B100F041F89DF846
:1017A0000C309DF80D0040EA032004B070BD04AA7F
:1017B0002868012302F8063D04300093452101F01A
:1017C0003DFB0028E1D000F02BF8DEE744050020C7
:1017D00030B5044683B0000B03F044FD41EC100B20
:1017E00002F0E2FAC4F30B008DED000B03F04AFDAA
:1017F0009DED000B04460D46002251EC100B074BEB
:1018000003F0A6FD02460B462046294603F0A0FD44
:1018100004F04EF800EE100A03B030BD0000244082
:1018200000B585B000230390194601AA44F20100D7
:101830000193029300F004F805B05DF804FB00BFCB
:1018400072B6094B1B68DB0700D500BEBFF34F8F94
:101850000649074BCA6802F4E0621343CB60BFF34A
:101860004F8F00BFFDE700BFF0ED00E000ED00E0AE
:101870000400FA0572B6024A136801331360704718
:1018800048050020034A1368013B136003B962B6A0
:10189000704700BF4805002001600B6843604A683C
:1018A000934204BF00234360704700BF064A074BC2
:1018B00010B5002414701C60BFF35F8F0449054805
:1018C000FFF7EAFF204610BD540500205805002010
:1018D000345D00004C05002008B50020FFF7CAFF6A
:1018E000F1EE103A23F09F03E1EE103ABFF35F8F61
:1018F000054B4022C3F884210020FFF7C3FF20BF1F
:1019000040BF20BF08BD00BF00E100E04FF08053A2
:10191000D3F8043103F47F43B3F5844F1DD04FF067
:101920008053D3F8043103F47F43B3F58A4F01D0D9
:1019300000207047F0B52C4B2C4A5C7CD2F81C156B
:101940002B4BD2F82005052C18BF4FF07F431940D0
:101950000340994212D00020F0BD2449254AD1F815
:10196000503623F00103C1F85036136823F080731A
:1019700023F0010343F080731360D0E7D2F82435DD
:10198000D2F82415D2F82405D2F82475D2F82845C7
:10199000D2F82855D2F82865D2F828E5DBB2C1F391
:1019A0000722934214D0C0F30740834210D0B3EB18
:1019B000176F0DD0E4B2A3420AD0C5F30725AB429E
:1019C00006D0C6F30746B34202D0B3EB1E6FC2D1B6
:1019D000084A136823F0807323F0010343F08073F7
:1019E00013600020F0BD00BFA800002000100040E0
:1019F0000000FFFF741700402DE9F0413248334BDF
:101A00000268996A42F001020260002952D05A6AC3
:101A10002F4801320224072A01F1FF31996288BF61
:101A20000022C0F880405A62294C9A6A0226266039
:101A3000002A3FD05A6A274FDFF8B0804FF4801158
:101A4000C4F8001153F82210234B0A79C8F800108B
:101A50000125053138461D6001F0B8FF1F4B2049B4
:101A60002048DFF88CE040F21312C3F80022102265
:101A7000C3F80423D8F800200D701178C0F800E0F6
:101A8000C3F82C151278184905FA02F2C97CC3F87C
:101A900030250022C3F80815C3F80475C4F8806126
:101AA0002660C3F80421C3F80821C3F810211D6083
:101AB000BDE8F0810A49064B00204FF480120870FF
:101AC000C3F80021BDE8F0817C050020BC20002087
:101AD00000E100E0202500208005002000100040EB
:101AE00084050020AC250020A8000020A8250020A7
:101AF000F9190000124BD3F8002132B1D3F80423B6
:101B0000D00744BF0022C3F800210D4BD3F80C21AD
:101B100032B1D3F80423110744BF0022C3F80C21CB
:101B2000074BD3F8102152B1D3F80423D20606D5BF
:101B30000021044AC3F81011136803B11847704715
:101B400000100040AC25002000283AD0F8B58C4D9C
:101B50002B78DBB18B4B8C4F8C4E8D498D4A8E4C44
:101B60004FF4705EC3F808E500233B704FF4801714
:101B7000C6F8807003260B624B628B62C2F8C830D5
:101B8000C2F8CC30C2F8D030C4F80062834C844B29
:101B900042681A6001461822204601F017FF7E4A6B
:101BA000237A8048A17A00260660C2F80C15C2F894
:101BB0001035042B00F2CB80DFE803F0B2C4C90576
:101BC000C4000E207047784B49221A600127627AC0
:101BD000012A00F0AE800AD3022A40F0BC806E4B8E
:101BE00072494FF6FF70C3F83C05C3F83815704BC7
:101BF000A689587C684B6F49C3F83425421E41EAD8
:101C00000242862E4FF00811C3F81415C3F81825A8
:101C100040F29F80002F00F09C80674E5C48674F29
:101C20005C4A67494FF0E73EC3F81CE54FF0433E7E
:101C3000C3F820E5C3F8247506F18707476006F569
:101C40008777876006F29517C76006F50777076103
:101C500006F2A327476106F22A37876106F2B137F9
:101C6000C761C3F828150027564B5749C2F8C870FA
:101C7000C2F8CC70C2F8D070066007624762876213
:101C8000043A42F8043F87338B42FAD1607C4F49D3
:101C9000A27C3C4B3D4E3C4F4FF0040EC1F810E58A
:101CA000440140F2022E0020C1F80805C1F800E20C
:101CB000DFF820E1C3F860E5C3F86415A1F50E4133
:101CC000FC39C3F8681501F50F41C3F86C1501F52F
:101CD0009E71C3F87015A1F511413039C3F8741520
:101CE00001F511413431C3F8781552012A49C3F87E
:101CF0007C15E4B2D2B24FF4801E01214FF0805324
:101D000086F8014386F81423C6F800E0387029707D
:101D1000D3F8043103F47F43B3F58A4F2AD0F8BDDA
:101D2000214B40221A60627A012A4FF001077FF4AA
:101D300052AF194BFF2040F20711C3F83C05C3F81E
:101D4000381554E7184B30221A6001273FE7002767
:101D50003DE70720F8BD164A164B527C0E49013A62
:101D600043EA02434FF00812C1F81425C1F81835B0
:101D70000720F8BD164A136843F480631360F8BD6A
:101D80007405002000F001408405002000E100E01F
:101D9000BC20002088050020001000405C050020C9
:101DA000780500207C050020A425002021100100DA
:101DB000A800002082000001E8200020E743C323A0
:101DC000A363E3135C060020BA20002000A00040BB
:101DD0003C1700400011004070B5194B194A1B78A0
:101DE000126882B001928BB1174B1849184D02222C
:101DF000C3F8802000260C680E601A602B682BB197
:101E0000E10716D4A2070BD4630701D402B070BD5A
:101E100002A8022300F8083D2B68984702B070BD65
:101E200002A8012300F8083D2B6898476307EDD509
:101E3000EEE702A800F8086D9847A207E4D5EFE79F
:101E4000740500208005002000E100E07C050020F2
:101E500078050020434B1B780BB908207047C0B1B0
:101E60000279531EDBB2812B01D9092070472DE97D
:101E7000F0473D4C23782BB9E37C934202D20920F2
:101E8000BDE8F087394DAB6A072B04D90420BDE8C3
:101E9000F0870E2070470378072B02D90720BDE892
:101EA000F087334A2B6A324E01460220C2F8800086
:101EB00055F82300872201F089FD2B6A207C01332D
:101EC000072B88BF00232B62AB6A02270133AB626A
:101ED000376030B9DFF8A89099F800401CB1BDE830
:101EE000F0870020FBE76B6ADFF8988055F8231035
:101EF000DFF894A01F4B0A79CAF8001001250531BC
:101F000040461D6001F062FD1B4BDFF880E0DFF80A
:101F100080C01A4940F21312C3F800221022C3F8FD
:101F20000423DAF8002089F800501078CEF800C0B9
:101F3000C3F82C051278C97C05FA02F2C3F83025E3
:101F4000C3F80815C3F80485C6F880713760C3F874
:101F50000441C3F80841C3F810411D602046BDE8A4
:101F6000F08700BF740500205C050020BC20002025
:101F700000E100E08005002000100040A8000020E3
:101F80008405002020250020A8250020AC25002065
:101F9000F9190000074B1B780BB908207047064B56
:101FA000064A00200221C2F880109862116018626F
:101FB0005862704774050020BC20002000E100E05A
:101FC000F8B54D4B1B780BB11120F8BD002800F07F
:101FD00090804FF08053494CD3F8043103F47F4391
:101FE000B3F5844F1ED001460422444801F0EEFCB4
:101FF000236893FAA3F3424A4FF08051C2F81C358C
:10200000D1F8043103F47F43B3F5844F61D04FF02E
:102010008053D3F8043103F47F43B3F58A4F14D0CF
:102020000020F8BD617C374A0368052918BF4FF0CE
:102030007F4293FAA3F31A42D5D1314BD3F824351A
:1020400013F0FF0FCFD10720F8BD2D4A647C2D4B34
:10205000D2F81C15D2F82005052C18BF4FF07F438D
:10206000194003409942DBD1D2F82435D2F8241527
:10207000D2F82405D2F82475D2F82845D2F828558C
:10208000D2F82865D2F828E5DBB2C1F307229342E3
:1020900014D0C0F30740834210D0B3EB176F0DD0BC
:1020A000E4B2A3420AD0C5F30725AB4206D0C6F37B
:1020B0000746B34202D0B3EB1E6FB1D1124A136888
:1020C00023F0807323F0010343F08073136000203A
:1020D000F8BDD2F850360C4923F00103C2F850364F
:1020E0000B6823F0807323F0010343F080730B60CF
:1020F0008DE70E20F8BD00BF84050020A800002059
:10210000001000400000FFFF74170040F8B55C4B62
:102110001B780BB11120F8BD00283BD04FF0805345
:10212000584CD3F8043103F47F43B3F5844F1ED0E9
:1021300001460422544801F049FC636893FAA3F372
:10214000524A4FF08051C2F82035D1F8043103F4DF
:102150007F43B3F5844F63D04FF08053D3F80431FD
:1021600003F47F43B3F58A4F16D00020F8BD617C9D
:10217000474A0368052918BF4FF07F4293FAA3F33B
:102180001A42D5D1414BD3F8242512F47F4F57D1B1
:102190000720F8BD0E20F8BD3C4A647C3C4BD2F8C9
:1021A0001C15D2F82005052C18BF4FF07F431940AD
:1021B00003409942D9D1D2F82435D2F82415D2F867
:1021C0002405D2F82475D2F82845D2F82855D2F83B
:1021D0002865D2F828E5DBB2C1F30722934214D078
:1021E000C0F30740834210D0B3EB176F0DD0E4B2B9
:1021F000A3420AD0C5F30725AB4206D0C6F3074673
:10220000B34202D0B3EB1E6FAFD1224A136823F062
:10221000807323F0010343F0807313600020F8BD46
:10222000D2F850361B4923F00103C2F850360B6830
:1022300023F0807323F0010343F080730B608BE77E
:10224000D3F8242512F47F0FA2D0D3F8242512F05E
:102250007F4F9DD0D3F8282512F07F4F98D0D3F828
:10226000282512F47F0F93D0D3F8282512F47F4F3E
:102270008ED0D3F8283513F0FF0F89D058E700BF70
:1022800084050020A8000020AC00002000100040C1
:102290000000FFFF7417004038B5384B1B780BB1B6
:1022A000112038BD50B3082901D9072038BD4FF09F
:1022B0008053334DD3F8043103F47F43B3F5844F97
:1022C0001ED00C46224601462E4801F07FFBC4F189
:1022D0000802FF231341AB742C74AB6893FAA3F389
:1022E000294A1BBAC2F82435EB6893FAA3F31BBA48
:1022F000C2F82835BDE83840FFF708BB0E2038BDCE
:102300006A7C224B052A18BF4FF07F43002930D04A
:102310001D4AD2F81C25134202D10278002AC4D0EB
:10232000194AD2F820251342CBD10129C9D04378CC
:10233000002BBAD00229C4D08378002BB5D0032952
:10234000BFD0C378002BB0D00429BAD00379002BBA
:10235000ABD00529B5D04379002BA6D00629B0D043
:102360008379002BA1D00829ABD1C379002BA8D148
:102370009BE7054BD3F82035A3E700BF8405002079
:10238000A8000020B0000020001000400000FFFF67
:10239000074B1B7813B1112318467047642802D9E4
:1023A000072318467047034AD0741846704700BF89
:1023B00084050020A8000020074BD3F8402132B14B
:1023C0000021064AC3F840111378032B00D0704750
:1023D000034B01221A61704700A0014084050020D0
:1023E00000100040F0B585B0057804790D4A0E4B19
:1023F000477986688DF800508DF80440C5680469F7
:102400004069039053F821308DF805708DF806600F
:102410008DF80750029452F821106846984705B08D
:10242000F0BD00BFB0250020B82500202DE9F04FF9
:10243000824690F80090384D384845F829300C46CF
:10244000497B40F8292081B0934669B9344ABBF1F1
:10245000000F4B4621460AF1040008BF002201B0DC
:10246000BDE8F04F00F0E2BB23682E4A4FF0A045D4
:1024700003F5E07340F20C6145F82310636803F53F
:10248000E073012745F82310236807FA03F3C5F822
:102490000835636807FA03F3C5F80835236803F5C0
:1024A000E07340F20D6145F82310636803F5E073B3
:1024B00042EA070845F823104FF48070C047002611
:1024C0006268D5F81035D340DB074FF4807020D414
:1024D000236807FA03F3C5F80C35C047236807FAE9
:1024E00003F30136C5F808354FF48070C047092E54
:1024F000E6D1626801254FF0A04605FA02F2C6F85F
:102500000C254FF48070C04763689D40C6F808559D
:102510009CE7002EEED199E7B0250020B8250020D9
:10252000E5230000405D000010B568B101280AD124
:102530000C4C2369A07033B10CCB01202261984769
:102540002369002BF8D110BD064CA36801226270EC
:10255000002BF8D00CCB0020A2609847A368002B7A
:10256000F8D110BDC025002010B50B4C237882B0E7
:1025700013B1852002B010BD08486360A3602361D9
:10258000E36000F0C3FD019000F0CEFD019801234F
:10259000237002B010BD00BFC02500202925000017
:1025A00038B5154DAB78044673B110B143680120BE
:1025B00098470020FFF75EF9EB680133EB600020DD
:1025C000BDE83840FFF75EB903F0FF00FFF752F9AE
:1025D00064B12A6942B1944208D0134601E09C429A
:1025E00004D01B68002BFAD122602C61EB68002B11
:1025F000E2D100F0ADFDDFE7C02500204FF08043C1
:10260000D3F81804C0F30040704700BF38B5154D2B
:102610006B78044673B110B14368002098470020DE
:10262000FFF728F96B6801336B600020BDE8384084
:10263000FFF728B903F0FF00FFF71CF964B1AA689F
:1026400042B1944208D0134601E09C4204D01B687A
:10265000002BFAD12260AC606B68002BE2D100F055
:10266000A7FDDFE7C025002038B5084C0020FFF7A4
:1026700001F96368013B6360656815B900F0AAFD64
:1026800065700020BDE83840FFF7FCB8C025002089
:102690004FF08043D3F80C0400F00110A0F10110BA
:1026A000B0FA80F040097047F0B4B44B1A78062AAB
:1026B00020D0B34B1B68062B00F08A80B14AD2F8B9
:1026C000883043F47003C2F88830BFF34F8FBFF3F4
:1026D0006F8F4FF01023D3F80022002AC0F28A81B6
:1026E000D3F80432002BC0F28581A74BA74A1A60A9
:1026F000F0BC704704331B681807DAD1A44B1B6881
:1027000003F0F002302A00F0658103F0E003402B73
:1027100000F060819E4B1B6803F0F003302B00F04B
:102720001E819B4B1B6803F0F002302A00F00781EA
:1027300003F0E003402B00F00281954B1B6803F08F
:10274000F003302B00F0EB80914B1B6803F0F0029C
:10275000302A00F0D08003F0E003402B00F0CB8063
:102760008B4B1B6803F0F003302B00F0B680884BD6
:102770001B6803F0F003302B00F09880844B1B683B
:1027800003F0F003502B3FD0814B1B6803F0F002A5
:10279000302A28D003F0E003402B24D07C4B1B6868
:1027A00003F0F002302A03D003F0E003402B80D185
:1027B0004FF08043D3F80024D2077FF57AAF6FF053
:1027C0000102C3F800246E4B1B68062B7FF476AF22
:1027D000704B1B68062B7FF471AF6F4A136843F48C
:1027E000806313606AE76D4B6D4A1B6803F04F030B
:1027F0001360624B1B78062B7FF45BAF694B1B6841
:1028000018077FF456AFC9E74FF08052664BD2F8F5
:102810000414C3F82015D2F80814C3F82415D2F80C
:102820000C14C3F82815D2F81014C3F82C15D2F8DC
:102830001414C3F83015D2F81814C3F83415D2F8AC
:102840001C14C3F84015D2F82014C3F84415D2F86C
:102850002414C3F84815D2F82814C3F84C15D2F83C
:102860002C14C3F85015D2F83014C3F85415D2F80C
:102870003414C3F86015D2F83814C3F86415D2F8CC
:102880003C14C3F86815D2F840143C48C3F86C15E2
:10289000D2F844140278C3F87015062A7FF409AF01
:1028A000404B1B681C077FF404AF6DE73F4E404C64
:1028B0004049414B0527012500203F223760256014
:1028C00008601A602D4B1B78062B7FF4F2AE354B57
:1028D0001B681D077FF4EDAE50E7284B374A1B7885
:1028E0000321062B11607FF4E4AE2E4B1B681E07FC
:1028F0007FF4DFAE3BE74FF080430022C3F80C21AA
:10290000C3F81021C3F838251C4B1B78062B7FF425
:1029100070AF244B1B681F077FF4CBAE20E728491C
:10292000164ACB68127823F08073062ACB607FF4B6
:10293000C0AE1C4B1B681B077FF4BBAE04E7214BEA
:102940000E4A1B6812782049C3F34233062A0B60F3
:10295000B8D1144B1B681A077FF4ABAEEDE6074BFA
:102960001A4A1B781A491160062B7FF4A2AE0D4B50
:102970001B6819077FF49DAED3E600BFE00F00F09F
:102980003001001000ED00E0BC0000200090D003FA
:10299000E80F00F0340100103C170040580200100E
:1029A000E40E0040E40F00F000C00040105600406C
:1029B000885600401856004014560040A0050040BC
:1029C000F0ED00E0440200103C05004074C00740F8
:1029D0000DF0ADBA204B214A1B6812782049C3F391
:1029E0000423062A0B608FD11E4B1B6819073FF486
:1029F00091AE5EE61C4B0122C3F80425D3F80024F7
:102A0000002AFBD04FF0102315221749C3F80022EB
:102A1000D1F80034002BFBD04FF010221521124BBF
:102A2000C2F80412D3F80024002AFBD000220E4979
:102A3000C3F80425D1F80034002BFBD0BFF34F8F2F
:102A40000A490B4BCA6802F4E0621343CB60BFF340
:102A50004F8F00BFFDE700BF24030010E00F00F020
:102A600040350140E40F00F000E0014000ED00E0DF
:102A70000400FA050649074A074B9B1A03DD043B8D
:102A8000C858D050FBDCFFF70FFEFDF7EFFB00004E
:102A9000745D00000000002008050020FEE7FEE74E
:102AA000FEE7FEE7FEE7FEE7FEE7FEE7FEE7FEE7FE
:102AB000F0B55B4BD3F824218DB0BAB10022C3F836
:102AC0002421D3F824210592059AD3F804216AB968
:102AD000544A02219068C3F8080391609268C3F8D1
:102AE000042301221A625A610DB0F0BD4C4C4D4DC9
:102AF000D4F80431002B2FD00023C4F8043105F1A1
:102B00000C070FCF07AED4F804E13F68CDF810E012
:102B10000FC695F82E30049A3760002B36D02B7BE9
:102B2000012B79D0D4F84C250892022B71D03C4B64
:102B3000D3F84C253A4B09920022C3F86021D3F810
:102B4000601102910299C3F85C21D3F85C310393C0
:102B5000039B95F8302028E0C4F84831D4F8482188
:102B60002B7B0192019A002B3AD105F10C070FCF74
:102B700007AE0FC695F830203B683360EAB92A4BA0
:102B8000C4F80022AA60C4F8083316E0C4F8603123
:102B9000D4F860210292029AC4F85C31D4F85C3116
:102BA00095F830200393039B3AB91D4B1E48002132
:102BB000C3F80012A960C3F808031949D1F8C43456
:102BC000C1F8C43499071DD501238DF818300AB90E
:102BD00085F82F202B68696806A898470DB0F0BDCE
:102BE0004FF4007140F202220F4BC4F80012AA60A9
:102BF000C4F80833AB68C4F804330123A36023622C
:102C00000DB0F0BD13F0040318BF02238DF8183087
:102C1000DDE7D4F83C258DE7D4F83C35089386E70A
:102C200000300040D425002002029C012DE9F84F1D
:102C30000779DFF8FC80342404FB07F408EB040573
:102C400095F82D6016B10820BDE8F88F8A468346B6
:102C5000354900689946164600F056FE10B111201D
:102C6000BDE8F88F48F80460A860C5F8049085F8BE
:102C70002F0085F830009AF80D3085F83230DAF8F8
:102C800000304FF0A04203F5E07340F20C6142F8CF
:102C90002310DAF8043003F5E07342F82310DBF870
:102CA0000030DAF80020DAF80410C3F80825C3F879
:102CB0000C15DAF80820C3F8242526B3DBF8001039
:102CC0009AF80C30090B4AB2002A24DB02F1604268
:102CD00002F561425B01DBB282F80033DBF80020D1
:102CE000120B42F3C40323F0604323F0030303F108
:102CF000604303F5614302F01F02012101FA02F271
:102D0000C3F880211A60342303FB0783012283F870
:102D10002D20BDE8F88F054A01F00F015B010A4440
:102D2000DBB21376DAE700BFB12A0000FCEC00E06A
:102D3000D4250020F8B50579264E342303FB05F38E
:102D40000446F358002B42D0036823481B0B5AB2A9
:102D50005209203203F01F03012101FA03F340F866
:102D60002230227923681D49342707FB02620020A4
:102D70009060C3F80813D3F800124FF0010E21F44D
:102D8000BC51C3F8001282F82DE0C3F8000507FB20
:102D90000567206800F0D6FD97F8323083B92368C4
:102DA000D3F808354FF0A04203F5E073022142F852
:102DB00023102368D3F80C3503F5E07342F8231091
:102DC000342303FB0565002385F82D30F8BD2A4622
:102DD000C8E700BFD425002000E100E002029C010A
:102DE000037906490268342000FB03130220062100
:102DF00083F82D00C2F80015704700BFD4250020CD
:102E000010B40C4C027903680B49342000FB0242D9
:102E100000209060C3F80813D3F80012012421F4B5
:102E2000BC51C3F8001282F82D40C3F800055DF8CC
:102E3000044B7047D425002002029C012DE9F04F7D
:102E40008DB015469DF85840002C02F060444FF0BC
:102E500000020CBF94464FF0200CB4F1005F0892C2
:102E6000079209920A920B9203D010200DB0BDE890
:102E7000F08F90F804B0DFF844A106684FF03408F2
:102E80001F4608FB0BA84B4BC6F8083398F82F30A9
:102E900003F0FF093BB1D8F80830C6F8043311201D
:102EA0000DB0BDE8F08F8DF81D1008970A9507AC9E
:102EB0008E460FCC01944FF0010488F82F40C6F8DD
:102EC00088E5C6F80491D6F804E1CDF810E008F1E1
:102ED0000C0EAEE80F00049BC6F82491D6F82431FE
:102EE0000593019B059A1B68C6F8509588F83090A9
:102EF000C6F84095CEF80030C6F84455C6F8487577
:102F0000BCF1000F18D14FF4007240F20223C6F852
:102F100000224FF48271C8F808303423012203FBE9
:102F20000BF33262B2605AF803005344A0B19B68BD
:102F3000C6F80433002099E71F4B4FF48072C6F89F
:102F40000022C8F80830C6F84891D6F848310393F3
:102F5000039B4FF4A471E0E71046314402E0D6F839
:102F60002421D2B90B68002BF9D0342303FB0BAA20
:102F7000D6F8C434C6F8C43400228AF82F20BBB176
:102F800013F0020F48F2012048F2022208BF03208A
:102F900013F0040F18BF104668E7C6F82431D6F8BE
:102FA00024310693069B30624FF482717061D4E73E
:102FB00018465BE702029C0100020400D4250020B1
:102FC0002DE9F04F02F060448BB01646B4F1005F7B
:102FD0004FF000020692059207920892099203D0E0
:102FE00010200BB0BDE8F08F90F804B0DFF818A106
:102FF00007684FF0340808FB0BF89E460AEB0809F7
:10300000404BC7F8083399F82F3003F0FF053BB168
:10301000D9F80830C7F8043311200BB0BDE8F08FA1
:103020004FF001038DF81510CDF818E008968DF8D3
:10303000143005AC8C460FCC01944FF0010489F894
:103040002F40C7F888C5C7F80451D7F804C1CDF898
:1030500008C009F10C0CACE80F00029BC7F8245122
:10306000D7F824310393019B03981968C7F850558A
:1030700040F202234FF48052C7F8405589F830508F
:10308000C7F83465CCF80010C7F838E5C7F8002257
:10309000C9F8083001233B623B605AF808302BB175
:1030A000D9F80830C7F8043328469AE7012302E02C
:1030B000D7F82411D9B9D7F80421002AF8D034233D
:1030C00003FB0BAAD7F8C434C7F8C43400228AF82B
:1030D0002F20ABB113F0020F48F2012048F2022278
:1030E00008BF032013F0040F18BF104679E7C7F894
:1030F0002421D7F824210492049A3B627B61DAE709
:1031000018466EE702029C01D4250020054A137977
:103110000BB1852070470121106053711846117161
:10312000704700BF08260020084A136813F0010307
:1031300005D1012182F80033C2F8801111604FF0EF
:1031400080430122C3F81825704700BF00E100E06A
:1031500010B41349134B144A0020086083B0096867
:1031600001914FF080410220019CC1F80403D8680E
:1031700040F08071D960146844F001031360516815
:1031800053685B1AB3F50A5FFAD30649074B14601C
:103190000122C8601A6003B05DF8044B704700BF9D
:1031A00004010040F0ED00E0001000E008000040E5
:1031B000074B00221A6082B01B68019301994FF0FF
:1031C00080430122C3F804231A6002B0704700BF95
:1031D00000010040074B01221A604FF08042D2F8F4
:1031E0000C3403F00113B3F1011FF8D0024B00229D
:1031F0005A717047040000400826002010B5144B97
:103200001A6882B062B10021124A19601B685079B5
:1032100000934FF080410123009CC1F8083390B126
:103220000D4B1A686AB100221A601B6801934FF0B7
:1032300080420221074B0198C2F808131B68012045
:10324000984702B010BD116853718847E8E700BF86
:1032500000010040082600200401004070B44379BA
:103260001F4C204E03EB430546F82320655D15B146
:10327000082070BC704790F904308A78002B27DB57
:1032800003F1604303F561435201D2B283F8002396
:1032900090F9042053099B0003F1604303F5614357
:1032A000012502F01F0205FA02F2C3F880211A601C
:1032B00003680A88C3F8082543790879C97803EBBD
:1032C0004303E218E55450709170002070BC7047C1
:1032D000054D03F00F0352011D44D2B22A76D7E701
:1032E0001026002014260020FCEC00E00368044AAD
:1032F00001211960437903EB43030221D154704744
:1033000010260020F0B54FF480350468214E8D4022
:10331000C4F848530468C4F80853447904EB4404DF
:10332000344483B0647822F07F42D4B1046801F55C
:10333000A87744F827200468D4F804E5AEEB020728
:103340007245427902EB4202164488BF07F1FF172B
:10335000B27888BF07F57F47974208DA0D2003B09F
:10336000F0BD046801F5A87644F82620046823B966
:103370000020C4F8445303B0F0BD5031890089B235
:1033800000236350625803680192019AC3F8045302
:103390000468EDE71026002010B403680022C3F88B
:1033A000002183B0D3F80031026801930123019C0E
:1033B000C2F8443311B10268C2F8043303B05DF8B7
:1033C000044B704710B53B4BD3F80423D20384B0B1
:1033D00003D5394A116800293CD1364BD3F8042370
:1033E000940303D5354A1168002942D1314BD3F8F3
:1033F0000423500303D5324A1168002949D12D4BCB
:10340000D3F80423D10702D5D3F80021B2B9294B50
:10341000D3F80423920702D5D3F804210AB904B0E3
:1034200010BD0022C3F80421264AD3F804310193C9
:1034300005201368019A984704B010BD0022C3F814
:103440000021204AD3F80031029304201368029A25
:103450009847DCE74FF480310020C3F84813194C3B
:10346000C3F808131060136803932368039A9847FE
:10347000B3E74FF400310024C3F848131148C3F8F0
:1034800008131460136803930368039A0120984794
:10349000ACE74FF480210024C3F848130948C3F86F
:1034A00008131460136803930368039A0220984773
:1034B000A5E700BF00B0004040B1004044B100406B
:1034C00048B10040142600202DE9F041684B1A68ED
:1034D00088B0002A3CD1674F97F82E30002B45D199
:1034E000654B1A68002A5ED1644B1C68002C6AD1B7
:1034F0007E699EB14FF000480125B6FA86F293002E
:1035000003F58C7303F1804101F5E04128FA02F2E2
:10351000086826EA020620B9002EEED108B0BDE800
:10352000F081A3F58C730C6083F0040209680491A8
:10353000C2F38002DB088DF819208DF818308DF861
:1035400014503B68049A05A89847002ED5D1E5E7AA
:103550000022484F1A60196897F82E3000910099A0
:10356000002B39D097F82F30002B4ED1444B1A68DE
:10357000002AB5D000221A6097F82D0019687B8BBD
:10358000019184B2A34201994ED85FD0384B3D4A95
:10359000002119601B680293012302991360364BC6
:1035A0001A68002AA0D000221A6008A81B6803939A
:1035B000022100F80C1D3B6803993A7498472F4B81
:1035C0001C68002C94D000221A601B680593059B90
:1035D0003A7408B0BDE8F081FA68786839898DF8E6
:1035E00014300690ADF81C10002A2CD02648398BD8
:1035F0007A600122FB607983398102603B6805A80B
:103600009847002387F82F3066E7FB687868398988
:103610008DF814200690ADF81C10A3B1398B7B6097
:10362000FA6079833981E9E73A897968164D1B1B7D
:103630009BB292B2D21A01EB42027B83C5F82C26D0
:10364000C5F83006A2E700233B74D7E7FB684BB10F
:103650000D497A83012287F82F20C1F82C36C1F852
:10366000300693E701227B8387F82F208EE700BF87
:1036700004710040182600201071004014710040B1
:10368000007100400470004000700040214B93F82E
:103690002C200AB108207047F0B51F4C057819603E
:1036A000C4F8F05545781D49C4F8F4556FF000454D
:1036B0001A74C678C4F8085383B00A600968184DB4
:1036C000019101992A60817883F82E602D68154850
:1036D0000095490183F82D205A6183F82F20802519
:1036E000C9B202270122F6B2DDF800E083F82C20EF
:1036F00080F80713C0F880510560C4F804730EB158
:10370000C4F80423044B01220020C3F8002503B0B1
:10371000F0BD00BF1826002000700040047100407A
:103720000071004000E100E0324A137C0BB111202F
:103730007047F0B50C79012C55D900F10C0502EB5E
:1037400045031B79002B43D04B788E780F7891F886
:1037500003E01B01360206F4E06603F03003334356
:1037600007F003064F794FEA0E3E33430EF4805EB6
:103770008E793F0507F4801743EA0E033B43360674
:103780001D4F06F08076240402EB450204F4E02489
:10379000334307EB00150001CE791671234300F186
:1037A00080400C7A547100F5E040C5F81835CB79AB
:1037B0000A7AC0F81425C0F81035CB790A7AC0F817
:1037C0001425C0F810350B79012B07D90020F0BD66
:1037D00092F82D30013382F82D30B5E70123C7F878
:1037E00000350020F0BD03F0FF05034BC3F8005582
:1037F0000C79A2E71826002000700040F0B42C4A93
:103800002C4B1224C2F808431D7C022D82B01CD020
:103810001C7C012C1FD093F82E40586002270125F4
:103820000026C2F804731D74DE601981E4B9224BCE
:10383000C2F82C06C2F830161C601B680193019B6D
:103840001560204602B0F0BC70471120C2F8044356
:1038500002B0F0BC7047DC688CB102231120C2F8C2
:10386000043302B0F0BC704793F82D40C2F82C0628
:1038700030465983C2F8304602B0F0BC704793F826
:103880002E20D86019836AB90B4A1368002BFCD02C
:10389000002313601268064B0092009AC3F82C06AE
:1038A000C3F83016024B0222C3F804230020C9E7F4
:1038B000007000401826002000710040084A137C68
:1038C000DBB2012B01D00820704792F82E0010B90E
:1038D000044A13607047044A00201360704700BF19
:1038E000182600200470004000700040024B187C35
:1038F000003018BF0120704718260020014B1B68BC
:10390000184700BF4826002038B50C4B984201D01C
:10391000002038BD00200D46FDF7ACFF084B1C7998
:1039200024B10020FDF7AEFF112038BD0122204652
:103930001D601A71FDF7A6FF204638BD002000402B
:1039400048260020034B984203D1034B00221A6003
:103950001A717047002000404826002008B5002159
:10396000044600F025F9044B1868C36B03B198476F
:10397000204600F017FA00BF485D000070B50F4EFA
:103980000F4D761BB61018BF002405D0013455F832
:10399000043B9847A642F9D10A4E0B4D761B02F024
:1039A0009DF9B61018BF002406D0013455F8043B29
:1039B0009847A642F9D170BD70BD00BFF804002041
:1039C000F804002000050020F8040020844641EAA5
:1039D000000313F003036DD1403A41D351F8043B87
:1039E00040F8043B51F8043B40F8043B51F8043BD9
:1039F00040F8043B51F8043B40F8043B51F8043BC9
:103A000040F8043B51F8043B40F8043B51F8043BB8
:103A100040F8043B51F8043B40F8043B51F8043BA8
:103A200040F8043B51F8043B40F8043B51F8043B98
:103A300040F8043B51F8043B40F8043B51F8043B88
:103A400040F8043B51F8043B40F8043B51F8043B78
:103A500040F8043B51F8043B40F8043B403ABDD2E7
:103A6000303211D351F8043B40F8043B51F8043B89
:103A700040F8043B51F8043B40F8043B51F8043B48
:103A800040F8043B103AEDD20C3205D351F8043B18
:103A900040F8043B043AF9D2043208D0D2071CBFE4
:103AA00011F8013B00F8013B01D30B88038060460D
:103AB000704700BF082A13D38B078DD010F0030383
:103AC0008AD0C3F10403D21ADB071CBF11F8013BF3
:103AD00000F8013B80D331F8023B20F8023B7BE742
:103AE000043AD9D3013A11F8013B00F8013BF9D26D
:103AF0000B7803704B7843708B7883706046704707
:103B000070B4860746D0541E002A41D0CAB203467C
:103B100002E014F1FF343BD303F8012B9D07F8D1E9
:103B2000032C2ED9CDB245EA05250F2C45EA0545D3
:103B300019D903F110022646103E0F2E42F8105CF0
:103B400042F80C5C42F8085C42F8045C02F1100296
:103B5000F2D8A4F1100222F00F0204F00F04103288
:103B6000032C13440DD91E462246043A032A46F874
:103B7000045BFAD8221F22F003020432134404F03B
:103B800003042CB1C9B21C4403F8011B9C42FBD1B5
:103B900070BC704714460346C2E700BF024B13B126
:103BA000024800F079B8704700000000A53C000012
:103BB0002DE9F04F354B85B00E460190186800F0A6
:103BC0008BF8334B1B68029303F5A4730393029B9A
:103BD000D3F8487137B3DDF80CA04FF00109D34694
:103BE0007C68651E0ED4013407EB84044FF0000896
:103BF000FEB1D4F800319E421BD0013D6B1CA4F1F4
:103C00000404F5D1234B6BB17B68002B39D13B68A1
:103C100043B13846CBF80030AFF30080DBF80070DA
:103C2000002FDDD1194B186805B0BDE8F04F00F04A
:103C300055B87B682268013BAB420CBF7D60C4F87D
:103C40000080002AD9D0D7F88811D7F804A009FA43
:103C500005F30B420FD0D7F88C110B420DD1D4F8DD
:103C60008010019890477B685345B0D1DBF8003055
:103C7000BB42C2D0ABE79047F5E7D4F8800090474D
:103C8000F1E7BB463F68002FAAD1CBE7F004002044
:103C9000485D000000000000002301461A46184657
:103CA00000F01EB838B50A4C0A4D641BA4100AD0A7
:103CB00004F18043013B05EB8305013C55F80439D1
:103CC0009847002CF9D1BDE8384002F00DB800BF8C
:103CD0000405002000050020704700BF704700BFAA
:103CE0002DE9F8432C4D0646286898460F46914624
:103CF000FFF7F2FF294B1C68D4F84831002B3ED067
:103D00005A681F2A1CDC02F1010E76B103EB820116
:103D10000124C1F88890D3F8880194402043022EF2
:103D2000C3F88801C1F8088123D00232C3F804E047
:103D3000286843F82270FFF7D1FF0020BDE8F88320
:103D4000174B0BB34FF4C870AFF300800346D8B1E4
:103D5000D4F848210260002141600A46C4F84801B5
:103D60004FF0010EC0F88811C0F88C11002EDCD085
:103D7000CCE7D3F88C110C43C3F88C41D5E704F59C
:103D8000A673C4F84831BBE72868FFF7A7FF4FF0D8
:103D9000FF30BDE8F88300BFF0040020485D00005C
:103DA00000000000FEE700BFB0EE401AF0EE601A1F
:103DB0009FED010B00F004B800000000000000407F
:103DC0002DE9F04F2DED028BDFF80CA38BB057ECF3
:103DD000106B55EC114B00F083F99AF90080B0EEAE
:103DE000408AF0EE608AB8F1FF3F34D022462B467D
:103DF0002046294601F046FD834660BB32463B46DD
:103E00003046394601F03EFD8146002840F09F8053
:103E1000304639460022002301F002FD20B3002283
:103E200000232046294601F0FBFC8346002867D08A
:103E30009FED9F7B0122A44BCDF820900092CDE90D
:103E40000267CDE904458DED067B0193B8F1000FC3
:103E500049D09FED998BB0EE480AF0EE680A0BB09E
:103E6000BDEC028BBDE8F08FB0EE480AF0EE680AB8
:103E700000F07AFF8046002800F084804FF00008B0
:103E80004FF0000951EC180B42464B4601F0C8FCBC
:103E90000028E0D047EC106B00F066FF0028DAD075
:103EA00045EC104B00F060FF0028D4D09AF90030A8
:103EB000854A019204210022022BCDE90267CDE957
:103EC0000445CDE906890091089203D0684600F0C8
:103ED00053FF60B901F0FCFE2223036007E09FED71
:103EE000747B8DED067B684600F046FF50B3089B5F
:103EF0001BB101F0EDFE089B03609DED068BAAE768
:103F000045EC104B00F030FF0028A4D00022002325
:103F10002046294601F08EFC00289CD06A4A9AF976
:103F20000030CDF820B00121CDE90267CDE904458C
:103F30008DE80600002BD2D064490020022BCDE989
:103F40000601D0D101F0C4FE21230360CFE7002297
:103F500000232046294601F063FC00283FF47BAF94
:103F60009FED558B584BCDF820B00122B8F1020FD0
:103F7000CDE90267CDE904458DED068B8DE80C0097
:103F8000B1D168E747EC106B00F0EEFE00283FF47B
:103F900075AF45EC104B00F0E7FE00283FF46EAF24
:103FA00053EC182B18EE100A194601F06BFC002890
:103FB00061D103239AF900800093434B0890CDE927
:103FC0000267CDE904450193B8F1000F2DD1DFF868
:103FD0000C914FF060480022002330463946CDE96D
:103FE000068901F027FC00283FF470AF0022384B0F
:103FF0002046294601F0ACF904460D4645EC104B2D
:1040000000F0C6FE204653EC102B294601F008FCB8
:1040100070BB304B9AF900804FF06042CDE9062327
:10402000B8F1020F7FF452AF54E79FED257B0022D9
:104030000023304639468DED067B01F0FBFB00285E
:10404000EED00022224B2046294601F081F9044699
:104050000D4645EC104B00F09BFE204653EC102B18
:10406000294601F0DDFB18B9184B0022CDE90623E3
:104070009AF90080D4E7144B9AF90090CDF820808B
:104080000122CDE90267CDE904458DE80C00B9F1C4
:10409000000F3FF424AF002200231046194601F020
:1040A00081FAB9F1020FCDE906013FF44BAF1AE7EF
:1040B0000000000000000000000000000000F03FD1
:1040C000000000000000F07F4C5D00000000F0FFE9
:1040D0000000E03FFFFFEFC7F4040020FFFFEF47C1
:1040E0002DE9F04F51EC110B21F0004858EA000483
:1040F00093B03ED053EC102B714E23F00044B442E9
:1041000010EE10AA1D462DDC894611EE10EA28D0CB
:10411000B04527DC6A4EB04500F08380002D16467E
:104120001F46CDE90001C0F281804FF0000BBEF1C7
:10413000000F2FD1624B984500F09580614B984558
:1041400068D0B9F1804F00F0D1835F4B994521D100
:10415000002D1FDB47EC106B13B0BDE8F04F00F0F3
:104160002FBD6AB104F1404404F5801454EA0A03F7
:1041700008D15449002041EC100B13B0BDE8F08F7A
:10418000A045C7DD514813B0BDE8F04F00F0F8BDC1
:104190004FF0000B47EC106B00F0DEFD51EC100B04
:1041A000BAF1000F1AD124B1464B25F040429A4291
:1041B00014D1B9F1000FC0F2D383002DDBDA04F182
:1041C000404404F5801454EA0B0300F0AF84BBF1C3
:1041D000010FD0D101F100431946CCE7ED0F05F1F5
:1041E000FF3A5BEA0A0353D0394B984576DD03F179
:1041F0000473984540F30684364B9C4253DDB9F175
:10420000000F53DD2CA3D3E900231046194601F01B
:104210009FF8B0E7B9F1000FC0F25A843046394632
:10422000A9E7BEF1000F3FF479AF9BE72A4B984511
:104230002BDCA3F1547398457FF777AF4FEA2853EF
:10424000A3F2FF33142B40F35984C3F134032EFA45
:1042500003F202FA03F39E457FF467AF02F0010216
:10426000C2F1020B63E704F1404303F5801353EA04
:104270000A033FF47EAF174B9C4240F33E83B9F1F3
:10428000000F13DBDDE9000175E74FF0020B4EE78D
:1042900032463B461046194600F0A6FE02460B4643
:1042A00001F080F967E7B9F1000FABDB00200021D6
:1042B00061E700BFAFF300809C7500883CE4377E67
:1042C0000000F07F0000F03F0000E03F505D000084
:1042D0000000E041FFFFEF3FFFFF3F43B4F5801FC9
:1042E0004FF0000205DAD64B01F032F86FF03402DD
:1042F0000C462315D34EC4F31304A3F2FF33134427
:1043000044F07F55B4421A460D9345F4401540F3EE
:104310002E83CD4B9C4240F30D849FEDB37B8DEDFE
:10432000087B8DED0E7B9FEDB27B13468DED067BFA
:1043300001330D93A5F580154FF00008DDE9062344
:104340002946CDE90A0100F04FFEDDE906230646C5
:104350000F46DDE90A0100F049FE02460B46002047
:10436000BA4901F01FF903460C46CDE91034024664
:104370000B463046394600F0EBFF6B1043F000531C
:1043800003F5002303EB08050A4600230146CDE9A7
:1043900002120293DDE902890024CDE904122B46C2
:1043A00022464046494600F0D3FF02460B463046BF
:1043B000394600F019FEDDE9062306460F46204681
:1043C000294600F011FE02460B46DDE90A0100F025
:1043D0000BFE42464B4600F0BBFF02460B46304602
:1043E000394600F001FEDDE9102300F0B1FFDDE900
:1043F0000445CDE9060122462B462046294600F019
:10440000A7FF7DA3D3E9002304460D4600F0A0FFDB
:104410007BA3D3E9002300F0E9FD22462B4600F000
:1044200097FF79A3D3E9002300F0E0FD22462B4655
:1044300000F08EFF76A3D3E9002300F0D7FD2246DB
:104440002B4600F085FF74A3D3E9002300F0CEFDD6
:1044500022462B4600F07CFF71A3D3E9002300F035
:10446000C5FD224606460F462B462046294600F04B
:104470006FFF02460B463046394600F069FF424660
:1044800004460D464B46DDE9040100F0AFFDDDE9D1
:10449000062300F05DFF22462B4600F0A7FD4246B2
:1044A00006460F464B464046494600F051FF002263
:1044B000674BCDE90A0100F099FD32463B4600F01A
:1044C00095FD02980D46044622462B464046494635
:1044D00000F03EFF0022804689465D4B204629467B
:1044E00000F082FDDDE90A2300F07EFD02460B4666
:1044F0003046394600F078FDDDE9042300F028FF5E
:10450000224606460F462B46DDE9060100F020FF55
:1045100002460B463046394600F068FD06460F4617
:1045200002460B4640464946CDE9048900F05EFD4F
:1045300002983DA3D3E9002304460D4600F008FF8E
:10454000DDE90423804689462046294600F04CFDDB
:1045500002460B463046394600F046FD34A3D3E907
:10456000002300F0F5FE34A3D3E9002306460F46EE
:104570002046294600F0ECFE02460B4630463946FE
:1045800000F034FDDDE90E2300F030FD06460D9805
:104590000F4600F077FE324604460D463B46404645
:1045A000494600F023FDDDE9082300F01FFD224607
:1045B0002B4600F01BFD029822462B46CDE9020156
:1045C00000F012FDDDE9082300F00EFD42464B46E7
:1045D00000F00AFD02460B463046394600F004FD65
:1045E0008046894636E000BF000000000000000061
:1045F000000000000000F03FEF4E454A287ECA3F11
:1046000065DBC9934A86CD3F01411DA96074D13F46
:104610004D268F515555D53FFFAB6FDBB66DDB3F58
:10462000033333333333E33F000000E009C7EE3F89
:10463000FD033ADC09C7EE3FF5015B14E02F3EBEF7
:10464000000040438E98030079B60B000000F03F55
:10465000000008400BF1FF3353EA0A0300F07B81AE
:104660009FEDC97B8DED067BDDE900AB53465C46D3
:10467000CDE9003400230093DDE900455046224691
:104680002B46594600F0B0FCDDE9022300F060FE45
:10469000524606460F465B464046494600F058FEE5
:1046A00002460B463046394600F0A0FC22468046C2
:1046B00089462B46DDE90201CDE9048900F048FE78
:1046C0000B46024606460F464046494600F08EFC21
:1046D000C74B994204460D468A4640F3188101F1C2
:1046E0003F4303F5E003034340F0FA81A8A3D3E975
:1046F0000023DDE9040100F079FC3246804689465A
:104700003B462046294600F06FFC02460B464046D9
:10471000494601F0ADF8002840F0E281A8464FEA92
:1047200028534FF48012A3F2FE3342FA03F35344AA
:10473000C3F30A52AF4DA2F2FF321541C3F3130483
:1047400023EA05010020C2F1140B44F48014BAF1ED
:10475000000F02460B4644FA0BFB30463946B8BF01
:10476000CBF1000B00F040FC02460B4606460F461C
:10477000DDE9040100F03AFC4FEA0B5A0D46002433
:1047800085A3D3E900232046294600F0E1FD324607
:10479000804689463B462046294600F025FC0246D5
:1047A0000B46DDE9040100F01FFC7DA3D3E90023E3
:1047B00000F0CEFD7CA3D3E9002306460F46204639
:1047C000294600F0C5FD02460B463046394600F04A
:1047D0000DFC06460F4602460B464046494600F091
:1047E00005FC42464B4604460D4600F0FDFB0246E2
:1047F0000B463046394600F0F7FB22468046894694
:104800002B462046294600F0A3FD69A3D3E90023E7
:1048100006460F4600F09CFD67A3D3E9002300F095
:10482000E3FB32463B4600F093FD65A3D3E900234A
:1048300000F0DCFB32463B4600F08AFD62A3D3E980
:10484000002300F0D1FB32463B4600F081FD60A31F
:10485000D3E9002300F0CAFB32463B4600F078FD66
:1048600002460B462046294600F0BEFB06460F4690
:1048700002460B462046294600F06AFD0022CDE99B
:1048800000014FF080433046394600F0ADFB024650
:104890000B46DDE9000100F085FE424606460F4664
:1048A0004B462046294600F053FD42464B4600F059
:1048B0009DFB02460B463046394600F095FB2246EA
:1048C0002B4600F091FB02460B4600204A4900F0BF
:1048D0008BFB8A44BAF5801F02460B46C0F23A8130
:1048E0005146DDE9062300F033FD44E432463B4601
:1048F0003046394600F02CFD3DE4B9F1000FBFF61B
:10490000D5ACDDE90034184604F1004133E43B4BFB
:1049100021F00048984540F30081394B0B44034394
:104920000CD132463B4600F05FFB02460B46DDE908
:10493000040100F089FF00283FF4F1AEDDE9060133
:1049400025A3D3E9002300F003FD23A3D3E900232B
:1049500000F0FEFC0FE49FED227B8DED067B83E6ED
:1049600002460B460020244900F01CFE25E49FED82
:104970001E7B8DED087B8DED0E7B9FED037B4FF055
:1049800000088DED067BD9E4000000000000F03F38
:10499000FE822B654715973C00000000432EE63F42
:1049A000EF39FAFE422EE63F396CA80C615C20BE5E
:1049B000D0A4BE726937663EF16BD2C541BDBB3E25
:1049C0002CDE25AF6A56113F93BDBE166CC1663F03
:1049D0003E5555555555C53F59F3F8C21F6EA501B3
:1049E000000000000000F0BF000000000000000018
:1049F000FFFF8F40FFFF0F000000F03FFFCB904014
:104A000000346F3F6A4B9C427FF74DAC694B9C4230
:104A10003FF7F5AB0022674B00F0E6FA54A3D3E969
:104A2000002304460D4600F093FC53A3D3E9002372
:104A3000804689462046294600F08AFC0022CDE9BE
:104A400002015D4B2046294600F082FC02460B46DF
:104A50004BA1D1E9000100F0C7FA22462B4600F035
:104A600077FC02460B460020544900F0BDFA22466E
:104A70002B4606460F462046294600F069FC0246B2
:104A80000B463046394600F063FC3FA3D3E90023D0
:104A900000F05EFC02460B46DDE9020100F0A4FADC
:104AA00002460B4604460D464046494600F09EFA33
:104AB00042464B460020CDE9020100F095FA02463D
:104AC0000B462046294600F08FFA80468946C1E50C
:104AD00032463B460020374900F064FDFFF74BBBF0
:104AE000DDE906012AA3D3E9002300F031FC28A365
:104AF000D3E9002300F02CFCFFF73DBBBEF1000F13
:104B00007FF446ABC3F1140348FA03F202FA03F34D
:104B1000984527D0F346FFF711BB284B98453FF740
:104B2000FEADDDE900239246934628E602460B4699
:104B3000FFF7B0BB9FED187B8DED087B9FED187BD9
:104B40008DED0E7B9FED187B4FF480288DED067B5D
:104B5000FFF7F4BB584643EC102B00F0ADF951ECD5
:104B6000100BBEE602F00102C2F1020BFFF7E6BA3B
:104B7000000000604715F73F44DF5DF80BAE543E80
:104B8000555555555555D53FFE822B654715F73F71
:104B90009C7500883CE4377E0000004003B8E23F8B
:104BA00006D0CF43EBFD4C3E000000000000F83F74
:104BB000FEFFEF3F0000F03F0000D03F0000E03F6D
:104BC0002DE9F041634855EC104BA84300F0958067
:104BD000002D2B4610EE102A70DD2F157DD0A7F288
:104BE000FF37C3F31303F90743F4801361D403EBD6
:104BF000D27100260B447F105200B64616204FF4A7
:104C000000110EEB01049C424FEAD2754FEA4202BA
:104C100003DC1B1B04EB010E0E44013805EB4303C0
:104C20004FEA5101EDD1844620244FF0004109E0C4
:104C300020D003EBD275013C4FEA51012B444FEADF
:104C4000420220D0734501EB0C05F1DD002D05EB90
:104C5000010C09DBF0469542A3EB0E0300D9013BA2
:104C6000521B0844C646E4E7BCF1000FF2DB0EF12C
:104C70000108F0E79542DCD8002D05EB010C4EDB76
:104C800098460023ECE7134302D0421C4BD001307E
:104C900040087110F30701F17F5101F5001148BF81
:104CA00040F0004001EB0753024643EC102BBDE8F7
:104CB000F0815B0003EBD273520098E710EE101AFC
:104CC00025F00040014328D0ADBB2F46D30A153F45
:104CD0005205002BFAD0DE0228D4002400E004465E
:104CE0005B00DD0204F10100F9D5C0F1200122FAD8
:104CF00001F10B433F1B824071E710EE102A2B4657
:104D000010EE100A294600F023FB22462B4600F045
:104D10006DF941EC100BBDE8F081BDE8F081BCF10C
:104D2000000FA4DAACE701362046B2E700202021CC
:104D30004FF0FF34DBE710EE102A2B4620462946C1
:104D400000F052F902460B4600F02CFC41EC100B2F
:104D5000BDE8F0810000F07F53EC102B23F00043FE
:104D600043EC102B704700BF10EE903A43F0004028
:104D700000F58010C00F7047002070470000000051
:104D80009FED010B704700BF000000000000F87F9E
:104D9000F0B553EC102BC3F30A56A6F2FF301328DC
:104DA00083B019464FEAD37410EE105A2FDC002856
:104DB00049DB3E4E064103EA060717432CD076082E
:104DC00033401D430CD04FF48023132821EA0606FC
:104DD00043FA00F141EA06010CBF4FF000450025FF
:104DE000334800EBC4042A46D4E9004510462B465C
:104DF000224600F0FBF8CDE9000122462B46DDE912
:104E0000000100F0F1F841EC100B03B0F0BD3328C5
:104E100006DDB0F5806F40D043EC102B03B0F0BD41
:104E2000A6F213464FF0FF30F0400242F4D04008A3
:104E30000242D5D04FF0804325EA000043FA06F63F
:104E400046EA0005CCE723F000401043E4D0C3F36A
:104E50001300104347420743154D5E0C3F0B07F408
:104E60000023760405EBC40243EA0601D2E9006799
:104E700010EE100A32463B4600F0B8F8CDE90001CA
:104E80003B463246DDE9000100F0AEF821F0004378
:104E900043EAC47141EC100BC0E710EE100A19464A
:104EA00000F0A4F841EC100BB8E700BFFFFF0F00C3
:104EB000585D00000000000053EC102B70B5C3F3E8
:104EC0000A541946054614BB23F0004111432AD069
:104ED00019460022384B394E10EE100A00F038FA0D
:104EE000B54202460B461FDBC1F30A54363C2C4444
:104EF00040F2FE7084421FDC002C2DDD21F0FF41CA
:104F000021F4E00141EA045343EC102B70BD40F260
:104F1000FF708442EBD110EE100A194600F066F8DB
:104F200041EC100B70BD70BD1FA3D3E9002300F04E
:104F30000FFA41EC100B70BD43EC112B9FED1C0BD5
:104F400000F040F81AA3D3E9002351EC100B00F055
:104F5000FFF941EC100B70BD14F1350F13DA4CF270
:104F600050318D4243EC112BE8DC9FED0F0B00F02C
:104F700029F80DA3D3E9002351EC100B00F0E8F958
:104F800041EC100B70BD21F0FF4121F4E0013634FB
:104F900041EA0453104619460022094B00F0D8F9A3
:104FA00041EC100B70BD00BF59F3F8C21F6EA50194
:104FB0009C7500883CE4377E00005043B03CFFFF06
:104FC0000000903C53EC102B11EE900A23F00041AE
:104FD00000F0004041EA000343EC102B704700BF93
:104FE00081F0004102E000BF83F0004330B54FEA9A
:104FF00041044FEA430594EA050F08BF90EA020F07
:105000001FBF54EA000C55EA020C7FEA645C7FEA99
:10501000655C00F0E2804FEA5454D4EB5555B8BFBC
:105020006D420CDD2C4480EA020281EA030382EA2D
:10503000000083EA010180EA020281EA0303362DBF
:1050400088BF30BD11F0004F4FEA01314FF4801C92
:105050004CEA113102D0404261EB410113F0004FA4
:105060004FEA03334CEA133302D0524263EB43035B
:1050700094EA050F00F0A780A4F10104D5F1200EF9
:105080000DDB02FA0EFC22FA05F2801841F1000154
:1050900003FA0EF2801843FA05F359410EE0A5F128
:1050A00020050EF1200E012A03FA0EFC28BF4CF059
:1050B000020C43FA05F3C01851EBE37101F000450F
:1050C00007D54FF0000EDCF1000C7EEB00006EEB1C
:1050D0000101B1F5801F1BD3B1F5001F0CD34908A6
:1050E0005FEA30004FEA3C0C04F101044FEA4452FD
:1050F00012F5800F80F09A80BCF1004F08BF5FEA84
:10510000500C50F1000041EB045141EA050130BD63
:105110005FEA4C0C404141EB010111F4801FA4F106
:105120000104E9D191F0000F04BF01460020B1FA5B
:1051300081F308BF2033A3F10B03B3F120020CDA93
:105140000C3208DD02F1140CC2F10C0201FA0CF071
:1051500021FA02F10CE002F11402D8BFC2F1200CD6
:1051600001FA02F120FA0CFCDCBF41EA0C0190408C
:10517000E41AA2BF01EB0451294330BD6FEA0404D5
:105180001F3C1CDA0C340EDC04F11404C4F12002C0
:1051900020FA04F001FA02F340EA030021FA04F3D2
:1051A00045EA030130BDC4F10C04C4F1200220FA29
:1051B00002F001FA04F340EA0300294630BD21FA67
:1051C00004F0294630BD94F0000F83F4801306BF2D
:1051D00081F480110134013D4EE77FEA645C18BF21
:1051E0007FEA655C29D094EA050F08BF90EA020FB8
:1051F00005D054EA000C04BF1946104630BD91EAB0
:10520000030F1EBF0021002030BD5FEA545C05D1B2
:105210004000494128BF41F0004130BD14F58004F1
:105220003CBF01F5801130BD01F0004545F0FE4165
:1052300041F470014FF0000030BD7FEA645C1ABF9A
:10524000194610467FEA655C1CBF0B46024650EAD1
:10525000013406BF52EA033591EA030F41F40021FD
:1052600030BD00BF90F0000F04BF0021704730B583
:105270004FF4806404F132044FF000054FF0000158
:1052800050E700BF90F0000F04BF0021704730B519
:105290004FF4806404F1320410F0004548BF4042EE
:1052A0004FF000013EE700BF42004FEAE2014FEA43
:1052B00031014FEA02701FBF12F07F4393F07F4F1E
:1052C00081F06051704792F0000F14BF93F07F4F50
:1052D000704730B54FF4607401F0004521F0004193
:1052E00020E700BF50EA010208BF704730B54FF019
:1052F00000050AE050EA010208BF704730B511F01E
:10530000004502D5404261EB41014FF4806404F155
:1053100032045FEA915C3FF4DCAE4FF003025FEAD7
:10532000DC0C18BF03325FEADC0C18BF033202EB5F
:10533000DC02C2F1200300FA03FC20FA02F001FAB9
:1053400003FE40EA0E0021FA02F11444C1E600BF58
:1053500070B54FF0FF0C4CF4E06C1CEA11541DBF0B
:105360001CEA135594EA0C0F95EA0C0F00F0DEF8D6
:105370002C4481EA030621EA4C5123EA4C5350EABB
:10538000013518BF52EA033541F4801143F480130C
:1053900038D0A0FB02CE4FF00005E1FB02E506F09D
:1053A0000042E0FB03E54FF00006E1FB03569CF0F2
:1053B000000F18BF4EF0010EA4F1FF04B6F5007FF8
:1053C00064F5407404D25FEA4E0E6D4146EB06066A
:1053D00042EAC62141EA55514FEAC52040EA5E50F3
:1053E0004FEACE2EB4F1FD0C88BFBCF5E06F1ED89D
:1053F000BEF1004F08BF5FEA500E50F1000041EBD4
:10540000045170BD06F0004646EA010140EA020080
:1054100081EA0301B4EB5C04C2BFD4EB0C0541EAA2
:10542000045170BD41F480114FF0000E013C00F3B7
:10543000AB8014F1360FDEBF002001F0004170BDDB
:10544000C4F10004203C35DA0C341BDC04F11404F4
:10545000C4F1200500FA05F320FA04F001FA05F280
:1054600040EA020001F0004221F0004110EBD3704D
:1054700021FA04F642EB06015EEA430E08BF20EA79
:10548000D37070BDC4F10C04C4F1200500FA04F31C
:1054900020FA05F001FA04F240EA020001F00041AE
:1054A00010EBD37041F100015EEA430E08BF20EA21
:1054B000D37070BDC4F1200500FA05F24EEA020E69
:1054C00020FA04F301FA05F243EA020321FA04F098
:1054D00001F0004121FA04F220EA020000EBD3704F
:1054E0005EEA430E08BF20EAD37070BD94F0000F4F
:1054F0000FD101F00046400041EB010111F4801F83
:1055000008BF013CF7D041EA060195F0000F18BF33
:10551000704703F00046520043EB030313F4801F6F
:1055200008BF013DF7D043EA0603704794EA0C0F29
:105530000CEA135518BF95EA0C0F0CD050EA41063F
:1055400018BF52EA4306D1D181EA030101F00041BC
:105550004FF0000070BD50EA410606BF10461946E4
:1055600052EA430619D094EA0C0F02D150EA0136F0
:1055700013D195EA0C0F05D152EA03361CBF104631
:1055800019460AD181EA030101F0004141F0FE41D0
:1055900041F470014FF0000070BD41F0FE4141F454
:1055A000780170BD70B54FF0FF0C4CF4E06C1CEA54
:1055B00011541DBF1CEA135594EA0C0F95EA0C0F09
:1055C00000F0A7F8A4EB050481EA030E52EA0335C4
:1055D0004FEA013100F088804FEA03334FF08055E5
:1055E00045EA131343EA12634FEA022245EA111512
:1055F00045EA10654FEA00260EF000419D4208BFC3
:10560000964244F1FD0404F5407402D25B084FEA6F
:105610003202B61A65EB03055B084FEA32024FF41B
:1056200080104FF4002CB6EB020E75EB030E22BF78
:10563000B61A754640EA0C005B084FEA3202B6EB38
:10564000020E75EB030E22BFB61A754640EA5C00E7
:105650005B084FEA3202B6EB020E75EB030E22BF77
:10566000B61A754640EA9C005B084FEA3202B6EB78
:10567000020E75EB030E22BFB61A754640EADC0037
:1056800055EA060E18D04FEA051545EA16754FEA99
:1056900006164FEAC30343EA52734FEAC2025FEAB7
:1056A0001C1CC0D111F4801F0BD141EA00014FF046
:1056B00000004FF0004CB6E711F4801F04BF014317
:1056C0000020B4F1FD0C88BFBCF5E06F3FF6AFAE33
:1056D000B5EB030C04BFB6EB020C5FEA500C50F1C3
:1056E000000041EB045170BD0EF0004E4EEA113146
:1056F00014EB5C04C2BFD4EB0C0541EA045170BD4D
:1057000041F480114FF0000E013C90E645EA060E90
:105710008DE60CEA135594EA0C0F08BF95EA0C0FBE
:105720003FF43BAF94EA0C0F0AD150EA01347FF406
:1057300034AF95EA0C0F7FF425AF104619462CE7DD
:1057400095EA0C0F06D152EA03353FF4FDAE104640
:10575000194622E750EA410618BF52EA43067FF491
:10576000C5AE50EA41047FF40DAF52EA43057FF421
:10577000EBAE12E74FF0FF3C06E000BF4FF0010C2C
:1057800002E000BF4FF0010C4DF804CD4FEA410C90
:105790007FEA6C5C4FEA430C18BF7FEA6C5C1BD05D
:1057A00001B050EA410C0CBF52EA430C91EA030FDE
:1057B00002BF90EA020F0020704710F1000F91EA3B
:1057C000030F58BF994208BF90422CBFD8176FEA09
:1057D000E37040F0010070474FEA410C7FEA6C5CD7
:1057E00002D150EA013C07D14FEA430C7FEA6C5CDE
:1057F000D6D152EA033CD3D05DF8040B704700BF0A
:105800008446104662468C461946634600E000BF57
:1058100001B5FFF7B7FF002848BF10F1000F01BD29
:105820004DF808EDFFF7F4FF0CBF012000205DF8F4
:1058300008FB00BF4DF808EDFFF7EAFF34BF012079
:1058400000205DF808FB00BF4DF808EDFFF7E0FF12
:1058500094BF012000205DF808FB00BF4DF808ED63
:10586000FFF7CEFF94BF012000205DF808FB00BFCA
:105870004DF808EDFFF7C4FF34BF012000205DF8AC
:1058800008FB00BF4FEA410C7FEA6C5C02D150EA92
:10589000013C0AD14FEA430C7FEA6C5C02D152EA28
:1058A000033C02D14FF0000070474FF001007047F9
:1058B0004FEA4102B2F1E04324BFB3F5001CDCF132
:1058C000FE5C0DD901F0004C4FEAC0024CEA50706A
:1058D000B2F1004F40EB830008BF20F00100704799
:1058E00011F0804F21D113F13872BCBF01F000409C
:1058F000704741F480114FEA5252C2F11802C2F1CE
:10590000200C10FA0CF320FA02F018BF40F001004E
:105910004FEAC1234FEAD32303FA0CFC40EA0C0000
:1059200023FA02F34FEA4303CCE77FEA625307D13D
:1059300050EA01331EBF4FF0FE4040F44000704774
:1059400001F0004040F0FE4040F40000704700BF0E
:105950007BB972B90029BEBF00204FF0004106E0BC
:1059600008BF00281CBF6FF000414FF0FF3000F06F
:10597000ADB9ADF1080C6DE904CE002909DB002BAF
:105980001ADB00F035F8DDF804E0DDE9022304B0AD
:105990007047404261EB4101002B1BDB00F028F80F
:1059A000DDF804E0DDE9022304B0404261EB41018F
:1059B000524263EB43037047524263EB430300F0F0
:1059C00017F8DDF804E0DDE9022304B0404261EBA2
:1059D00041017047524263EB430300F009F8DDF8E0
:1059E00004E0DDE9022304B0524263EB4303704755
:1059F0002DE9F0478C460D460446089E002B51D1F8
:105A00008A4217466DD9B2FA82FEBEF1000F0BD062
:105A1000CEF1200C01FA0EF520FA0CFC02FA0EF77A
:105A20004CEA050C00FA0EF44FEA174A250CBCFBB1
:105A3000FAF81FFA87F90AFB18CC45EA0C4508FB6F
:105A400009F3AB420AD9ED1908F1FF3280F0238146
:105A5000AB4240F22081A8F102083D44ED1AA4B205
:105A6000B5FBFAF00AFB105544EA054400FB09F9BE
:105A7000A14509D9E41900F1FF3380F00A81A1455D
:105A800040F2078102383C44A4EB090440EA084094
:105A90000021002E61D024FA0EF4002334607360DC
:105AA000BDE8F0878B4207D9002E54D0002186E84C
:105AB00021000846BDE8F087B3FA83F1002940F0E1
:105AC0008E80AB4202D3824200F2FA80841A65EBE8
:105AD00003050120AC46002E3FD086E81010BDE83B
