:1000000000000120A94D0000D14D0000D34D00009B
:10001000D54D0000D74D0000D94D00000000000074
:10002000000000000000000000000000DB4D0000A8
:10003000DD4D000000000000DF4D0000E14D00003C
:10004000916E00005D3A00000D790000E34D000064
:10005000E34D0000E34D0000E34D0000CD760000CD
:1000600001760000E34D0000E34D0000B174000094
:10007000E34D0000E34D0000E34D0000E34D0000C0
:10008000E34D0000AD2E0000E34D0000E34D000005
:10009000293C0000ED2E0000E34D0000E34D000080
:1000A000E34D0000E34D000099420000E34D0000E5
:1000B000E34D0000E34D00000000000000000000E0
:1000C000E34D0000E34D0000E34D0000E34D000070
:1000D000E34D0000E34D0000E34D00000000000090
:1000E0000000000000000000000000000000000010
:1000F0000000000000000000000000000000000000
:1001000000000000000000000000000000000000EF
:1001100000000000000000000000000000000000DF
:1001200000000000000000000000000000000000CF
:1001300000000000000000000000000000000000BF
:1001400000000000000000000000000000000000AF
:10015000000000000000000000000000000000009F
:10016000000000000000000000000000000000008F
:10017000000000000000000000000000000000007F
:10018000000000000000000000000000000000006F
:10019000000000000000000000000000000000005F
:1001A000000000000000000000000000000000004F
:1001B000000000000000000000000000000000003F
:1001C000000000000000000000000000000000002F
:1001D000000000000000000000000000000000001F
:1001E000000000000000000000000000000000000F
:1001F00000000000000000000000000000000000FF
:1002000010B5054C237833B9044B13B10448AFF350
:1002100000800123237010BD9C020020000000001C
:1002200070AF00000C4B43B10C480D4910B5AFF353
:1002300000800C48036823B910BD0A48036833B92D
:100240007047094B002BF7D0BDE810401847064B0C
:10025000002BF5D0184700BF0000000070AF000071
:10026000A00200209802002000000000154B002B87
:1002700008BF134B9D46A3F5803A00218B460F46DD
:100280001348144A121A07F0E8FB0F4B002B00D05A
:1002900098470E4B002B00D0984700200021040007
:1002A0000D000D48002802D00C48AFF3008007F085
:1002B000A5FB2000290000F01BF907F08BFB00BF15
:1002C0000000080000000120000000000000000005
:1002D0009C020020202A00200000000000000000F6
:1002E00080B584B000AF78607B68002B0AD0074BE4
:1002F00043F00103FB607B689B01BB60FB68B8684F
:10030000984700E000BF1037BD4680BD60A80000E0
:1003100080B582B000AF78607B68002B0AD04FF4C4
:100320007A70FFF7DDFF7B68013B7B607B68002B09
:10033000F5D100E000BF0837BD4680BD80B483B072
:1003400000AF78604FF0A04318460C37BD465DF80B
:10035000047B704780B584B000AF786008461146D2
:100360001A460346FB700B46BB7013467B703B1D61
:100370001846FFF7E3FFF8607A68F978BB785B000E
:1003800019437B789B0019433B7E1B0219433B7F3B
:100390001B041943FB6802F5E07243F8221000BF0A
:1003A0001037BD4680BD80B584B002AF78600023B1
:1003B0000193002300930023012201217868FFF7B5
:1003C000C9FF00BF0837BD4680BD80B584B000AF0F
:1003D00078603B1D1846FFF7B1FFF860FB68D3F863
:1003E0000435BB60BB68DA437B68012101FA03F383
:1003F0001A40FB68C3F808257B6801229A40BB6855
:100400001A40FB68C3F80C2500BF1037BD4680BDFD
:1004100090B585B000AF78600023FB730420FFF730
:10042000D4FF7B681B785BB2002B02DA0123FB73DD
:100430001DE07B689C8801F08BF803469C4216D136
:100440007B681B7803F0F003002B02D10123FB73C0
:100450000DE07B685B78EC2B09D17B6898687B6842
:10046000D9797B685B88DBB2012200F015FE00BF02
:100470001437BD4690BD000080B582B000AF7860F3
:100480000B46FB70FA78074B1B681344054A136050
:10049000FB781946786800F0B5FE00BF0837BD4606
:1004A00080BD00BFB802002080B582B000AF786088
:1004B0000B46FB70FB781A467968084807F0C2FAC9
:1004C000FB78064A13440649184607F03BFF0348E9
:1004D00001F002F800BF0837BD4680BD9429002016
:1004E00030A8000080B500AF00F01AFD00BF80BD4D
:1004F00090B585B000AF0023FB60FB68BB60BB68B4
:10050000002B02D0B86802F083FD00F085F80420CB
:10051000FFF749FF1320FFF746FF1420FFF743FFC3
:100520000B20FFF740FF0C20FFF73DFF154800F0C0
:10053000ADFF01F00DF803461C4600F07BF90346C1
:1005400022461149114807F0FDFE104800F0C4FF93
:100550000F49104800F0F0FAF860FB687B607B6898
:10056000002B02D0786802F053FD0B4800F096F89B
:1005700000F06EFC00F092FB00F09EFA0120FFF705
:10058000C7FEF9E77904000034A80000D429002050
:10059000A904000011040000E504000080B483B049
:1005A00000AF786039607B683A68C3F8042300BF05
:1005B0000C37BD465DF8047B704780B483B000AF54
:1005C00078600B46FB70FA787B6813441A46012367
:1005D000136000BF0C37BD465DF8047B704780B5E3
:1005E00082B000AF786039607B681B683968184654
:1005F000FFF7D4FF00BF0837BD4680BD80B582B08D
:1006000000AF78607B681B6808211846FFF7D5FFAC
:1006100000BF0837BD4680BD80B582B000AF03F093
:1006200051FF78607B683B603B68002B02D03868E4
:1006300002F0EEFC002003F0E9FF00BF04F022F816
:10064000034683F00103DBB2002BF7D100BF08376C
:10065000BD4680BD80B582B000AF0346FB71FB791B
:10066000002B10D10A48FFF7C9FF4FF4803108482A
:10067000FFF7B5FF074B1B780133DAB2054B1A7051
:10068000054B1B68984700BF0837BD4680BD00BFBB
:1006900068A8000000000020BC02002080B588B0DF
:1006A00000AF7860224A7B681360002003F06AFF85
:1006B00000BF03F0A3FF034683F00103DBB2002B6E
:1006C000F7D11C4A07F10C0392E8030018600433C9
:1006D000198040F2FF73BB8107F10C03164A1946DB
:1006E000164806F041FDF861FB69BB61BB69002B50
:1006F00002D0B86902F08CFC0021104806F032FEEE
:1007000001234FF4F07200210C4806F0A9FDF861B6
:10071000FB697B617B69002B02D0786902F078FC71
:10072000064806F083FD00BF2037BD4680BD00BFF0
:10073000BC02002070A800005506000068A8000058
:1007400080B485B000AF0346FB710023FB60FB68FB
:10075000002B01D1044BFB60FB6818461437BD46E3
:100760005DF8047B704700BF1C00002080B483B09C
:1007700000AF786039607B685A783B68DB799A42D1
:1007800001D0002312E07B685A883B689B7A9BB2B9
:100790009A4201D0002309E07B689A883B681B7A63
:1007A0009BB29A4201D0002300E0012318460C3787
:1007B000BD465DF8047B704780B584B000AF7860BB
:1007C0000023FB730023BB6024E0194ABB6894211B
:1007D00001FB03F313441B78002B18D0BB68942251
:1007E00002FB03F30833124A1344043319467868B2
:1007F000FFF7BCFF0346002B09D00D4ABB689421CC
:1008000001FB03F3134400221A700123FB73BB683E
:100810000133BB60BB68012B05DCFB7B83F001036C
:10082000DBB2002BD1D100BF1037BD4680BD00BF69
:100830006403002080B400AF32231846BD465DF843
:10084000047B704780B400AF044BD3F80835DBB2AB
:100850001846BD465DF8047B704700BF001000409D
:1008600080B483B000AF0346FB71FB79012B0ED03F
:10087000022B02D0002B16D013E0114B4FF6FF7263
:10088000C3F83C250E4B0F4AC3F838250CE00C4B3F
:10089000FF22C3F83C250A4B40F20712C3F8382563
:1008A00002E0002305E000BF054AFB79C2F83435B9
:1008B000012318460C37BD465DF8047B704700BF26
:1008C000001000402110010080B400AF044BD3F8A9
:1008D0003435DBB21846BD465DF8047B704700BF77
:1008E0000010004080B500AF03F012FB00BF80BDD8
:1008F00080B500AF03F09EFA00BF80BD80B584B024
:1009000000AF786039603B6801229A703B68002232
:100910001A707B681A783B689A717B685A783B68D2
:10092000DA717B685B88DAB23B681A727B685B8835
:100930001B0A9BB2DAB23B685A727B681B785BB2C7
:10094000002B02DA0523FB730DE07B689B88DAB28B
:100950003B689A727B689B881B0A9BB2DAB23B6841
:10096000DA720723FB737B68DA79FB7B1344DAB214
:100970003B681A713B681A793B685A713B685A1D8B
:10098000FB7BD0187B6899687B68DB791A4607F097
:1009900059F800BF1037BD4680BD80B485B000AFA8
:1009A000786039607B689A793B681A707B68DA797D
:1009B0003B685A707B681B7A9AB23B685A803B68E6
:1009C0005B881AB27B685B7A1B021BB213431BB2B3
:1009D0009AB23B685A807B6893F901203B689A7110
:1009E0003B681B785BB2002B06DA3B684FF6FF7260
:1009F0009A800523FB7312E07B689B7A9AB23B686E
:100A00009A803B689B881AB27B68DB7A1B021BB218
:100A100013431BB29AB23B689A800723FB737B682F
:100A20001A79FB7BD31ADAB23B68DA713B68DB795F
:100A3000002B05D07B685A1DFB7B1A443B689A60EB
:100A400000BF1437BD465DF8047B704780B584B0A5
:100A500000AF7860174B1B68002B03D0154B1B6849
:100A6000786898470023FB737B689B88122B14D10E
:100A70007B681B7803F0F003702B04D102217868A7
:100A800000F066F90BE07B681B7803F06003402BF5
:100A900005D17868FFF790FE01E00123FB73FB7B33
:100AA000002B02D0786800F0A7F900BF1037BD46D0
:100AB00080BD00BF5803002080B500AF06E00749A5
:100AC0000748FFF76AFF0548FFF7C0FF044803F037
:100AD00055F90346002BF2D000BF80BD480300202B
:100AE000C002002080B582B000AF78607B681B78C0
:100AF000012B09D0022B13D0002B0DD1FFF7F8FEEC
:100B00000B4B01221A700CE003F034FAFFF7F0FEF1
:100B1000074B01221A7004E0064B01221A7000E014
:100B200000BF044B01221A7000BF0837BD4680BDCC
:100B3000550300205403002080B58EB000AF7860CC
:100B400039604D4B1B687B614C4B1B683B614C4AC9
:100B500007F1080392E8030083E80300494A7B6831
:100B60001360494A3B681360484B0022DA81474BC7
:100B700001221A75454B01221A70444B0822DA747F
:100B8000424B03221A72414B414A5A603F4B0122A9
:100B90005A703E4B02225A723C4802F0A7FF78631B
:100BA0007B6B3B633B6B002B01D03B6B5FE007F142
:100BB0001403184603F000FA78637B6BFB62FB6A50
:100BC000002B01D0FB6A52E007F11003184603F036
:100BD0003BFA78637B6BBB62BB6A002B01D0BB6ABC
:100BE00045E007F108030821184603F0A1FA7863ED
:100BF0007B6B7B627B6A002B01D07B6A37E0322003
:100C000003F00EFB78637B6B3B623B6A002B01D0E9
:100C10003B6A2CE0042003F021FB78637B6BFB61D3
:100C2000FB69002B01D0FB6921E01A4B08221A71E5
:100C3000184B00221A70174B00225A7103F0FAF871
:100C400078637B6BBB61BB69002B01D0BB690EE095
:100C50004FF08043D3F8003403F00F130E4A1360B3
:100C60004FF080434FF00F12C3F8002400231846C2
:100C70003837BD4680BD00BF7CA8000080A80000BA
:100C800084A8000058030020600300200400002016
:100C9000E50A00001C0000205C03002080B400AFC7
:100CA00000BF064B1B78DBB283F00103DBB2002BE5
:100CB000F7D100BFBD465DF8047B704754030020A8
:100CC00080B584B000AF78600B46FB70FFF70AFE7A
:100CD0007B681B781846FFF733FDF860FB7801331B
:100CE000DAB2FB681A71FB681A79FB685A71FB6803
:100CF00005330133FA787968184606F0A3FE054BF0
:100D000000221A70F86802F0CFFF00BF1037BD460E
:100D100080BD00BF5403002080B584B000AF786070
:100D2000FFF7E0FD7B681B781846FFF709FDF860C8
:100D3000F9687868FFF7E2FD044B00221A70F86842
:100D400002F0B2FF00BF1037BD4680BD5403002043
:100D500080B586B000AF78600B46FB70FB7843F03F
:100D60004003DBB23B737B685B787B737B689B885B
:100D7000FB817B685B883B820023FB7407F10C03DB
:100D80001846FFF7C9FF002318461837BD4680BD37
:100D900090B585B000AF78607B68DB79FB737B68CA
:100DA0009A68FB7B591CF97313447A6892F9062000
:100DB000D2B21A707B689A68FB7B591CF973D418FD
:100DC00000F0C6FB0346DBB223707B689A68FB7BAE
:100DD000591CF9731344074AD2F80C25D2B21A7081
:100DE0007B68DB790333DAB27B68DA7100BF1437D2
:100DF000BD4690BD0010004080B584B000AF786063
:100E00007B681B7803F00F03FB73FB7B002B1AD06E
:100E1000FB7B013BFB737B681B7823F00F03DAB28B
:100E20007B681A707B681A78FB7B1343DAB27B68A5
:100E30001A707B685B78012B02D17868FFF7A8FFF6
:100E40007868FFF769FF002318461037BD4680BD5C
:100E500080B582B000AF0E4B1B681B0EDBB23B713E
:100E60000B4B1B681B0CDBB27B71094B1B681B0A0D
:100E7000DBB2BB71064B1B68DBB2FB713B1D04226E
:100E80001946002000F02AF800BF0837BD4680BD93
:100E90005C03002080B586B000AF3A601A46034676
:100EA000FB710B46BB801346BB710B4B1B783B732E
:100EB000FB797B731223FB81BB883B823B687B61A0
:100EC000BB79FB7407F10C031846FFF725FF00BF41
:100ED0001837BD4680BD00BFA300002080B586B096
:100EE00000AF03463960FB711346BB710B4B1B7897
:100EF00063F07F03DBB23B73FB797B731223FB81CF
:100F00003B687B61BB79FB7407F10C031846FFF764
:100F100003FF00BF1837BD4680BD00BFA3000020FF
:100F200080B582B000AF144B1B681B0EDBB23B7068
:100F3000114B1B681B0CDBB27B700F4B1B681B0A31
:100F4000DBB2BB700C4B1B68DBB2FB700B4BD3F8F6
:100F50000C35DBB23B7116233B713B46052219462B
:100F60000120FFF7BBFF044B1B685A1C02490A60B3
:100F700018460837BD4680BD8C0400200010004094
:100F800080B586B000AFF860B9601346FB71BB68EE
:100F90001B78013B092B62D801A252F823F000BF55
:100FA000C90F0000E50F0000FB0F00001710000044
:100FB0005F1000005F1000005F1000005F10000075
:100FC0002D10000049100000BB6801331B781A4641
:100FD000BB6802331B782949F86807F0B3F9034668
:100FE000FB7546E0BB6801331B781A462449F86854
:100FF00007F0A8F90346FB753BE0BB6801331B789B
:101000001A46BB6802331B781E49F86807F09AF944
:101010000346FB752DE0BB6801331B781A461A495D
:10102000F86807F08FF90346FB7522E0BB680133CF
:101030001B781A46BB6802331B781449F86807F01E
:1010400081F90346FB7514E0BB6801331B781A462F
:101050000F49F86807F076F90346FB7509E0BB68AD
:101060001B781A460B49F86807F06CF90346FB75C4
:1010700000BFFB7D18461837BD4680BDA4AB0000FD
:10108000C4AB0000E0AB000000AC00001CAC0000F2
:1010900038AC00004CAC000080B5ACB000AF78605C
:1010A000084611461A460346FB700B46BB701346B2
:1010B0007B707B681B7887F88C307B681B78013BE2
:1010C000092B73D801A252F823F000BFF5100000DD
:1010D000111100002511000057110000AD11000092
:1010E000AD110000AD110000AD110000691100004C
:1010F0009B1100007B685B7887F88D3000F028FA40
:101100000346DBB287F88E30032387F8AF3051E017
:1011100000F01EFA0346DBB287F88D30022387F811
:10112000AF3047E0FFF7BAFD02F0F2FE7B68013313
:101130001B78184603F074F802F07CFE7B685B783D
:1011400087F88D30FFF77EFB034687F88E30032348
:1011500087F8AF302EE0FFF775FB034687F88D3038
:10116000022387F8AF3025E0FFF798FD02F0D0FEAC
:101170007B6801331B781846FFF772FB02F05AFEBA
:101180007B685B7887F88D30FFF79EFB034687F816
:101190008E30032387F8AF300CE0FFF795FB034652
:1011A00087F88D30022387F8AF3003E0012387F8FA
:1011B000AF3000BFBB78002B09D07B7899B297F88D
:1011C000AF3007F18C02EC20FFF764FE13E097F8D4
:1011D000AF2007F18C0107F10C031846FFF7D0FE92
:1011E000034687F8AE30064B1B6897F8AE1007F140
:1011F0000C021046984700BFB037BD4680BD00BF07
:101200006003002080B594B000AF78600B46FB709F
:101210002949786800F0A4F90346002B2AD07B689E
:10122000181DFB78043BD9B207F14E0307F10C02FD
:1012300000F0FBF90346002B39D097F84E2007F158
:101240000C0311461846FFF73BFD97F84E301A463F
:1012500007F12C031949184607F074F8034687F87C
:101260004F30174B1B6897F84F1007F12C021046B0
:1012700098471CE01349786800F072F90346002B88
:1012800015D07B68181DFB78043BD9B207F14D03DC
:1012900007F12C0200F0C9F90346002B07D097F89C
:1012A0004D1007F12C0000230022FFF7F5FE00BFD0
:1012B0005037BD4680BD00BF64AC00006CAC000080
:1012C000600300207CAC000080B483B000AF786085
:1012D0007B6800221A60BFF35F8F00BF0C37BD46EA
:1012E0005DF8047B704780B584B000AF7860012161
:1012F000786800F0E0F9F860BFF35F8FFB68002BBF
:101300000CBF01230023DBB218461037BD4680BD59
:1013100080B483B000AF7860BFF35F8F7B6800223A
:101320001A6000BF0C37BD465DF8047B704780B47F
:1013300000AF20BF40BF20BF00BFBD465DF8047BAB
:101340007047000080B584B000AF78600B46FB703A
:101350000023FB6029E0FB687A6813441B78FB726A
:10136000FB7A0D2B05D0FB7A0A2B02D0FB7A002BDF
:101370000ED1124B1B78002B14D0114B1B680F4A57
:10138000127811460F4898470C4B00221A7009E05A
:101390000A4B1B785A1CD1B2084A11701946094AE7
:1013A000FB7A5354FB680133FB60FA78FB689A427E
:1013B000D1DC00BF1037BD4680BD00BF3406002021
:1013C000B0050020B405002080B58AB002AF786077
:1013D0000B46FB70FB78032B43D801A252F823F095
:1013E000F1130000FD1300002F140000571400003B
:1013F0001E4B1B6801331D4A136032E01C4B1B68F7
:1014000001331B4A136007F11C0207F10C01002392
:10141000009313461022174800F08BFFFB69DAB2E5
:1014200007F10C0311461846FFF78CFF19E0124B29
:101430001B680133104A13600E4801F016F80D487E
:1014400000F034FE0D4A0E490A4800F08FFD0D4BA6
:1014500000221A7005E00C4B1B6801330A4A136026
:1014600000BF00BF2037BD4680BD00BF380600204A
:101470003C060020D4AC000040060020B8AC0000C0
:1014800084AC0000340600204406002080B584B0FF
:1014900000AF78600B4A7B6813600B4A0B490C481D
:1014A00000F064FDF860FB68BB60BB68002B02D0F5
:1014B000B86801F0ADFD0748FFF706FF00BF103721
:1014C000BD4680BDB0050020B8AC000084AC000073
:1014D000D4AC0000142A002080B586B002AF78603A
:1014E00000BF1848FFF7FFFE034683F00103DBB29D
:1014F000002BF6D1786806F049FF02464FF0FF3323
:10150000009300237968104800F070FEF8600D48E1
:10151000FFF7FEFEFB68112BE2D0FB680D2B05D117
:101520000A4B1B680133094A136007E0FB68002B74
:1015300004D0064B1B680133044A136000BF103708
:10154000BD4680BD142A0020D4AC0000480600200F
:1015500080B400AF12231846BD465DF8047B704787
:1015600080B483B000AF786039600BE03B681B78D3
:10157000002B01D1012312E07B6801337B603B68C3
:1015800001333B607B681A783B681B789A42EDD048
:101590003B681B78002B0CBF01230023DBB21846ED
:1015A0000C37BD465DF8047B704780B485B000AF52
:1015B0000346FB710023FB73FB79392B03D8FB79BE
:1015C000303BFB730CE0FB79462B03D8FB79373BB0
:1015D000FB7305E0FB79662B02D8FB79573BFB7365
:1015E000FB7B18461437BD465DF8047B704780B519
:1015F00084B000AF78607B681B781846FFF7D5FF92
:101600000346FB73FB7B1B01FB737B6801331B7879
:101610001846FFF7CAFF03461A46FB7B1343FB73CA
:10162000FB7B18461037BD4680BD80B586B000AF45
:10163000F8607A603B600B46FB72FB7A032B05D99E
:10164000FB7A03F00103DBB2002B01D000232EE074
:10165000FB681B78302B04D1FB6801331B78782B97
:1016600001D0002323E03B6800221A70FB6802339C
:101670007B6102233B6115E07869FFF7B8FF034601
:101680001A467B681A707B6902337B617B68013381
:101690007B603B681B780133DAB23B681A703B69A8
:1016A00002333B61FA7A3B699A42E5DC0123184632
:1016B0001837BD4680BD90B486B000AF7860396001
:1016C0007B683A6853E8004F104643E8000191F008
:1016D000000FF7D17C613861F9607B6918461837D3
:1016E000BD4690BC704780B483B000AF786039606D
:1016F0007B689A683B689A4202D93B68013300E0F4
:10170000002318460C37BD465DF8047B704780B453
:1017100085B000AF78607B681B681B68FB607B68E6
:101720001B685B68BB60BA68FB689A4203D3BA68FF
:10173000FB68D31A06E07B689A68FB68D21ABB681C
:101740001344013318461437BD465DF8047B7047D7
:1017500090B58BB000AFF860B9607A60F86800F0BF
:1017600064F97862FB689A68FB681B685B68D31A47
:1017700001333B62FB685B681946FB681B685B686A
:10178000FA68D26802FB03F30B44FB617A683B6A98
:101790009A421DD8FB68DB687A6802FB03F31A469D
:1017A000B968F86906F04EF9FB681A68FB681B68AF
:1017B00059687B681944FB689B68994205D8FB68A7
:1017C0001B6859687B680B4400E0002353602FE0DE
:1017D000FB68DB683A6A02FB03F3BB61BA69B9686C
:1017E000F86906F02FF97A683B6AD31A7B61FB68C7
:1017F0005868BA68BB6913441946FB68DB687A69A4
:1018000002FB03F31A4606F01DF9FB681B687A69B0
:101810005A607A6A7B689A420AD2FB681C68FB6845
:101820001B685B681946F868FFF75DFF0346236095
:10183000F868FFF76CFF3861FB681B689A683B69C2
:101840009A4203D2FB681B683A699A6000BF2C3742
:10185000BD4690BD80B586B000AFF860B9607A60D3
:101860007B687B617B68002B01D1002321E0002095
:1018700001F032FCFB681B7C002B07D1FB689B68E6
:101880007A68934228BF13467B6009E0F86800F04D
:10189000CCF838617A683B69934228BF13467B6075
:1018A0007A68B968F868FFF753FF002001F01EFC62
:1018B0007B6818461837BD4680BD80B58AB000AF3A
:1018C000F860B9607A60FB681B681B687B62FB6824
:1018D0001B685B683B627A6A3B6A9A4203D83A6A41
:1018E0007B6AD31A04E0FB689A687B6AD31A0133D7
:1018F000FB61FB685B681946FB68DB687A6A02FB80
:1019000003F30B44BB617A68FB699A4219D8FB6800
:10191000DB687A6802FB03F31A46B969B86806F017
:1019200091F8FB681A68796A7B681944FB689B68C0
:10193000994203D8796A7B680B4400E00023136066
:1019400020E0FB68DB68FA6902FB03F37B617A69DC
:10195000B969B86806F076F87A68FB69D31A3B6112
:10196000BA687B6913441846FB685968FB68DB68F2
:101970003A6902FB03F31A4606F064F8FB681B6839
:101980003A691A6000BF2837BD4680BD80B586B071
:1019900000AFF860B9607A607B687B617B68002B80
:1019A00001D1002315E0002001F096FBF868FFF755
:1019B000AEFE38617A683B69934228BF13467B606C
:1019C0007A68B968F868FFF778FF002001F08EFBAD
:1019D0007B6818461837BD4680BD80B582B000AF21
:1019E0007860002001F078FB7B681B680C220021E6
:1019F000184606F032F8002001F078FB00BF0837E7
:101A0000BD4680BD80B584B000AF7860002001F095
:101A100063FB7868FFF77BFEF860002001F066FB4F
:101A2000FB6818461037BD4680BD90B583B000AF47
:101A300078607B689C687868FFF7E4FF0346E31AE8
:101A400018460C37BD4690BD80B483B000AF7860B7
:101A50007B6803F06043B3F1005F0CBF01230023F8
:101A6000DBB218460C37BD465DF8047B70470000BA
:101A700080B582B000AF78607B681B781A460D4B4A
:101A80009B5C002B05D07B680433184604F0A4FD52
:101A90000BE07B681B781A46064B9B5C002B04D13D
:101AA0007B680C33184603F0A3FD00BF0837BD4622
:101AB00080BD00BF182A002080B586B000AFF86056
:101AC000B9601346FB7100237B61FB681B781A46E3
:101AD000104B9B5C002B08D0FB680433FA79B96883
:101AE000184604F0A9FD78610EE0FB681B781A46E1
:101AF000084B9B5C002B07D1FB680C33FA79B96863
:101B0000184603F0EBFD78617B6918461837BD462F
:101B100080BD00BF182A002080B584B000AF786077
:101B20000023FB737B681B781A460F4B9B5C002BD2
:101B300007D07B680433184604F0FCFD0346FB73B2
:101B40000DE07B681B781A46074B9B5C002B06D187
:101B50007B680C33184603F02DFE0346FB73FB7BBA
:101B600018461037BD4680BD182A002080B586B0C3
:101B700000AFF860B9601346FB7100237B61FB681E
:101B80001B781A46104B9B5C002B08D0FB68043373
:101B9000FA79B968184604F0E9FD78610EE0FB684F
:101BA0001B781A46084B9B5C002B07D1FB680C3353
:101BB000FA79B968184603F05FFE78617B691846C8
:101BC0001837BD4680BD00BF182A002080B584B0FC
:101BD00000AF78600023FB737B681B781A460F4BBD
:101BE0009B5C002B07D07B680433184604F0A0FEF2
:101BF0000346FB730DE07B681B781A46074B9B5C22
:101C0000002B06D17B680C33184603F013FF034604
:101C1000FB73FB7B18461037BD4680BD182A002099
:101C200080B582B000AF78607B681B781A460A4B9B
:101C30009B5C002B0BD17B681B781A46064B9B5C88
:101C4000002B04D17B680C33184603F003FF00BF60
:101C50000837BD4680BD00BF182A002080B582B07D
:101C600000AF78607B681B781A460D4B9B5C002B9D
:101C700005D07B680433184604F09FFE0BE07B68B8
:101C80001B781A46064B9B5C002B04D17B680C33F7
:101C9000184603F03AFF00BF0837BD4680BD00BFBD
:101CA000182A002080B483B000AF78607B680022DF
:101CB0001A60BFF35F8F00BF0C37BD465DF8047B31
:101CC000704780B584B000AF786001217868FFF775
:101CD000F2FCF860BFF35F8FFB68002B0CBF0123A1
:101CE0000023DBB218461037BD4680BD80B483B0F8
:101CF00000AF7860BFF35F8F7B6800221A6000BF7F
:101D00000C37BD465DF8047B704780B582B000AFEC
:101D100078600B46FB707B685B691B68DB68002B97
:101D200007D07B685B691B68DB68FA7811467868C6
:101D3000984700BF0837BD4680BD80B582B000AF70
:101D400078607B685B691B681B78002B0BD07B6815
:101D50005B691B681B69002B06D07B685B691B688D
:101D60001B69984700E000BF0837BD4680BD80B5BD
:101D700088B000AFF860B9607A60FB685B691B6887
:101D80001B78002B27D17B68FF2B28BFFF23BB616B
:101D9000BB69FB610FE0FB680122B9681846FFF7D9
:101DA000E5FE78617B69002B10D1BB680133BB6015
:101DB000FB69013BFB61FB681846FFF707FF034621
:101DC000002B04D0FB69002BE5D100E000BFBA690D
:101DD000FB69D31A0BE0FB685B691B685B681B68D7
:101DE0003B617A68B9683869FFF7D0FD0346184649
:101DF0002037BD4680BD80B58CB000AFF860B960BB
:101E00007A600023FB62FB685B691B681B78002B10
:101E10000ED17B68FF2B28BFFF23FB62FB68FA6AA9
:101E2000D2B2B9681846FFF747FEB862FB6A2CE0E9
:101E3000FB685B691B685B685B687B62FB685B696E
:101E40001B689B683B627A68B968786AFFF702FD95
:101E5000F861FB681846FFF75FFE0346002B01D0D0
:101E6000FB6912E03B6A19683B6A1B7A1A46786A7A
:101E7000FFF78CFDB861F8683B6A1B68BA69D2B29B
:101E80001946FFF719FE7861FB6918463037BD46E1
:101E900080BD80B58AB000AF786039603B687B62F6
:101EA0007B681B78012B04D0022B2FD0002B32D063
:101EB00057E07B6A5B691B685B681B683B627B68F9
:101EC00059687B681B7A1A46386AFFF7C3FCF861C9
:101ED0007B681B7A1A46FB699A4204D90321786A07
:101EE000FFF713FF3DE00121786AFFF70EFF7B6AE1
:101EF0005B691B689B68BB61786ABB695968BB6991
:101F00005B7A1A46FFF732FE78612AE00221786A8E
:101F1000FFF7FBFE25E07B6A5B691B685B685B681B
:101F20003B617B6A5B691B689B68FB600021786A88
:101F3000FFF7EBFEFB681968FB681B7A1A463869E5
:101F4000FFF724FDB860BB68002B09D0786AFB68F6
:101F50001B68BA68D2B21946FFF7AEFD786100E09F
:101F600000BF00BF2837BD4680BD000080B58EB0E1
:101F700000AFF860B9607A60FB685B691B68002B92
:101F800001D085238BE007F114032022B96818469D
:101F900005F058FDFB687B627B681B78022B0CBF49
:101FA00001230023DBB287F83130F8687B681B78A7
:101FB000002B01D03C4A00E0002207F1140319462F
:101FC00002F0D8F978637B6B002B01D07B6B66E065
:101FD000FB685B697A681A60FB685B691B685B6811
:101FE000002B0FD0FB685B691B685B685B68184659
:101FF000FFF7F3FCFB685B691B685B681B681846AE
:10200000FFF7EBFCFB685B6908331846FFF74AFEF5
:10201000FB685B6904331846FFF744FEFB685B69A5
:1020200003221A737B69B3F1FF3F08D1FB685B6938
:10203000FA685269127B22F00202D2B21A73BB69AB
:10204000B3F1FF3F0AD1FB685B69FA685269127B02
:1020500022F00102D2B21A73002320E0FB685B6910
:102060001B681B78022B0BD0FB681846FFF7D8FDC6
:10207000FB685B691B681B78002B01D100230EE015
:10208000F868FB685B691B689B685968FB685B695B
:102090001B689B685B7A1A46FFF768FD0346184683
:1020A0003837BD4680BD00BF931E000080B582B0AA
:1020B00000AF78607B685B691B68002B01D18023CF
:1020C00043E07B685B6904331846FFF7FAFD03467B
:1020D00083F00103DBB2002B01D0112335E07B68D4
:1020E0005B6908331846FFF7ECFD034683F00103F4
:1020F000DBB2002B07D07B685B6904331846FFF71F
:10210000F5FD112321E07B681846FFF7B1FC7B68E1
:102110005B691B685B68002B0FD07B685B691B6881
:102120005B685B681846FFF758FC7B685B691B6857
:102130005B681B681846FFF750FC7B685B691022E0
:102140000021184605F089FC002318460837BD46D3
:1021500080BD80B485B000AF78607B68FB60FB68B1
:1021600001221A7000BF1437BD465DF8047B70472A
:10217000B0B586B000AFF860B9607A603B607B684C
:102180001A464FF00003DD0345EA5245D40314F527
:10219000FA7045F100014FF47A724FF0000308F035
:1021A000B3F903460C467B617B69042B04D83B687A
:1021B00001221A70002312E00B4A0021B86800F0D7
:1021C0009BFE38613B69002B01D03B6907E0BB688F
:1021D0001B683A687969184600F0C2FE0346184643
:1021E0001837BD46B0BD00BF5321000080B58AB08E
:1021F00000AFF860B9607A603B60FB685B691B68A0
:10220000002B01D1802390E0FB685B691B7B03F00E
:102210000203002B01D1082387E07B68002B01D14A
:10222000002382E0B868FFF70FFC034683F0010348
:10223000DBB2002B07D0FB685B691B681B78022BA5
:1022400001D1102371E0FB685B6904331846FFF786
:1022500038FD034683F00103DBB2002B01D01123CC
:1022600063E000233B753B6BB3F1FF3F13D0FB688A
:10227000996907F114033A6BF868FFF779FFF86181
:10228000FB69002B07D0FB685B6904331846FFF736
:102290002DFDFB6949E07B687B62BB683B627A6A23
:1022A000396AF868FFF7A7FDB8617A6ABB69D31A83
:1022B0007B623A6ABB6913443B627B6A002B0AD09B
:1022C000F868FFF73AFD3B7DDBB283F00103DBB238
:1022D000002BE4D100E000BF3B68002B04D07A68FB
:1022E0007B6AD21A3B681A603B7DDBB283F0010344
:1022F000DBB2002B09D03B6BB3F1FF3F05D0FB688D
:102300009B691B68184600F05FFEFB685B6904333D
:102310001846FFF7EBFC7B6A002B05D03B7DDBB258
:10232000002B01D00D2300E0002318462837BD46BE
:1023300080BD80B58AB000AFF860B9607A603B605C
:10234000FB685B691B68002B01D1802389E0FB6877
:102350005B691B7B03F00103002B01D1082380E0A4
:102360007B68002B01D100237BE0FB685B690833AD
:102370001846FFF7A6FC034683F00103DBB2002BEF
:1023800001D011236DE000233B753B6BB3F1FF3FA0
:1023900013D0FB68D96907F114033A6BF868FFF7AB
:1023A000E7FEF861FB69002B07D0FB685B69083327
:1023B0001846FFF79BFCFB6953E07B687B62BB68B8
:1023C0003B627A6A396AF868FFF7D1FCB8617A6AC9
:1023D000BB69D31A7B623A6ABB6913443B627B6A6E
:1023E000002B12D03B7DDBB2002B0AD0FB685B696F
:1023F0001B681B78002B0AD0FB681846FFF72EFCE1
:1024000005E0F868FFF799FCDBE700BF00E000BFDC
:102410003B68002B04D07A687B6AD21A3B681A604A
:102420003B7DDBB283F00103DBB2002B09D03B6BB9
:10243000B3F1FF3F05D0FB68DB691B68184600F06D
:10244000C3FDFB685B6908331846FFF74FFC7B6AE6
:10245000002B05D03B7DDBB2002B01D00D2300E02B
:10246000002318462837BD4680BD80B584B000AF34
:1024700078607B685B691B68002B01D1802337E0A3
:102480007B685B691B7B03F00103002B01D10823F0
:102490002EE07B685B6908331846FFF712FC0346A1
:1024A00083F00103DBB2002B01D0112320E000BF39
:1024B00007F10F03012219467868FFF758FC03461D
:1024C000002BF5D17B685B691B685B681B68002B80
:1024D00007D07B685B691B685B681B681846FFF761
:1024E0007CFA7B685B6908331846FFF7FFFB002323
:1024F00018461037BD4680BD80B483B000AF034698
:10250000FB71094997F907305B09FA7902F01F025C
:10251000012000FA02F241F8232000BF0C37BD462B
:102520005DF8047B704700BF00E100E080B483B039
:1025300000AF0346FB71094997F907305B09FA7947
:1025400002F01F02012000FA02F2203341F823209A
:1025500000BF0C37BD465DF8047B704700E100E02A
:1025600080B483B000AF0346FB71094997F9073087
:102570005B09FA7902F01F02012000FA02F24033EF
:1025800041F8232000BF0C37BD465DF8047B70473F
:1025900000E100E080B483B000AF0346FB7109495D
:1025A00097F907305B09FA7902F01F02012000FA5F
:1025B00002F2603341F8232000BF0C37BD465DF8BE
:1025C000047B704700E100E080B584B000AF786024
:1025D0007B68002B0AD0074B43F00103FB607B684C
:1025E0009B01BB60FB68B868984700E000BF1037EC
:1025F000BD4680BD00AD000080B500AF0D4B4FF46F
:102600008032C3F844230B4B4FF48032C3F80423C9
:102610001120FFF7BFFF1120FFF76EFF054B0122CE
:102620001A602F20FFF7D0FF034B01221A7000BF62
:1026300080BD00BF001001406A07002080B500AFD8
:102640001120FFF773FF0F4B4FF48032C3F848237C
:102650000C4B4FF48032C3F808230A4B01225A6016
:102660002F20FFF7B1FF074B01229A60064B002293
:102670001A602F20FFF7A8FF044B00221A7000BF3A
:1026800080BD00BF001001405C0700206A070020E9
:1026900080B400AF034BD3F804351846BD465DF84F
:1026A000047B70470010014080B483B000AF7860B5
:1026B00039607A683B68D31A23F07F4318460C3799
:1026C000BD465DF8047B704780B483B000AF78608E
:1026D000044A7B68C2F8403500BF0C37BD465DF840
:1026E000047B70470010014080B487B000AF786071
:1026F000294B1B68002B03D1274A7B68136045E0F8
:102700007B681A68244B1B681B689A4210D8224BBE
:102710001B68214A126811687A6812688A1A1A605E
:102720001D4B1A687B68DA611B4A7B6813602DE0D9
:102730007B681B68FB60184B1B687B61164B1B6832
:102740003B6109E03B691B68FA68D31AFB603B698F
:102750007B613B69DB693B613B69002B04D03B69D2
:102760001A68FB689A42EDD33B69002B05D03B69A0
:102770001A68FB68D21A3B691A607B68FA681A60AB
:102780007B683A69DA617B697A68DA6100BF1C3775
:10279000BD465DF8047B70475807002080B586B0C1
:1027A00000AF7860294B1B68FB60284B1B687B617E
:1027B0007B693B6108E03A697B689A4208D03B69D3
:1027C0007B613B69DB693B613B69002BF3D100E036
:1027D00000BF3B69002B01D1002333E07A693B69DC
:1027E0009A4214D1194B1B68DB69184A1360174BC6
:1027F0001B68002B0BD1164B01229A60154B00224F
:102800001A60154B01221A702F20FFF7DDFE3B697D
:102810001B68BB603B69DA697B69DA617B69DB69EC
:102820003B613B69002B05D03B691A68BB681A44C1
:102830003B691A60054B1B68FA689A4214BF012372
:102840000023DBB218461837BD4680BD580700206C
:10285000001001405C0700206B07002080B500AF2E
:102860001120FFF77DFE00BF80BD80B500AF1520B1
:10287000FFF776FE00BF80BD80B582B000AF786004
:102880007B685B697A6892691046984700BF083791
:10289000BD4680BD80B584B000AF2B4B1B68002BBC
:1028A0004ED000237B60FFF7F3FE0246274B1B68E8
:1028B00019461046FFF7F8FEB860234B1B68FB6013
:1028C0001DE0FB681A68BB689A421CD8FB681B684D
:1028D000BA68D31ABB60FB681B687A6813447B60D4
:1028E000FB683B60FB68DB69FB603B681B7C002B83
:1028F00005D03B6800221A743868FFF7BDFFFB68FB
:10290000002BDED100E000BF114B1A78114B1B7871
:102910009A420CD10F4B1B780133DAB20D4B1A706F
:102920000C4B1B78022B02D10A4B00221A70094B68
:102930001B781946084A7B6842F82130FFF795FF5B
:1029400000BF1037BD4680BD580700205C0700203F
:1029500068070020690700206007002080B483B06A
:1029600000AF7860194B1A78194B1B789A4223D024
:10297000164B1B780133DAB2144B1A70134B1B78C9
:10298000022B02D1114B00221A70104B1B781A46F1
:10299000104B53F822207B681A607B681A680E4B34
:1029A0001B6813440C4A13600B4B1B6823F07F43D6
:1029B000094A1360012303E07B6800221A600023A8
:1029C00018460C37BD465DF8047B70476807002049
:1029D00069070020600700205C07002080B489B0F0
:1029E00000AFF860B9607A600023FB6138E0214BEA
:1029F0001B68BB61BB691A68FB689A4206D9BB6950
:102A00001A68FB68D21ABB691A602DE0BB691B68A3
:102A1000FA68D31AFB60BB691B68FA691344FB614F
:102A2000BB6900221A60134B1B687B61BB69DB69C1
:102A3000104A1360BB69DB68002B11D0BA68FB69D0
:102A4000134423F07F42BB695A60BB69DA68BB69F3
:102A50009A607B681A68BB69DA617B687A691A6078
:102A6000044B1B68002BC2D100BF2437BD465DF864
:102A7000047B70475807002080B588B000AF7860AD
:102A80000023FB77654B1B687B61A9E07B68002B0B
:102A900005D07B68BB61BB69DB697B6060E0604B34
:102AA0001B781A4613465B001344DB005C4A134450
:102AB00004333B615A4B1B780133DAB2584B1A701E
:102AC000574B1A78564B9B789A4202D1544B0022AE
:102AD0001A703B695B68BB613B691B78022B04D0B1
:102AE000032B1AD0012B1ED01CE03B695B681846F3
:102AF000FFF754FE0346002B01D00123FB77BB698F
:102B000000221A746CE0454B1B68FB60FB680022D6
:102B10001A74FB68DB69414A1360404B1B68002B49
:102B2000F1D15DE05CE000BFBB691B7C002B00D0F5
:102B300056E03B699A68BB695A603B69DA68BB69D1
:102B40009A603B691A69BB69DA603B695A69BB697B
:102B50009A61344B1B78002B02D0BB6900225A606B
:102B6000BB695A68304B1B68D31A23F07F432F4A46
:102B700093420ED8BB695A682B4B1B681946104606
:102B8000FFF792FD0246BB699B681A44BB691A6055
:102B900017E0254B1A68BB695B6819461046FFF7BA
:102BA00083FDB860BB699A68BB689A4206D9BB6965
:102BB0009A68BB68D21ABB691A6002E0BB6900223E
:102BC0001A60BB6900225A60BB6900229A60BB6927
:102BD00001221A74BB690022DA61B869FFF784FD2B
:102BE0007B68002B7FF452AF0D4B1A780C4B5B784F
:102BF0009A427FF44BAFFB7F002B04D1074B1A683E
:102C00007B699A4201D0012300E0002303F0010315
:102C1000DBB218462037BD4680BD00BF58070020F4
:102C20004C0600206B0700205C070020FEFF7F00A1
:102C300090B589B000AF7860274B1B68002B44D05B
:102C4000254B1B681B68FB61FFF722FDB861234B16
:102C50001B687B617969B869FFF726FD034603337A
:102C60003B611F4B1B7883F00103DBB2002B01D0CB
:102C7000FFF7C2FC3A69FB69934238BF13467A6991
:102C800013447B617B6923F07F437B617869FFF7A5
:102C90001BFDFFF7FDFCF860B969F868FFF704FD5C
:102CA0000346DC1CB9697869FFF7FEFC03469C42C9
:102CB0000DD9FFF7EDFC03461846FFF705FD2F2061
:102CC000FFF782FCFFF7CAFD01E0FFF7B7FC00BF8A
:102CD0002437BD4690BD00BF580700205C07002088
:102CE0006A07002080B586B000AF00237B60002318
:102CF000FB75164B1B683B61154B1B68FB603B4625
:102D00001846FFF72BFE0346FB72FB7A002B07D019
:102D10003B683A1D39691846FFF760FE0123FB75D1
:102D20007B681846FFF7A8FE0346002B01D001235D
:102D3000FB75FB7D002B02D0F868FFF779FF054B90
:102D400000221A7000BF1837BD4680BD5C07002006
:102D5000580700206B07002080B483B000AF034603
:102D6000FB71044AFB79537000BF0C37BD465DF818
:102D7000047B70474C06002080B485B000AF7860BB
:102D8000134B5B780133FB73114B9B78FA7B9A42B0
:102D900001D10023FB730E4B1B78FA7B9A4201D1C1
:102DA00000230EE07B68FA7B1A70094B5B781A46A9
:102DB00013465B001344DB00054A13440433BB6035
:102DC000BB6818461437BD465DF8047B704700BFEA
:102DD0004C06002080B588B000AFF860B9607A601A
:102DE0003B600023FB61002000F076F907F1170338
:102DF0001846FFF7C1FFB861BB69002B02D104235D
:102E0000FB6117E0BB6901221A70BB69FA685A605E
:102E1000FFF73EFC0246BB699A60BB69BA68DA609C
:102E2000BB697A681A61BB693A685A61FB7D1846CA
:102E3000FFF792FF002000F059F9FB69002B01D148
:102E4000FFF713FDFB6918462037BD4680BD80B5EE
:102E500086B000AF78600B46FB7000237B610020DA
:102E600000F03AF907F10F031846FFF785FF3861C4
:102E70003B69002B02D104237B6109E03B69FA78AE
:102E80001A703B697A685A60FB7B1846FFF764FF4B
:102E9000002000F02BF97B69002B01D1FFF7E5FC46
:102EA0007B6918461837BD4680BD000080B500AF6D
:102EB0000D4B0022C3F840210B4B0022C3F84421E4
:102EC000094B0022C3F84821074B0022C3F84C21CC
:102ED000054B0022C3F80021034B0022C3F8042154
:102EE000FFF7D8FC00BF80BD0010014080B500AFE7
:102EF000FFF7F8FE00BF80BD80B487B000AFF86078
:102F00000B467A60FB72154B9B78002B01D108238E
:102F10001DE07B68002B01D1072318E0FB68002B24
:102F200001D1072313E0FB681B681B7C002B01D039
:102F300008230CE0FB681B687B617B6900221A7424
:102F40007B69FA7A5A747B697A685A610023184659
:102F50001C37BD465DF8047B704700BF4C0600205F
:102F600080B586B000AFF860B9607A60FB687B61BD
:102F7000144B9B78002B01D108231EE0FB68002B2B
:102F800001D1082319E0BB68042B01D8072314E002
:102F90007B695B69002B01D108230EE07B695B7CB8
:102FA000012B01D1BB6800E000233B617B683A69DB
:102FB000B9687869FFF70EFF034618461837BD4613
:102FC00080BD00BF4C06002080B584B000AF7860A3
:102FD0007B68FB600D4B9B78002B01D1082310E030
:102FE0007B68002B03D0FB685B69002B01D10823B1
:102FF00007E0FB6800221A740221F868FFF727FF38
:10300000034618461037BD4680BD00BF4C06002061
:1030100080B586B000AF78600023FB6000233B6181
:103020007B687B6107F10C031A46002144F2010022
:1030300000F018F800BF1837BD4680BD80B400AF5F
:10304000BFF34F8F0549054BDB6803F4E062044B87
:103050001343CB60BFF34F8F00BFFDE700ED00E0EF
:103060000400FA0580B584B000AFF860B9607A60FA
:1030700072B6064B1B6803F00103002B00D000BEA4
:10308000FFF7DCFF00BF1037BD4680BDF0ED00E06C
:1030900080B400AF72B6054B1B680133034A13605E
:1030A00000BFBD465DF8047B704700BF6C07002081
:1030B00080B400AF074B1B68013B064A1360054B09
:1030C0001B68002B00D162B600BFBD465DF8047BD3
:1030D000704700BF6C07002080B582B000AF7860F9
:1030E000FFF7D6FF00BF0837BD4680BD80B582B070
:1030F00000AF0346FB71FFF7DBFF00BF0837BD469B
:1031000080BD000080B483B000AF0346FB71094965
:1031100097F907305B09FA7902F01F02012000FAE3
:1031200002F241F8232000BF0C37BD465DF8047B56
:10313000704700BF00E100E080B483B000AF0346F9
:10314000FB71094997F907305B09FA7902F01F0210
:10315000012000FA02F2203341F8232000BF0C378F
:10316000BD465DF8047B704700E100E080B483B0A9
:1031700000AF0346FB71094997F907305B09FA79FB
:1031800002F01F02012000FA02F2403341F823202E
:1031900000BF0C37BD465DF8047B704700E100E0DE
:1031A00080B483B000AF0346FB71094997F907303B
:1031B0005B09FA7902F01F02012000FA02F2603383
:1031C00041F8232000BF0C37BD465DF8047B7047F3
:1031D00000E100E080B483B000AF03463960FB71CA
:1031E00097F90730002B0BDA0D49FB7903F00F0339
:1031F000043B3A68D2B25201D2B20B441A7609E0CB
:10320000084997F907303A68D2B25201D2B20B445A
:1032100083F8002300BF0C37BD465DF8047B704780
:1032200000ED00E000E100E080B487B000AF78601E
:103230007B681B687B617B69FB60FB6893FAA3F387
:10324000BB60BB683B613B691BBA00BF18461C37BB
:10325000BD465DF8047B704780B584B000AF7860F0
:103260007868FFF7E1FF0346FB60FB681BBA00BF0D
:1032700018461037BD4680BD80B48DB000AF4FF00A
:103280008053D3F8043103F47F43B3F5844F11D155
:10329000474A474BD3F8503623F00103C2F8503663
:1032A000444A444B1B6823F0807323F0010343F02E
:1032B000807313604FF08053D3F8043103F47F43DD
:1032C000B3F58A4F6CD13C4B5B7C052B01D13B4B5A
:1032D00001E04FF07F43FB62354BD3F81C25FB6ABE
:1032E0001340BB62324BD3F82025FB6A13407B624C
:1032F000BA6A7B6A9A4253D12D4BD3F82435DBB29C
:103300003B622B4BD3F824351B0ADBB2FB61284B05
:10331000D3F824351B0CDBB2BB61254BD3F8243525
:103320001B0EDBB27B61224BD3F82835DBB23B614D
:103330001F4BD3F828351B0ADBB2FB601C4BD3F8BC
:1033400028351B0CDBB2BB60194BD3F828351B0E9C
:10335000DBB27B603A6AFB699A4217D03A6ABB6972
:103360009A4213D03A6A7B699A420FD03A6A3B6913
:103370009A420BD03A6AFB689A4207D03A6ABB6815
:103380009A4203D03A6A7B689A4209D1094A094BAA
:103390001B6823F0807323F0010343F080731360F4
:1033A000002318463437BD465DF8047B704700BFE4
:1033B0000010004074170040A40000200000FFFF30
:1033C00080B400AF0A4B4FF00812C3F81425084A26
:1033D000084B5B7C013B1B0443F0807343F082038A
:1033E000C2F8183500BFBD465DF8047B704700BFCA
:1033F00000100040A400002090B583B000AF034649
:10340000FB71FB7903F00103002B06D0144C154827
:10341000FFF722FF0346C4F81C35FB7903F00203D3
:10342000002B06D00E4C1048FFF716FF0346C4F8D9
:103430002035FB7903F00403002B0DD0084C0B481A
:10344000FFF7F2FE0346C4F82435054C0848FFF7A1
:10345000EBFE0346C4F8283500BF0C37BD4690BDCF
:1034600000100040A4000020A8000020AC000020B4
:10347000B000002080B400AF044B054A927AC3F834
:103480000C2500BFBD465DF8047B7047001000406E
:103490007C07002080B400AF144B154A127AC3F8A1
:1034A0001025134B1B7A042B18D801A252F823F0D5
:1034B000CD340000C5340000DD340000D5340000F8
:1034C000C53400000B4B30221A6009E0094B402242
:1034D0001A6005E0074B49221A6001E0002300E072
:1034E00001231846BD465DF8047B7047001000407C
:1034F0007C0700203C28002080B400AF154B5B7A8D
:10350000012B0ED0022B02D0002B16D013E0124B51
:103510004FF6FF72C3F83C250F4B104AC3F838250D
:103520000CE00D4BFF22C3F83C250B4B40F2071279
:10353000C3F8382502E0002306E000BF064B054A29
:10354000527AC3F8342501231846BD465DF8047B42
:10355000704700BF7C0700200010004021100100D0
:1035600080B582B000AF0123FB71FFF783FFFFF747
:1035700091FF03461A46FB791340002B14BF012329
:103580000023FB71FFF7B8FF03461A46FB7913408F
:10359000002B14BF01230023FB71FFF711FFFB7900
:1035A000084A9289862A8CBF01220022D2B2134097
:1035B000002B14BF01230023FB71FB791846083749
:1035C000BD4680BD7C07002080B400AF0C4B0022BC
:1035D0001A620B4B00225A62094B00229A62094B75
:1035E0000022C3F8C820074B0022C3F8CC20054BAB
:1035F0000022C3F8D02000BFBD465DF8047B7047B1
:10360000CC0B00205826002080B582B000AFFFF719
:10361000DBFF00237B600EE07A681346DB00134477
:103620001A01D21A124B1A4412497B6841F823201E
:103630007B6801337B607B68072BEDDD00233B60FB
:103640000EE03A681346DB0013441A01D21A0A4B03
:103650001A440A493B6841F823203B6801333B6028
:103660003B68312BEDDD00BF0837BD4680BD00BF94
:1036700094070020CC0B0020F80B002058260020D7
:1036800080B500AF0E4B9B6A002B16D00120FFF7D0
:1036900053FD0B4B9B6A013B094A9362084B5B6AE3
:1036A0000133074A5362064B5B6A072B02D9044B6E
:1036B00000225A620120FFF725FD00BF80BD00BF38
:1036C000CC0B002080B582B000AF0346FB71274BC6
:1036D000D3F8D030312B44D8254B1B78822B01D91D
:1036E00000233FE0214BD3F8C830204A52F8233062
:1036F0001F4A12781A711D4BD3F8C8301B4A52F872
:103700002330581D194BD3F8C830184A52F82330CB
:103710001B791A46164904F095F9144BD3F8C830B2
:10372000124A52F82330134AD2F8482552B25A703E
:103730000E4BD3F8C83001330C4AC2F8C8300B4BDB
:10374000D3F8C830312B03D9084B0022C3F8C82066
:10375000064BD3F8D0300133044AC2F8D0300123ED
:1037600000E0002318460837BD4680BD58260020DB
:10377000B02700200010004080B400AF084B0422A6
:10378000C3F81025064B0022C3F80825044B40F26D
:103790000222C3F8002200BFBD465DF8047B7047DB
:1037A00000A0004080B400AF124B134AC3F860255C
:1037B000104B124AC3F864250E4B114AC3F8682512
:1037C0000C4B104AC3F86C250A4B0F4AC3F87025FE
:1037D000084B0E4AC3F87425064B0D4AC3F87825EA
:1037E000044B0C4AC3F87C2500BFBD465DF8047B42
:1037F000704700BF00F001400011004000A00040F1
:103800000411004004A0004040A1004010100040FE
:1038100044A100400010004080B500AF314B0122B0
:103820001A60314B5B6A304A52F823302F4A1360DA
:103830002E4B1B68591D2D4B1B681B791A462C48B3
:1038400004F000F92B4A2C4B1B68C2F80032294BBC
:103850001022C3F80423294B294A1A60294B01225C
:103860001A70244A214B1B681B78C2F82C35214A58
:103870001E4B1B681B78194601238B40C2F830355C
:103880001C4B214AD27CC3F808251A4B184AC3F8AE
:1038900004250120FFF784FC0120FFF733FC154BC2
:1038A0000022C3F80421134B0022C3F80821114B56
:1038B0000022C3F810214FF0A0434FF48052C3F808
:1038C0000C254FF0A0434FF48012C3F808254FF0A9
:1038D000A0434FF40062C3F80825064B01221A608A
:1038E00000BF80BD38280020CC0B002074070020CA
:1038F0002C27002000100040B800002040280020A5
:103900000D39000071070020A400002080B500AF31
:103910000C4B1B6843F001030A4A1360FFF7B0FE2B
:10392000094B9B6A002B06D1084B00221A70142009
:10393000FFF71CFC04E01420FFF718FCFFF76CFFF6
:1039400000BF80BD34280020CC0B00207107002070
:1039500080B500AF134A144B1B68C2F80032FFF762
:103960002FFD104B114AC3F804250E4B0022C3F85B
:1039700010210C4B01221A6100BF0A4BD3F8103101
:10398000002BFAD0074B0022C3F81021054A064B42
:103990001B6843F00403C2F80032024B01225A6054
:1039A00000BF80BD00100040B8000020B0270020FC
:1039B00080B500AF124BD3F80034002B02D1FFF7D3
:1039C000C7FF1CE00F4BD3F8D030312B02D9FFF7E3
:1039D000BFFF14E0FFF7BCFF094BD3F80834DBB29C
:1039E0001846FFF76FFE0346002B08D0064B1B68F6
:1039F00043F00403044A13601420FFF7B7FB80BDB3
:103A000000100040582600203428002080B582B0E5
:103A100000AF78600F4B1B7883F00103DBB2002B03
:103A200001D0082312E07B68002B01D10E230DE0AA
:103A30000120FFF781FB084B1A687B681A60064B70
:103A400000221A600120FFF75DFB002318460837AB
:103A5000BD4680BD700700203428002080B500AF2F
:103A60001F4BD3F80031002B0AD01D4BD3F8043381
:103A700003F00103002B03D0194B0022C3F80021EF
:103A8000174BD3F80C31002B11D0154BD3F804335E
:103A900003F00803002B0AD0114B0022C3F80C21BD
:103AA000104B1B68002B02D00E4B1B6898470C4B29
:103AB000D3F81031002B11D0094BD3F8043303F0A5
:103AC0001003002B0AD0064B0022C3F81021064B2E
:103AD0001B68002B02D0044B1B68984700BF80BDB9
:103AE00000100040442800204028002080B584B009
:103AF00000AF78607B68002B01D10E2362E0334B6E
:103B00001B78002B07D000F073F8F860FB68002BDF
:103B100001D0FB6856E07B685B682D4A1360182271
:103B200079682C4803F08EFF2B4B00221A60FFF7B8
:103B300017FD034683F00103DBB2002B01D00723FE
:103B400040E0264B4FF0E732C3F81C25234B4FF0E3
:103B50004332C3F82025214B214AC3F824251F4BAB
:103B6000204AC3F82825FFF74FFDFFF705FEFFF7B2
:103B700019FE184B5B7C03F0070319460120FFF781
:103B800029FB144B9B7C03F0070319461420FFF715
:103B900021FB1420FFF7B6FA134B00221A700B4BCF
:103BA00001221A704FF08053D3F8043103F47F439D
:103BB000B3F58A4F05D10D4A0C4B1B6843F4806363
:103BC0001360002318461037BD4680BD70070020E3
:103BD000780700207C0700203428002000100040D7
:103BE000E743C323A363E313710700203C1700409E
:103BF00080B500AF094B4FF47052C3F80825084B4D
:103C000000221A70FFF7E0FC1420FFF795FA054B2D
:103C10000322C3F800220023184680BD00F00140B3
:103C2000710700200010004080B584B000AF1C4B2D
:103C30001B687B6007F108031846FFF7E7FEF86092
:103C4000FB68002B27D1174B1B68002B23D0BB68C8
:103C500003F00103002B06D000233B70114B1B68BF
:103C60003A4610469847BB6803F00203002B06D083
:103C700001233B700B4B1B683A4610469847BB68C4
:103C800003F00403002B06D002233B70054B1B6896
:103C90003A461046984700BF1037BD4680BD00BF6A
:103CA000382800207807002080B582B000AF786007
:103CB0002E4B1B7883F00103DBB2002B01D00823CD
:103CC00050E07B68002B01D10E234BE07B681B7911
:103CD000002B0DD07B681B79822B09D8244B1B78D5
:103CE000002B07D17B681A79214BDB7C9A4201D9E2
:103CF000092337E01F4B9B6A072B01D9042331E0CE
:103D00007B681B78072B01D907232BE00120FFF7E5
:103D100013FA184B1B6A174A52F823308722796826
:103D2000184603F08FFE134B1B6A0133114A1362CE
:103D3000104B1B6A072B02D90E4B00221A620D4B47
:103D40009B6A01330B4A93620120FFF7DBF9084BB2
:103D50001B7C002B05D1084B1B78002B01D1FFF7F2
:103D60005BFD002318460837BD4680BD7007002064
:103D70007C070020CC0B00207107002080B584B0A8
:103D800000AF7860294B1B7883F00103DBB2002B76
:103D900001D0082346E07B68002B01D10E2341E0CF
:103DA000234BD3F8D030002B01D105233AE001207A
:103DB000FFF7C2F91E4BD3F8CC301D4A52F823301E
:103DC000FB60FB681A797B681A71FB681A787B685C
:103DD0001A70FB6893F901207B685A707B68581D44
:103DE000FB68591D7B681B791A4603F02BFE104BAC
:103DF000D3F8CC3001330E4AC2F8CC300C4BD3F898
:103E0000CC30312B03D90A4B0022C3F8CC20084B0D
:103E1000D3F8D030013B064AC2F8D0300120FFF77A
:103E200071F9002318461037BD4680BD7007002089
:103E30005826002080B500AF2E4B1B78002B01D0F8
:103E4000112355E04FF0A0434FF40022C3F808259A
:103E50004FF0A0434FF48052C3F808254FF0A04321
:103E60004FF48012C3F80C254FF0A0434FF40062CA
:103E7000C3F80C25204B4FF0FF32C3F808231E4B2C
:103E80000022C3F810211D4B1D4A1A601A4A1D4B0F
:103E90001B6843F00403C2F80032174B1022C3F82A
:103EA0000423144B04221A70134B174A927CC3F854
:103EB0003025114B144AD27CC3F808250E4B134A07
:103EC000C3F804250120FFF76BF90120FFF71AF969
:103ED000094B0022C3F80421074B0022C3F8082134
:103EE000054B0022C3F81021034B01225A60002326
:103EF000184680BD710700200010004040280020B7
:103F0000B1390000B8000020A4000020B027002034
:103F100080B400AF144B1B78042B1DD1134B00222F
:103F2000C3F80022114B4FF0FF32C3F80823104BA7
:103F300000221A600D4B0022C3F810210B4B012206
:103F40001A6100BF094BD3F81031002BFAD0064B91
:103F500000221A70002301E040F201131846BD460A
:103F60005DF8047B704700BF71070020001000401F
:103F70004028002080B500AF0D4B1B7883F0010373
:103F8000DBB2002B01D008230FE00120FFF7D4F8AB
:103F9000084B00229A62074B00221A62054B00224E
:103FA0005A620120FFF7AEF80023184680BD00BF1B
:103FB00070070020CC0B002080B584B000AF786083
:103FC0001D4B1B78002B01D0112331E07B68002BA7
:103FD00001D10E232CE04FF08053D3F8043103F4C9
:103FE0007F43B3F5844F18D1144B5B7C052B01D173
:103FF000134B01E04FF07F43FB607868FFF72CF92B
:104000000246FB681340002B07D10E4BD3F8243532
:10401000DBB2002B01D107230AE0042279680748AC
:1040200003F010FD0120FFF7E7F9FFF725F903463C
:1040300018461037BD4680BD71070020A40000203F
:104040000000FFFF0010004080B584B000AF786032
:10405000324B1B78002B01D011235BE07B68002BD7
:1040600001D10E2356E04FF08053D3F8043103F40E
:104070007F43B3F5844F42D1294B5B7C052B01D1A3
:10408000284B01E04FF07F43FB607868FFF7E4F8CE
:104090000246FB681340002B31D1234BD3F8243563
:1040A00003F47F43002B28D01F4BD3F8243503F4AF
:1040B0007F03002B21D01C4BD3F8243503F07F4322
:1040C000002B1AD0184BD3F8283503F07F43002B70
:1040D00013D0154BD3F8283503F47F03002B0CD0F5
:1040E000114BD3F8283503F47F43002B05D00E4B3A
:1040F000D3F82835DBB2002B01D107230AE00422D4
:1041000079680A4803F09EFC0220FFF775F9FFF773
:10411000B3F8034618461037BD4680BD710700202E
:10412000A40000200000FFFF00100040A8000020B5
:1041300080B584B000AF78600B46FB70334B1B78C2
:10414000002B01D011235CE07B68002B01D10E23F2
:1041500057E0FB78082B01D9072352E04FF080533A
:10416000D3F8043103F47F43B3F5844F31D1284BA6
:104170005B7C052B01D1274B01E04FF07F43BB60F7
:10418000FB78002B0CD0244BD3F81C25BB681340C4
:10419000002B05D17B681B78002B01D1072330E071
:1041A0001D4BD3F82025BB681340002B11D10123F0
:1041B000FB730AE0FB7B7A6813441B78002B01D168
:1041C00007231EE0FB7B0133FB73FA7BFB789A42EB
:1041D000F0D3FB781A467968104803F033FC0C4A98
:1041E000FB781374FB78C3F10803FF2242FA03F350
:1041F000DAB2074B9A740420FFF7FEF8FFF73CF899
:10420000034618461037BD4680BD00BF7107002029
:10421000A40000200000FFFF00100040AC000020C0
:1042200080B483B000AF78600A4B1B78002B01D0BC
:10423000112309E07B68642B01D9072304E07B6824
:10424000DAB2054BDA74002318460C37BD465DF828
:10425000047B704771070020A400002080B582B065
:1042600000AF0346FB710A4B1B78002B01D01123D2
:104270000AE0084B9B7AFA799A4204D0054AFB7906
:104280009372FFF7F7F8002318460837BD4680BD44
:10429000710700207C07002080B400AF0A4BD3F8E0
:1042A0004031002B0AD0084B0022C3F84021074BB5
:1042B0001B78032B02D1064B01221A6100BFBD46B9
:1042C0005DF8047B704700BF00A00140710700202B
:1042D0000010004080B588B000AF786039603B685E
:1042E000FB617B681B783B737B685B683B617B6829
:1042F0001B7A3B757B68DB68BB61084AFB6952F837
:1043000023300749FA6951F8221007F10C021046D0
:10431000984700BF2037BD4680BD00BF4828002019
:104320004C28002080B588B000AF786039603B68C9
:10433000FB617B681B783B737B685B683B617B68D8
:104340009B68DBB23B757B68DB68BB61074AFB6936
:1043500052F823300649FA6951F8221007F10C028D
:104360001046984700BF2037BD4680BD4828002032
:104370004C280020B0B58EB000AFF860B9607A600C
:10438000FB681B783B6329493B6B7A6841F8232023
:10439000BB681A6926493B6B41F82320BB685B7FE9
:1043A0001946244A3B6B13440A461A70BB6807F14E
:1043B00010041D460FCD0FC495E80F0084E80F00D0
:1043C0003B6B3B6200237B63FB681B781A46194BEF
:1043D0009B5C002B0ED0FB68181D7B68002B01D066
:1043E000154A00E0002207F11003194602F096F882
:1043F000786315E0FB681B781A460E4B9B5C002B1C
:104400000ED1FB6803F10C007B68002B01D00B4A36
:1044100000E0002207F11003194601F087F87863E5
:104420007B6B18463837BD46B0BD00BF482800201A
:104430004C280020182A0020D54200002543000007
:1044400080B400AF4FF08043D3F818341B0C03F056
:104450000103002B14BF01230023DBB21846BD4625
:104460005DF8047B704780B483B000AF0346FB71F6
:104470004FF08043D3F80C3403F00112FB7943F47E
:1044800080339A420CBF01230023DBB218460C375D
:10449000BD465DF8047B704780B500AF0120FFF793
:1044A000E2FF0346184680BD80B500AFFFF7C8FFA6
:1044B0000346184680BD80B500AF02F0DAFC00BFAD
:1044C00080BD000080B582B000AF00237B60104B40
:1044D0001B78002B02D085237B6014E00C4B00225C
:1044E0009A600B4B00225A60094B00221A61084B5C
:1044F0000022DA60074802F083FC786002F0A0FC3A
:10450000034B01221A707B6818460837BD4680BDF0
:1045100050280020DD46000080B485B000AF7860F0
:1045200039607B681B68FB6006E0FA683B689A426A
:104530000DD0FB681B68FB60FB68002BF5D17B6826
:104540001A683B681A607B683A681A6000E000BF2E
:104550001437BD465DF8047B704780B485B000AF6A
:1045600078607B681B68FB60FB68002B03D0FB68EE
:104570001A687B681A60FB6818461437BD465DF8F8
:10458000047B704780B582B000AF7860194B9B7890
:10459000DBB2002B12D07B68002B03D07B685B68FA
:1045A000012098470020FEF797FD124BDB6801338E
:1045B000104AD3600020FEF799FD17E00020FEF7B7
:1045C0008BFD7B68002B03D079680B48FFF7A4FFB5
:1045D000084BDB68002B01D102F03BFC054BDB688C
:1045E0000133044AD3600020FEF780FD00BF083786
:1045F000BD4680BD502800206028002080B500AF57
:10460000FFF752FF0346184680BD000080B582B018
:1046100000AF7860194B5B78DBB2002B12D07B685F
:10462000002B03D07B685B68002098470020FEF7D2
:1046300053FD124B5B680133104A53600020FEF7B4
:1046400055FD17E00020FEF747FD7B68002B03D0E7
:1046500079680B48FFF760FF084B5B68002B01D1BE
:10466000FFF729FF054B5B680133044A53600020C4
:10467000FEF73CFD00BF0837BD4680BD5028002036
:104680005828002080B500AFFFF706FF0346184604
:1046900080BD000080B584B000AF0346FB71FB799C
:1046A000002B02D10B4BFB6001E00B4BFB60F86869
:1046B000FFF753FFB860BB68002B05D0BB685B6891
:1046C000FA7910469847F2E700BF00BF1037BD46A1
:1046D00080BD00BF582800206028002080B582B02F
:1046E00000AF0346FB71FB79002B05D1094B01227A
:1046F0005A700020FFF7CEFFFB79012B05D1054B47
:1047000001229A700120FFF7C5FF00BF0837BD46A0
:1047100080BD00BF5028002080B400AFBFF34F8F92
:104720000549054BDB6803F4E062044B1343CB609F
:10473000BFF34F8F00BFFDE700ED00E00400FA0576
:1047400080B400AF034B044A1A6000BFBD465DF859
:10475000047B7047BC0000200090D00380B500AF00
:1047600000F068F90346002B06D0A04AA04B1B6856
:104770001B0A03F01F03136000F08EF90346002BA1
:1047800002D09C4B9C4A1A6000F0A8F90346002B0B
:1047900006D09A4A9A4B1B685B0B03F00703136021
:1047A00000F0CEF90346002B05D0964A954BDB6806
:1047B00023F08073D36000F0E5F90346002B0ED0A0
:1047C0004FF080430022C3F80C214FF080430022B9
:1047D000C3F810214FF080430022C3F8382500F0C1
:1047E00003FA0346002B02D0874B03221A6000F025
:1047F0001DFA0346002B0BD0844B05221A60844B14
:1048000001221A60834B00221A60834B3F221A60F8
:1048100000F02EFA0346002B76D0804A4FF08053EA
:10482000D3F80434C2F820357C4A4FF08053D3F8D3
:104830000834C2F82435794A4FF08053D3F80C3449
:10484000C2F82835754A4FF08053D3F81034C2F8B7
:104850002C35724A4FF08053D3F81434C2F83035F7
:104860006E4A4FF08053D3F81834C2F834356B4A8F
:104870004FF08053D3F81C34C2F84035674A4FF0EC
:104880008053D3F82034C2F84435644A4FF0805343
:10489000D3F82434C2F84835604A4FF08053D3F837
:1048A0002834C2F84C355D4A4FF08053D3F82C348D
:1048B000C2F85035594A4FF08053D3F83034C2F81B
:1048C0005435564A4FF08053D3F83434C2F860352B
:1048D000524A4FF08053D3F83834C2F864354F4A07
:1048E0004FF08053D3F83C34C2F868354B4A4FF050
:1048F0008053D3F84034C2F86C35484A4FF08053A7
:10490000D3F84434C2F8703500F0D4F90346002BD4
:1049100005D0434A434B1B6803F04F03136000F07C
:10492000FBF90346002B0DD04FF08043D3F8003441
:1049300003F00103002B05D04FF080436FF001021C
:10494000C3F8002400F01AFA0346002B05D0364ABB
:10495000354B1B6843F480631360344A334BD3F800
:10496000883043F47003C2F88830BFF34F8FBFF331
:104970006F8F4FF01023D3F80032002B05DB4FF080
:104980001023D3F80432002B2BDA294B0122C3F871
:10499000042500BF264BD3F80034002BFAD04FF08B
:1049A00010231522C3F8002200BF214BD3F8003496
:1049B000002BFAD04FF010231522C3F8042200BFB9
:1049C0001B4BD3F80034002BFAD0194B0022C3F84C
:1049D000042500BF164BD3F80034002BFAD0FFF7A4
:1049E0009BFEFFF7ADFE00BF80BD00BF403501401C
:1049F0002403001074C007400DF0ADBA3C05004020
:104A000044020010F0ED00E0A00500401056004008
:104A100088560040185600401456004000C0004020
:104A2000E40E0040580200103C17004000ED00E08A
:104A300000E0014080B400AF144B1B68DBB2062BD2
:104A40001DD1134B1B6803F00F03002B17D1114B23
:104A50001B6803F0F003302B01D1012310E00D4B54
:104A60001B6803F0F003402B01D1012308E0094B40
:104A70001B6803F0F003502B01D1012300E0002359
:104A80001846BD465DF8047B704700BFE00F00F09C
:104A9000E40F00F0E80F00F080B400AF0C4B1B688F
:104AA000DBB2062B0DD10B4B1B6803F00F03002B61
:104AB00007D1094B1B6803F0F003302B01D1012310
:104AC00000E000231846BD465DF8047B704700BF38
:104AD000E00F00F0E40F00F0E80F00F080B400AF4A
:104AE000144B1B68DBB2062B1DD1134B1B6803F064
:104AF0000F03002B17D1114B1B6803F0F003302B71
:104B000001D1012310E00D4B1B6803F0F003402B93
:104B100001D1012308E0094B1B6803F0F003502B7F
:104B200001D1012300E000231846BD465DF8047B57
:104B3000704700BFE00F00F0E40F00F0E80F00F056
:104B400080B400AF0C4B1B68DBB2062B0DD10B4BB6
:104B50001B6803F00F03002B07D1094B1B6803F000
:104B6000F003302B01D1012300E000231846BD469D
:104B70005DF8047B704700BFE00F00F0E40F00F029
:104B8000E80F00F080B400AF144B1B68DBB2062BBB
:104B90001DD1134B1B6803F00F03002B17D1114BD2
:104BA0001B6803F0F003302B01D1012310E00D4B03
:104BB0001B6803F0F003402B01D1012308E0094BEF
:104BC0001B6803F0F003502B01D1012300E0002308
:104BD0001846BD465DF8047B704700BFE00F00F04B
:104BE000E40F00F0E80F00F080B400AF0C4B1B683E
:104BF000DBB2062B0DD10B4B1B6803F00F03002B10
:104C000007D1094B1B6803F0F003302B01D10123BE
:104C100000E000231846BD465DF8047B704700BFE6
:104C2000E00F00F0E40F00F0E80F00F080B400AFF8
:104C30000C4B1B68DBB2062B0DD10B4B1B6803F032
:104C40000F03002B07D1094B1B6803F0F003302B37
:104C500001D1012300E000231846BD465DF8047B26
:104C6000704700BFE00F00F0E40F00F0E80F00F025
:104C700080B400AF0C4B1B68DBB2062B0DD10B4B85
:104C80001B6803F00F03002B07D1094B1B6803F0CF
:104C9000F003502B01D1012300E000231846BD464C
:104CA0005DF8047B704700BFE00F00F0E40F00F0F8
:104CB000E80F00F080B400AF144B1B68DBB2062B8A
:104CC0001DD1134B1B6803F00F03002B17D1114BA1
:104CD0001B6803F0F003302B01D1012310E00D4BD2
:104CE0001B6803F0F003402B01D1012308E0094BBE
:104CF0001B6803F0F003502B01D1012300E00023D7
:104D00001846BD465DF8047B704700BFE00F00F019
:104D1000E40F00F0E80F00F080B400AF144B1B6804
:104D2000DBB2062B1DD1134B1B6803F00F03002BC6
:104D300017D1114B1B6803F0F003302B01D1012375
:104D400010E00D4B1B6803F0F003402B01D1012351
:104D500008E0094B1B6803F0F003502B01D101233D
:104D600000E000231846BD465DF8047B704700BF95
:104D7000E00F00F0E40F00F0E80F00F080B400AFA7
:104D8000074B1B68062B05D1064B1B68062B01D170
:104D9000012300E000231846BD465DF8047B704700
:104DA00030010010340100100649074A074B9B1AD6
:104DB00003DD043BC858D050FBDCFFF7CFFCFBF70A
:104DC00055FA0000A4AF0000000000209C02002063
:104DD000FEE7FEE7FEE7FEE7FEE7FEE7FEE7FEE7AB
:104DE000FEE7FEE780B483B000AF0346FB710949DC
:104DF00097F907305B09FA7902F01F02012000FAE7
:104E000002F241F8232000BF0C37BD465DF8047B59
:104E1000704700BF00E100E080B483B000AF0346FC
:104E2000FB71094997F907305B09FA7902F01F0213
:104E3000012000FA02F2203341F8232000BF0C3792
:104E4000BD465DF8047B704700E100E080B483B0AC
:104E500000AF0346FB71094997F907305B09FA79FE
:104E600002F01F02012000FA02F2603341F8232011
:104E700000BF0C37BD465DF8047B704700E100E0E1
:104E800080B483B000AF03463960FB7197F90730F7
:104E9000002B0BDA0D49FB7903F00F03043B3A6852
:104EA000D2B25201D2B20B441A7609E0084997F9FE
:104EB00007303A68D2B25201D2B20B4483F80023D1
:104EC00000BF0C37BD465DF8047B704700ED00E085
:104ED00000E100E080B485B000AF78607B681B0B18
:104EE000FB7397F90F3018461437BD465DF8047B05
:104EF000704780B582B000AF03460A46FB71134687
:104F0000BB71BA7997F9073011461846FFF7B8FF19
:104F100000BF0837BD4680BD80B582B000AF0346F4
:104F2000FB7197F907301846FFF790FF97F90730A4
:104F30001846FFF757FF00BF0837BD4680BD80B554
:104F400082B000AF0346FB7197F907301846FFF7B0
:104F500063FF00BF0837BD4680BD80B485B000AF99
:104F600078600B467B807B887A68134400221A6045
:104F70007B887A6813441B68FB60FB6800BF1437AA
:104F8000BD465DF8047B704780B483B000AF7860A5
:104F90000B467B807B887A6813441B68002B14BF08
:104FA00001230023DBB218460C37BD465DF8047BB5
:104FB000704780B483B000AF786039607B683A682E
:104FC000C3F8042300BF0C37BD465DF8047B70476F
:104FD00080B483B000AF786039607B68D3F8042375
:104FE0003B681340002B14BF01230023DBB218469B
:104FF0000C37BD465DF8047B704780B483B000AFCA
:10500000786039607B683A68C3F8082300BF0C37C2
:10501000BD465DF8047B704780B485B000AF786012
:105020007B68D3F88034FB607B68FA68C3F880241F
:10503000FB6818461437BD465DF8047B704780B4A2
:1050400083B000AF78607B680422C3F8002500BFFE
:105050000C37BD465DF8047B704780B483B000AF69
:1050600078607B680022C3F8002500BF0C37BD467E
:105070005DF8047B704780B485B000AFF860B9601C
:105080007A60FB687A68C3F81425FB68BA68C3F8CD
:105090000C2500BF1437BD465DF8047B704780B512
:1050A00082B000AF78604FF0FF324FF0FF31786888
:1050B000FFF7E1FF00BF0837BD4680BD80B483B075
:1050C00000AF78607B68D3F80C3518460C37BD46C6
:1050D0005DF8047B704780B483B000AF78607B6874
:1050E000D3F8143518460C37BD465DF8047B70477D
:1050F00080B483B000AF78607B68D3F80835184679
:105100000C37BD465DF8047B704780B483B000AFB8
:1051100078607B68D3F8103518460C37BD465DF8CB
:10512000047B704780B485B000AFF860B9607A60E6
:10513000FB68BA68C3F80825FB687A68C3F81025CD
:1051400000BF1437BD465DF8047B704780B582B060
:1051500000AF78604FF0FF324FF0FF317868FFF713
:10516000E1FF00BF0837BD4680BD80B483B000AF0B
:1051700078607B68D3F81835DBB218460C37BD462B
:105180005DF8047B704780B483B000AF78600B4655
:10519000FB70FA787B68C3F81C2500BF0C37BD464E
:1051A0005DF8047B704780B483B000AF78600B4635
:1051B000FB70FB787A68134401221A6000BF0C3739
:1051C000BD465DF8047B704780B483B000AF786063
:1051D0000B46FB701346BB70FA78BB781343DBB207
:1051E0001A467B68C3F86C2500BF0C37BD465DF8D6
:1051F000047B704780B483B000AF786039607B680F
:105200003A68C3F8242500BF0C37BD465DF8047B1F
:10521000704780B483B000AF78604FF0A043184669
:105220000C37BD465DF8047B704780B584B000AF95
:105230007860084611461A460346FB700B46BB7061
:1052400013467B703B1D1846FFF7E3FFF8607A6852
:10525000F978BB785B0019437B789B0019433B7E50
:105260001B0219433B7F1B041943FB6802F5E072E4
:1052700043F8221000BF1037BD4680BD80B584B012
:1052800002AF7860002301930023009300230122E2
:1052900001217868FFF7C9FF00BF0837BD4680BD10
:1052A00080B584B002AF78600B46FB70FA780023BB
:1052B0000193002300931346002200217868FFF732
:1052C000B4FF00BF0837BD4680BD80B584B002AFD3
:1052D0007860002301930023009300230122002122
:1052E0007868FFF7A2FF00BF0837BD4680BD80B5D4
:1052F00084B000AF78603B1D1846FFF78AFFF86066
:105300007B68012202FA03F31946F86800F004F8FA
:1053100000BF1037BD4680BD80B483B000AF786059
:1053200039607B683A68C3F8082500BF0C37BD4672
:105330005DF8047B704780B582B000AF786039605B
:105340003B681B68B3F1FF3F09D03B681B681846F8
:10535000FFF7CDFF3B681B681846FFF78FFF3B68E0
:105360005B68B3F1FF3F05D03B685B6800211846DE
:10537000FFF796FF7B681A683B689B6919461046E1
:10538000FFF738FF7B6818683B68597D3B681B7DD9
:105390001A46FFF719FF7B6818683B6819683B6875
:1053A0005B681A46FFF767FE3B681B7D012B22D125
:1053B0003B689B68B3F1FF3F05D03B689B680021C9
:1053C0001846FFF76DFF3B68DB68B3F1FF3F09D07C
:1053D0003B68DB681846FFF78AFF3B68DB681846C6
:1053E000FFF74CFF7B6818683B68D9683B689B688F
:1053F0001A46FFF797FE00BF0837BD4680BD000084
:1054000080B582B000AF78600B46FB707B681B688C
:105410004FF48E711846FFF7A0FD7B681B684FF4B0
:10542000A2711846FFF799FD7B681B680E49184664
:10543000FFF7BFFD7B681B681846FFF74BFD03466F
:105440001A46FB7819461046FFF753FD7B681B6828
:105450001846FFF73FFD03461846FFF75DFD00BF06
:105460000837BD4680BD00BF8000020080B582B015
:1054700000AF78607B681B6808491846FFF7BDFDE0
:105480007B681B681846FFF725FD03461846FFF7A3
:1054900056FD00BF0837BD4680BD00BF8402020034
:1054A00080B586B000AF78607B681B681846FFF750
:1054B00005FE78617B681B681846FFF70CFE3861B3
:1054C0007B681B681846FFF713FEF8607B681B6853
:1054D0001846FFF71AFEB8607B681B681846FFF78E
:1054E000DEFD7B681B681846FFF730FE7B69B3F171
:1054F000FF3F02D07869FFF7E8FE3B69B3F1FF3F59
:1055000002D03869FFF7E1FEBB68B3F1FF3F02D07C
:10551000B868FFF7DAFEFB68B3F1FF3F02D0F86826
:10552000FFF7D3FE00BF1837BD4680BD80B586B0FB
:1055300000AFF860B9607A60FB681B791A462C23CB
:1055400003FB02F3284A13447B6100233B617B6920
:1055500093F82A30002B03D008233B613B693EE0DF
:10556000FB681A68FB681B791946204B53F82130F9
:105570001946104602F0EAF90346002B03D0112326
:105580003B613B692BE0B968F868FFF7D4FE7B69A3
:105590007A685A60BB681A697B691A607B695B68C4
:1055A000002B05D0BB681B7F1946F868FFF728FF62
:1055B000FB681B681846FFF742FD7B6900229A6171
:1055C0007B690022DA617B69002283F829207B69EC
:1055D00000225A617B69012283F82A203B69184620
:1055E0001837BD4680BD00BF6428002008AD00000C
:1055F00080B584B000AF78607B681B791A462C2395
:1056000003FB02F3104A1344FB607B681B681846D7
:10561000FFF723FDFB685B68002B02D07868FFF77B
:1056200025FF7868FFF73CFF7B681B68184602F08F
:10563000BCF9FB68002283F82A20FB6800225A602C
:1056400000BF1037BD4680BD6428002080B584B0FF
:1056500000AF786039604FF48E717868FFF77DFC99
:105660003B689A683B681B6A13441B78FB733B6872
:105670001B6A5A1C3B681A62FB7B19467868FFF765
:1056800082FD00BF1037BD4680BD80B582B000AF3F
:105690007860396016E03B6893F82830DBB2002B65
:1056A00001D0002315E04FF48E717868FFF76CFC91
:1056B000034683F00103DBB2002BECD13968786834
:1056C000FFF7C4FF3B681A6A3B685B699A42EAD3FA
:1056D000012318460837BD4680BD000080B586B05E
:1056E00000AFF860B9607A60FB681B791A462C231A
:1056F00003FB02F32E4A13443B61F86800F05AF8AA
:105700000346002B03D011237B617B694CE03B698E
:105710007A685A613B69BA689A603B6900221A62EA
:105720003B69002283F8282000237B61FB681B680B
:105730004FF48E711846FFF710FCFB681B680821B8
:105740001846FFF730FDFB681B6839691846FFF7FC
:105750007DFF3B695B68002B25D1FB681B683969BD
:105760001846FFF792FF034683F00103DBB2002BDC
:1057700002D00F237B6113E000BFFB681B684FF46E
:105780008E711846FFF700FC034683F00103DBB27D
:10579000002BF2D1FB681B680C211846FFF703FDB4
:1057A0003B6900225A617B6918461837BD4680BDA7
:1057B0006428002080B483B000AF78607B681B79D8
:1057C0001946094A2C2303FB01F3134414331B68C5
:1057D000002B14BF01230023DBB218460C37BD4653
:1057E0005DF8047B704700BF6428002080B582B05C
:1057F00000AF78607B681B684FF492711846FFF722
:10580000ACFB7B681B684FF484711846FFF7A5FB5F
:105810007B681B6800211846FFF7C5FC00BF0837EE
:10582000BD4680BD90B583B000AF786039603B68FD
:105830009B69002B08D14FF484717868FFF78DFBCA
:105840007868FFF792FC13E04FF484717868FFF7F3
:1058500084FB3B68DA683B685B6AD4187868FFF7BA
:1058600084FC034623703B685B6A5A1C3B685A629F
:105870000C37BD4690BD000080B588B000AFF86021
:10588000B9607A60FB681B791A462C2303FB02F38C
:10589000674A1344BB610023FB77BB695B68002B3D
:1058A00006D0FB681B684FF401711846FFF7A5FB93
:1058B000BB699B69002B14D0BB69DB69002B0ED040
:1058C000BB695B68002B06D0FB681B684FF4017155
:1058D0001846FFF76EFB11237B617B69A3E0012370
:1058E000FB77FB7F83F00103DBB2002B0CD0BB699D
:1058F0007A689A61BB69BA68DA60BB6900225A6249
:10590000BB690022DA6105E0BB69BA681A61BB694C
:105910007A68DA61BB6993F8293083F00103DBB25E
:10592000002B08D0FB7F83F00103DBB2002B02D0F9
:10593000F868FFF75BFFBB695B68002B69D1FB6808
:105940001B684FF4A2711846FFF707FBFB681B6842
:105950004FF492711846FFF717FB0346FB74FB6880
:105960001B684FF484711846FFF70EFB0346BB74A7
:10597000FB681B684FF4A2711846FFF705FB03464E
:105980007B74BB7C83F00103DBB2002B0BD07B7CF0
:1059900083F00103DBB2002B05D0FB7C83F0010315
:1059A000DBB2002BD2D1FB7C002B0ED17B7C002BF9
:1059B0000BD1FB681B68B9691846FFF733FFBB6959
:1059C0009A69BB695B6A9A42C0D8BB6900229A6136
:1059D000FB7C002B03D003237B617B6923E07B7C72
:1059E000002B03D00F237B617B691CE0BB6993F81C
:1059F0002930002B06D0FB681B6800211846FFF7F2
:105A0000D2FB0DE0FB681B6804211846FFF7CBFBB7
:105A100006E0FB681B684FF401711846FFF7C9FAEE
:105A200000237B617B6918462037BD4680BD00BFDF
:105A30006428002080B582B000AF78607B681B6866
:105A40004FF484711846FFF79FFA0346184608374B
:105A5000BD4680BD80B582B000AF78607B681B79A1
:105A600019460F4A2C2303FB01F3134429331B78F7
:105A700083F00103DBB2002B0DD07868FFF7B6FE90
:105A80007B681B791946064A2C2303FB01F3134458
:105A9000293301221A7000BF0837BD4680BD00BF00
:105AA0006428002080B588B000AFF860B9607A60E3
:105AB00001233B74BB68BB617B687B61FB685B68EF
:105AC000FA68116807F110021046984700BF2037A6
:105AD000BD4680BD80B586B000AF786039600023D8
