:10000000000001207D180000A5180000A7180000BE
:10001000A9180000AB180000AD1800000000000097
:10002000000000000000000000000000AF18000009
:10003000B118000000000000B3180000B51800005F
:10004000251B0000410A000015220000B91800001D
:10005000B7180000B7180000B7180000F11D000025
:10006000B7180000B7180000B7180000ED1C00001A
:10007000B7180000B7180000B7180000B718000044
:10008000B7180000B7180000B7180000B718000034
:10009000250D0000B7180000B7180000B7180000C1
:1000A000B7180000B718000005130000B7180000CB
:1000B000B7180000B71800000000000000000000A2
:1000C000B7180000B7180000B7180000B7180000F4
:1000D000B7180000B7180000B718000000000000B3
:1000E0000000000000000000000000000000000010
:1000F0000000000000000000000000000000000000
:1001000000000000000000000000000000000000EF
:1001100000000000000000000000000000000000DF
:1001200000000000000000000000000000000000CF
:1001300000000000000000000000000000000000BF
:1001400000000000000000000000000000000000AF
:10015000000000000000000000000000000000009F
:10016000000000000000000000000000000000008F
:10017000000000000000000000000000000000007F
:10018000000000000000000000000000000000006F
:10019000000000000000000000000000000000005F
:1001A000000000000000000000000000000000004F
:1001B000000000000000000000000000000000003F
:1001C000000000000000000000000000000000002F
:1001D000000000000000000000000000000000001F
:1001E000000000000000000000000000000000000F
:1001F00000000000000000000000000000000000FF
:1002000010B5054C237833B9044B13B10448AFF350
:1002100000800123237010BDFC04002000000000BA
:10022000C42600000C4B43B10C480D4910B5AFF388
:1002300000800C48036823B910BD0A48036833B92D
:100240007047094B002BF7D0BDE810401847064B0C
:10025000002BF5D0184700BF00000000C4260000A6
:1002600000050020F804002000000000154B002BC2
:1002700008BF134B9D46A3F5803A00218B460F46DD
:100280001348144A121A02F09DF80F4B002B00D0AD
:1002900098470E4B002B00D0984700200021040007
:1002A0000D000D48002802D00C4802F057F901F06B
:1002B000C7FF2000290000F03DF801F0B1FF00BFAA
:1002C0000000080000000120000000000000000005
:1002D000FC0400204C2600205D250000692500005C
:1002E000704700BF38B50E4B0E4A1B684FF0A04454
:1002F00003F04F031360102500F086F846F2BC337C
:10030000C4F80855084A0949094800F08FF900F077
:1003100045F9C4F80C55BDE8384000F07FB800BF7F
:1003200058020010E40E004019A60D0080B70D0021
:1003300091B50D0008B51A4B1A4A1B6803F04F031C
:10034000136000F059FA28BB00234FF0A0410220AF
:1003500003F5E0720133202B41F82200F8D103238A
:10036000C1F8103700F040F800F0CCF900210E4839
:1003700000F0B4F888B90D4800F052F8032000F0FE
:100380004FF900F013F900F009F900F047F800F018
:1003900049FAFCE700F0EAF9D6E700F0E7F9EAE706
:1003A00058020010E40E0040E1020000E5020000E7
:1003B00000B1704730B4084B084C094A094901257F
:1003C0004FF480302560C3F80403137809682B4488
:1003D000137030BC084700BF00B0004008B00040B8
:1003E000000000201805002008B500F0C1FF38B952
:1003F000002001F00FF801F04FF80028FBD008BDF5
:1004000000F0B4F9F4E700BF08B5002001F002F8ED
:1004100001F042F80028FBD008BD00BF01F028B869
:1004200010B5184B82B01860002000F0BDFF00F03E
:10043000E9FF0028FBD0144B144A93E8030002ABF9
:1004400040F2FF74009023F8084DADF804101048F6
:10045000194601F097FB88B900210D4801F030FCE6
:100460000123082200210A4801F0E0FB08B100F056
:100470007DF9074801F0CEFB02B010BD00F076F91F
:10048000EAE700BF1805002084260000B103000041
:100490008C26000010B50478012C12D00AD3022C4F
:1004A0000C4B02D101221A7010BD01221A700122D8
:1004B0001A7010BD084A074B0121117001221A70F1
:1004C00010BD00F00DFD044A024B147001221A7099
:1004D00010BD00BF1C0500201D050020F0B5284AF6
:1004E000284E1468284D294B87B00746029402F124
:1004F00008048C465268019294E80300376004AC0B
:100500000326C5F800C0019D214F039584E8030030
:100510000022012502211E72184608265F605972CA
:10052000DA815A701D751D70DE7400F0B3FA08B1DF
:1005300007B0F0BD0DEB060000F0E8FC0028F7D195
:1005400003A800F089FD0028F2D12046314600F0D2
:1005500049FE0028ECD1284600F0C0FE0028E7D173
:100560000C4A0D4D10704FF080414FF00F14D1F830
:1005700000341671234050712B60C1F80044D7E756
:1005800094260000240500202005002004000020FF
:10059000950400001C00002028050020024A137862
:1005A000002BFCD0704700BF1C050020F0B5184A96
:1005B000184B12681878184C110E002361F30703CA
:1005C000110C83B061F30F23110A61F3174302A9E1
:1005D00062F31F6341F8043D012240F080030025CF
:1005E000A371A270092304228827232604F10A009C
:1005F00023716371277266722570E57101F048FE00
:10060000064B20461D7000F0CBFB03B0F0BD00BFD1
:1006100028050020010000201C0000201C050020EF
:10062000014B1870704700BF01000020F0B5244D49
:10063000244C2D7885B045F080058DF80D300127CC
:10064000B52323268DF803008DF80710A571A77038
:10065000E371070E030C0D0E66724FF0880E0E0C40
:10066000000A090A8DF80B2084F808E08DF8007064
:100670004FEA126E8DF80130170C130A8DF8020044
:100680008DF804508DF80560002513268DF80610AE
:100690000E22694604F10A008DF808E08DF80A3050
:1006A0008DF8097025708DF80C502671667101F077
:1006B000EFFD054B20461D7000F072FB05B0F0BD4C
:1006C000010000201C0000201C050020037883B9D5
:1006D00043680A4AB3F9003003EB8303C3EB031307
:1006E000DB0048BF03F2FF339B1203EB43035B00C5
:1006F0001380034B01221A70704700BFA400002032
:100700002E05002000B51449144885B001F052FCB4
:10071000F8B9134B93E8070001AB03C301A900200C
:100720001A7001F095FC08B100F020F80D4B0E484E
:10073000002201211A7001F0F5FC38B901F052FDD8
:1007400008B100F013F805B05DF804FB00F00EF8F6
:10075000F4E700F00BF8DCE7CD060000B02600005F
:10076000A42600002E0500202C05002000B585B031
:1007700000230390194601AA44F201000193029359
:1007800000F004F805B05DF804FB00BF72B6094B39
:100790001B68DB0700D500BEBFF34F8F0649074B30
:1007A000CA6802F4E0621343CB60BFF34F8F00BF0F
:1007B000FDE700BFF0ED00E000ED00E00400FA0509
:1007C00072B6024A13680133136070473005002087
:1007D000034A1368013B136003B962B6704700BF58
:1007E0003005002001600B6843604A68934204BFF3
:1007F00000234360704700BF064A074B10B5002432
:1008000014701C60BFF35F8F04490548FFF7EAFFCF
:10081000204610BD3C05002040050020B426000005
:100820003405002008B50020FFF7CAFFF1EE103AAA
:1008300023F09F03E1EE103ABFF35F8F054B402298
:10084000C3F884210020FFF7C3FF20BF40BF20BFB3
:1008500008BD00BF00E100E04FF08053D3F8043141
:1008600003F47F43B3F5844F1DD04FF08053D3F88A
:10087000043103F47F43B3F58A4F01D00020704761
:10088000F0B52C4B2C4A5C7CD2F81C152B4BD2F8C3
:100890002005052C18BF4FF07F43194003409942B3
:1008A00012D00020F0BD2449254AD1F8503623F05B
:1008B0000103C1F85036136823F0807323F001035D
:1008C00043F080731360D0E7D2F82435D2F82415B2
:1008D000D2F82405D2F82475D2F82845D2F8285544
:1008E000D2F82865D2F828E5DBB2C1F3072293429B
:1008F00014D0C0F30740834210D0B3EB176F0DD074
:10090000E4B2A3420AD0C5F30725AB4206D0C6F332
:100910000746B34202D0B3EB1E6FC2D1084A136838
:1009200023F0807323F0010343F0807313600020F1
:10093000F0BD00BFA8000020001000400000FFFF35
:10094000741700402DE9F0413248334B0268996A30
:1009500042F001020260002952D05A6A2F48013247
:100960000224072A01F1FF31996288BF0022C0F8F2
:1009700080405A62294C9A6A02262660002A3FD09B
:100980005A6A274FDFF8B0804FF48011C4F8001185
:1009900053F82210234B0A79C8F8001001250531BD
:1009A00038461D6001F074FC1F4B20492048DFF8D9
:1009B0008CE040F21312C3F800221022C3F8042383
:1009C000D8F800200D701178C0F800E0C3F82C159D
:1009D0001278184905FA02F2C97CC3F830250022C2
:1009E000C3F80815C3F80475C4F880612660C3F81D
:1009F0000421C3F80821C3F810211D60BDE8F0816F
:100A00000A49064B00204FF480120870C3F80021F9
:100A1000BDE8F08164050020A420002000E100E092
:100A20000825002068050020001000406C0500200B
:100A300094250020A80000209025002045090000F2
:100A4000124BD3F8002132B1D3F80423D00744BFAE
:100A50000022C3F800210D4BD3F80C2132B1D3F89A
:100A60000423110744BF0022C3F80C21074BD3F81D
:100A7000102152B1D3F80423D20606D50021044A2E
:100A8000C3F81011136803B11847704700100040F5
:100A90009425002000283AD0F8B58C4D2B78DBB196
:100AA0008B4B8C4F8C4E8D498D4A8E4C4FF4705E23
:100AB000C3F808E500233B704FF48017C6F8807038
:100AC00003260B624B628B62C2F8C830C2F8CC308E
:100AD000C2F8D030C4F80062834C844B42681A607C
:100AE00001461822204601F0D3FB7E4A237A804833
:100AF000A17A00260660C2F80C15C2F81035042B46
:100B000000F2CB80DFE803F0B2C4C905C4000E20B8
:100B10007047784B49221A600127627A012A00F057
:100B2000AE800AD3022A40F0BC806E4B72494FF669
:100B3000FF70C3F83C05C3F83815704BA689587C84
:100B4000684B6F49C3F83425421E41EA0242862EA3
:100B50004FF00811C3F81415C3F8182540F29F8010
:100B6000002F00F09C80674E5C48674F5C4A6749E5
:100B70004FF0E73EC3F81CE54FF0433EC3F820E5D5
:100B8000C3F8247506F18707476006F58777876005
:100B900006F29517C76006F50777076106F2A327E7
:100BA000476106F22A37876106F2B137C761C3F899
:100BB00028150027564B5749C2F8C870C2F8CC70A8
:100BC000C2F8D0700660076247628762043A42F852
:100BD000043F87338B42FAD1607C4F49A27C3C4B67
:100BE0003D4E3C4F4FF0040EC1F810E5440140F279
:100BF000022E0020C1F80805C1F800E2DFF820E16C
:100C0000C3F860E5C3F86415A1F50E41FC39C3F8DB
:100C1000681501F50F41C3F86C1501F59E71C3F815
:100C20007015A1F511413039C3F8741501F5114162
:100C30003431C3F8781552012A49C3F87C15E4B25F
:100C4000D2B24FF4801E01214FF0805386F8014349
:100C500086F81423C6F800E038702970D3F8043100
:100C600003F47F43B3F58A4F2AD0F8BD214B4022CD
:100C70001A60627A012A4FF001077FF452AF194BD4
:100C8000FF2040F20711C3F83C05C3F8381554E7BC
:100C9000184B30221A6001273FE700273DE7072065
:100CA000F8BD164A164B527C0E49013A43EA0243FC
:100CB0004FF00812C1F81425C1F818350720F8BD07
:100CC000164A136843F480631360F8BD5C05002086
:100CD00000F001406C05002000E100E0A4200020AD
:100CE0007005002000100040440500206005002031
:100CF000640500208C25002021100100A8000020A0
:100D000082000001D0200020E743C323A363E31344
:100D100044060020A220002000A000403C17004014
:100D20000011004070B5194B194A1B78126882B047
:100D300001928BB1174B1849184D0222C3F880203D
:100D400000260C680E601A602B682BB1E10716D4E0
:100D5000A2070BD4630701D402B070BD02A802231E
:100D600000F8083D2B68984702B070BD02A8012327
:100D700000F8083D2B6898476307EDD5EEE702A819
:100D800000F8086D9847A207E4D5EFE75C0500205E
:100D90006805002000E100E06405002060050020F7
:100DA000434B1B780BB908207047C0B10279531E22
:100DB000DBB2812B01D9092070472DE9F0473D4C6A
:100DC00023782BB9E37C934202D20920BDE8F08757
:100DD000394DAB6A072B04D90420BDE8F0870E20FB
:100DE00070470378072B02D90720BDE8F087334A04
:100DF0002B6A324E01460220C2F8800055F82300CB
:100E0000872201F045FA2B6A207C0133072B88BF2B
:100E100000232B62AB6A02270133AB62376030B923
:100E2000DFF8A89099F800401CB1BDE8F0870020D9
:100E3000FBE76B6ADFF8988055F82310DFF894A081
:100E40001F4B0A79CAF800100125053140461D6084
:100E500001F01EFA1B4BDFF880E0DFF880C01A4972
:100E600040F21312C3F800221022C3F80423DAF868
:100E7000002089F800501078CEF800C0C3F82C0587
:100E80001278C97C05FA02F2C3F83025C3F80815B8
:100E9000C3F80485C6F880713760C3F80441C3F80D
:100EA0000841C3F810411D602046BDE8F08700BF2F
:100EB0005C05002044050020A420002000E100E0A3
:100EC0006805002000100040A80000206C050020EC
:100ED00008250020902500209425002045090000C9
:100EE000074B1B780BB908207047064B064A0020B9
:100EF0000221C2F88010986211601862586270472F
:100F00005C050020A420002000E100E0F8B54D4B76
:100F10001B780BB11120F8BD002800F090804FF035
:100F20008053494CD3F8043103F47F43B3F5844F25
:100F30001ED001460422444801F0AAF9236893FA1E
:100F4000A3F3424A4FF08051C2F81C35D1F8043166
:100F500003F47F43B3F5844F61D04FF08053D3F84F
:100F6000043103F47F43B3F58A4F14D00020F8BD59
:100F7000617C374A0368052918BF4FF07F4293FA16
:100F8000A3F31A42D5D1314BD3F8243513F0FF0F18
:100F9000CFD10720F8BD2D4A647C2D4BD2F81C150B
:100FA000D2F82005052C18BF4FF07F4319400340AD
:100FB0009942DBD1D2F82435D2F82415D2F8240591
:100FC000D2F82475D2F82845D2F82855D2F82865E9
:100FD000D2F828E5DBB2C1F30722934214D0C0F364
:100FE0000740834210D0B3EB176F0DD0E4B2A34299
:100FF0000AD0C5F30725AB4206D0C6F30746B34275
:1010000002D0B3EB1E6FB1D1124A136823F0807384
:1010100023F0010343F0807313600020F8BDD2F881
:1010200050360C4923F00103C2F850360B6823F008
:10103000807323F0010343F080730B608DE70E2073
:10104000F8BD00BF6C050020A80000200010004083
:101050000000FFFF74170040F8B55C4B1B780BB124
:101060001120F8BD00283BD04FF08053584CD3F8E6
:10107000043103F47F43B3F5844F1ED001460422AC
:10108000544801F005F9636893FAA3F3524A4FF00C
:101090008051C2F82035D1F8043103F47F43B3F511
:1010A000844F63D04FF08053D3F8043103F47F436F
:1010B000B3F58A4F16D00020F8BD617C474A03681B
:1010C000052918BF4FF07F4293FAA3F31A42D5D1F6
:1010D000414BD3F8242512F47F4F57D10720F8BD98
:1010E0000E20F8BD3C4A647C3C4BD2F81C15D2F86B
:1010F0002005052C18BF4FF07F431940034099424B
:10110000D9D1D2F82435D2F82415D2F82405D2F852
:101110002475D2F82845D2F82855D2F82865D2F897
:1011200028E5DBB2C1F30722934214D0C0F3074095
:10113000834210D0B3EB176F0DD0E4B2A3420AD0B4
:10114000C5F30725AB4206D0C6F30746B34202D02B
:10115000B3EB1E6FAFD1224A136823F0807323F0E4
:10116000010343F0807313600020F8BDD2F85036BD
:101170001B4923F00103C2F850360B6823F080733B
:1011800023F0010343F080730B608BE7D3F8242531
:1011900012F47F0FA2D0D3F8242512F07F4F9DD0F8
:1011A000D3F8282512F07F4F98D0D3F8282512F4D1
:1011B0007F0F93D0D3F8282512F47F4F8ED0D3F829
:1011C000283513F0FF0F89D058E700BF6C050020C9
:1011D000A8000020AC000020001000400000FFFF2D
:1011E0007417004038B5384B1B780BB1112038BD4F
:1011F00050B3082901D9072038BD4FF08053334D33
:10120000D3F8043103F47F43B3F5844F1ED00C466A
:10121000224601462E4801F03BF8C4F10802FF23A4
:101220001341AB742C74AB6893FAA3F3294A1BBA2D
:10123000C2F82435EB6893FAA3F31BBAC2F8283539
:10124000BDE83840FFF708BB0E2038BD6A7C224B52
:10125000052A18BF4FF07F43002930D01D4AD2F82D
:101260001C25134202D10278002AC4D0194AD2F8B0
:1012700020251342CBD10129C9D04378002BBAD005
:101280000229C4D08378002BB5D00329BFD0C378FE
:10129000002BB0D00429BAD00379002BABD005299C
:1012A000B5D04379002BA6D00629B0D08379002B86
:1012B000A1D00829ABD1C379002BA8D19BE7054B5E
:1012C000D3F82035A3E700BF6C050020A80000205C
:1012D000B0000020001000400000FFFF074B1B780B
:1012E00013B1112318467047642802D90723184602
:1012F0007047034AD0741846704700BF6C05002041
:10130000A8000020074BD3F8402132B10021064A43
:10131000C3F840111378032B00D07047034B012210
:101320001A61704700A001406C05002000100040C9
:1013300010B568B101280AD10C4C2369A07033B1F3
:101340000CCB0120226198472369002BF8D110BDF6
:10135000064CA36801226270002BF8D00CCB002051
:10136000A2609847A368002BF8D110BD98250020F3
:1013700010B50B4C237882B013B1852002B010BD9C
:1013800008486360A3602361E36000F053FB0190B1
:1013900000F05EFB01980123237002B010BD00BF76
:1013A000982500203113000038B5154DAB78044660
:1013B00073B110B14368012098470020FFF700FA8D
:1013C000EB680133EB600020BDE83840FFF700BA5E
:1013D00003F0FF00FFF7F4F964B12A6942B19442C7
:1013E00008D0134601E09C4204D01B68002BFAD1C0
:1013F00022602C61EB68002BE2D100F03DFBDFE7BF
:10140000982500204FF08043D3F81804C0F3004023
:10141000704700BF38B5154D6B78044673B110B1F5
:101420004368002098470020FFF7CAF96B68013332
:101430006B600020BDE83840FFF7CAB903F0FF0039
:10144000FFF7BEF964B1AA6842B1944208D01346CE
:1014500001E09C4204D01B68002BFAD12260AC60F2
:101460006B68002BE2D100F037FBDFE79825002006
:1014700038B5084C0020FFF7A3F96368013B6360AF
:10148000656815B900F03AFB65700020BDE838408A
:10149000FFF79EB9982500204FF08043D3F80C0445
:1014A00000F00110A0F10110B0FA80F0400970477F
:1014B000F0B4B44B1A78062A20D0B34B1B68062B25
:1014C00000F08A80B14AD2F8883043F47003C2F841
:1014D0008830BFF34F8FBFF36F8F4FF01023D3F8D7
:1014E0000022002AC0F28A81D3F80432002BC0F215
:1014F0008581A74BA74A1A60F0BC704704331B686C
:101500001807DAD1A44B1B6803F0F002302A00F070
:10151000658103F0E003402B00F060819E4B1B6867
:1015200003F0F003302B00F01E819B4B1B6803F08F
:10153000F002302A00F0078103F0E003402B00F0B6
:101540000281954B1B6803F0F003302B00F0EB8019
:10155000914B1B6803F0F002302A00F0D08003F0BA
:10156000E003402B00F0CB808B4B1B6803F0F003B3
:10157000302B00F0B680884B1B6803F0F003302B53
:1015800000F09880844B1B6803F0F003502B3FD091
:10159000814B1B6803F0F002302A28D003F0E003EF
:1015A000402B24D07C4B1B6803F0F002302A03D080
:1015B00003F0E003402B80D14FF08043D3F80024A8
:1015C000D2077FF57AAF6FF00102C3F800246E4BAB
:1015D0001B68062B7FF476AF704B1B68062B7FF4DD
:1015E00071AF6F4A136843F4806313606AE76D4B11
:1015F0006D4A1B6803F04F031360624B1B78062B88
:101600007FF45BAF694B1B6818077FF456AFC9E7DF
:101610004FF08052664BD2F80414C3F82015D2F86C
:101620000814C3F82415D2F80C14C3F82815D2F8FE
:101630001014C3F82C15D2F81414C3F83015D2F8CE
:101640001814C3F83415D2F81C14C3F84015D2F896
:101650002014C3F84415D2F82414C3F84815D2F85E
:101660002814C3F84C15D2F82C14C3F85015D2F82E
:101670003014C3F85415D2F83414C3F86015D2F8F6
:101680003814C3F86415D2F83C14C3F86815D2F8BE
:1016900040143C48C3F86C15D2F844140278C3F8DF
:1016A0007015062A7FF409AF404B1B681C077FF4B6
:1016B00004AF6DE73F4E404C4049414B05270125A3
:1016C00000203F223760256008601A602D4B1B7890
:1016D000062B7FF4F2AE354B1B681D077FF4EDAE91
:1016E00050E7284B374A1B780321062B11607FF403
:1016F000E4AE2E4B1B681E077FF4DFAE3BE74FF0D6
:1017000080430022C3F80C21C3F81021C3F8382508
:101710001C4B1B78062B7FF470AF244B1B681F07F4
:101720007FF4CBAE20E72849164ACB68127823F025
:101730008073062ACB607FF4C0AE1C4B1B681B076E
:101740007FF4BBAE04E7214B0E4A1B681278204998
:10175000C3F34233062A0B60B8D1144B1B681A0737
:101760007FF4ABAEEDE6074B1A4A1B781A491160BD
:10177000062B7FF4A2AE0D4B1B6819077FF49DAEBC
:10178000D3E600BFE00F00F03001001000ED00E0F4
:10179000BC0000200090D003E80F00F034010010DE
:1017A0003C17004058020010E40E0040E40F00F027
:1017B00000C00040105600408856004018560040B7
:1017C00014560040A0050040F0ED00E04402001077
:1017D0003C05004074C007400DF0ADBA204B214AD3
:1017E0001B6812782049C3F30423062A0B608FD1AB
:1017F0001E4B1B6819073FF491AE5EE61C4B01229D
:10180000C3F80425D3F80024002AFBD04FF010239E
:1018100015221749C3F80022D1F80034002BFBD061
:101820004FF010221521124BC2F80412D3F80024F5
:10183000002AFBD000220E49C3F80425D1F8003459
:10184000002BFBD0BFF34F8F0A490B4BCA6802F441
:10185000E0621343CB60BFF34F8F00BFFDE700BFD3
:1018600024030010E00F00F040350140E40F00F0C9
:1018700000E0014000ED00E00400FA050649074AD7
:10188000074B9B1A03DD043BC858D050FBDCFFF725
:101890000FFEFEF7EBFC0000D02600000000002049
:1018A000FC040020FEE7FEE7FEE7FEE7FEE7FEE7BA
:1018B000FEE7FEE7FEE7FEE7F0B55B4BD3F8242139
:1018C0008DB0BAB10022C3F82421D3F824210592A7
:1018D000059AD3F804216AB9544A02219068C3F8E2
:1018E000080391609268C3F8042301221A625A61C6
:1018F0000DB0F0BD4C4C4D4DD4F80431002B2FD021
:101900000023C4F8043105F10C070FCF07AED4F85B
:1019100004E13F68CDF810E00FC695F82E30049A28
:101920003760002B36D02B7B012B79D0D4F84C2597
:101930000892022B71D03C4BD3F84C253A4B0992BC
:101940000022C3F86021D3F8601102910299C3F814
:101950005C21D3F85C310393039B95F8302028E099
:10196000C4F84831D4F848212B7B0192019A002B0E
:101970003AD105F10C070FCF07AE0FC695F830200E
:101980003B683360EAB92A4BC4F80022AA60C4F865
:10199000083316E0C4F86031D4F860210292029A4C
:1019A000C4F85C31D4F85C3195F830200393039B84
:1019B0003AB91D4B1E480021C3F80012A960C3F8B4
:1019C00008031949D1F8C434C1F8C43499071DD5A6
:1019D00001238DF818300AB985F82F202B68696823
:1019E00006A898470DB0F0BD4FF4007140F20222F6
:1019F0000F4BC4F80012AA60C4F80833AB68C4F8EF
:101A000004330123A36023620DB0F0BD13F004037F
:101A100018BF02238DF81830DDE7D4F83C258DE798
:101A2000D4F83C35089386E700300040AC25002010
:101A300002029C01054A13790BB1852070470121F0
:101A40001060537118461171704700BFE0250020E7
:101A5000084A136813F0010305D1012182F800330D
:101A6000C2F8801111604FF080430122C3F818259D
:101A7000704700BF00E100E010B41349134B144A53
:101A80000020086083B0096801914FF08041022076
:101A9000019CC1F80403D86840F08071D9601468D3
:101AA00044F001031360516853685B1AB3F50A5F91
:101AB000FAD30649074B14600122C8601A6003B0CC
:101AC0005DF8044B704700BF04010040F0ED00E0FA
:101AD000001000E008000040074B00221A6082B0AE
:101AE0001B68019301994FF080430122C3F804233E
:101AF0001A6002B0704700BF00010040074B01228E
:101B00001A604FF08042D2F80C3403F00113B3F1A5
:101B1000011FF8D0024B00225A71704704000040A8
:101B2000E025002010B5144B1A6882B062B1002184
:101B3000124A19601B68507900934FF080410123CD
:101B4000009CC1F8083390B10D4B1A686AB10022AD
:101B50001A601B6801934FF080420221074B0198E5
:101B6000C2F808131B680120984702B010BD116825
:101B700053718847E8E700BF00010040E0250020DE
:101B80000401004070B443791F4C204E03EB430521
:101B900046F82320655D15B1082070BC704790F9A8
:101BA00004308A78002B27DB03F1604303F561439F
:101BB0005201D2B283F8002390F9042053099B000C
:101BC00003F1604303F56143012502F01F0205FAAA
:101BD00002F2C3F880211A6003680A88C3F8082556
:101BE00043790879C97803EB4303E218E554507050
:101BF0009170002070BC7047054D03F00F03520137
:101C00001D44D2B22A76D7E7E8250020EC25002033
:101C1000FCEC00E00368044A01211960437903EBFE
:101C200043030221D1547047E8250020F0B54FF45A
:101C300080350468214E8D40C4F848530468C4F8C8
:101C40000853447904EB4404344483B0647822F0AC
:101C50007F42D4B1046801F5A87744F827200468CE
:101C6000D4F804E5AEEB02077245427902EB42027A
:101C7000164488BF07F1FF17B27888BF07F57F4782
:101C8000974208DA0D2003B0F0BD046801F5A8768C
:101C900044F82620046823B90020C4F8445303B054
:101CA000F0BD5031890089B2002363506258036847
:101CB0000192019AC3F804530468EDE7E825002077
:101CC00010B403680022C3F8002183B0D3F80031B8
:101CD000026801930123019CC2F8443311B10268E8
:101CE000C2F8043303B05DF8044B704710B53B4BAA
:101CF000D3F80423D20384B003D5394A11680029EC
:101D00003CD1364BD3F80423940303D5354A1168EC
:101D1000002942D1314BD3F80423500303D5324A72
:101D20001168002949D12D4BD3F80423D10702D5DE
:101D3000D3F80021B2B9294BD3F80423920702D576
:101D4000D3F804210AB904B010BD0022C3F804215D
:101D5000264AD3F80431019305201368019A984765
:101D600004B010BD0022C3F80021204AD3F800318E
:101D7000029304201368029A9847DCE74FF48031FD
:101D80000020C3F84813194CC3F8081310601368F7
:101D900003932368039A9847B3E74FF40031002474
:101DA000C3F848131148C3F8081314601368039369
:101DB0000368039A01209847ACE74FF48021002480
:101DC000C3F848130948C3F8081314601368039351
:101DD0000368039A02209847A5E700BF00B00040BF
:101DE00040B1004044B1004048B10040EC25002023
:101DF0002DE9F041684B1A6888B0002A3CD1674F42
:101E000097F82E30002B45D1654B1A68002A5ED119
:101E1000644B1C68002C6AD17E699EB14FF000486B
:101E20000125B6FA86F2930003F58C7303F1804125
:101E300001F5E04128FA02F2086826EA020620B914
:101E4000002EEED108B0BDE8F081A3F58C730C60D4
:101E500083F0040209680491C2F38002DB088DF864
:101E600019208DF818308DF814503B68049A05A895
:101E70009847002ED5D1E5E70022484F1A6019682F
:101E800097F82E3000910099002B39D097F82F3019
:101E9000002B4ED1444B1A68002AB5D000221A609C
:101EA00097F82D0019687B8B019184B2A3420199A8
:101EB0004ED85FD0384B3D4A002119601B68029311
:101EC000012302991360364B1A68002AA0D0002221
:101ED0001A6008A81B680393022100F80C1D3B68D8
:101EE00003993A7498472F4B1C68002C94D0002219
:101EF0001A601B680593059B3A7408B0BDE8F08131
:101F0000FA68786839898DF814300690ADF81C109D
:101F1000002A2CD02648398B7A600122FB60798315
:101F2000398102603B6805A89847002387F82F3065
:101F300066E7FB68786839898DF814200690ADF85B
:101F40001C10A3B1398B7B60FA6079833981E9E792
:101F50003A897968164D1B1B9BB292B2D21A01EBDB
:101F600042027B83C5F82C26C5F83006A2E7002381
:101F70003B74D7E7FB684BB10D497A83012287F8A0
:101F80002F20C1F82C36C1F8300693E701227B835D
:101F900087F82F208EE700BF04710040F025002055
:101FA0001071004014710040007100400470004046
:101FB00000700040214B93F82C200AB10820704794
:101FC000F0B51F4C05781960C4F8F05545781D49E7
:101FD000C4F8F4556FF000451A74C678C4F8085375
:101FE00083B00A600968184D019101992A608178CF
:101FF00083F82E602D6815480095490183F82D203F
:102000005A6183F82F208025C9B202270122F6B237
:10201000DDF800E083F82C2080F80713C0F8805129
:102020000560C4F804730EB1C4F80423044B012204
:102030000020C3F8002503B0F0BD00BFF02500204C
:1020400000700040047100400071004000E100E0B9
:10205000324A137C0BB111207047F0B50C79012C7A
:1020600055D900F10C0502EB45031B79002B43D039
:102070004B788E780F7891F803E01B01360206F456
:10208000E06603F03003334307F003064F794FEA6D
:102090000E3E33430EF4805E8E793F0507F48017C1
:1020A00043EA0E033B4336061D4F06F080762404B8
:1020B00002EB450204F4E024334307EB0015000172
:1020C000CE791671234300F180400C7A547100F5EB
:1020D000E040C5F81835CB790A7AC0F81425C0F865
:1020E0001035CB790A7AC0F81425C0F810350B7971
:1020F000012B07D90020F0BD92F82D30013382F872
:102100002D30B5E70123C7F800350020F0BD03F0FE
:10211000FF05034BC3F800550C79A2E7F02500201A
:1021200000700040F0B42C4A2C4B1224C2F8084333
:102130001D7C022D82B01CD01C7C012C1FD093F87A
:102140002E405860022701250026C2F804731D7432
:10215000DE601981E4B9224BC2F82C06C2F83016B1
:102160001C601B680193019B1560204602B0F0BC07
:1021700070471120C2F8044302B0F0BC7047DC681D
:102180008CB102231120C2F8043302B0F0BC7047B6
:1021900093F82D40C2F82C0630465983C2F83046D9
:1021A00002B0F0BC704793F82E20D86019836AB94A
:1021B0000B4A1368002BFCD0002313601268064BF7
:1021C0000092009AC3F82C06C3F83016024B022284
:1021D000C3F804230020C9E700700040F025002068
:1021E00000710040084A137CDBB2012B01D00820AB
:1021F000704792F82E0010B9044A13607047044AE1
:1022000000201360704700BFF025002004700040DC
:1022100000700040014B1B68184700BF20260020BB
:1022200008B50021044600F025F9044B1868C36B7B
:1022300003B19847204600F017FA00BFC0260000FF
:1022400070B50F4E0F4D761BB61018BF002405D089
:10225000013455F8043B9847A642F9D10A4E0B4D7C
:10226000761B00F003FAB61018BF002406D0013424
:1022700055F8043B9847A642F9D170BD70BD00BF28
:10228000EC040020EC040020F4040020EC04002006
:10229000844641EA000313F003036DD1403A41D371
:1022A00051F8043B40F8043B51F8043B40F8043B30
:1022B00051F8043B40F8043B51F8043B40F8043B20
:1022C00051F8043B40F8043B51F8043B40F8043B10
:1022D00051F8043B40F8043B51F8043B40F8043B00
:1022E00051F8043B40F8043B51F8043B40F8043BF0
:1022F00051F8043B40F8043B51F8043B40F8043BE0
:1023000051F8043B40F8043B51F8043B40F8043BCF
:1023100051F8043B40F8043B51F8043B40F8043BBF
:10232000403ABDD2303211D351F8043B40F8043B5F
:1023300051F8043B40F8043B51F8043B40F8043B9F
:1023400051F8043B40F8043B103AEDD20C3205D36F
:1023500051F8043B40F8043B043AF9D2043208D067
:10236000D2071CBF11F8013B00F8013B01D30B88D9
:1023700003806046704700BF082A13D38B078DD0B7
:1023800010F003038AD0C3F10403D21ADB071CBF89
:1023900011F8013B00F8013B80D331F8023B20F8F3
:1023A000023B7BE7043AD9D3013A11F8013B00F82C
:1023B000013BF9D20B7803704B7843708B788370B4
:1023C0006046704770B4860746D0541E002A41D03C
:1023D000CAB2034602E014F1FF343BD303F8012BE9
:1023E0009D07F8D1032C2ED9CDB245EA05250F2C37
:1023F00045EA054519D903F110022646103E0F2E75
:1024000042F8105C42F80C5C42F8085C42F8045C4C
:1024100002F11002F2D8A4F1100222F00F0204F02F
:102420000F041032032C13440DD91E462246043AE1
:10243000032A46F8045BFAD8221F22F00302043272
:10244000134404F003042CB1C9B21C4403F8011B6B
:102450009C42FBD170BC704714460346C2E700BFE4
:10246000024B13B1024800F079B870470000000039
:10247000692500002DE9F04F354B85B00E460190DF
:10248000186800F08BF8334B1B68029303F5A473B4
:102490000393029BD3F8487137B3DDF80CA04FF0DB
:1024A0000109D3467C68651E0ED4013407EB840411
:1024B0004FF00008FEB1D4F800319E421BD0013D20
:1024C0006B1CA4F10404F5D1234B6BB17B68002B8A
:1024D00039D13B6843B13846CBF80030AFF30080C8
:1024E000DBF80070002FDDD1194B186805B0BDE88E
:1024F000F04F00F055B87B682268013BAB420CBF3F
:102500007D60C4F80080002AD9D0D7F88811D7F8A8
:1025100004A009FA05F30B420FD0D7F88C110B4237
:102520000DD1D4F88010019890477B685345B0D105
:10253000DBF80030BB42C2D0ABE79047F5E7D4F8F8
:1025400080009047F1E7BB463F68002FAAD1CBE758
:10255000E8040020C026000000000000002301461F
:102560001A46184600F01EB838B50A4C0A4D641BCE
:10257000A4100AD004F18043013B05EB8305013C24
:1025800055F804399847002CF9D1BDE8384000F0DF
:1025900073B800BFF8040020F4040020704700BFA7
:1025A000704700BF2DE9F8432C4D06462868984631
:1025B0000F469146FFF7F2FF294B1C68D4F84831CB
:1025C000002B3ED05A681F2A1CDC02F1010E76B1A6
:1025D00003EB82010124C1F88890D3F8880194406C
:1025E0002043022EC3F88801C1F8088123D00232AB
:1025F000C3F804E0286843F82270FFF7D1FF0020F9
:10260000BDE8F883174B0BB34FF4C870AFF30080ED
:102610000346D8B1D4F848210260002141600A463F
:10262000C4F848014FF0010EC0F88811C0F88C11B1
:10263000002EDCD0CCE7D3F88C110C43C3F88C41CE
:10264000D5E704F5A673C4F84831BBE72868FFF75F
:10265000A7FF4FF0FF30BDE8F88300BFE80400207B
:10266000C026000000000000FEE700BFF8B500BF74
:10267000F8BC08BC9E467047F8B500BFF8BC08BC63
:102680009E467047000007410000000000B0004077
:102690000B000300E7E7E7E7C2C2C2C2E7C2C3C458
:1026A000C5C6C7C80000000002000004000000000A
:1026B00001000701C8260000C82600000400000031
:0826C000C00000200000000032
:0826C800A4DBFF7F010000000C
:1026D00001020000010000000000000001020000F3
:1026E000FA000300000102200000000000000000CA
:1026F00002010000000000000000000000000000D7
:1027000000000000000000000000000000000000C9
:1027100000000000000000000000000000000000B9
:1027200000000000000000000000000000000000A9
:102730000000000000000000000000000000000099
:102740000000000000000000000000000000000089
:102750000000000000000000000000000000000079
:102760000000000000000000000000000000000069
:102770000000000028230000E7E7E7E7C2C2C2C26A
:10278000E7C2C3C4C5C6C7C80805FF020090D0038E
:1027900000000000AC030020140400207C04002092
:1027A0000000000000000000000000000000000029
:1027B0000000000000000000000000000000000019
:1027C0000000000000000000000000000000000009
:1027D00000000000000000000000000000000000F9
:1027E00000000000000000000000000000000000E9
:1027F00000000000000000000000000000000000D9
:1028000000000000000000000000000000000000C8
:1028100000000000000000000000000000000000B8
:1028200000000000000000000000000000000000A8
:102830000000000000000000010000000000000097
:102840000E33CDAB34126DE6ECDE05000B0000005C
:102850000000000000000000000000000000000078
:102860000000000000000000000000000000000068
:102870000000000000000000000000000000000058
:102880000000000000000000000000000000000048
:102BB0000000000000000000282600206124000022
:0C2BC000250200000102000000000000DF
:040000030000187D64
:00000001FF
