:1000000000800020B51E0000DD1E0000DF1E000085
:10001000E11E0000E31E0000E51E000000000000DD
:10002000000000000000000000000000E71E0000CB
:10003000E91E000000000000EB1E0000ED1E0000A5
:100040003D260000350F00008D2E0000F11E00003F
:10005000EF1E0000EF1E0000EF1E0000592A0000F6
:10006000EF1E0000EF1E0000EF1E00001D28000024
:10007000EF1E0000EF1E0000EF1E0000EF1E00004C
:10008000EF1E000021290000EF1E0000EF1E0000FF
:1000900019120000EF1E0000EF1E0000EF1E00000E
:1000A000EF1E0000EF1E0000F9170000EF1E000019
:1000B000EF1E0000EF1E0000000000000000000026
:1000C000EF1E0000EF1E0000EF1E0000EF1E0000FC
:1000D000EF1E0000EF1E0000EF1E000000000000F9
:1000E0000000000000000000000000000000000010
:1000F0000000000000000000000000000000000000
:1001000000000000000000000000000000000000EF
:1001100000000000000000000000000000000000DF
:1001200000000000000000000000000000000000CF
:1001300000000000000000000000000000000000BF
:1001400000000000000000000000000000000000AF
:10015000000000000000000000000000000000009F
:10016000000000000000000000000000000000008F
:10017000000000000000000000000000000000007F
:10018000000000000000000000000000000000006F
:10019000000000000000000000000000000000005F
:1001A000000000000000000000000000000000004F
:1001B000000000000000000000000000000000003F
:1001C000000000000000000000000000000000002F
:1001D000000000000000000000000000000000001F
:1001E000000000000000000000000000000000000F
:1001F00000000000000000000000000000000000FF
:1002000010B5054C237833B9044B13B10448AFF350
:1002100000800123237010BDFC04002000000000BA
:10022000CC3300000C4B43B10C480D4910B5AFF373
:1002300000800C48036823B910BD0A48036833B92D
:100240007047094B002BF7D0BDE810401847064B0C
:10025000002BF5D0184700BF00000000CC33000091
:1002600000050020F804002000000000154B002BC2
:1002700008BF134B9D46A3F5803A00218B460F46DD
:100280001348144A121A02F003FF0F4B002B00D040
:1002900098470E4B002B00D0984700200021040007
:1002A0000D000D48002802D00C4802F0BDFF02F0FE
:1002B0002DFE2000290000F0E9F802F017FE00BF33
:1002C0000000080000800020000000000000000086
:1002D000FC0400207C26002029320000353200007A
:1002E000704700BF70B53C4B3C4A1B683C4C03F068
:1002F0004F03136082B000F083F900F0FDF922682B
:100300003848511CCB08A0FB03039B084FF4B47082
:1003100000FB1313002B4AD0334B0532A3FB02130F
:100320005B09C3EB0313B2EB830F2DD000F05CFC31
:10033000002001F055FB01F081FB0028FBD02B4B86
:100340002B4A93E8030002AB1F25009023F8085DB9
:10035000ADF804102748194602F0A0F900212548FD
:1003600002F046FA012319461722224802F0F6F954
:10037000204802F0DBF923680133236000F0A6F97E
:1003800000F048F902B070BD4FF0A04503234FF0D4
:100390008056C5F87037C5F8086500F0BBFA00F064
:1003A00071FA0223C5F80C65C5F87037E3E74FF022
:1003B000A04503234FF08056C5F87037C5F808658F
:1003C00000F0ACFB00F02CFB00F05CFA0223C5F857
:1003D0000C65C5F87037CEE758020010E40E0040F7
:1003E00018050020176CC1168988888850330000D2
:1003F000F90300007833000070B5044600F000F9FE
:1004000000F07AF9012C00D070BD1C4B1C481C6018
:1004100002F098F91B4E4FF0A04303214FF0805299
:10042000C3F870173446C3F80825204600F0F0FBE7
:100430000028FAD01348144D00F0EAFB00F098FBB6
:100440002C46204600F0A8FB0028FAD00E4800F009
:10045000A3FB3168286800F0A1FA00F013FA4FF00E
:10046000A0434FF080510222C3F80C15C3F8702747
:1004700000F02CF9BDE8704000F0CCB80810014045
:10048000783300001C0500202005002038B5404BC3
:10049000404A1B6803F04F03136000F027FC00285C
:1004A00072D100234FF0A042022003F5E071013326
:1004B000202B42F82100F8D14FF080410323012086
:1004C0004FF000544FF08055C2F87037C2F808550D
:1004D000C2F87437C2F80845C1F8780500F080F812
:1004E00000F0E8FA00212C4800F06EF904462B4891
:1004F00000F0CCF8294800F035FB002C40D128480A
:10050000284D00F089F8032000F0FEF900F016F9FC
:10051000402845F0010509D064244FF47A40A847EB
:10052000013CFAD100F00AF94028F5D100F0B2F907
:1005300000F0A8F94FF080434FF0A04000214FF0A9
:1005400003124FF000554FF08054C0F80C55C0F81E
:100550000C45C3F84019C3F84829C3F85019C3F82B
:100560005829C3F86019C3F86829C3F87019C3F88B
:10057000782900F0ABF800F04DF800F0CDFBFCE777
:10058000204600F06DFBBAE700F06AFB89E700BF88
:1005900058020010E40E0040E10200006833000041
:1005A000E50200006033000000B1704730B4084B32
:1005B000084C094A094901254FF480302560C3F8E9
:1005C0000403137809682B44137030BC084700BF3C
:1005D00000B0004008B000400000002024050020CA
:1005E00008B501F0E1F938B9002001F02FFA01F067
:1005F0006FFA0028FBD008BD00F032FBF4E700BF23
:1006000008B5002001F022FA01F062FA0028FBD0C0
:1006100008BD00BF01F048BA10B5184B82B0186091
:10062000002001F0DDF901F009FA0028FBD0144B9D
:10063000144A93E8030002AB40F2FF74009023F8E1
:10064000084DADF804101048194602F027F888B993
:1006500000210D4802F0CCF80123502200210A4865
:1006600002F07CF808B100F0FBFA074802F05EF8EF
:1006700002B010BD00F0F4FAEAE700BF2405002044
:1006800080330000A905000088330000F0B585B074
:1006900000231A250C4C009519274FF0CC76022523
:1006A00069461A4603932060019702968DF80C5014
:1006B00001F0DCF808B100F0D3FA2068043001F052
:1006C000AFFD05B0F0BD00BF2805002010B5084CF7
:1006D0002068043001F0B4FD2068043001F04AFDC8
:1006E000044B00221A60012219681A6010BD00BF75
:1006F00028050020FC3F0040F0B50F4C85B00025D8
:1007000003952B462A464FF01A0E19274FF0CC7648
:1007100002252068CDF800E06946019702968DF821
:100720000C5001F0A3F808B100F09AFA20680430E8
:1007300001F076FD05B0F0BD28050020F0B50027DA
:100740000E4E83B03D4601243068012304300DF184
:100750000302214601F054FE631C28B902AA2A4470
:10076000012702F8044C3D44DCB2802CECD10FB9D7
:100770008DF80470BDF8040003B0F0BD280500201A
:1007800010B50478012C12D00AD3022C0C4B02D1E4
:1007900001221A7010BD01221A7001221A7010BDB8
:1007A000084A074B0121117001221A7010BD00F098
:1007B00011FE044A024B147001221A7010BD00BFD2
:1007C0002C0500202D050020F0B5274A274D146880
:1007D000274B284E85B00746009402F108048E4648
:1007E00094E8030052682F6002AC032584E80300FC
:1007F000214FC6F800E00021022601921D7201225D
:10080000082518465F605E72D98159701A751A7092
:10081000DD7400F0B9FB08B105B0F0BD684600F02A
:10082000EFFD0028F8D101A800F090FE0028F3D1D8
:100830002046294600F050FF0028EDD1322000F07C
:10084000C7FF0028E8D10D4A0D4E10704FF08041CF
:100850004FF00F14D1F800341571234050713360FC
:10086000C1F80044D8E700BF9033000038050020ED
:100870000400002034050020810700001C00002037
:100880003C050020024A1378002BFCD0704700BFC3
:100890002C050020F0B5184A184B12681878184C2F
:1008A000110E002361F30703110C83B061F30F23D2
:1008B000110A61F3174302A962F31F63002541F88F
:1008C000043D4FF0010E40F08003092604225A2710
:1008D00004F10A00A37184F802E067722570E571E3
:1008E00025722671667102F039FB064B20461D7099
:1008F00000F0D0FC03B0F0BD3C050020010000205A
:100900001C0000202C050020014B1870704700BF10
:1009100001000020F0B51C4D1C4B2A6819781C48BA
:100920001C4C160E002366F30703160C66F30F2308
:10093000160A83B066F3174362F31F630093D0F87F
:100940000C358DF8043041F080035A214FF0010E30
:1009500000260A270522617204F10A006946A37184
:1009600084F802E084F807E0267026722771677128
:1009700002F0F4FA084B20461E7000F08BFC286849
:10098000431C2B6003B0F0BD3005002001000020A7
:10099000001000401C0000202C050020F0B51D4B6D
:1009A0001D4C1B7885B005160614021243F0800317
:1009B0004FF0010EB6274FF05A0C8DF803008DF85A
:1009C0000710A37184F802E00B0A4FEA116EE77179
:1009D0008DF800500F0C00258DF801608DF8022075
:1009E0000D260822694604F10A0084F809C08DF832
:1009F00004E08DF806308DF805702570257226719B
:100A0000667102F0ABFA054B20461D7000F042FC07
:100A100005B0F0BD010000201C0000202C050020C6
:100A2000F0B5134B134C1B7883B00246022643F0FB
:100A3000800301214FEA102E00258DF80520A371B7
:100A400032460723A1705A2701A904F10A008DF844
:100A500004E023716371677225702572E67102F0FC
:100A60007DFA054B20461D7000F014FC03B0F0BD6C
:100A7000010000201C0000202C05002003788BB909
:100A800043680A4AB3F9003003EB8303C3EB031353
:100A9000DB0048BF03F2FF339B1203EB43035B0011
:100AA00046331380024B01221A707047A4000020C5
:100AB0004205002000B51449144885B002F0AEF894
:100AC000F8B9134B93E8070001AB03C301A9002059
:100AD0001A7002F0F1F808B100F0C2F80D4B0E48A0
:100AE000002201211A7002F051F938B902F0AEF972
:100AF00008B100F0B5F805B05DF804FB00F0B0F8FF
:100B0000F4E700F0ADF8DCE77D0A0000AC3300004C
:100B1000A0330000420500204005002038B50E4CEF
:100B2000237803B9FEE70D4B1D8802F0A7F90346B1
:100B300008B1284638BD01210948237002F026F982
:100B400038B902F083F90028F3D000F089F828467C
:100B500038BD00F085F8F4E742050020A40000202D
:100B600040050020014B1860704700BF440500207D
:100B700000B5084B85B0186804AAE021002302F8EC
:100B8000011D043000934021012301F077FB05B0E3
:100B90005DF804FB4405002010B5124B1A6882B0C2
:100BA000022304464021101D01AA01F029FC48F24D
:100BB0000123984213D09DF805309DF8042003F0DE
:100BC000FC0343EA022245F2CD5303FB02F35B131D
:100BD000A3F53743023B0120236002B010BD002083
:100BE00002B010BD4405002000B5084B85B0186860
:100BF00004AAF521002302F8011D043000934021CE
:100C0000012301F03BFB05B05DF804FB4405002027
:100C100010B5124B1A6882B0022304464021101D01
:100C200001AA01F0EDFB48F20123984213D09DF890
:100C300005309DF8042003F0FC0343EA022243F64A
:100C4000095303FB02F35B0BA3F5BB53103B0120DD
:100C5000236002B010BD002002B010BD440500208A
:100C600000B585B000230390194601AA44F20100A3
:100C70000193029300F004F805B05DF804FB00BF97
:100C800072B6094B1B68DB0700D500BEBFF34F8F60
:100C90000649074BCA6802F4E0621343CB60BFF316
:100CA0004F8F00BFFDE700BFF0ED00E000ED00E07A
:100CB0000400FA0572B6024A1368013313607047E4
:100CC00048050020034A1368013B136003B962B66C
:100CD000704700BF4805002001600B6843604A6808
:100CE000934204BF00234360704700BF064A074B8E
:100CF00010B5002414701C60BFF35F8F04490548D1
:100D0000FFF7EAFF204610BD5405002058050020DB
:100D1000B03300004C05002008B50020FFF7CAFFE3
:100D2000F1EE103A23F09F03E1EE103ABFF35F8F2C
:100D3000054B4022C3F884210020FFF7C3FF20BFEA
:100D400040BF20BF08BD00BF00E100E04FF080536E
:100D5000D3F8043103F47F43B3F5844F1DD04FF033
:100D60008053D3F8043103F47F43B3F58A4F01D0A5
:100D700000207047F0B52C4B2C4A5C7CD2F81C1537
:100D80002B4BD2F82005052C18BF4FF07F4319409C
:100D90000340994212D00020F0BD2449254AD1F8E1
:100DA000503623F00103C1F85036136823F08073E6
:100DB00023F0010343F080731360D0E7D2F82435A9
:100DC000D2F82415D2F82405D2F82475D2F8284593
:100DD000D2F82855D2F82865D2F828E5DBB2C1F35D
:100DE0000722934214D0C0F30740834210D0B3EBE4
:100DF000176F0DD0E4B2A3420AD0C5F30725AB426A
:100E000006D0C6F30746B34202D0B3EB1E6FC2D181
:100E1000084A136823F0807323F0010343F08073C2
:100E200013600020F0BD00BFA800002000100040AB
:100E30000000FFFF741700402DE9F0413248334BAA
:100E40000268996A42F001020260002952D05A6A8F
:100E50002F4801320224072A01F1FF31996288BF2D
:100E60000022C0F880405A62294C9A6A0226266005
:100E7000002A3FD05A6A274FDFF8B0804FF4801124
:100E8000C4F8001153F82210234B0A79C8F8001057
:100E90000125053138461D6002F060F81F4B2049DE
:100EA0002048DFF88CE040F21312C3F80022102231
:100EB000C3F80423D8F800200D701178C0F800E0C2
:100EC000C3F82C151278184905FA02F2C97CC3F848
:100ED00030250022C3F80815C3F80475C4F88061F2
:100EE0002660C3F80421C3F80821C3F810211D604F
:100EF000BDE8F0810A49064B00204FF480120870CB
:100F0000C3F80021BDE8F0817C050020BC20002052
:100F100000E100E0202500208005002000100040B6
:100F200084050020AC250020A8000020A825002072
:100F3000390E0000124BD3F8002132B1D3F804234C
:100F4000D00744BF0022C3F800210D4BD3F80C2179
:100F500032B1D3F80423110744BF0022C3F80C2197
:100F6000074BD3F8102152B1D3F80423D20606D58B
:100F70000021044AC3F81011136803B118477047E1
:100F800000100040AC25002000283AD0F8B58C4D68
:100F90002B78DBB18B4B8C4F8C4E8D498D4A8E4C10
:100FA0004FF4705EC3F808E500233B704FF48017E0
:100FB000C6F8807003260B624B628B62C2F8C830A1
:100FC000C2F8CC30C2F8D030C4F80062834C844BF5
:100FD00042681A6001461822204601F0BFFF7E4A8F
:100FE000237A8048A17A00260660C2F80C15C2F860
:100FF0001035042B00F2CB80DFE803F0B2C4C90542
:10100000C4000E207047784B49221A600127627A8B
:10101000012A00F0AE800AD3022A40F0BC806E4B59
:1010200072494FF6FF70C3F83C05C3F83815704B92
:10103000A689587C684B6F49C3F83425421E41EAA3
:101040000242862E4FF00811C3F81415C3F8182574
:1010500040F29F80002F00F09C80674E5C48674FF5
:101060005C4A67494FF0E73EC3F81CE54FF0433E4A
:10107000C3F820E5C3F8247506F18707476006F535
:101080008777876006F29517C76006F507770761CF
:1010900006F2A327476106F22A37876106F2B137C5
:1010A000C761C3F828150027564B5749C2F8C870C6
:1010B000C2F8CC70C2F8D0700660076247628762DF
:1010C000043A42F8043F87338B42FAD1607C4F499F
:1010D000A27C3C4B3D4E3C4F4FF0040EC1F810E556
:1010E000440140F2022E0020C1F80805C1F800E2D8
:1010F000DFF820E1C3F860E5C3F86415A1F50E41FF
:10110000FC39C3F8681501F50F41C3F86C1501F5FA
:101110009E71C3F87015A1F511413039C3F87415EB
:1011200001F511413431C3F8781552012A49C3F849
:101130007C15E4B2D2B24FF4801E01214FF08053EF
:1011400086F8014386F81423C6F800E03870297049
:10115000D3F8043103F47F43B3F58A4F2AD0F8BDA6
:10116000214B40221A60627A012A4FF001077FF476
:1011700052AF194BFF2040F20711C3F83C05C3F8EA
:10118000381554E7184B30221A6001273FE7002733
:101190003DE70720F8BD164A164B527C0E49013A2E
:1011A00043EA02434FF00812C1F81425C1F818357C
:1011B0000720F8BD164A136843F480631360F8BD36
:1011C0007405002000F001408405002000E100E0EB
:1011D000BC20002088050020001000405C05002095
:1011E000780500207C050020A425002021100100A6
:1011F000A800002082000001E8200020E743C3236C
:10120000A363E3135C060020BA20002000A0004086
:101210003C1700400011004070B5194B194A1B786B
:10122000126882B001928BB1174B1849184D0222F7
:10123000C3F8802000260C680E601A602B682BB162
:10124000E10716D4A2070BD4630701D402B070BD26
:1012500002A8022300F8083D2B68984702B070BD31
:1012600002A8012300F8083D2B6898476307EDD5D5
:10127000EEE702A800F8086D9847A207E4D5EFE76B
:10128000740500208005002000E100E07C050020BE
:1012900078050020434B1B780BB908207047C0B17C
:1012A0000279531EDBB2812B01D9092070472DE949
:1012B000F0473D4C23782BB9E37C934202D20920BE
:1012C000BDE8F087394DAB6A072B04D90420BDE88F
:1012D000F0870E2070470378072B02D90720BDE85E
:1012E000F087334A2B6A324E01460220C2F8800052
:1012F00055F82300872201F031FE2B6A207C013350
:10130000072B88BF00232B62AB6A02270133AB6235
:10131000376030B9DFF8A89099F800401CB1BDE8FB
:10132000F0870020FBE76B6ADFF8988055F8231000
:10133000DFF894A01F4B0A79CAF800100125053187
:1013400040461D6001F00AFE1B4BDFF880E0DFF82D
:1013500080C01A4940F21312C3F800221022C3F8C9
:101360000423DAF8002089F800501078CEF800C085
:10137000C3F82C051278C97C05FA02F2C3F83025AF
:10138000C3F80815C3F80485C6F880713760C3F840
:101390000441C3F80841C3F810411D602046BDE870
:1013A000F08700BF740500205C050020BC200020F1
:1013B00000E100E08005002000100040A8000020AF
:1013C0008405002020250020A8250020AC25002031
:1013D000390E0000074B1B780BB908207047064BED
:1013E000064A00200221C2F880109862116018623B
:1013F0005862704774050020BC20002000E100E026
:10140000F8B54D4B1B780BB11120F8BD002800F04A
:1014100090804FF08053494CD3F8043103F47F435C
:10142000B3F5844F1ED001460422444801F096FDD6
:10143000236893FAA3F3424A4FF08051C2F81C3557
:10144000D1F8043103F47F43B3F5844F61D04FF0FA
:101450008053D3F8043103F47F43B3F58A4F14D09B
:101460000020F8BD617C374A0368052918BF4FF09A
:101470007F4293FAA3F31A42D5D1314BD3F82435E6
:1014800013F0FF0FCFD10720F8BD2D4A647C2D4B00
:10149000D2F81C15D2F82005052C18BF4FF07F4359
:1014A000194003409942DBD1D2F82435D2F82415F3
:1014B000D2F82405D2F82475D2F82845D2F8285558
:1014C000D2F82865D2F828E5DBB2C1F307229342AF
:1014D00014D0C0F30740834210D0B3EB176F0DD088
:1014E000E4B2A3420AD0C5F30725AB4206D0C6F347
:1014F0000746B34202D0B3EB1E6FB1D1124A136854
:1015000023F0807323F0010343F080731360002005
:10151000F8BDD2F850360C4923F00103C2F850361A
:101520000B6823F0807323F0010343F080730B609A
:101530008DE70E20F8BD00BF84050020A800002024
:10154000001000400000FFFF74170040F8B55C4B2E
:101550001B780BB11120F8BD00283BD04FF0805311
:10156000584CD3F8043103F47F43B3F5844F1ED0B5
:1015700001460422544801F0F1FC636893FAA3F396
:10158000524A4FF08051C2F82035D1F8043103F4AB
:101590007F43B3F5844F63D04FF08053D3F80431C9
:1015A00003F47F43B3F58A4F16D00020F8BD617C69
:1015B000474A0368052918BF4FF07F4293FAA3F307
:1015C0001A42D5D1414BD3F8242512F47F4F57D17D
:1015D0000720F8BD0E20F8BD3C4A647C3C4BD2F895
:1015E0001C15D2F82005052C18BF4FF07F43194079
:1015F00003409942D9D1D2F82435D2F82415D2F833
:101600002405D2F82475D2F82845D2F82855D2F806
:101610002865D2F828E5DBB2C1F30722934214D043
:10162000C0F30740834210D0B3EB176F0DD0E4B284
:10163000A3420AD0C5F30725AB4206D0C6F307463E
:10164000B34202D0B3EB1E6FAFD1224A136823F02E
:10165000807323F0010343F0807313600020F8BD12
:10166000D2F850361B4923F00103C2F850360B68FC
:1016700023F0807323F0010343F080730B608BE74A
:10168000D3F8242512F47F0FA2D0D3F8242512F02A
:101690007F4F9DD0D3F8282512F07F4F98D0D3F8F4
:1016A000282512F47F0F93D0D3F8282512F47F4F0A
:1016B0008ED0D3F8283513F0FF0F89D058E700BF3C
:1016C00084050020A8000020AC000020001000408D
:1016D0000000FFFF7417004038B5384B1B780BB182
:1016E000112038BD50B3082901D9072038BD4FF06B
:1016F0008053334DD3F8043103F47F43B3F5844F63
:101700001ED00C46224601462E4801F027FCC4F1AB
:101710000802FF231341AB742C74AB6893FAA3F354
:10172000294A1BBAC2F82435EB6893FAA3F31BBA13
:10173000C2F82835BDE83840FFF708BB0E2038BD99
:101740006A7C224B052A18BF4FF07F43002930D016
:101750001D4AD2F81C25134202D10278002AC4D0B7
:10176000194AD2F820251342CBD10129C9D0437898
:10177000002BBAD00229C4D08378002BB5D003291E
:10178000BFD0C378002BB0D00429BAD00379002B86
:10179000ABD00529B5D04379002BA6D00629B0D00F
:1017A0008379002BA1D00829ABD1C379002BA8D114
:1017B0009BE7054BD3F82035A3E700BF8405002045
:1017C000A8000020B0000020001000400000FFFF33
:1017D000074B1B7813B1112318467047642802D9B0
:1017E000072318467047034AD0741846704700BF55
:1017F00084050020A8000020074BD3F8402132B117
:101800000021064AC3F840111378032B00D070471B
:10181000034B01221A61704700A00140840500209B
:1018200000100040F0B585B0057804790D4A0E4BE4
:10183000477986688DF800508DF80440C5680469C2
:101840004069039053F821308DF805708DF80660DB
:101850008DF80750029452F821106846984705B059
:10186000F0BD00BFB0250020B82500202DE9F04FC5
:10187000824690F80090384D384845F829300C469B
:10188000497B40F8292081B0934669B9344ABBF1BD
:10189000000F4B4621460AF1040008BF002201B0A8
:1018A000BDE8F04F00F0E2BB23682E4A4FF0A045A0
:1018B00003F5E07340F20C6145F82310636803F50B
:1018C000E073012745F82310236807FA03F3C5F8EE
:1018D0000835636807FA03F3C5F80835236803F58C
:1018E000E07340F20D6145F82310636803F5E0737F
:1018F00042EA070845F823104FF48070C0470026DD
:101900006268D5F81035D340DB074FF4807020D4DF
:10191000236807FA03F3C5F80C35C047236807FAB4
:1019200003F30136C5F808354FF48070C047092E1F
:10193000E6D1626801254FF0A04605FA02F2C6F82A
:101940000C254FF48070C04763689D40C6F8085569
:101950009CE7002EEED199E7B0250020B8250020A5
:1019600025180000C033000010B568B101280AD165
:101970000C4C2369A07033B10CCB01202261984735
:101980002369002BF8D110BD064CA36801226270B8
:10199000002BF8D00CCB0020A2609847A368002B46
:1019A000F8D110BDC025002010B50B4C237882B0B3
:1019B00013B1852002B010BD08486360A3602361A5
:1019C000E36000F0C3FD019000F0CEFD019801231B
:1019D000237002B010BD00BFC025002069190000AF
:1019E00038B5154DAB78044673B110B1436801208A
:1019F00098470020FFF75EF9EB680133EB600020A9
:101A0000BDE83840FFF75EB903F0FF00FFF752F979
:101A100064B12A6942B1944208D0134601E09C4265
:101A200004D01B68002BFAD122602C61EB68002BDC
:101A3000E2D100F0ADFDDFE7C02500204FF080438C
:101A4000D3F81804C0F30040704700BF38B5154DF7
:101A50006B78044673B110B14368002098470020AA
:101A6000FFF728F96B6801336B600020BDE8384050
:101A7000FFF728B903F0FF00FFF71CF964B1AA686B
:101A800042B1944208D0134601E09C4204D01B6846
:101A9000002BFAD12260AC606B68002BE2D100F021
:101AA000A7FDDFE7C025002038B5084C0020FFF770
:101AB00001F96368013B6360656815B900F0AAFD30
:101AC00065700020BDE83840FFF7FCB8C025002055
:101AD0004FF08043D3F80C0400F00110A0F1011086
:101AE000B0FA80F040097047F0B4B44B1A78062A77
:101AF00020D0B34B1B68062B00F08A80B14AD2F885
:101B0000883043F47003C2F88830BFF34F8FBFF3BF
:101B10006F8F4FF01023D3F80022002AC0F28A8181
:101B2000D3F80432002BC0F28581A74BA74A1A6074
:101B3000F0BC704704331B681807DAD1A44B1B684C
:101B400003F0F002302A00F0658103F0E003402B3F
:101B500000F060819E4B1B6803F0F003302B00F017
:101B60001E819B4B1B6803F0F002302A00F00781B6
:101B700003F0E003402B00F00281954B1B6803F05B
:101B8000F003302B00F0EB80914B1B6803F0F00268
:101B9000302A00F0D08003F0E003402B00F0CB802F
:101BA0008B4B1B6803F0F003302B00F0B680884BA2
:101BB0001B6803F0F003302B00F09880844B1B6807
:101BC00003F0F003502B3FD0814B1B6803F0F00271
:101BD000302A28D003F0E003402B24D07C4B1B6834
:101BE00003F0F002302A03D003F0E003402B80D151
:101BF0004FF08043D3F80024D2077FF57AAF6FF01F
:101C00000102C3F800246E4B1B68062B7FF476AFED
:101C1000704B1B68062B7FF471AF6F4A136843F457
:101C2000806313606AE76D4B6D4A1B6803F04F03D6
:101C30001360624B1B78062B7FF45BAF694B1B680C
:101C400018077FF456AFC9E74FF08052664BD2F8C1
:101C50000414C3F82015D2F80814C3F82415D2F8D8
:101C60000C14C3F82815D2F81014C3F82C15D2F8A8
:101C70001414C3F83015D2F81814C3F83415D2F878
:101C80001C14C3F84015D2F82014C3F84415D2F838
:101C90002414C3F84815D2F82814C3F84C15D2F808
:101CA0002C14C3F85015D2F83014C3F85415D2F8D8
:101CB0003414C3F86015D2F83814C3F86415D2F898
:101CC0003C14C3F86815D2F840143C48C3F86C15AE
:101CD000D2F844140278C3F87015062A7FF409AFCD
:101CE000404B1B681C077FF404AF6DE73F4E404C30
:101CF0004049414B0527012500203F2237602560E0
:101D000008601A602D4B1B78062B7FF4F2AE354B22
:101D10001B681D077FF4EDAE50E7284B374A1B7850
:101D20000321062B11607FF4E4AE2E4B1B681E07C7
:101D30007FF4DFAE3BE74FF080430022C3F80C2175
:101D4000C3F81021C3F838251C4B1B78062B7FF4F1
:101D500070AF244B1B681F077FF4CBAE20E72849E8
:101D6000164ACB68127823F08073062ACB607FF482
:101D7000C0AE1C4B1B681B077FF4BBAE04E7214BB6
:101D80000E4A1B6812782049C3F34233062A0B60BF
:101D9000B8D1144B1B681A077FF4ABAEEDE6074BC6
:101DA0001A4A1B781A491160062B7FF4A2AE0D4B1C
:101DB0001B6819077FF49DAED3E600BFE00F00F06B
:101DC0003001001000ED00E0BC0000200090D003C6
:101DD000E80F00F0340100103C17004058020010DA
:101DE000E40E0040E40F00F000C000401056004038
:101DF000885600401856004014560040A005004088
:101E0000F0ED00E0440200103C05004074C00740C3
:101E10000DF0ADBA204B214A1B6812782049C3F35C
:101E20000423062A0B608FD11E4B1B6819073FF451
:101E300091AE5EE61C4B0122C3F80425D3F80024C2
:101E4000002AFBD04FF0102315221749C3F80022B7
:101E5000D1F80034002BFBD04FF010221521124B8B
:101E6000C2F80412D3F80024002AFBD000220E4945
:101E7000C3F80425D1F80034002BFBD0BFF34F8FFB
:101E80000A490B4BCA6802F4E0621343CB60BFF30C
:101E90004F8F00BFFDE700BF24030010E00F00F0EC
:101EA00040350140E40F00F000E0014000ED00E0AB
:101EB0000400FA050649074A074B9B1A03DD043B59
:101EC000C858D050FBDCFFF70FFEFEF7CFF900003B
:101ED000D833000000000020FC040020FEE7FEE7ED
:101EE000FEE7FEE7FEE7FEE7FEE7FEE7FEE7FEE7CA
:101EF000F0B55B4BD3F824218DB0BAB10022C3F802
:101F00002421D3F824210592059AD3F804216AB933
:101F1000544A02219068C3F8080391609268C3F89C
:101F2000042301221A625A610DB0F0BD4C4C4D4D94
:101F3000D4F80431002B2FD00023C4F8043105F16C
:101F40000C070FCF07AED4F804E13F68CDF810E0DE
:101F50000FC695F82E30049A3760002B36D02B7BB5
:101F6000012B79D0D4F84C250892022B71D03C4B30
:101F7000D3F84C253A4B09920022C3F86021D3F8DC
:101F8000601102910299C3F85C21D3F85C3103938C
:101F9000039B95F8302028E0C4F84831D4F8482154
:101FA0002B7B0192019A002B3AD105F10C070FCF40
:101FB00007AE0FC695F830203B683360EAB92A4B6C
:101FC000C4F80022AA60C4F8083316E0C4F86031EF
:101FD000D4F860210292029AC4F85C31D4F85C31E2
:101FE00095F830200393039B3AB91D4B1E480021FE
:101FF000C3F80012A960C3F808031949D1F8C43422
:10200000C1F8C43499071DD501238DF818300AB9D9
:1020100085F82F202B68696806A898470DB0F0BD99
:102020004FF4007140F202220F4BC4F80012AA6074
:10203000C4F80833AB68C4F804330123A3602362F7
:102040000DB0F0BD13F0040318BF02238DF8183053
:10205000DDE7D4F83C258DE7D4F83C35089386E7D6
:1020600000300040D425002002029C012DE9F84FE9
:102070000779DFF8FC80342404FB07F408EB04053F
:1020800095F82D6016B10820BDE8F88F8A46834682
:10209000354900689946164600F0FEFE10B1112041
:1020A000BDE8F88F48F80460A860C5F8049085F88A
:1020B0002F0085F830009AF80D3085F83230DAF8C4
:1020C00000304FF0A04203F5E07340F20C6142F89B
:1020D0002310DAF8043003F5E07342F82310DBF83C
:1020E0000030DAF80020DAF80410C3F80825C3F845
:1020F0000C15DAF80820C3F8242526B3DBF8001005
:102100009AF80C30090B4AB2002A24DB02F1604233
:1021100002F561425B01DBB282F80033DBF800209C
:10212000120B42F3C40323F0604323F0030303F1D3
:10213000604303F5614302F01F02012101FA02F23C
:10214000C3F880211A60342303FB0783012283F83C
:102150002D20BDE8F88F054A01F00F015B010A440C
:10216000DBB21376DAE700BFF11E0000FCEC00E002
:10217000D4250020F8B50579264E342303FB05F35A
:102180000446F358002B42D0036823481B0B5AB275
:102190005209203203F01F03012101FA03F340F832
:1021A0002230227923681D49342707FB0262002070
:1021B0009060C3F80813D3F800124FF0010E21F419
:1021C000BC51C3F8001282F82DE0C3F8000507FBEC
:1021D0000567206800F07EFE97F8323083B92368E7
:1021E000D3F808354FF0A04203F5E073022142F81E
:1021F00023102368D3F80C3503F5E07342F823105D
:10220000342303FB0565002385F82D30F8BD2A46ED
:10221000C8E700BFD425002000E100E002029C01D5
:10222000037906490268342000FB031302200621CB
:1022300083F82D00C2F80015704700BFD425002098
:1022400010B40C4C027903680B49342000FB0242A5
:1022500000209060C3F80813D3F80012012421F481
:10226000BC51C3F8001282F82D40C3F800055DF898
:10227000044B7047D425002002029C012DE9F04F49
:102280008DB015469DF85840002C02F060444FF088
:1022900000020CBF94464FF0200CB4F1005F08928E
:1022A000079209920A920B9203D010200DB0BDE85C
:1022B000F08F90F804B0DFF844A106684FF03408BE
:1022C0001F4608FB0BA84B4BC6F8083398F82F3075
:1022D00003F0FF093BB1D8F80830C6F804331120E9
:1022E0000DB0BDE8F08F8DF81D1008970A9507AC6A
:1022F0008E460FCC01944FF0010488F82F40C6F8A9
:1023000088E5C6F80491D6F804E1CDF810E008F1AC
:102310000C0EAEE80F00049BC6F82491D6F82431C9
:102320000593019B059A1B68C6F8509588F8309074
:10233000C6F84095CEF80030C6F84455C6F8487542
:10234000BCF1000F18D14FF4007240F20223C6F81E
:1023500000224FF48271C8F808303423012203FBB5
:102360000BF33262B2605AF803005344A0B19B6889
:10237000C6F80433002099E71F4B4FF48072C6F86B
:102380000022C8F80830C6F84891D6F848310393BF
:10239000039B4FF4A471E0E71046314402E0D6F805
:1023A0002421D2B90B68002BF9D0342303FB0BAAEC
:1023B000D6F8C434C6F8C43400228AF82F20BBB142
:1023C00013F0020F48F2012048F2022208BF032056
:1023D00013F0040F18BF104668E7C6F82431D6F88A
:1023E00024310693069B30624FF482717061D4E70A
:1023F00018465BE702029C0100020400D42500207D
:102400002DE9F04F02F060448BB01646B4F1005F46
:102410004FF000020692059207920892099203D0AB
:1024200010200BB0BDE8F08F90F804B0DFF818A1D1
:1024300007684FF0340808FB0BF89E460AEB0809C2
:10244000404BC7F8083399F82F3003F0FF053BB134
:10245000D9F80830C7F8043311200BB0BDE8F08F6D
:102460004FF001038DF81510CDF818E008968DF89F
:10247000143005AC8C460FCC01944FF0010489F860
:102480002F40C7F888C5C7F80451D7F804C1CDF864
:1024900008C009F10C0CACE80F00029BC7F82451EE
:1024A000D7F824310393019B03981968C7F8505556
:1024B00040F202234FF48052C7F8405589F830505B
:1024C000C7F83465CCF80010C7F838E5C7F8002223
:1024D000C9F8083001233B623B605AF808302BB141
:1024E000D9F80830C7F8043328469AE7012302E0F8
:1024F000D7F82411D9B9D7F80421002AF8D0342309
:1025000003FB0BAAD7F8C434C7F8C43400228AF8F6
:102510002F20ABB113F0020F48F2012048F2022243
:1025200008BF032013F0040F18BF104679E7C7F85F
:102530002421D7F824210492049A3B627B61DAE7D4
:1025400018466EE702029C01D4250020054A137943
:102550000BB185207047012110605371184611712D
:10256000704700BF08260020084A136813F00103D3
:1025700005D1012182F80033C2F8801111604FF0BB
:1025800080430122C3F81825704700BF00E100E036
:1025900010B41349134B144A0020086083B0096833
:1025A00001914FF080410220019CC1F80403D868DA
:1025B00040F08071D960146844F0010313605168E1
:1025C00053685B1AB3F50A5FFAD30649074B1460E8
:1025D0000122C8601A6003B05DF8044B704700BF69
:1025E00004010040F0ED00E0001000E008000040B1
:1025F000074B00221A6082B01B68019301994FF0CB
:1026000080430122C3F804231A6002B0704700BF60
:1026100000010040074B01221A604FF08042D2F8BF
:102620000C3403F00113B3F1011FF8D0024B002268
:102630005A717047040000400826002010B5144B62
:102640001A6882B062B10021124A19601B68507981
:1026500000934FF080410123009CC1F8083390B1F2
:102660000D4B1A686AB100221A601B6801934FF083
:1026700080420221074B0198C2F808131B68012011
:10268000984702B010BD116853718847E8E700BF52
:1026900000010040082600200401004070B4437986
:1026A0001F4C204E03EB430546F82320655D15B112
:1026B000082070BC704790F904308A78002B27DB23
:1026C00003F1604303F561435201D2B283F8002362
:1026D00090F9042053099B0003F1604303F5614323
:1026E000012502F01F0205FA02F2C3F880211A60E8
:1026F00003680A88C3F8082543790879C97803EB89
:102700004303E218E55450709170002070BC70478C
:10271000054D03F00F0352011D44D2B22A76D7E7CC
:102720001026002018260020FCEC00E00368044A74
:1027300001211960437903EB43030221D15470470F
:10274000102600200368044901225A60437903EBF4
:102750004303CA54704700BF10260020F0B54FF461
:1027600080350468214E8D40C4F848530468C4F88D
:102770000853447904EB4404344483B0647822F071
:102780007F42D4B1046801F5A87744F82720046893
:10279000D4F804E5AEEB02077245427902EB42023F
:1027A000164488BF07F1FF17B27888BF07F57F4747
:1027B000974208DA0D2003B0F0BD046801F5A87651
:1027C00044F82620046823B90020C4F8445303B019
:1027D000F0BD5031890089B200236350625803680C
:1027E0000192019AC3F804530468EDE71026002013
:1027F00010B403680022C3F8002183B0D3F800317D
:10280000026801930123019CC2F8443311B10268AC
:10281000C2F8043303B05DF8044B704710B53B4B6E
:10282000D3F80423D20384B003D5394A11680029B0
:102830003CD1364BD3F80423940303D5354A1168B1
:10284000002942D1314BD3F80423500303D5324A37
:102850001168002949D12D4BD3F80423D10702D5A3
:10286000D3F80021B2B9294BD3F80423920702D53B
:10287000D3F804210AB904B010BD0022C3F8042122
:10288000264AD3F80431019305201368019A98472A
:1028900004B010BD0022C3F80021204AD3F8003153
:1028A000029304201368029A9847DCE74FF48031C2
:1028B0000020C3F84813194CC3F8081310601368BC
:1028C00003932368039A9847B3E74FF40031002439
:1028D000C3F848131148C3F808131460136803932E
:1028E0000368039A01209847ACE74FF48021002445
:1028F000C3F848130948C3F8081314601368039316
:102900000368039A02209847A5E700BF00B0004083
:1029100040B1004044B1004048B1004018260020BA
:1029200010B5474BD3F80423D10384B003D5454AEF
:102930001168002945D1424BD3F80423920303D5F3
:10294000414A116800294BD13D4BD3F8042354036D
:1029500003D53E4A1168002952D1394BD3F80423DC
:10296000100303D53A4A1168002959D1344BD3F8E2
:102970000423D10702D5D3F80021B2B9304BD3F8E4
:102980000423920702D5D3F804210AB904B010BD7C
:102990000022C3F804212F4AD3F804310193052003
:1029A0005368019A984704B010BD0022C3F8002173
:1029B000284AD3F80031029304205368029A9847BA
:1029C000DCE74FF480310020C3F84813214CC3F8F2
:1029D00008131060136803936368039A9847AAE783
:1029E0004FF400310024C3F848131A48C3F8081301
:1029F0001460136803934368039A01209847A3E780
:102A00004FF480210024C3F848131248C3F8081378
:102A10001460136803934368039A022098479CE765
:102A20004FF400210024C3F848130A48C3F80813E0
:102A30001460136803934368039A0320984795E74B
:102A40000010014040110140441101404811014073
:102A50004C110140182600202DE9F041684B1A68FE
:102A600088B0002A3CD1674F97F82E30002B45D113
:102A7000654B1A68002A5ED1644B1C68002C6AD131
:102A80007E699EB14FF000480125B6FA86F29300A8
:102A900003F58C7303F1804101F5E04128FA02F25D
:102AA000086826EA020620B9002EEED108B0BDE87B
:102AB000F081A3F58C730C6083F004020968049123
:102AC000C2F38002DB088DF819208DF818308DF8DC
:102AD00014503B68049A05A89847002ED5D1E5E725
:102AE0000022484F1A60196897F82E30009100991B
:102AF000002B39D097F82F30002B4ED1444B1A6859
:102B0000002AB5D000221A6097F82D0019687B8B37
:102B1000019184B2A34201994ED85FD0384B3D4A0F
:102B2000002119601B680293012302991360364B40
:102B30001A68002AA0D000221A6008A81B68039314
:102B4000022100F80C1D3B6803993A7498472F4BFB
:102B50001C68002C94D000221A601B680593059B0A
:102B60003A7408B0BDE8F081FA68786839898DF860
:102B700014300690ADF81C10002A2CD02648398B52
:102B80007A600122FB607983398102603B6805A885
:102B90009847002387F82F3066E7FB687868398903
:102BA0008DF814200690ADF81C10A3B1398B7B6012
:102BB000FA6079833981E9E73A897968164D1B1BF8
:102BC0009BB292B2D21A01EB42027B83C5F82C264B
:102BD000C5F83006A2E700233B74D7E7FB684BB18A
:102BE0000D497A83012287F82F20C1F82C36C1F8CD
:102BF000300693E701227B8387F82F208EE700BF02
:102C00000471004020260020107100401471004023
:102C1000007100400470004000700040214B93F8A8
:102C20002C200AB108207047F0B51F4C05781960B8
:102C3000C4F8F05545781D49C4F8F4556FF00045C7
:102C40001A74C678C4F8085383B00A600968184D2E
:102C5000019101992A60817883F82E602D681548CA
:102C60000095490183F82D205A6183F82F20802593
:102C7000C9B202270122F6B2DDF800E083F82C2069
:102C800080F80713C0F880510560C4F804730EB1D2
:102C9000C4F80423044B01220020C3F8002503B02C
:102CA000F0BD00BF202600200070004004710040ED
:102CB0000071004000E100E0324A137C0BB11120AA
:102CC0007047F0B50C79012C55D900F10C0502EBD9
:102CD00045031B79002B43D04B788E780F7891F801
:102CE00003E01B01360206F4E06603F030033343D1
:102CF00007F003064F794FEA0E3E33430EF4805E31
:102D00008E793F0507F4801743EA0E033B433606EE
:102D10001D4F06F08076240402EB450204F4E02403
:102D2000334307EB00150001CE791671234300F100
:102D300080400C7A547100F5E040C5F81835CB7925
:102D40000A7AC0F81425C0F81035CB790A7AC0F891
:102D50001425C0F810350B79012B07D90020F0BDE0
:102D600092F82D30013382F82D30B5E70123C7F8F2
:102D700000350020F0BD03F0FF05034BC3F80055FC
:102D80000C79A2E72026002000700040F0B42C4A05
:102D90002C4B1224C2F808431D7C022D82B01CD09B
:102DA0001C7C012C1FD093F82E405860022701256F
:102DB0000026C2F804731D74DE601981E4B9224B49
:102DC000C2F82C06C2F830161C601B680193019BE8
:102DD0001560204602B0F0BC70471120C2F80443D1
:102DE00002B0F0BC7047DC688CB102231120C2F83D
:102DF000043302B0F0BC704793F82D40C2F82C06A3
:102E000030465983C2F8304602B0F0BC704793F8A0
:102E10002E20D86019836AB90B4A1368002BFCD0A6
:102E2000002313601268064B0092009AC3F82C0628
:102E3000C3F83016024B0222C3F804230020C9E76E
:102E4000007000402026002000710040084A137CDA
:102E5000DBB2012B01D00820704792F82E0010B988
:102E6000044A13607047044A00201360704700BF93
:102E7000202600200470004000700040024B187CA7
:102E8000003018BF0120704720260020014B1B682E
:102E9000184700BF5026002038B50C4B984201D08F
:102EA000002038BD00200D46FDF704FF084B1C79BB
:102EB00024B10020FDF706FF112038BD0122204675
:102EC0001D601A71FDF7FEFE204638BD002000404F
:102ED00050260020034B984203D1034B00221A6076
:102EE0001A717047002000405026002008B50021CC
:102EF000044600F025F9044B1868C36B03B19847EA
:102F0000204600F017FA00BFC833000070B50F4E1E
:102F10000F4D761BB61018BF002405D0013455F8AC
:102F2000043B9847A642F9D10A4E0B4D761B00F0A0
:102F300003FAB61018BF002406D0013455F8043B3C
:102F40009847A642F9D170BD70BD00BFEC040020C7
:102F5000EC040020F4040020EC040020844641EA44
:102F6000000313F003036DD1403A41D351F8043B01
:102F700040F8043B51F8043B40F8043B51F8043B53
:102F800040F8043B51F8043B40F8043B51F8043B43
:102F900040F8043B51F8043B40F8043B51F8043B33
:102FA00040F8043B51F8043B40F8043B51F8043B23
:102FB00040F8043B51F8043B40F8043B51F8043B13
:102FC00040F8043B51F8043B40F8043B51F8043B03
:102FD00040F8043B51F8043B40F8043B51F8043BF3
:102FE00040F8043B51F8043B40F8043B403ABDD262
:102FF000303211D351F8043B40F8043B51F8043B04
:1030000040F8043B51F8043B40F8043B51F8043BC2
:1030100040F8043B103AEDD20C3205D351F8043B92
:1030200040F8043B043AF9D2043208D0D2071CBF5E
:1030300011F8013B00F8013B01D30B880380604687
:10304000704700BF082A13D38B078DD010F00303FD
:103050008AD0C3F10403D21ADB071CBF11F8013B6D
:1030600000F8013B80D331F8023B20F8023B7BE7BC
:10307000043AD9D3013A11F8013B00F8013BF9D2E7
:103080000B7803704B7843708B7883706046704781
:1030900070B4860746D0541E002A41D0CAB20346F7
:1030A00002E014F1FF343BD303F8012B9D07F8D164
:1030B000032C2ED9CDB245EA05250F2C45EA05454E
:1030C00019D903F110022646103E0F2E42F8105C6B
:1030D00042F80C5C42F8085C42F8045C02F1100211
:1030E000F2D8A4F1100222F00F0204F00F04103203
:1030F000032C13440DD91E462246043A032A46F8EF
:10310000045BFAD8221F22F003020432134404F0B5
:1031100003042CB1C9B21C4403F8011B9C42FBD12F
:1031200070BC704714460346C2E700BF024B13B1A0
:10313000024800F079B87047000000003532000006
:103140002DE9F04F354B85B00E460190186800F020
:103150008BF8334B1B68029303F5A4730393029B14
:10316000D3F8487137B3DDF80CA04FF00109D3460E
:103170007C68651E0ED4013407EB84044FF0000810
:10318000FEB1D4F800319E421BD0013D6B1CA4F16E
:103190000404F5D1234B6BB17B68002B39D13B681C
:1031A00043B13846CBF80030AFF30080DBF8007055
:1031B000002FDDD1194B186805B0BDE8F04F00F0C5
:1031C00055B87B682268013BAB420CBF7D60C4F8F8
:1031D0000080002AD9D0D7F88811D7F804A009FABE
:1031E00005F30B420FD0D7F88C110B420DD1D4F858
:1031F0008010019890477B685345B0D1DBF80030D0
:10320000BB42C2D0ABE79047F5E7D4F880009047C7
:10321000F1E7BB463F68002FAAD1CBE7E8040020C6
:10322000C833000000000000002301461A4618467B
:1032300000F01EB838B50A4C0A4D641BA4100AD021
:1032400004F18043013B05EB8305013C55F804394B
:103250009847002CF9D1BDE8384000F073B800BFA2
:10326000F8040020F4040020704700BF704700BF3E
:103270002DE9F8432C4D0646286898460F4691469E
:10328000FFF7F2FF294B1C68D4F84831002B3ED0E1
:103290005A681F2A1CDC02F1010E76B103EB820191
:1032A0000124C1F88890D3F8880194402043022E6D
:1032B000C3F88801C1F8088123D00232C3F804E0C2
:1032C000286843F82270FFF7D1FF0020BDE8F8839B
:1032D000174B0BB34FF4C870AFF300800346D8B15F
:1032E000D4F848210260002141600A46C4F8480130
:1032F0004FF0010EC0F88811C0F88C11002EDCD000
:10330000CCE7D3F88C110C43C3F88C41D5E704F516
:10331000A673C4F84831BBE72868FFF7A7FF4FF052
:10332000FF30BDE8F88300BFE8040020C833000088
:1033300000000000FEE700BFF8B500BFF8BC08BC05
:103340009E467047F8B500BFF8BC08BC9E46704763
:103350000000074100000000000000000000000025
:103360000338FDD870470000000000000030004026
:1033700000000000010000000010014011010400E5
:10338000000007410000000000B000400B000300F7
:10339000E7E7E7E7C2C2C2C2E7C2C3C4C5C6C7C83F
:1033A0000000000002000009000000000100070109
:1033B000D0330000D0330000040000000000000003
:1033C0000338FDD870470000C00000200000000056
:0833D0009CCEFF7F010000000C
:1033D80001030000010000000000000001020000DD
:1033E800FA000300000102200000000000000000B5
:1033F80002010000000000000000000000000000C2
:1034080000000000000000000000000000000000B4
:1034180000000000000000000000000000000000A4
:103428000000000000000000000000000000000094
:103438000000000000000000000000000000000084
:103448000000000000000000000000000000000074
:103458000000000000000000000000000000000064
:103468000000000000000000000000000000000054
:103478000000000028230000E7E7E7E7C2C2C2C255
:10348800E7C2C3C4C5C6C7C80805FF020090D00379
:1034980000000000AC030020140400207C0400207D
:1034A8000000000000000000000000000000000014
:1034B8000000000000000000000000000000000004
:1034C80000000000000000000000000000000000F4
:1034D80000000000000000000000000000000000E4
:1034E80000000000000000000000000000000000D4
:1034F80000000000000000000000000000000000C4
:1035080000000000000000000000000000000000B3
:1035180000000000000000000000000000000000A3
:103528000000000000000000000000000000000093
:103538000000000000000000010000000000000082
:103548000E33CDAB34126DE6ECDE05000B00000047
:103558000000000000000000000000000000000063
:103568000000000000000000000000000000000053
:103578000000000000000000000000000000000043
:103588000000000000000000000000000000000033
:1038B8000000000000000000582600202D31000004
:0C38C800250200000102000000000000CA
:0400000300001EB526
:00000001FF
